{
  "address": "0xa8bFD743512061d4E8D59F80136a0Fe0A6b05FF2",
  "abi": [
    {
      "inputs": [
        {
          "internalType": "address",
          "name": "signer_",
          "type": "address"
        },
        {
          "internalType": "address",
          "name": "egg_",
          "type": "address"
        },
        {
          "internalType": "address",
          "name": "rooster_",
          "type": "address"
        },
        {
          "internalType": "address",
          "name": "gaff_",
          "type": "address"
        },
        {
          "internalType": "address",
          "name": "gem_",
          "type": "address"
        }
      ],
      "stateMutability": "nonpayable",
      "type": "constructor"
    },
    {
      "inputs": [],
      "name": "IsPaused",
      "type": "error"
    },
    {
      "inputs": [],
      "name": "NotPaused",
      "type": "error"
    },
    {
      "inputs": [
        {
          "internalType": "string",
          "name": "role",
          "type": "string"
        },
        {
          "internalType": "address",
          "name": "user",
          "type": "address"
        }
      ],
      "name": "Unauthorized",
      "type": "error"
    },
    {
      "anonymous": false,
      "inputs": [
        {
          "indexed": true,
          "internalType": "address",
          "name": "user",
          "type": "address"
        },
        {
          "indexed": false,
          "internalType": "uint24[]",
          "name": "eggIds",
          "type": "uint24[]"
        }
      ],
      "name": "EggsHatched",
      "type": "event"
    },
    {
      "anonymous": false,
      "inputs": [
        {
          "indexed": true,
          "internalType": "address",
          "name": "previousOwner",
          "type": "address"
        },
        {
          "indexed": true,
          "internalType": "address",
          "name": "newOwner",
          "type": "address"
        }
      ],
      "name": "OwnerPulled",
      "type": "event"
    },
    {
      "anonymous": false,
      "inputs": [
        {
          "indexed": true,
          "internalType": "address",
          "name": "pushedOwner",
          "type": "address"
        }
      ],
      "name": "OwnerPushed",
      "type": "event"
    },
    {
      "anonymous": false,
      "inputs": [
        {
          "indexed": false,
          "internalType": "address",
          "name": "account",
          "type": "address"
        }
      ],
      "name": "Paused",
      "type": "event"
    },
    {
      "anonymous": false,
      "inputs": [
        {
          "indexed": true,
          "internalType": "string",
          "name": "role",
          "type": "string"
        },
        {
          "indexed": true,
          "internalType": "address",
          "name": "account",
          "type": "address"
        },
        {
          "indexed": true,
          "internalType": "address",
          "name": "sender",
          "type": "address"
        }
      ],
      "name": "RoleGranted",
      "type": "event"
    },
    {
      "anonymous": false,
      "inputs": [
        {
          "indexed": true,
          "internalType": "string",
          "name": "role",
          "type": "string"
        },
        {
          "indexed": true,
          "internalType": "address",
          "name": "account",
          "type": "address"
        },
        {
          "indexed": true,
          "internalType": "address",
          "name": "sender",
          "type": "address"
        }
      ],
      "name": "RoleRevoked",
      "type": "event"
    },
    {
      "anonymous": false,
      "inputs": [
        {
          "indexed": false,
          "internalType": "address",
          "name": "account",
          "type": "address"
        }
      ],
      "name": "Unpaused",
      "type": "event"
    },
    {
      "inputs": [],
      "name": "egg",
      "outputs": [
        {
          "internalType": "address",
          "name": "",
          "type": "address"
        }
      ],
      "stateMutability": "view",
      "type": "function"
    },
    {
      "inputs": [],
      "name": "gaff",
      "outputs": [
        {
          "internalType": "address",
          "name": "",
          "type": "address"
        }
      ],
      "stateMutability": "view",
      "type": "function"
    },
    {
      "inputs": [],
      "name": "gem",
      "outputs": [
        {
          "internalType": "address",
          "name": "",
          "type": "address"
        }
      ],
      "stateMutability": "view",
      "type": "function"
    },
    {
      "inputs": [
        {
          "internalType": "string",
          "name": "role",
          "type": "string"
        },
        {
          "internalType": "address",
          "name": "account",
          "type": "address"
        }
      ],
      "name": "grantRole",
      "outputs": [],
      "stateMutability": "nonpayable",
      "type": "function"
    },
    {
      "inputs": [
        {
          "internalType": "string",
          "name": "role",
          "type": "string"
        },
        {
          "internalType": "address",
          "name": "account",
          "type": "address"
        }
      ],
      "name": "hasRole",
      "outputs": [
        {
          "internalType": "bool",
          "name": "",
          "type": "bool"
        }
      ],
      "stateMutability": "view",
      "type": "function"
    },
    {
      "inputs": [],
      "name": "hasStarted",
      "outputs": [
        {
          "internalType": "bool",
          "name": "",
          "type": "bool"
        }
      ],
      "stateMutability": "view",
      "type": "function"
    },
    {
      "inputs": [
        {
          "internalType": "address",
          "name": "to",
          "type": "address"
        },
        {
          "internalType": "uint24[]",
          "name": "eggIds",
          "type": "uint24[]"
        },
        {
          "internalType": "uint256[]",
          "name": "breeds",
          "type": "uint256[]"
        },
        {
          "internalType": "uint256[]",
          "name": "gaffTypes",
          "type": "uint256[]"
        },
        {
          "internalType": "uint256[]",
          "name": "gemTypes",
          "type": "uint256[]"
        },
        {
          "components": [
            {
              "internalType": "bytes32",
              "name": "r",
              "type": "bytes32"
            },
            {
              "internalType": "bytes32",
              "name": "s",
              "type": "bytes32"
            },
            {
              "internalType": "uint8",
              "name": "v",
              "type": "uint8"
            }
          ],
          "internalType": "struct RoosterEggHatching.Sig",
          "name": "sig",
          "type": "tuple"
        }
      ],
      "name": "hatch",
      "outputs": [],
      "stateMutability": "nonpayable",
      "type": "function"
    },
    {
      "inputs": [],
      "name": "newOwner",
      "outputs": [
        {
          "internalType": "address",
          "name": "",
          "type": "address"
        }
      ],
      "stateMutability": "view",
      "type": "function"
    },
    {
      "inputs": [],
      "name": "owner",
      "outputs": [
        {
          "internalType": "address",
          "name": "",
          "type": "address"
        }
      ],
      "stateMutability": "view",
      "type": "function"
    },
    {
      "inputs": [],
      "name": "pause",
      "outputs": [],
      "stateMutability": "nonpayable",
      "type": "function"
    },
    {
      "inputs": [],
      "name": "paused",
      "outputs": [
        {
          "internalType": "bool",
          "name": "",
          "type": "bool"
        }
      ],
      "stateMutability": "view",
      "type": "function"
    },
    {
      "inputs": [],
      "name": "pullOwner",
      "outputs": [],
      "stateMutability": "nonpayable",
      "type": "function"
    },
    {
      "inputs": [
        {
          "internalType": "address",
          "name": "account",
          "type": "address"
        }
      ],
      "name": "pushOwner",
      "outputs": [],
      "stateMutability": "nonpayable",
      "type": "function"
    },
    {
      "inputs": [
        {
          "internalType": "string",
          "name": "role",
          "type": "string"
        }
      ],
      "name": "renounceRole",
      "outputs": [],
      "stateMutability": "nonpayable",
      "type": "function"
    },
    {
      "inputs": [
        {
          "internalType": "string",
          "name": "role",
          "type": "string"
        },
        {
          "internalType": "address",
          "name": "account",
          "type": "address"
        }
      ],
      "name": "revokeRole",
      "outputs": [],
      "stateMutability": "nonpayable",
      "type": "function"
    },
    {
      "inputs": [],
      "name": "rooster",
      "outputs": [
        {
          "internalType": "address",
          "name": "",
          "type": "address"
        }
      ],
      "stateMutability": "view",
      "type": "function"
    },
    {
      "inputs": [
        {
          "internalType": "uint256",
          "name": "startingTime_",
          "type": "uint256"
        }
      ],
      "name": "setStartingTime",
      "outputs": [],
      "stateMutability": "nonpayable",
      "type": "function"
    },
    {
      "inputs": [],
      "name": "startingTime",
      "outputs": [
        {
          "internalType": "uint256",
          "name": "",
          "type": "uint256"
        }
      ],
      "stateMutability": "view",
      "type": "function"
    },
    {
      "inputs": [],
      "name": "unpause",
      "outputs": [],
      "stateMutability": "nonpayable",
      "type": "function"
    }
  ],
  "transactionHash": "0x68e94ad4e6e73f54ac6f13eddb8a98399d0aac0af09ea65a193e5d511335b0b2",
  "args": [
    "0xC785994bB51ED41d801bB491B0CDa7CA1cEa3C56",
    "0xbDD4AE46B65977a1d06b365c09B4e0F429c70Aef",
    "0x4e1840824bbA1C3f78570f70D851ceA429902F1A",
    "0xB10c96F3d7ed114dD28d965957Aaf9eb70c79da0",
    "0x66114abB034ae65Bc4BEe161f08bdA4847e928D8"
  ],
  "numDeployments": 1,
  "solcInputHash": "c3f67b6f1cdd75ae245b66c81100f0da",
  "bytecode": "0x6101006040523480156200001257600080fd5b50604051620017a7380380620017a78339810160408190526200003591620001e7565b600080546001600160a01b0319163390811782556040519091907faac18e3887f7d855b2483e20615f8e3fb6efc18e25502090082b47047fb57c73908290a36001600160a01b0380851660805283811660a05282811660c052811660e05260408051808201909152600681526529a4a3a722a960d11b6020820152620000bc9086620000c7565b5050505050620002bd565b620000d3828262000169565b62000165576000620000f083620001b760201b62000bba1760201c565b60008181526003602090815260408083206001600160a01b038716808552925291829020805460ff19166001179055905191925033916200013390869062000257565b604051908190038120907fe0ca4f6d52d59033a91ab89e93c98f9acada14e0086d8b1038284f42e6d5325790600090a4505b5050565b6000600360006200018585620001b760201b62000bba1760201c565b8152602080820192909252604090810160009081206001600160a01b038616825290925290205460ff16905092915050565b6000620001c48262000295565b92915050565b80516001600160a01b0381168114620001e257600080fd5b919050565b600080600080600060a086880312156200020057600080fd5b6200020b86620001ca565b94506200021b60208701620001ca565b93506200022b60408701620001ca565b92506200023b60608701620001ca565b91506200024b60808701620001ca565b90509295509295909350565b6000825160005b818110156200027a57602081860181015185830152016200025e565b818111156200028a576000828501525b509190910192915050565b80516020808301519190811015620002b7576000198160200360031b1b821691505b50919050565b60805160a05160c05160e05161148d6200031a6000396000818161021701526106d6015260008181610259015261065401526000818161014701526105d2015260008181610293015281816105540152610d0a015261148d6000f3fe608060405234801561001057600080fd5b50600436106101215760003560e01c806370768f86116100ad57806396dc97861161007157806396dc978614610254578063ac5a7d5c1461027b578063c06abfc71461028e578063c19ae2ed146102b5578063d4ee1d90146102c857600080fd5b806370768f86146101ec578063731f21a0146101ff5780637bd2bea7146102125780638456cb59146102395780638da5cb5b1461024157600080fd5b806344691f7e116100f457806344691f7e1461019e5780635c975abb146101b6578063602504c5146101be5780636c9cd097146101d15780636cef16e6146101e457600080fd5b806339518b5e146101265780633d76ba95146101425780633f4ba83a146101815780633f52e5891461018b575b600080fd5b61012f60045481565b6040519081526020015b60405180910390f35b6101697f000000000000000000000000000000000000000000000000000000000000000081565b6040516001600160a01b039091168152602001610139565b6101896102db565b005b610189610199366004610f08565b61038f565b6101a6610408565b6040519015158152602001610139565b6101a661042e565b6101896101cc366004610faa565b610440565b6101a66101df366004611134565b610792565b6101896107d4565b6101896101fa366004611186565b610870565b61018961020d366004611134565b6108c6565b6101697f000000000000000000000000000000000000000000000000000000000000000081565b61018961094a565b600054610169906001600160a01b031681565b6101697f000000000000000000000000000000000000000000000000000000000000000081565b6101896102893660046111c3565b6109ef565b6101697f000000000000000000000000000000000000000000000000000000000000000081565b6101896102c3366004611134565b610afb565b600154610169906001600160a01b031681565b604051806040016040528060068152602001652820aaa9a2a960d11b8152506103048133610792565b61032e5780336040516309ab81ed60e01b8152600401610325929190611217565b60405180910390fd5b61033661042e565b61035357604051636cd6020160e01b815260040160405180910390fd5b60006002556040513381527f5db9ee0a495bf2e6ff9c91a7834c1ba4fdd244a5e8aa4e537bd38aeae4b073aa906020015b60405180910390a150565b6000546001600160a01b031633146103bc57336040516309ab81ed60e01b8152600401610325919061125b565b4281116104035760405162461bcd60e51b8152602060048201526015602482015274496e76616c6964207374617274696e672074696d6560581b6044820152606401610325565b600455565b6000600454421015801561041e57506000600454115b6104285750600090565b50600190565b60006002546001146104285750600090565b61044861042e565b1561046657604051631309a56360e01b815260040160405180910390fd5b61046e610408565b6104a85760405162461bcd60e51b815260206004820152600b60248201526a139bdd081cdd185c9d195960aa1b6044820152606401610325565b6104b787878787878787610bc5565b6104f75760405162461bcd60e51b815260206004820152601160248201527024b73b30b634b2103830b930b6b2ba32b960791b6044820152606401610325565b6105018989610cfb565b61053d5760405162461bcd60e51b815260206004820152600d60248201526c24b73b30b634b21037bbb732b960991b6044820152606401610325565b60405163148f829160e11b81526001600160a01b037f0000000000000000000000000000000000000000000000000000000000000000169063291f05229061058b908c908c9060040161129e565b600060405180830381600087803b1580156105a557600080fd5b505af11580156105b9573d6000803e3d6000fd5b5050604051634684d7e960e01b81526001600160a01b037f0000000000000000000000000000000000000000000000000000000000000000169250634684d7e9915061060d908d908b908b906004016112e6565b600060405180830381600087803b15801561062757600080fd5b505af115801561063b573d6000803e3d6000fd5b5050604051634684d7e960e01b81526001600160a01b037f0000000000000000000000000000000000000000000000000000000000000000169250634684d7e9915061068f908d90899089906004016112e6565b600060405180830381600087803b1580156106a957600080fd5b505af11580156106bd573d6000803e3d6000fd5b5050604051634684d7e960e01b81526001600160a01b037f0000000000000000000000000000000000000000000000000000000000000000169250634684d7e99150610711908d90879087906004016112e6565b600060405180830381600087803b15801561072b57600080fd5b505af115801561073f573d6000803e3d6000fd5b50505050336001600160a01b03167fdd77d0d54cb6c598cb286af7c1fdeb0a6b80fe575d77d22b361152a7532be49a8a8a60405161077e92919061129e565b60405180910390a250505050505050505050565b6000600360006107a185610bba565b8152602080820192909252604090810160009081206001600160a01b038616825290925290205460ff1690505b92915050565b6001546001600160a01b0316331461082357604080516309ab81ed60e01b8152600481019190915260096044820152682722abafa7aba722a960b91b6064820152336024820152608401610325565b60008054336001600160a01b03198216811783556040516001600160a01b0390921692909183917faac18e3887f7d855b2483e20615f8e3fb6efc18e25502090082b47047fb57c7391a350565b61087a8133610792565b6108b95760405162461bcd60e51b815260206004820152601060248201526f149bdb19481b9bdd0819dc985b9d195960821b6044820152606401610325565b6108c38133610dfb565b50565b6000546001600160a01b031633146108f357336040516309ab81ed60e01b8152600401610325919061125b565b6108fd8282610792565b61093c5760405162461bcd60e51b815260206004820152601060248201526f149bdb19481b9bdd0819dc985b9d195960821b6044820152606401610325565b6109468282610dfb565b5050565b604051806040016040528060068152602001652820aaa9a2a960d11b8152506109738133610792565b6109945780336040516309ab81ed60e01b8152600401610325929190611217565b61099c61042e565b156109ba57604051631309a56360e01b815260040160405180910390fd5b60016002556040513381527f62e78cea01bee320cd4e420270b5ea74000d11b0c9f74754ebdbfc544b05a25890602001610384565b6000546001600160a01b03163314610a1c57336040516309ab81ed60e01b8152600401610325919061125b565b6001600160a01b038116610a625760405162461bcd60e51b815260206004820152600d60248201526c4e6f206164647265737328302960981b6044820152606401610325565b6000546001600160a01b0382811691161415610ab15760405162461bcd60e51b815260206004820152600e60248201526d27b7363c903732bb9037bbb732b960911b6044820152606401610325565b600180546001600160a01b0319166001600160a01b0383169081179091556040517fd52a054f85e9a057277cd95bf6d5da45465068f0467ec7991f3fcc017be6b72590600090a250565b6000546001600160a01b03163314610b2857336040516309ab81ed60e01b8152600401610325919061125b565b6000825111610b6a5760405162461bcd60e51b815260206004820152600e60248201526d2937b632903737ba1033b4bb32b760911b6044820152606401610325565b6001600160a01b038116610bb05760405162461bcd60e51b815260206004820152600d60248201526c4e6f206164647265737328302960981b6044820152606401610325565b6109468282610e79565b60006107ce82611333565b60008033898989898989604051602001610be59796959493929190611384565b604051602081830303815290604052805190602001209050600081604051602001610c3c91907f19457468657265756d205369676e6564204d6573736167653a0a3332000000008152601c810191909152603c0190565b604051602081830303815290604052805190602001209050610ced6040518060400160405280600681526020016529a4a3a722a960d11b815250600183876040016020810190610c8c91906113ca565b604080516000815260208181018084529490945260ff909216908201528835606082015290880135608082015260a0016020604051602081039080840390855afa158015610cde573d6000803e3d6000fd5b50505060206040510351610792565b9a9950505050505050505050565b6000805b82811015610df157337f00000000000000000000000000000000000000000000000000000000000000006001600160a01b0316636352211e868685818110610d4957610d496113ed565b9050602002016020810190610d5e9190611403565b6040516001600160e01b031960e084901b16815262ffffff909116600482015260240160206040518083038186803b158015610d9957600080fd5b505afa158015610dad573d6000803e3d6000fd5b505050506040513d601f19601f82011682018060405250810190610dd1919061141e565b6001600160a01b031614610de95760009150506107ce565b600101610cff565b5060019392505050565b6000610e0683610bba565b60008181526003602090815260408083206001600160a01b038716808552925291829020805460ff1916905590519192503391610e4490869061143b565b604051908190038120907ff3a2b91552b535c273a48d8b7453c8b0b287e20e51d74121eb50d975dbaa506d90600090a4505050565b610e838282610792565b610946576000610e9283610bba565b60008181526003602090815260408083206001600160a01b038716808552925291829020805460ff1916600117905590519192503391610ed390869061143b565b604051908190038120907fe0ca4f6d52d59033a91ab89e93c98f9acada14e0086d8b1038284f42e6d5325790600090a4505050565b600060208284031215610f1a57600080fd5b5035919050565b6001600160a01b03811681146108c357600080fd5b8035610f4181610f21565b919050565b60008083601f840112610f5857600080fd5b50813567ffffffffffffffff811115610f7057600080fd5b6020830191508360208260051b8501011115610f8b57600080fd5b9250929050565b600060608284031215610fa457600080fd5b50919050565b6000806000806000806000806000806101008b8d031215610fca57600080fd5b610fd38b610f36565b995060208b013567ffffffffffffffff80821115610ff057600080fd5b610ffc8e838f01610f46565b909b50995060408d013591508082111561101557600080fd5b6110218e838f01610f46565b909950975060608d013591508082111561103a57600080fd5b6110468e838f01610f46565b909750955060808d013591508082111561105f57600080fd5b5061106c8d828e01610f46565b909450925061108090508c60a08d01610f92565b90509295989b9194979a5092959850565b634e487b7160e01b600052604160045260246000fd5b600082601f8301126110b857600080fd5b813567ffffffffffffffff808211156110d3576110d3611091565b604051601f8301601f19908116603f011681019082821181831017156110fb576110fb611091565b8160405283815286602085880101111561111457600080fd5b836020870160208301376000602085830101528094505050505092915050565b6000806040838503121561114757600080fd5b823567ffffffffffffffff81111561115e57600080fd5b61116a858286016110a7565b925050602083013561117b81610f21565b809150509250929050565b60006020828403121561119857600080fd5b813567ffffffffffffffff8111156111af57600080fd5b6111bb848285016110a7565b949350505050565b6000602082840312156111d557600080fd5b81356111e081610f21565b9392505050565b60005b838110156112025781810151838201526020016111ea565b83811115611211576000848401525b50505050565b60408152600083518060408401526112368160608501602088016111e7565b6001600160a01b0393909316602083015250601f91909101601f191601606001919050565b60408082526005908201526427aba722a960d91b60608201526001600160a01b0391909116602082015260800190565b803562ffffff81168114610f4157600080fd5b60208082528181018390526000908460408401835b868110156112db5762ffffff6112c88461128b565b16825291830191908301906001016112b3565b509695505050505050565b6001600160a01b0384168152604060208201819052810182905260006001600160fb1b0383111561131657600080fd5b8260051b8085606085013760009201606001918252509392505050565b80516020808301519190811015610fa45760001960209190910360031b1b16919050565b60006001600160fb1b0383111561136d57600080fd5b8260051b8083863760009401938452509192915050565b6bffffffffffffffffffffffff198860601b16815260006113bd6113b66113af601485018a8c611357565b8789611357565b8486611357565b9998505050505050505050565b6000602082840312156113dc57600080fd5b813560ff811681146111e057600080fd5b634e487b7160e01b600052603260045260246000fd5b60006020828403121561141557600080fd5b6111e08261128b565b60006020828403121561143057600080fd5b81516111e081610f21565b6000825161144d8184602087016111e7565b919091019291505056fea264697066735822122071942932bf8748a612bcb3a96c5ae34198ab5d471cfbbdacc4a493ea6782875e64736f6c63430008090033",
  "devdoc": {
    "kind": "dev",
    "methods": {
      "hatch(address,uint24[],uint256[],uint256[],uint256[],(bytes32,bytes32,uint8))": {
        "params": {
          "breeds": "Array of rooster breeds to mint",
          "eggIds": "Array of rooster egg ids to burn",
          "gaffTypes": "Array of gaff amounts to mint (Index number corresponds to gaff id)",
          "gemTypes": "Array of gem ids to mint"
        }
      }
    },
    "version": 1
  },
  "userdoc": {
    "kind": "user",
    "methods": {},
    "version": 1
  },
  "storageLayout": {
    "storage": [
      {
        "astId": 12158,
        "contract": "contracts/egg/EggHatching.sol:RoosterEggHatching",
        "label": "owner",
        "offset": 0,
        "slot": "0",
        "type": "t_address"
      },
      {
        "astId": 12160,
        "contract": "contracts/egg/EggHatching.sol:RoosterEggHatching",
        "label": "newOwner",
        "offset": 0,
        "slot": "1",
        "type": "t_address"
      },
      {
        "astId": 12162,
        "contract": "contracts/egg/EggHatching.sol:RoosterEggHatching",
        "label": "_paused",
        "offset": 0,
        "slot": "2",
        "type": "t_uint256"
      },
      {
        "astId": 12168,
        "contract": "contracts/egg/EggHatching.sol:RoosterEggHatching",
        "label": "_roles",
        "offset": 0,
        "slot": "3",
        "type": "t_mapping(t_bytes32,t_mapping(t_address,t_bool))"
      },
      {
        "astId": 6336,
        "contract": "contracts/egg/EggHatching.sol:RoosterEggHatching",
        "label": "startingTime",
        "offset": 0,
        "slot": "4",
        "type": "t_uint256"
      }
    ],
    "types": {
      "t_address": {
        "encoding": "inplace",
        "label": "address",
        "numberOfBytes": "20"
      },
      "t_bool": {
        "encoding": "inplace",
        "label": "bool",
        "numberOfBytes": "1"
      },
      "t_bytes32": {
        "encoding": "inplace",
        "label": "bytes32",
        "numberOfBytes": "32"
      },
      "t_mapping(t_address,t_bool)": {
        "encoding": "mapping",
        "key": "t_address",
        "label": "mapping(address => bool)",
        "numberOfBytes": "32",
        "value": "t_bool"
      },
      "t_mapping(t_bytes32,t_mapping(t_address,t_bool))": {
        "encoding": "mapping",
        "key": "t_bytes32",
        "label": "mapping(bytes32 => mapping(address => bool))",
        "numberOfBytes": "32",
        "value": "t_mapping(t_address,t_bool)"
      },
      "t_uint256": {
        "encoding": "inplace",
        "label": "uint256",
        "numberOfBytes": "32"
      }
    }
  }
}