{
  "address": "0xBDf62C492faEd1AD92B6d96d7B013F6b1497cFbb",
  "abi": [
    {
      "inputs": [
        {
          "internalType": "address",
          "name": "_nft_contract_address",
          "type": "address"
        }
      ],
      "stateMutability": "nonpayable",
      "type": "constructor"
    },
    {
      "anonymous": false,
      "inputs": [],
      "name": "Disable",
      "type": "event"
    },
    {
      "anonymous": false,
      "inputs": [],
      "name": "Enable",
      "type": "event"
    },
    {
      "anonymous": false,
      "inputs": [
        {
          "indexed": false,
          "internalType": "uint256",
          "name": "nft_id",
          "type": "uint256"
        },
        {
          "indexed": false,
          "internalType": "address",
          "name": "scholar",
          "type": "address"
        }
      ],
      "name": "Lend",
      "type": "event"
    },
    {
      "anonymous": false,
      "inputs": [
        {
          "indexed": true,
          "internalType": "address",
          "name": "previousOwner",
          "type": "address"
        },
        {
          "indexed": true,
          "internalType": "address",
          "name": "newOwner",
          "type": "address"
        }
      ],
      "name": "OwnershipTransferred",
      "type": "event"
    },
    {
      "anonymous": false,
      "inputs": [
        {
          "indexed": false,
          "internalType": "uint256",
          "name": "nft_id",
          "type": "uint256"
        }
      ],
      "name": "Revoke",
      "type": "event"
    },
    {
      "anonymous": false,
      "inputs": [
        {
          "indexed": false,
          "internalType": "uint256",
          "name": "nft_id",
          "type": "uint256"
        },
        {
          "indexed": false,
          "internalType": "address",
          "name": "scholar",
          "type": "address"
        }
      ],
      "name": "Transfer",
      "type": "event"
    },
    {
      "inputs": [
        {
          "internalType": "uint256[]",
          "name": "nft_ids",
          "type": "uint256[]"
        },
        {
          "internalType": "address[]",
          "name": "scholars",
          "type": "address[]"
        }
      ],
      "name": "bulkLendNFT",
      "outputs": [],
      "stateMutability": "nonpayable",
      "type": "function"
    },
    {
      "inputs": [
        {
          "internalType": "uint256[]",
          "name": "nft_ids",
          "type": "uint256[]"
        }
      ],
      "name": "bulkRevoke",
      "outputs": [],
      "stateMutability": "nonpayable",
      "type": "function"
    },
    {
      "inputs": [
        {
          "internalType": "uint256[]",
          "name": "nft_ids",
          "type": "uint256[]"
        },
        {
          "internalType": "address[]",
          "name": "scholars",
          "type": "address[]"
        }
      ],
      "name": "bulkTransferScholar",
      "outputs": [],
      "stateMutability": "nonpayable",
      "type": "function"
    },
    {
      "inputs": [],
      "name": "disable",
      "outputs": [],
      "stateMutability": "nonpayable",
      "type": "function"
    },
    {
      "inputs": [],
      "name": "disabled",
      "outputs": [
        {
          "internalType": "bool",
          "name": "",
          "type": "bool"
        }
      ],
      "stateMutability": "view",
      "type": "function"
    },
    {
      "inputs": [],
      "name": "enable",
      "outputs": [],
      "stateMutability": "nonpayable",
      "type": "function"
    },
    {
      "inputs": [
        {
          "internalType": "uint256",
          "name": "nft_id",
          "type": "uint256"
        }
      ],
      "name": "getOwner",
      "outputs": [
        {
          "internalType": "address",
          "name": "owner",
          "type": "address"
        }
      ],
      "stateMutability": "view",
      "type": "function"
    },
    {
      "inputs": [
        {
          "internalType": "uint256",
          "name": "nft_id",
          "type": "uint256"
        }
      ],
      "name": "getScholar",
      "outputs": [
        {
          "internalType": "address",
          "name": "scholar",
          "type": "address"
        }
      ],
      "stateMutability": "view",
      "type": "function"
    },
    {
      "inputs": [
        {
          "internalType": "uint256",
          "name": "nft_id",
          "type": "uint256"
        }
      ],
      "name": "info",
      "outputs": [
        {
          "internalType": "address",
          "name": "owner",
          "type": "address"
        },
        {
          "internalType": "address",
          "name": "scholar",
          "type": "address"
        }
      ],
      "stateMutability": "view",
      "type": "function"
    },
    {
      "inputs": [
        {
          "internalType": "uint256",
          "name": "nft_id",
          "type": "uint256"
        },
        {
          "internalType": "address",
          "name": "scholar",
          "type": "address"
        }
      ],
      "name": "lendNFT",
      "outputs": [],
      "stateMutability": "nonpayable",
      "type": "function"
    },
    {
      "inputs": [
        {
          "internalType": "address",
          "name": "",
          "type": "address"
        }
      ],
      "name": "lended_nfts",
      "outputs": [
        {
          "internalType": "uint256",
          "name": "",
          "type": "uint256"
        }
      ],
      "stateMutability": "view",
      "type": "function"
    },
    {
      "inputs": [],
      "name": "nft_contract",
      "outputs": [
        {
          "internalType": "contract IERC721",
          "name": "",
          "type": "address"
        }
      ],
      "stateMutability": "view",
      "type": "function"
    },
    {
      "inputs": [
        {
          "internalType": "uint256",
          "name": "",
          "type": "uint256"
        }
      ],
      "name": "nft_owner",
      "outputs": [
        {
          "internalType": "address",
          "name": "",
          "type": "address"
        }
      ],
      "stateMutability": "view",
      "type": "function"
    },
    {
      "inputs": [
        {
          "internalType": "uint256",
          "name": "",
          "type": "uint256"
        }
      ],
      "name": "nft_scholar",
      "outputs": [
        {
          "internalType": "address",
          "name": "",
          "type": "address"
        }
      ],
      "stateMutability": "view",
      "type": "function"
    },
    {
      "inputs": [
        {
          "internalType": "address",
          "name": "",
          "type": "address"
        },
        {
          "internalType": "address",
          "name": "",
          "type": "address"
        },
        {
          "internalType": "uint256",
          "name": "",
          "type": "uint256"
        },
        {
          "internalType": "bytes",
          "name": "",
          "type": "bytes"
        }
      ],
      "name": "onERC721Received",
      "outputs": [
        {
          "internalType": "bytes4",
          "name": "",
          "type": "bytes4"
        }
      ],
      "stateMutability": "pure",
      "type": "function"
    },
    {
      "inputs": [],
      "name": "owner",
      "outputs": [
        {
          "internalType": "address",
          "name": "",
          "type": "address"
        }
      ],
      "stateMutability": "view",
      "type": "function"
    },
    {
      "inputs": [],
      "name": "renounceOwnership",
      "outputs": [],
      "stateMutability": "nonpayable",
      "type": "function"
    },
    {
      "inputs": [
        {
          "internalType": "uint256",
          "name": "nft_id",
          "type": "uint256"
        }
      ],
      "name": "revoke",
      "outputs": [],
      "stateMutability": "nonpayable",
      "type": "function"
    },
    {
      "inputs": [
        {
          "internalType": "address",
          "name": "newOwner",
          "type": "address"
        }
      ],
      "name": "transferOwnership",
      "outputs": [],
      "stateMutability": "nonpayable",
      "type": "function"
    },
    {
      "inputs": [
        {
          "internalType": "uint256",
          "name": "nft_id",
          "type": "uint256"
        },
        {
          "internalType": "address",
          "name": "scholar",
          "type": "address"
        }
      ],
      "name": "transferScholar",
      "outputs": [],
      "stateMutability": "nonpayable",
      "type": "function"
    }
  ],
  "transactionHash": "0x1fd38cfe6de8fb2bed4e81f4e8c1390f5ba1d6a4ffcbe3b5667b2b611fd96384",
  "args": [
    "0x7595CD1fD7119a0F8BbDF4121e5894e67B73416d"
  ],
  "numDeployments": 1,
  "solcInputHash": "380503899d6a0862250bd55391113343",
  "bytecode": "0x60a060405234801561001057600080fd5b5060405161100f38038061100f83398101604081905261002f91610099565b61003833610049565b6001600160a01b03166080526100c9565b600080546001600160a01b038381166001600160a01b0319831681178455604051919092169283917f8be0079c531659141344cd1fd0a4f28419497f9722a3daafe3b4186f6b6457e09190a35050565b6000602082840312156100ab57600080fd5b81516001600160a01b03811681146100c257600080fd5b9392505050565b608051610f1d6100f2600039600081816103380152818161044701526107be0152610f1d6000f3fe608060405234801561001057600080fd5b506004361061012c5760003560e01c8063a3907d71116100ad578063d26ee71511610071578063d26ee715146102c0578063e336a108146102d3578063ee070805146102fc578063f2fde38b14610320578063fcdcdeee1461033357600080fd5b8063a3907d7114610256578063aef315061461025e578063c41a360a14610271578063cd367d4d14610284578063cdb9cf24146102ad57600080fd5b8063422e8f67116100f4578063422e8f67146101d15780634ba4ed61146101fc578063715018a61461022a5780638da5cb5b14610232578063a18f96131461024357600080fd5b8063150b7a021461013157806320c5429b1461016e5780632e340599146101835780632f2770db146101b65780633c4e6fe0146101be575b600080fd5b61015061013f366004610c28565b630a85bd0160e11b95945050505050565b6040516001600160e01b031990911681526020015b60405180910390f35b61018161017c366004610cc3565b61035a565b005b610196610191366004610cc3565b6104e0565b604080516001600160a01b03938416815292909116602083015201610165565b610181610547565b6101816101cc366004610d28565b6105ad565b6101e46101df366004610cc3565b610663565b6040516001600160a01b039091168152602001610165565b61021c61020a366004610d94565b60036020526000908152604090205481565b604051908152602001610165565b6101816106b6565b6000546001600160a01b03166101e4565b610181610251366004610db6565b6106ec565b61018161085b565b61018161026c366004610de2565b6108bb565b6101e461027f366004610cc3565b6108fe565b6101e4610292366004610cc3565b6001602052600090815260409020546001600160a01b031681565b6101816102bb366004610d28565b610951565b6101816102ce366004610db6565b610a00565b6101e46102e1366004610cc3565b6002602052600090815260409020546001600160a01b031681565b60005461031090600160a01b900460ff1681565b6040519015158152602001610165565b61018161032e366004610d94565b610b21565b6101e47f000000000000000000000000000000000000000000000000000000000000000081565b60008181526002602052604090205481906001600160a01b031633146103bf5760405162461bcd60e51b815260206004820152601560248201527429b1b437b630b939b434b81d2727aa2fa7aba722a960591b60448201526064015b60405180910390fd5b336000908152600360205260409020546103db90600190610e3a565b336000818152600360209081526040808320949094558582526002815283822080546001600160a01b0319908116909155600190915290839020805490911690559051632142170760e11b81523060048201526024810191909152604481018390526001600160a01b037f000000000000000000000000000000000000000000000000000000000000000016906342842e0e90606401600060405180830381600087803b15801561048b57600080fd5b505af115801561049f573d6000803e3d6000fd5b505050507fdb43aa42235c8d63908794a952603e8d43a549383d13123c3d893a3fc2e62495826040516104d491815260200190565b60405180910390a15050565b600081815260026020526040812054819083906001600160a01b03166105185760405162461bcd60e51b81526004016103b690610e51565b5050506000908152600260209081526040808320546001909252909120546001600160a01b0391821692911690565b6000546001600160a01b031633146105715760405162461bcd60e51b81526004016103b690610e81565b6000805460ff60a01b1916600160a01b1781556040517f25a311358326fb18c62efc24bc28d3126acee8d2a67fd8b2145b757dc8bd1bc19190a1565b8281146105fc5760405162461bcd60e51b815260206004820152601a60248201527f5363686f6c6172736869703a504152414d5f4d49534d4154434800000000000060448201526064016103b6565b60005b8381101561065c5761064a85858381811061061c5761061c610eb6565b9050602002013584848481811061063557610635610eb6565b90506020020160208101906102519190610d94565b8061065481610ecc565b9150506105ff565b5050505050565b60008181526002602052604081205482906001600160a01b03166106995760405162461bcd60e51b81526004016103b690610e51565b50506000908152600160205260409020546001600160a01b031690565b6000546001600160a01b031633146106e05760405162461bcd60e51b81526004016103b690610e81565b6106ea6000610bbc565b565b600054600160a01b900460ff16156107465760405162461bcd60e51b815260206004820152601d60248201527f5363686f6c6172736869703a434f4e54524143545f44495341424c454400000060448201526064016103b6565b600082815260016020818152604080842080546001600160a01b03199081166001600160a01b03888116919091179092556002845282862080543392168217905580865260039093529381902080549093019092559051632142170760e11b81526004810191909152306024820152604481018490527f0000000000000000000000000000000000000000000000000000000000000000909116906342842e0e90606401600060405180830381600087803b15801561080457600080fd5b505af1158015610818573d6000803e3d6000fd5b5050604080518581526001600160a01b03851660208201527f9a9b103aecb698f4ff77369e96fd6809cbdc592cd590395fe1822ec46a06707893500190506104d4565b6000546001600160a01b031633146108855760405162461bcd60e51b81526004016103b690610e81565b6000805460ff60a01b191681556040517f99c8055dc75c604f8ee1da874bfae1f897620de17f4737a3ad9acb06a29356209190a1565b60005b818110156108f9576108e78383838181106108db576108db610eb6565b9050602002013561035a565b806108f181610ecc565b9150506108be565b505050565b60008181526002602052604081205482906001600160a01b03166109345760405162461bcd60e51b81526004016103b690610e51565b50506000908152600260205260409020546001600160a01b031690565b8281146109a05760405162461bcd60e51b815260206004820152601a60248201527f5363686f6c6172736869703a504152414d5f4d49534d4154434800000000000060448201526064016103b6565b60005b8381101561065c576109ee8585838181106109c0576109c0610eb6565b905060200201358484848181106109d9576109d9610eb6565b90506020020160208101906102ce9190610d94565b806109f881610ecc565b9150506109a3565b600054600160a01b900460ff1615610a5a5760405162461bcd60e51b815260206004820152601d60248201527f5363686f6c6172736869703a434f4e54524143545f44495341424c454400000060448201526064016103b6565b60008281526002602052604090205482906001600160a01b03163314610aba5760405162461bcd60e51b815260206004820152601560248201527429b1b437b630b939b434b81d2727aa2fa7aba722a960591b60448201526064016103b6565b60008381526001602090815260409182902080546001600160a01b0319166001600160a01b0386169081179091558251868152918201527fabe1dcf9fcb8e5fb309db76bcab112a217aa5754d0f038921282bfe7907aa516910160405180910390a1505050565b6000546001600160a01b03163314610b4b5760405162461bcd60e51b81526004016103b690610e81565b6001600160a01b038116610bb05760405162461bcd60e51b815260206004820152602660248201527f4f776e61626c653a206e6577206f776e657220697320746865207a65726f206160448201526564647265737360d01b60648201526084016103b6565b610bb981610bbc565b50565b600080546001600160a01b038381166001600160a01b0319831681178455604051919092169283917f8be0079c531659141344cd1fd0a4f28419497f9722a3daafe3b4186f6b6457e09190a35050565b80356001600160a01b0381168114610c2357600080fd5b919050565b600080600080600060808688031215610c4057600080fd5b610c4986610c0c565b9450610c5760208701610c0c565b935060408601359250606086013567ffffffffffffffff80821115610c7b57600080fd5b818801915088601f830112610c8f57600080fd5b813581811115610c9e57600080fd5b896020828501011115610cb057600080fd5b9699959850939650602001949392505050565b600060208284031215610cd557600080fd5b5035919050565b60008083601f840112610cee57600080fd5b50813567ffffffffffffffff811115610d0657600080fd5b6020830191508360208260051b8501011115610d2157600080fd5b9250929050565b60008060008060408587031215610d3e57600080fd5b843567ffffffffffffffff80821115610d5657600080fd5b610d6288838901610cdc565b90965094506020870135915080821115610d7b57600080fd5b50610d8887828801610cdc565b95989497509550505050565b600060208284031215610da657600080fd5b610daf82610c0c565b9392505050565b60008060408385031215610dc957600080fd5b82359150610dd960208401610c0c565b90509250929050565b60008060208385031215610df557600080fd5b823567ffffffffffffffff811115610e0c57600080fd5b610e1885828601610cdc565b90969095509350505050565b634e487b7160e01b600052601160045260246000fd5b600082821015610e4c57610e4c610e24565b500390565b60208082526016908201527514d8da1bdb185c9cda1a5c0e9393d517d3115391115160521b604082015260600190565b6020808252818101527f4f776e61626c653a2063616c6c6572206973206e6f7420746865206f776e6572604082015260600190565b634e487b7160e01b600052603260045260246000fd5b6000600019821415610ee057610ee0610e24565b506001019056fea264697066735822122085fe2c5592a9a61f315cf8f768b2243e85f6ae5faa3f32cb1e573b0b328ee29864736f6c63430008090033",
  "devdoc": {
    "kind": "dev",
    "methods": {
      "owner()": {
        "details": "Returns the address of the current owner."
      },
      "renounceOwnership()": {
        "details": "Leaves the contract without owner. It will not be possible to call `onlyOwner` functions anymore. Can only be called by the current owner. NOTE: Renouncing ownership will leave the contract without an owner, thereby removing any functionality that is only available to the owner."
      },
      "transferOwnership(address)": {
        "details": "Transfers ownership of the contract to a new account (`newOwner`). Can only be called by the current owner."
      }
    },
    "version": 1
  },
  "userdoc": {
    "kind": "user",
    "methods": {},
    "version": 1
  },
  "storageLayout": {
    "storage": [
      {
        "astId": 7,
        "contract": "contracts/scholarship/Scholarship.sol:Scholarship",
        "label": "_owner",
        "offset": 0,
        "slot": "0",
        "type": "t_address"
      },
      {
        "astId": 11053,
        "contract": "contracts/scholarship/Scholarship.sol:Scholarship",
        "label": "disabled",
        "offset": 20,
        "slot": "0",
        "type": "t_bool"
      },
      {
        "astId": 11057,
        "contract": "contracts/scholarship/Scholarship.sol:Scholarship",
        "label": "nft_scholar",
        "offset": 0,
        "slot": "1",
        "type": "t_mapping(t_uint256,t_address)"
      },
      {
        "astId": 11061,
        "contract": "contracts/scholarship/Scholarship.sol:Scholarship",
        "label": "nft_owner",
        "offset": 0,
        "slot": "2",
        "type": "t_mapping(t_uint256,t_address)"
      },
      {
        "astId": 11065,
        "contract": "contracts/scholarship/Scholarship.sol:Scholarship",
        "label": "lended_nfts",
        "offset": 0,
        "slot": "3",
        "type": "t_mapping(t_address,t_uint256)"
      }
    ],
    "types": {
      "t_address": {
        "encoding": "inplace",
        "label": "address",
        "numberOfBytes": "20"
      },
      "t_bool": {
        "encoding": "inplace",
        "label": "bool",
        "numberOfBytes": "1"
      },
      "t_mapping(t_address,t_uint256)": {
        "encoding": "mapping",
        "key": "t_address",
        "label": "mapping(address => uint256)",
        "numberOfBytes": "32",
        "value": "t_uint256"
      },
      "t_mapping(t_uint256,t_address)": {
        "encoding": "mapping",
        "key": "t_uint256",
        "label": "mapping(uint256 => address)",
        "numberOfBytes": "32",
        "value": "t_address"
      },
      "t_uint256": {
        "encoding": "inplace",
        "label": "uint256",
        "numberOfBytes": "32"
      }
    }
  }
}