{
  "address": "0x5188d944bB191e51fb5CCE4372C374Fcd5c70cba",
  "abi": [
    {
      "inputs": [],
      "name": "IsPaused",
      "type": "error"
    },
    {
      "inputs": [],
      "name": "NotPaused",
      "type": "error"
    },
    {
      "inputs": [
        {
          "internalType": "string",
          "name": "role",
          "type": "string"
        },
        {
          "internalType": "address",
          "name": "user",
          "type": "address"
        }
      ],
      "name": "Unauthorized",
      "type": "error"
    },
    {
      "anonymous": false,
      "inputs": [
        {
          "indexed": true,
          "internalType": "address",
          "name": "previousOwner",
          "type": "address"
        },
        {
          "indexed": true,
          "internalType": "address",
          "name": "newOwner",
          "type": "address"
        }
      ],
      "name": "OwnerPulled",
      "type": "event"
    },
    {
      "anonymous": false,
      "inputs": [
        {
          "indexed": true,
          "internalType": "address",
          "name": "pushedOwner",
          "type": "address"
        }
      ],
      "name": "OwnerPushed",
      "type": "event"
    },
    {
      "anonymous": false,
      "inputs": [
        {
          "indexed": false,
          "internalType": "address",
          "name": "account",
          "type": "address"
        }
      ],
      "name": "Paused",
      "type": "event"
    },
    {
      "anonymous": false,
      "inputs": [
        {
          "indexed": true,
          "internalType": "string",
          "name": "role",
          "type": "string"
        },
        {
          "indexed": true,
          "internalType": "address",
          "name": "account",
          "type": "address"
        },
        {
          "indexed": true,
          "internalType": "address",
          "name": "sender",
          "type": "address"
        }
      ],
      "name": "RoleGranted",
      "type": "event"
    },
    {
      "anonymous": false,
      "inputs": [
        {
          "indexed": true,
          "internalType": "string",
          "name": "role",
          "type": "string"
        },
        {
          "indexed": true,
          "internalType": "address",
          "name": "account",
          "type": "address"
        },
        {
          "indexed": true,
          "internalType": "address",
          "name": "sender",
          "type": "address"
        }
      ],
      "name": "RoleRevoked",
      "type": "event"
    },
    {
      "anonymous": false,
      "inputs": [
        {
          "indexed": true,
          "internalType": "address",
          "name": "from",
          "type": "address"
        },
        {
          "indexed": true,
          "internalType": "address",
          "name": "to",
          "type": "address"
        },
        {
          "indexed": false,
          "internalType": "uint256",
          "name": "amount",
          "type": "uint256"
        }
      ],
      "name": "Transfer",
      "type": "event"
    },
    {
      "anonymous": false,
      "inputs": [
        {
          "indexed": false,
          "internalType": "address",
          "name": "account",
          "type": "address"
        }
      ],
      "name": "Unpaused",
      "type": "event"
    },
    {
      "inputs": [
        {
          "internalType": "address",
          "name": "",
          "type": "address"
        }
      ],
      "name": "balanceOf",
      "outputs": [
        {
          "internalType": "uint256",
          "name": "",
          "type": "uint256"
        }
      ],
      "stateMutability": "view",
      "type": "function"
    },
    {
      "inputs": [
        {
          "internalType": "uint256",
          "name": "amount",
          "type": "uint256"
        }
      ],
      "name": "burn",
      "outputs": [],
      "stateMutability": "nonpayable",
      "type": "function"
    },
    {
      "inputs": [],
      "name": "decimals",
      "outputs": [
        {
          "internalType": "uint8",
          "name": "",
          "type": "uint8"
        }
      ],
      "stateMutability": "view",
      "type": "function"
    },
    {
      "inputs": [
        {
          "internalType": "string",
          "name": "role",
          "type": "string"
        },
        {
          "internalType": "address",
          "name": "account",
          "type": "address"
        }
      ],
      "name": "grantRole",
      "outputs": [],
      "stateMutability": "nonpayable",
      "type": "function"
    },
    {
      "inputs": [
        {
          "internalType": "string",
          "name": "role",
          "type": "string"
        },
        {
          "internalType": "address",
          "name": "account",
          "type": "address"
        }
      ],
      "name": "hasRole",
      "outputs": [
        {
          "internalType": "bool",
          "name": "",
          "type": "bool"
        }
      ],
      "stateMutability": "view",
      "type": "function"
    },
    {
      "inputs": [
        {
          "internalType": "address",
          "name": "to",
          "type": "address"
        },
        {
          "internalType": "uint256",
          "name": "amount",
          "type": "uint256"
        }
      ],
      "name": "mint",
      "outputs": [],
      "stateMutability": "nonpayable",
      "type": "function"
    },
    {
      "inputs": [],
      "name": "name",
      "outputs": [
        {
          "internalType": "string",
          "name": "",
          "type": "string"
        }
      ],
      "stateMutability": "view",
      "type": "function"
    },
    {
      "inputs": [],
      "name": "newOwner",
      "outputs": [
        {
          "internalType": "address",
          "name": "",
          "type": "address"
        }
      ],
      "stateMutability": "view",
      "type": "function"
    },
    {
      "inputs": [],
      "name": "owner",
      "outputs": [
        {
          "internalType": "address",
          "name": "",
          "type": "address"
        }
      ],
      "stateMutability": "view",
      "type": "function"
    },
    {
      "inputs": [],
      "name": "pause",
      "outputs": [],
      "stateMutability": "nonpayable",
      "type": "function"
    },
    {
      "inputs": [],
      "name": "paused",
      "outputs": [
        {
          "internalType": "bool",
          "name": "",
          "type": "bool"
        }
      ],
      "stateMutability": "view",
      "type": "function"
    },
    {
      "inputs": [],
      "name": "pullOwner",
      "outputs": [],
      "stateMutability": "nonpayable",
      "type": "function"
    },
    {
      "inputs": [
        {
          "internalType": "address",
          "name": "account",
          "type": "address"
        }
      ],
      "name": "pushOwner",
      "outputs": [],
      "stateMutability": "nonpayable",
      "type": "function"
    },
    {
      "inputs": [
        {
          "internalType": "string",
          "name": "role",
          "type": "string"
        }
      ],
      "name": "renounceRole",
      "outputs": [],
      "stateMutability": "nonpayable",
      "type": "function"
    },
    {
      "inputs": [
        {
          "internalType": "string",
          "name": "role",
          "type": "string"
        },
        {
          "internalType": "address",
          "name": "account",
          "type": "address"
        }
      ],
      "name": "revokeRole",
      "outputs": [],
      "stateMutability": "nonpayable",
      "type": "function"
    },
    {
      "inputs": [],
      "name": "symbol",
      "outputs": [
        {
          "internalType": "string",
          "name": "",
          "type": "string"
        }
      ],
      "stateMutability": "view",
      "type": "function"
    },
    {
      "inputs": [],
      "name": "totalSupply",
      "outputs": [
        {
          "internalType": "uint256",
          "name": "",
          "type": "uint256"
        }
      ],
      "stateMutability": "view",
      "type": "function"
    },
    {
      "inputs": [],
      "name": "unpause",
      "outputs": [],
      "stateMutability": "nonpayable",
      "type": "function"
    }
  ],
  "transactionHash": "0x2159449cec49ff82c052469b8541d29f9bcc49efac76ea04033fa251a5dc1063",
  "args": [],
  "numDeployments": 1,
  "solcInputHash": "dbb70cb57139090cddd53a54a594d846",
  "bytecode": "0x608060405234801561001057600080fd5b50600080546001600160a01b0319163390811782556040519091907faac18e3887f7d855b2483e20615f8e3fb6efc18e25502090082b47047fb57c73908290a3610d578061005f6000396000f3fe608060405234801561001057600080fd5b50600436106101165760003560e01c806370768f86116100a25780638da5cb5b116100715780638da5cb5b1461023a57806395d89b4114610265578063ac5a7d5c14610289578063c19ae2ed1461029c578063d4ee1d90146102af57600080fd5b806370768f86146101ec57806370a08231146101ff578063731f21a01461021f5780638456cb591461023257600080fd5b806340c10f19116100e957806340c10f191461019357806342966c68146101a65780635c975abb146101b95780636c9cd097146101d15780636cef16e6146101e457600080fd5b806306fdde031461011b57806318160ddd14610158578063313ce5671461016f5780633f4ba83a14610189575b600080fd5b6101426040518060400160405280600881526020016714d9595911ddda5d60c21b81525081565b60405161014f9190610a7d565b60405180910390f35b61016160045481565b60405190815260200161014f565b610177601281565b60405160ff909116815260200161014f565b6101916102c2565b005b6101916101a1366004610ab3565b610376565b6101916101b4366004610add565b61042c565b6101c16104c4565b604051901515815260200161014f565b6101c16101df366004610b99565b6104dc565b61019161051d565b6101916101fa366004610be7565b6105b9565b61016161020d366004610c24565b60056020526000908152604090205481565b61019161022d366004610b99565b61060f565b610191610693565b60005461024d906001600160a01b031681565b6040516001600160a01b03909116815260200161014f565b610142604051806040016040528060058152602001641cd1d5d25560da1b81525081565b610191610297366004610c24565b610738565b6101916102aa366004610b99565b610844565b60015461024d906001600160a01b031681565b604051806040016040528060068152602001652820aaa9a2a960d11b8152506102eb81336104dc565b6103155780336040516309ab81ed60e01b815260040161030c929190610c3f565b60405180910390fd5b61031d6104c4565b61033a57604051636cd6020160e01b815260040160405180910390fd5b60006002556040513381527f5db9ee0a495bf2e6ff9c91a7834c1ba4fdd244a5e8aa4e537bd38aeae4b073aa906020015b60405180910390a150565b6040518060400160405280600681526020016526a4a72a22a960d11b81525061039f81336104dc565b6103c05780336040516309ab81ed60e01b815260040161030c929190610c3f565b81600460008282546103d29190610c7f565b90915550506001600160a01b0383166000818152600560209081526040808320805487019055518581527fddf252ad1be2c89b69c2b068fc378daa952ba7f163c4a11628f55a4df523b3ef910160405180910390a3505050565b6104346104c4565b1561045257604051631309a56360e01b815260040160405180910390fd5b3360008181526005602052604081208054849290610471908490610c97565b90915550506004805483900390556040518281526000906001600160a01b038316907fddf252ad1be2c89b69c2b068fc378daa952ba7f163c4a11628f55a4df523b3ef9060200160405180910390a35050565b60006002546001146104d65750600090565b50600190565b6000600360006104eb85610903565b8152602080820192909252604090810160009081206001600160a01b038616825290925290205460ff16905092915050565b6001546001600160a01b0316331461056c57604080516309ab81ed60e01b8152600481019190915260096044820152682722abafa7aba722a960b91b606482015233602482015260840161030c565b60008054336001600160a01b03198216811783556040516001600160a01b0390921692909183917faac18e3887f7d855b2483e20615f8e3fb6efc18e25502090082b47047fb57c7391a350565b6105c381336104dc565b6106025760405162461bcd60e51b815260206004820152601060248201526f149bdb19481b9bdd0819dc985b9d195960821b604482015260640161030c565b61060c8133610914565b50565b6000546001600160a01b0316331461063c57336040516309ab81ed60e01b815260040161030c9190610cae565b61064682826104dc565b6106855760405162461bcd60e51b815260206004820152601060248201526f149bdb19481b9bdd0819dc985b9d195960821b604482015260640161030c565b61068f8282610914565b5050565b604051806040016040528060068152602001652820aaa9a2a960d11b8152506106bc81336104dc565b6106dd5780336040516309ab81ed60e01b815260040161030c929190610c3f565b6106e56104c4565b1561070357604051631309a56360e01b815260040160405180910390fd5b60016002556040513381527f62e78cea01bee320cd4e420270b5ea74000d11b0c9f74754ebdbfc544b05a2589060200161036b565b6000546001600160a01b0316331461076557336040516309ab81ed60e01b815260040161030c9190610cae565b6001600160a01b0381166107ab5760405162461bcd60e51b815260206004820152600d60248201526c4e6f206164647265737328302960981b604482015260640161030c565b6000546001600160a01b03828116911614156107fa5760405162461bcd60e51b815260206004820152600e60248201526d27b7363c903732bb9037bbb732b960911b604482015260640161030c565b600180546001600160a01b0319166001600160a01b0383169081179091556040517fd52a054f85e9a057277cd95bf6d5da45465068f0467ec7991f3fcc017be6b72590600090a250565b6000546001600160a01b0316331461087157336040516309ab81ed60e01b815260040161030c9190610cae565b60008251116108b35760405162461bcd60e51b815260206004820152600e60248201526d2937b632903737ba1033b4bb32b760911b604482015260640161030c565b6001600160a01b0381166108f95760405162461bcd60e51b815260206004820152600d60248201526c4e6f206164647265737328302960981b604482015260640161030c565b61068f8282610992565b600061090e82610cde565b92915050565b600061091f83610903565b60008181526003602090815260408083206001600160a01b038716808552925291829020805460ff191690559051919250339161095d908690610d05565b604051908190038120907ff3a2b91552b535c273a48d8b7453c8b0b287e20e51d74121eb50d975dbaa506d90600090a4505050565b61099c82826104dc565b61068f5760006109ab83610903565b60008181526003602090815260408083206001600160a01b038716808552925291829020805460ff19166001179055905191925033916109ec908690610d05565b604051908190038120907fe0ca4f6d52d59033a91ab89e93c98f9acada14e0086d8b1038284f42e6d5325790600090a4505050565b60005b83811015610a3c578181015183820152602001610a24565b83811115610a4b576000848401525b50505050565b60008151808452610a69816020860160208601610a21565b601f01601f19169290920160200192915050565b602081526000610a906020830184610a51565b9392505050565b80356001600160a01b0381168114610aae57600080fd5b919050565b60008060408385031215610ac657600080fd5b610acf83610a97565b946020939093013593505050565b600060208284031215610aef57600080fd5b5035919050565b634e487b7160e01b600052604160045260246000fd5b600082601f830112610b1d57600080fd5b813567ffffffffffffffff80821115610b3857610b38610af6565b604051601f8301601f19908116603f01168101908282118183101715610b6057610b60610af6565b81604052838152866020858801011115610b7957600080fd5b836020870160208301376000602085830101528094505050505092915050565b60008060408385031215610bac57600080fd5b823567ffffffffffffffff811115610bc357600080fd5b610bcf85828601610b0c565b925050610bde60208401610a97565b90509250929050565b600060208284031215610bf957600080fd5b813567ffffffffffffffff811115610c1057600080fd5b610c1c84828501610b0c565b949350505050565b600060208284031215610c3657600080fd5b610a9082610a97565b604081526000610c526040830185610a51565b905060018060a01b03831660208301529392505050565b634e487b7160e01b600052601160045260246000fd5b60008219821115610c9257610c92610c69565b500190565b600082821015610ca957610ca9610c69565b500390565b60408082526005908201526427aba722a960d91b60608201526001600160a01b0391909116602082015260800190565b80516020808301519190811015610cff576000198160200360031b1b821691505b50919050565b60008251610d17818460208701610a21565b919091019291505056fea2646970667358221220a80dce312b95c35a1f3b6d58408e0dc65f1700f897457626a9d1f90e78d793d864736f6c63430008090033",
  "devdoc": {
    "kind": "dev",
    "methods": {},
    "version": 1
  },
  "userdoc": {
    "kind": "user",
    "methods": {},
    "version": 1
  },
  "storageLayout": {
    "storage": [
      {
        "astId": 13259,
        "contract": "contracts/gwit/SeedGwit.sol:SeedGwit",
        "label": "owner",
        "offset": 0,
        "slot": "0",
        "type": "t_address"
      },
      {
        "astId": 13261,
        "contract": "contracts/gwit/SeedGwit.sol:SeedGwit",
        "label": "newOwner",
        "offset": 0,
        "slot": "1",
        "type": "t_address"
      },
      {
        "astId": 13263,
        "contract": "contracts/gwit/SeedGwit.sol:SeedGwit",
        "label": "_paused",
        "offset": 0,
        "slot": "2",
        "type": "t_uint256"
      },
      {
        "astId": 13269,
        "contract": "contracts/gwit/SeedGwit.sol:SeedGwit",
        "label": "_roles",
        "offset": 0,
        "slot": "3",
        "type": "t_mapping(t_bytes32,t_mapping(t_address,t_bool))"
      },
      {
        "astId": 9646,
        "contract": "contracts/gwit/SeedGwit.sol:SeedGwit",
        "label": "totalSupply",
        "offset": 0,
        "slot": "4",
        "type": "t_uint256"
      },
      {
        "astId": 9650,
        "contract": "contracts/gwit/SeedGwit.sol:SeedGwit",
        "label": "balanceOf",
        "offset": 0,
        "slot": "5",
        "type": "t_mapping(t_address,t_uint256)"
      }
    ],
    "types": {
      "t_address": {
        "encoding": "inplace",
        "label": "address",
        "numberOfBytes": "20"
      },
      "t_bool": {
        "encoding": "inplace",
        "label": "bool",
        "numberOfBytes": "1"
      },
      "t_bytes32": {
        "encoding": "inplace",
        "label": "bytes32",
        "numberOfBytes": "32"
      },
      "t_mapping(t_address,t_bool)": {
        "encoding": "mapping",
        "key": "t_address",
        "label": "mapping(address => bool)",
        "numberOfBytes": "32",
        "value": "t_bool"
      },
      "t_mapping(t_address,t_uint256)": {
        "encoding": "mapping",
        "key": "t_address",
        "label": "mapping(address => uint256)",
        "numberOfBytes": "32",
        "value": "t_uint256"
      },
      "t_mapping(t_bytes32,t_mapping(t_address,t_bool))": {
        "encoding": "mapping",
        "key": "t_bytes32",
        "label": "mapping(bytes32 => mapping(address => bool))",
        "numberOfBytes": "32",
        "value": "t_mapping(t_address,t_bool)"
      },
      "t_uint256": {
        "encoding": "inplace",
        "label": "uint256",
        "numberOfBytes": "32"
      }
    }
  }
}