{
  "address": "0xa7d40ABC0dBCD63cfC93d30551a8C0005CF15EDA",
  "abi": [
    {
      "inputs": [
        {
          "internalType": "string",
          "name": "uri_",
          "type": "string"
        }
      ],
      "stateMutability": "nonpayable",
      "type": "constructor"
    },
    {
      "anonymous": false,
      "inputs": [
        {
          "indexed": true,
          "internalType": "address",
          "name": "owner",
          "type": "address"
        },
        {
          "indexed": true,
          "internalType": "address",
          "name": "operator",
          "type": "address"
        },
        {
          "indexed": false,
          "internalType": "bool",
          "name": "approved",
          "type": "bool"
        }
      ],
      "name": "ApprovalForAll",
      "type": "event"
    },
    {
      "anonymous": false,
      "inputs": [
        {
          "indexed": true,
          "internalType": "address",
          "name": "account",
          "type": "address"
        }
      ],
      "name": "MinterRoleGranted",
      "type": "event"
    },
    {
      "anonymous": false,
      "inputs": [
        {
          "indexed": true,
          "internalType": "address",
          "name": "account",
          "type": "address"
        }
      ],
      "name": "MinterRoleRevoked",
      "type": "event"
    },
    {
      "anonymous": false,
      "inputs": [
        {
          "indexed": true,
          "internalType": "address",
          "name": "previousOwner",
          "type": "address"
        },
        {
          "indexed": true,
          "internalType": "address",
          "name": "newOwner",
          "type": "address"
        }
      ],
      "name": "OwnerPulled",
      "type": "event"
    },
    {
      "anonymous": false,
      "inputs": [
        {
          "indexed": true,
          "internalType": "address",
          "name": "pushedOwner",
          "type": "address"
        }
      ],
      "name": "OwnerPushed",
      "type": "event"
    },
    {
      "anonymous": false,
      "inputs": [
        {
          "indexed": true,
          "internalType": "address",
          "name": "operator",
          "type": "address"
        },
        {
          "indexed": true,
          "internalType": "address",
          "name": "from",
          "type": "address"
        },
        {
          "indexed": true,
          "internalType": "address",
          "name": "to",
          "type": "address"
        },
        {
          "indexed": false,
          "internalType": "uint256[]",
          "name": "ids",
          "type": "uint256[]"
        },
        {
          "indexed": false,
          "internalType": "uint256[]",
          "name": "amounts",
          "type": "uint256[]"
        }
      ],
      "name": "TransferBatch",
      "type": "event"
    },
    {
      "anonymous": false,
      "inputs": [
        {
          "indexed": true,
          "internalType": "address",
          "name": "operator",
          "type": "address"
        },
        {
          "indexed": true,
          "internalType": "address",
          "name": "from",
          "type": "address"
        },
        {
          "indexed": true,
          "internalType": "address",
          "name": "to",
          "type": "address"
        },
        {
          "indexed": false,
          "internalType": "uint256",
          "name": "id",
          "type": "uint256"
        },
        {
          "indexed": false,
          "internalType": "uint256",
          "name": "amount",
          "type": "uint256"
        }
      ],
      "name": "TransferSingle",
      "type": "event"
    },
    {
      "anonymous": false,
      "inputs": [
        {
          "indexed": false,
          "internalType": "string",
          "name": "value",
          "type": "string"
        },
        {
          "indexed": true,
          "internalType": "uint256",
          "name": "id",
          "type": "uint256"
        }
      ],
      "name": "URI",
      "type": "event"
    },
    {
      "anonymous": false,
      "inputs": [
        {
          "indexed": false,
          "internalType": "string",
          "name": "uri",
          "type": "string"
        }
      ],
      "name": "UpdateUri",
      "type": "event"
    },
    {
      "inputs": [
        {
          "internalType": "address",
          "name": "",
          "type": "address"
        },
        {
          "internalType": "uint256",
          "name": "",
          "type": "uint256"
        }
      ],
      "name": "balanceOf",
      "outputs": [
        {
          "internalType": "uint256",
          "name": "",
          "type": "uint256"
        }
      ],
      "stateMutability": "view",
      "type": "function"
    },
    {
      "inputs": [
        {
          "internalType": "address[]",
          "name": "owners",
          "type": "address[]"
        },
        {
          "internalType": "uint256[]",
          "name": "ids",
          "type": "uint256[]"
        }
      ],
      "name": "balanceOfBatch",
      "outputs": [
        {
          "internalType": "uint256[]",
          "name": "balances",
          "type": "uint256[]"
        }
      ],
      "stateMutability": "view",
      "type": "function"
    },
    {
      "inputs": [
        {
          "internalType": "address",
          "name": "to",
          "type": "address"
        },
        {
          "internalType": "uint256[]",
          "name": "gameItemIds",
          "type": "uint256[]"
        },
        {
          "internalType": "uint256[]",
          "name": "amounts",
          "type": "uint256[]"
        }
      ],
      "name": "batchMint",
      "outputs": [],
      "stateMutability": "nonpayable",
      "type": "function"
    },
    {
      "inputs": [
        {
          "internalType": "address",
          "name": "account",
          "type": "address"
        }
      ],
      "name": "grantMinterRole",
      "outputs": [],
      "stateMutability": "nonpayable",
      "type": "function"
    },
    {
      "inputs": [
        {
          "internalType": "address",
          "name": "",
          "type": "address"
        },
        {
          "internalType": "address",
          "name": "",
          "type": "address"
        }
      ],
      "name": "isApprovedForAll",
      "outputs": [
        {
          "internalType": "bool",
          "name": "",
          "type": "bool"
        }
      ],
      "stateMutability": "view",
      "type": "function"
    },
    {
      "inputs": [
        {
          "internalType": "address",
          "name": "",
          "type": "address"
        }
      ],
      "name": "isMinter",
      "outputs": [
        {
          "internalType": "bool",
          "name": "",
          "type": "bool"
        }
      ],
      "stateMutability": "view",
      "type": "function"
    },
    {
      "inputs": [
        {
          "internalType": "address",
          "name": "to",
          "type": "address"
        },
        {
          "internalType": "uint256",
          "name": "gameItemId",
          "type": "uint256"
        },
        {
          "internalType": "uint256",
          "name": "amount",
          "type": "uint256"
        }
      ],
      "name": "mint",
      "outputs": [],
      "stateMutability": "nonpayable",
      "type": "function"
    },
    {
      "inputs": [],
      "name": "newOwner",
      "outputs": [
        {
          "internalType": "address",
          "name": "",
          "type": "address"
        }
      ],
      "stateMutability": "view",
      "type": "function"
    },
    {
      "inputs": [],
      "name": "owner",
      "outputs": [
        {
          "internalType": "address",
          "name": "",
          "type": "address"
        }
      ],
      "stateMutability": "view",
      "type": "function"
    },
    {
      "inputs": [],
      "name": "pullOwner",
      "outputs": [],
      "stateMutability": "nonpayable",
      "type": "function"
    },
    {
      "inputs": [
        {
          "internalType": "address",
          "name": "account",
          "type": "address"
        }
      ],
      "name": "pushOwner",
      "outputs": [],
      "stateMutability": "nonpayable",
      "type": "function"
    },
    {
      "inputs": [
        {
          "internalType": "address",
          "name": "account",
          "type": "address"
        }
      ],
      "name": "revokeMinterRole",
      "outputs": [],
      "stateMutability": "nonpayable",
      "type": "function"
    },
    {
      "inputs": [
        {
          "internalType": "address",
          "name": "from",
          "type": "address"
        },
        {
          "internalType": "address",
          "name": "to",
          "type": "address"
        },
        {
          "internalType": "uint256[]",
          "name": "ids",
          "type": "uint256[]"
        },
        {
          "internalType": "uint256[]",
          "name": "amounts",
          "type": "uint256[]"
        },
        {
          "internalType": "bytes",
          "name": "data",
          "type": "bytes"
        }
      ],
      "name": "safeBatchTransferFrom",
      "outputs": [],
      "stateMutability": "nonpayable",
      "type": "function"
    },
    {
      "inputs": [
        {
          "internalType": "address",
          "name": "from",
          "type": "address"
        },
        {
          "internalType": "address",
          "name": "to",
          "type": "address"
        },
        {
          "internalType": "uint256",
          "name": "id",
          "type": "uint256"
        },
        {
          "internalType": "uint256",
          "name": "amount",
          "type": "uint256"
        },
        {
          "internalType": "bytes",
          "name": "data",
          "type": "bytes"
        }
      ],
      "name": "safeTransferFrom",
      "outputs": [],
      "stateMutability": "nonpayable",
      "type": "function"
    },
    {
      "inputs": [
        {
          "internalType": "address",
          "name": "operator",
          "type": "address"
        },
        {
          "internalType": "bool",
          "name": "approved",
          "type": "bool"
        }
      ],
      "name": "setApprovalForAll",
      "outputs": [],
      "stateMutability": "nonpayable",
      "type": "function"
    },
    {
      "inputs": [
        {
          "internalType": "string",
          "name": "newUri",
          "type": "string"
        }
      ],
      "name": "setUri",
      "outputs": [],
      "stateMutability": "nonpayable",
      "type": "function"
    },
    {
      "inputs": [
        {
          "internalType": "bytes4",
          "name": "interfaceId",
          "type": "bytes4"
        }
      ],
      "name": "supportsInterface",
      "outputs": [
        {
          "internalType": "bool",
          "name": "",
          "type": "bool"
        }
      ],
      "stateMutability": "pure",
      "type": "function"
    },
    {
      "inputs": [
        {
          "internalType": "uint256",
          "name": "",
          "type": "uint256"
        }
      ],
      "name": "uri",
      "outputs": [
        {
          "internalType": "string",
          "name": "",
          "type": "string"
        }
      ],
      "stateMutability": "view",
      "type": "function"
    }
  ],
  "transactionHash": "0x5766a52d27cfd926ed93acf6a1e2a23c81587c096a6d72c0aabf719b5c175711",
  "args": [
    ""
  ],
  "numDeployments": 1,
  "solcInputHash": "73f02f9eb3cb6836a802db183065c528",
  "bytecode": "0x60806040523480156200001157600080fd5b5060405162001d5538038062001d55833981016040819052620000349162000214565b600280546001600160a01b03191633908117909155604051600091907faac18e3887f7d855b2483e20615f8e3fb6efc18e25502090082b47047fb57c73908390a3620000808162000087565b506200033e565b6002546001600160a01b03163314620000d35760405162461bcd60e51b815260206004820152600a60248201526927b7363c9037bbb732b960b11b604482015260640160405180910390fd5b8051620000e890600590602084019062000125565b507f939bf366bcc8c80f27fe4f0c8b84a684dff2a850dfaeab01def7dc90b87b330b816040516200011a9190620002cc565b60405180910390a150565b828054620001339062000301565b90600052602060002090601f016020900481019282620001575760008555620001a2565b82601f106200017257805160ff1916838001178555620001a2565b82800160010185558215620001a2579182015b82811115620001a257825182559160200191906001019062000185565b50620001b0929150620001b4565b5090565b5b80821115620001b05760008155600101620001b5565b634e487b7160e01b600052604160045260246000fd5b60005b83811015620001fe578181015183820152602001620001e4565b838111156200020e576000848401525b50505050565b6000602082840312156200022757600080fd5b81516001600160401b03808211156200023f57600080fd5b818401915084601f8301126200025457600080fd5b815181811115620002695762000269620001cb565b604051601f8201601f19908116603f01168101908382118183101715620002945762000294620001cb565b81604052828152876020848701011115620002ae57600080fd5b620002c1836020830160208801620001e1565b979650505050505050565b6020815260008251806020840152620002ed816040850160208701620001e1565b601f01601f19169190910160400192915050565b600181811c908216806200031657607f821691505b602082108114156200033857634e487b7160e01b600052602260045260246000fd5b50919050565b611a07806200034e6000396000f3fe608060405234801561001057600080fd5b50600436106101155760003560e01c80636cef16e6116100a2578063aa271e1a11610071578063aa271e1a14610272578063ac5a7d5c14610295578063d4ee1d90146102a8578063e985e9c5146102bb578063f242432a146102e957600080fd5b80636cef16e6146102195780638da5cb5b146102215780639b642de11461024c578063a22cb4651461025f57600080fd5b8063156e29f6116100e9578063156e29f6146101ad5780632eb2c2d6146101c05780633dd1eb61146101d35780634e1273f4146101e657806369e2f0fb1461020657600080fd5b8062fdd58e1461011a57806301ffc9a7146101555780630ca83480146101785780630e89341c1461018d575b600080fd5b610142610128366004611209565b600060208181529281526040808220909352908152205481565b6040519081526020015b60405180910390f35b61016861016336600461124c565b6102fc565b604051901515815260200161014c565b61018b610186366004611346565b61034e565b005b6101a061019b3660046113ba565b6103c0565b60405161014c9190611420565b61018b6101bb366004611433565b610454565b61018b6101ce3660046114de565b6104bc565b61018b6101e1366004611588565b61075b565b6101f96101f43660046115a3565b610872565b60405161014c919061169e565b61018b610214366004611588565b61097e565b61018b610a47565b600254610234906001600160a01b031681565b6040516001600160a01b03909116815260200161014c565b61018b61025a3660046116b1565b610ae2565b61018b61026d366004611702565b610b5a565b610168610280366004611588565b60046020526000908152604090205460ff1681565b61018b6102a3366004611588565b610bc6565b600354610234906001600160a01b031681565b6101686102c936600461173e565b600160209081526000928352604080842090915290825290205460ff1681565b61018b6102f7366004611771565b610c80565b60006301ffc9a760e01b6001600160e01b03198316148061032d5750636cdb3d1360e11b6001600160e01b03198316145b8061034857506303a24d0760e21b6001600160e01b03198316145b92915050565b3360009081526004602052604090205460ff166103a05760405162461bcd60e51b815260206004820152600b60248201526a27b7363c9036b4b73a32b960a91b60448201526064015b60405180910390fd5b6103bb83838360405180602001604052806000815250610e86565b505050565b6060600580546103cf906117d6565b80601f01602080910402602001604051908101604052809291908181526020018280546103fb906117d6565b80156104485780601f1061041d57610100808354040283529160200191610448565b820191906000526020600020905b81548152906001019060200180831161042b57829003601f168201915b50505050509050919050565b3360009081526004602052604090205460ff166104a15760405162461bcd60e51b815260206004820152600b60248201526a27b7363c9036b4b73a32b960a91b6044820152606401610397565b6103bb83838360405180602001604052806000815250610ffd565b8251825181146104de5760405162461bcd60e51b815260040161039790611811565b336001600160a01b038716148061051857506001600160a01b038616600090815260016020908152604080832033845290915290205460ff165b6105555760405162461bcd60e51b815260206004820152600e60248201526d1393d517d055551213d49256915160921b6044820152606401610397565b60005b8181101561062a5760008582815181106105745761057461183a565b6020026020010151905060008583815181106105925761059261183a565b60200260200101519050806000808b6001600160a01b03166001600160a01b03168152602001908152602001600020600084815260200190815260200160002060008282546105e19190611866565b90915550506001600160a01b0388166000908152602081815260408083208584529091528120805483929061061790849061187d565b9091555050600190920191506105589050565b50846001600160a01b0316866001600160a01b0316336001600160a01b03167f4a39dc06d4c0dbc64b70af90fd698a233a518aa5d07e595d983b8c0526c8f7fb878760405161067a929190611895565b60405180910390a46001600160a01b0385163b1561072a5760405163bc197c8160e01b808252906001600160a01b0387169063bc197c81906106c89033908b908a908a908a906004016118c3565b602060405180830381600087803b1580156106e257600080fd5b505af11580156106f6573d6000803e3d6000fd5b505050506040513d601f19601f8201168201806040525081019061071a9190611921565b6001600160e01b03191614610737565b6001600160a01b03851615155b6107535760405162461bcd60e51b81526004016103979061193e565b505050505050565b6002546001600160a01b031633146107855760405162461bcd60e51b815260040161039790611968565b6001600160a01b0381166107cb5760405162461bcd60e51b815260206004820152600d60248201526c4e6f206164647265737328302960981b6044820152606401610397565b6001600160a01b03811660009081526004602052604090205460ff16156108265760405162461bcd60e51b815260206004820152600f60248201526e105b1c9958591e4819dc985b9d1959608a1b6044820152606401610397565b6001600160a01b038116600081815260046020526040808220805460ff19166001179055517fbd42b6cd963a984d8cbff85acad4dd2c87a6d85ac756d16e6d2ec5ce6c8f07309190a250565b815181516060919081146108985760405162461bcd60e51b815260040161039790611811565b835167ffffffffffffffff8111156108b2576108b2611270565b6040519080825280602002602001820160405280156108db578160200160208202803683370190505b50915060005b81811015610976576000808683815181106108fe576108fe61183a565b60200260200101516001600160a01b03166001600160a01b03168152602001908152602001600020600085838151811061093a5761093a61183a565b60200260200101518152602001908152602001600020548382815181106109635761096361183a565b60209081029190910101526001016108e1565b505092915050565b6002546001600160a01b031633146109a85760405162461bcd60e51b815260040161039790611968565b6001600160a01b03811660009081526004602052604090205460ff166109fe5760405162461bcd60e51b815260206004820152600b60248201526a139bdd0819dc985b9d195960aa1b6044820152606401610397565b6001600160a01b038116600081815260046020526040808220805460ff19169055517ff474b72f3e21ebafdad7dadfcb99ae7eabdbf538d52a0e0eecbf8ce0fa7043fe9190a250565b6003546001600160a01b03163314610a925760405162461bcd60e51b815260206004820152600e60248201526d27b7363c903732bb9037bbb732b960911b6044820152606401610397565b60028054336001600160a01b0319821681179092556040516001600160a01b03909116919082907faac18e3887f7d855b2483e20615f8e3fb6efc18e25502090082b47047fb57c7390600090a350565b6002546001600160a01b03163314610b0c5760405162461bcd60e51b815260040161039790611968565b8051610b1f906005906020840190611154565b507f939bf366bcc8c80f27fe4f0c8b84a684dff2a850dfaeab01def7dc90b87b330b81604051610b4f9190611420565b60405180910390a150565b3360008181526001602090815260408083206001600160a01b03871680855290835292819020805460ff191686151590811790915590519081529192917f17307eab39ab6107e8899845ad3d59bd9653f200f220920489ca2b5937696c31910160405180910390a35050565b6002546001600160a01b03163314610bf05760405162461bcd60e51b815260040161039790611968565b6001600160a01b038116610c365760405162461bcd60e51b815260206004820152600d60248201526c4e6f206164647265737328302960981b6044820152606401610397565b600380546001600160a01b0319166001600160a01b0383169081179091556040517fd52a054f85e9a057277cd95bf6d5da45465068f0467ec7991f3fcc017be6b72590600090a250565b336001600160a01b0386161480610cba57506001600160a01b038516600090815260016020908152604080832033845290915290205460ff165b610cf75760405162461bcd60e51b815260206004820152600e60248201526d1393d517d055551213d49256915160921b6044820152606401610397565b6001600160a01b03851660009081526020818152604080832086845290915281208054849290610d28908490611866565b90915550506001600160a01b03841660009081526020818152604080832086845290915281208054849290610d5e90849061187d565b909155505060408051848152602081018490526001600160a01b03808716929088169133917fc3d58168c5ae7397731d063d5bbf3d657854427343f4c083240f7aacaa2d0f62910160405180910390a46001600160a01b0384163b15610e565760405163f23a6e6160e01b808252906001600160a01b0386169063f23a6e6190610df49033908a9089908990899060040161198c565b602060405180830381600087803b158015610e0e57600080fd5b505af1158015610e22573d6000803e3d6000fd5b505050506040513d601f19601f82011682018060405250810190610e469190611921565b6001600160e01b03191614610e63565b6001600160a01b03841615155b610e7f5760405162461bcd60e51b81526004016103979061193e565b5050505050565b825182518114610ea85760405162461bcd60e51b815260040161039790611811565b60005b81811015610f3757838181518110610ec557610ec561183a565b6020026020010151600080886001600160a01b03166001600160a01b031681526020019081526020016000206000878481518110610f0557610f0561183a565b602002602001015181526020019081526020016000206000828254610f2a919061187d565b9091555050600101610eab565b50846001600160a01b031660006001600160a01b0316336001600160a01b03167f4a39dc06d4c0dbc64b70af90fd698a233a518aa5d07e595d983b8c0526c8f7fb8787604051610f88929190611895565b60405180910390a46001600160a01b0385163b15610fd75760405163bc197c8160e01b808252906001600160a01b0387169063bc197c8190610df49033906000908a908a908a906004016118c3565b6001600160a01b038516610e7f5760405162461bcd60e51b81526004016103979061193e565b6001600160a01b0384166000908152602081815260408083208684529091528120805484929061102e90849061187d565b909155505060408051848152602081018490526001600160a01b0386169160009133917fc3d58168c5ae7397731d063d5bbf3d657854427343f4c083240f7aacaa2d0f62910160405180910390a46001600160a01b0384163b156111255760405163f23a6e6160e01b808252906001600160a01b0386169063f23a6e61906110c390339060009089908990899060040161198c565b602060405180830381600087803b1580156110dd57600080fd5b505af11580156110f1573d6000803e3d6000fd5b505050506040513d601f19601f820116820180604052508101906111159190611921565b6001600160e01b03191614611132565b6001600160a01b03841615155b61114e5760405162461bcd60e51b81526004016103979061193e565b50505050565b828054611160906117d6565b90600052602060002090601f01602090048101928261118257600085556111c8565b82601f1061119b57805160ff19168380011785556111c8565b828001600101855582156111c8579182015b828111156111c85782518255916020019190600101906111ad565b506111d49291506111d8565b5090565b5b808211156111d457600081556001016111d9565b80356001600160a01b038116811461120457600080fd5b919050565b6000806040838503121561121c57600080fd5b611225836111ed565b946020939093013593505050565b6001600160e01b03198116811461124957600080fd5b50565b60006020828403121561125e57600080fd5b813561126981611233565b9392505050565b634e487b7160e01b600052604160045260246000fd5b604051601f8201601f1916810167ffffffffffffffff811182821017156112af576112af611270565b604052919050565b600067ffffffffffffffff8211156112d1576112d1611270565b5060051b60200190565b600082601f8301126112ec57600080fd5b813560206113016112fc836112b7565b611286565b82815260059290921b8401810191818101908684111561132057600080fd5b8286015b8481101561133b5780358352918301918301611324565b509695505050505050565b60008060006060848603121561135b57600080fd5b611364846111ed565b9250602084013567ffffffffffffffff8082111561138157600080fd5b61138d878388016112db565b935060408601359150808211156113a357600080fd5b506113b0868287016112db565b9150509250925092565b6000602082840312156113cc57600080fd5b5035919050565b6000815180845260005b818110156113f9576020818501810151868301820152016113dd565b8181111561140b576000602083870101525b50601f01601f19169290920160200192915050565b60208152600061126960208301846113d3565b60008060006060848603121561144857600080fd5b611451846111ed565b95602085013595506040909401359392505050565b600067ffffffffffffffff83111561148057611480611270565b611493601f8401601f1916602001611286565b90508281528383830111156114a757600080fd5b828260208301376000602084830101529392505050565b600082601f8301126114cf57600080fd5b61126983833560208501611466565b600080600080600060a086880312156114f657600080fd5b6114ff866111ed565b945061150d602087016111ed565b9350604086013567ffffffffffffffff8082111561152a57600080fd5b61153689838a016112db565b9450606088013591508082111561154c57600080fd5b61155889838a016112db565b9350608088013591508082111561156e57600080fd5b5061157b888289016114be565b9150509295509295909350565b60006020828403121561159a57600080fd5b611269826111ed565b600080604083850312156115b657600080fd5b823567ffffffffffffffff808211156115ce57600080fd5b818501915085601f8301126115e257600080fd5b813560206115f26112fc836112b7565b82815260059290921b8401810191818101908984111561161157600080fd5b948201945b8386101561163657611627866111ed565b82529482019490820190611616565b9650508601359250508082111561164c57600080fd5b50611659858286016112db565b9150509250929050565b600081518084526020808501945080840160005b8381101561169357815187529582019590820190600101611677565b509495945050505050565b6020815260006112696020830184611663565b6000602082840312156116c357600080fd5b813567ffffffffffffffff8111156116da57600080fd5b8201601f810184136116eb57600080fd5b6116fa84823560208401611466565b949350505050565b6000806040838503121561171557600080fd5b61171e836111ed565b91506020830135801515811461173357600080fd5b809150509250929050565b6000806040838503121561175157600080fd5b61175a836111ed565b9150611768602084016111ed565b90509250929050565b600080600080600060a0868803121561178957600080fd5b611792866111ed565b94506117a0602087016111ed565b93506040860135925060608601359150608086013567ffffffffffffffff8111156117ca57600080fd5b61157b888289016114be565b600181811c908216806117ea57607f821691505b6020821081141561180b57634e487b7160e01b600052602260045260246000fd5b50919050565b6020808252600f908201526e0988a9c8ea890be9a92a69a82a8869608b1b604082015260600190565b634e487b7160e01b600052603260045260246000fd5b634e487b7160e01b600052601160045260246000fd5b60008282101561187857611878611850565b500390565b6000821982111561189057611890611850565b500190565b6040815260006118a86040830185611663565b82810360208401526118ba8185611663565b95945050505050565b6001600160a01b0386811682528516602082015260a0604082018190526000906118ef90830186611663565b82810360608401526119018186611663565b9050828103608084015261191581856113d3565b98975050505050505050565b60006020828403121561193357600080fd5b815161126981611233565b60208082526010908201526f155394d0519157d49150d2541251539560821b604082015260600190565b6020808252600a908201526927b7363c9037bbb732b960b11b604082015260600190565b6001600160a01b03868116825285166020820152604081018490526060810183905260a0608082018190526000906119c6908301846113d3565b97965050505050505056fea26469706673582212209fe687418651e0c1948fea80128f0f7eb2e98e546a3ee3bbb90a91b81395819764736f6c63430008090033",
  "devdoc": {
    "kind": "dev",
    "methods": {},
    "version": 1
  },
  "userdoc": {
    "kind": "user",
    "methods": {},
    "version": 1
  },
  "storageLayout": {
    "storage": [
      {
        "astId": 3892,
        "contract": "contracts/GameItem.sol:GameItem",
        "label": "balanceOf",
        "offset": 0,
        "slot": "0",
        "type": "t_mapping(t_address,t_mapping(t_uint256,t_uint256))"
      },
      {
        "astId": 3898,
        "contract": "contracts/GameItem.sol:GameItem",
        "label": "isApprovedForAll",
        "offset": 0,
        "slot": "1",
        "type": "t_mapping(t_address,t_mapping(t_address,t_bool))"
      },
      {
        "astId": 5032,
        "contract": "contracts/GameItem.sol:GameItem",
        "label": "owner",
        "offset": 0,
        "slot": "2",
        "type": "t_address"
      },
      {
        "astId": 5034,
        "contract": "contracts/GameItem.sol:GameItem",
        "label": "newOwner",
        "offset": 0,
        "slot": "3",
        "type": "t_address"
      },
      {
        "astId": 5038,
        "contract": "contracts/GameItem.sol:GameItem",
        "label": "isMinter",
        "offset": 0,
        "slot": "4",
        "type": "t_mapping(t_address,t_bool)"
      },
      {
        "astId": 6224,
        "contract": "contracts/GameItem.sol:GameItem",
        "label": "_uri",
        "offset": 0,
        "slot": "5",
        "type": "t_string_storage"
      }
    ],
    "types": {
      "t_address": {
        "encoding": "inplace",
        "label": "address",
        "numberOfBytes": "20"
      },
      "t_bool": {
        "encoding": "inplace",
        "label": "bool",
        "numberOfBytes": "1"
      },
      "t_mapping(t_address,t_bool)": {
        "encoding": "mapping",
        "key": "t_address",
        "label": "mapping(address => bool)",
        "numberOfBytes": "32",
        "value": "t_bool"
      },
      "t_mapping(t_address,t_mapping(t_address,t_bool))": {
        "encoding": "mapping",
        "key": "t_address",
        "label": "mapping(address => mapping(address => bool))",
        "numberOfBytes": "32",
        "value": "t_mapping(t_address,t_bool)"
      },
      "t_mapping(t_address,t_mapping(t_uint256,t_uint256))": {
        "encoding": "mapping",
        "key": "t_address",
        "label": "mapping(address => mapping(uint256 => uint256))",
        "numberOfBytes": "32",
        "value": "t_mapping(t_uint256,t_uint256)"
      },
      "t_mapping(t_uint256,t_uint256)": {
        "encoding": "mapping",
        "key": "t_uint256",
        "label": "mapping(uint256 => uint256)",
        "numberOfBytes": "32",
        "value": "t_uint256"
      },
      "t_string_storage": {
        "encoding": "bytes",
        "label": "string",
        "numberOfBytes": "32"
      },
      "t_uint256": {
        "encoding": "inplace",
        "label": "uint256",
        "numberOfBytes": "32"
      }
    }
  }
}