{
  "address": "0xcc98c9B0256dcd02b913910CF27B88e24b4434e0",
  "abi": [
    {
      "inputs": [
        {
          "internalType": "string",
          "name": "baseUri_",
          "type": "string"
        }
      ],
      "stateMutability": "nonpayable",
      "type": "constructor"
    },
    {
      "inputs": [],
      "name": "IsPaused",
      "type": "error"
    },
    {
      "inputs": [],
      "name": "NotPaused",
      "type": "error"
    },
    {
      "inputs": [
        {
          "internalType": "string",
          "name": "role",
          "type": "string"
        },
        {
          "internalType": "address",
          "name": "user",
          "type": "address"
        }
      ],
      "name": "Unauthorized",
      "type": "error"
    },
    {
      "anonymous": false,
      "inputs": [
        {
          "indexed": true,
          "internalType": "address",
          "name": "owner",
          "type": "address"
        },
        {
          "indexed": true,
          "internalType": "address",
          "name": "spender",
          "type": "address"
        },
        {
          "indexed": true,
          "internalType": "uint256",
          "name": "id",
          "type": "uint256"
        }
      ],
      "name": "Approval",
      "type": "event"
    },
    {
      "anonymous": false,
      "inputs": [
        {
          "indexed": true,
          "internalType": "address",
          "name": "owner",
          "type": "address"
        },
        {
          "indexed": true,
          "internalType": "address",
          "name": "operator",
          "type": "address"
        },
        {
          "indexed": false,
          "internalType": "bool",
          "name": "approved",
          "type": "bool"
        }
      ],
      "name": "ApprovalForAll",
      "type": "event"
    },
    {
      "anonymous": false,
      "inputs": [
        {
          "indexed": true,
          "internalType": "uint256",
          "name": "gemId",
          "type": "uint256"
        },
        {
          "indexed": false,
          "internalType": "uint256",
          "name": "gemType",
          "type": "uint256"
        }
      ],
      "name": "GemTypeSet",
      "type": "event"
    },
    {
      "anonymous": false,
      "inputs": [
        {
          "indexed": true,
          "internalType": "address",
          "name": "previousOwner",
          "type": "address"
        },
        {
          "indexed": true,
          "internalType": "address",
          "name": "newOwner",
          "type": "address"
        }
      ],
      "name": "OwnerPulled",
      "type": "event"
    },
    {
      "anonymous": false,
      "inputs": [
        {
          "indexed": true,
          "internalType": "address",
          "name": "pushedOwner",
          "type": "address"
        }
      ],
      "name": "OwnerPushed",
      "type": "event"
    },
    {
      "anonymous": false,
      "inputs": [
        {
          "indexed": false,
          "internalType": "address",
          "name": "account",
          "type": "address"
        }
      ],
      "name": "Paused",
      "type": "event"
    },
    {
      "anonymous": false,
      "inputs": [
        {
          "indexed": true,
          "internalType": "string",
          "name": "role",
          "type": "string"
        },
        {
          "indexed": true,
          "internalType": "address",
          "name": "account",
          "type": "address"
        },
        {
          "indexed": true,
          "internalType": "address",
          "name": "sender",
          "type": "address"
        }
      ],
      "name": "RoleGranted",
      "type": "event"
    },
    {
      "anonymous": false,
      "inputs": [
        {
          "indexed": true,
          "internalType": "string",
          "name": "role",
          "type": "string"
        },
        {
          "indexed": true,
          "internalType": "address",
          "name": "account",
          "type": "address"
        },
        {
          "indexed": true,
          "internalType": "address",
          "name": "sender",
          "type": "address"
        }
      ],
      "name": "RoleRevoked",
      "type": "event"
    },
    {
      "anonymous": false,
      "inputs": [
        {
          "indexed": true,
          "internalType": "address",
          "name": "from",
          "type": "address"
        },
        {
          "indexed": true,
          "internalType": "address",
          "name": "to",
          "type": "address"
        },
        {
          "indexed": true,
          "internalType": "uint256",
          "name": "id",
          "type": "uint256"
        }
      ],
      "name": "Transfer",
      "type": "event"
    },
    {
      "anonymous": false,
      "inputs": [
        {
          "indexed": false,
          "internalType": "address",
          "name": "account",
          "type": "address"
        }
      ],
      "name": "Unpaused",
      "type": "event"
    },
    {
      "anonymous": false,
      "inputs": [
        {
          "indexed": false,
          "internalType": "string",
          "name": "baseUri",
          "type": "string"
        }
      ],
      "name": "UpdateBaseUri",
      "type": "event"
    },
    {
      "inputs": [
        {
          "internalType": "address",
          "name": "spender",
          "type": "address"
        },
        {
          "internalType": "uint256",
          "name": "id",
          "type": "uint256"
        }
      ],
      "name": "approve",
      "outputs": [],
      "stateMutability": "nonpayable",
      "type": "function"
    },
    {
      "inputs": [
        {
          "internalType": "address",
          "name": "",
          "type": "address"
        }
      ],
      "name": "balanceOf",
      "outputs": [
        {
          "internalType": "uint256",
          "name": "",
          "type": "uint256"
        }
      ],
      "stateMutability": "view",
      "type": "function"
    },
    {
      "inputs": [
        {
          "internalType": "address",
          "name": "to",
          "type": "address"
        },
        {
          "internalType": "uint256[]",
          "name": "gemTypes",
          "type": "uint256[]"
        }
      ],
      "name": "batchMint",
      "outputs": [],
      "stateMutability": "nonpayable",
      "type": "function"
    },
    {
      "inputs": [
        {
          "internalType": "uint256",
          "name": "gemId",
          "type": "uint256"
        }
      ],
      "name": "gemTypes",
      "outputs": [
        {
          "internalType": "uint256",
          "name": "",
          "type": "uint256"
        }
      ],
      "stateMutability": "view",
      "type": "function"
    },
    {
      "inputs": [
        {
          "internalType": "uint256",
          "name": "",
          "type": "uint256"
        }
      ],
      "name": "getApproved",
      "outputs": [
        {
          "internalType": "address",
          "name": "",
          "type": "address"
        }
      ],
      "stateMutability": "view",
      "type": "function"
    },
    {
      "inputs": [
        {
          "internalType": "string",
          "name": "role",
          "type": "string"
        },
        {
          "internalType": "address",
          "name": "account",
          "type": "address"
        }
      ],
      "name": "grantRole",
      "outputs": [],
      "stateMutability": "nonpayable",
      "type": "function"
    },
    {
      "inputs": [
        {
          "internalType": "string",
          "name": "role",
          "type": "string"
        },
        {
          "internalType": "address",
          "name": "account",
          "type": "address"
        }
      ],
      "name": "hasRole",
      "outputs": [
        {
          "internalType": "bool",
          "name": "",
          "type": "bool"
        }
      ],
      "stateMutability": "view",
      "type": "function"
    },
    {
      "inputs": [
        {
          "internalType": "address",
          "name": "",
          "type": "address"
        },
        {
          "internalType": "address",
          "name": "",
          "type": "address"
        }
      ],
      "name": "isApprovedForAll",
      "outputs": [
        {
          "internalType": "bool",
          "name": "",
          "type": "bool"
        }
      ],
      "stateMutability": "view",
      "type": "function"
    },
    {
      "inputs": [
        {
          "internalType": "address",
          "name": "to",
          "type": "address"
        },
        {
          "internalType": "uint256",
          "name": "gemType",
          "type": "uint256"
        }
      ],
      "name": "mint",
      "outputs": [],
      "stateMutability": "nonpayable",
      "type": "function"
    },
    {
      "inputs": [],
      "name": "name",
      "outputs": [
        {
          "internalType": "string",
          "name": "",
          "type": "string"
        }
      ],
      "stateMutability": "view",
      "type": "function"
    },
    {
      "inputs": [],
      "name": "newOwner",
      "outputs": [
        {
          "internalType": "address",
          "name": "",
          "type": "address"
        }
      ],
      "stateMutability": "view",
      "type": "function"
    },
    {
      "inputs": [],
      "name": "owner",
      "outputs": [
        {
          "internalType": "address",
          "name": "",
          "type": "address"
        }
      ],
      "stateMutability": "view",
      "type": "function"
    },
    {
      "inputs": [
        {
          "internalType": "uint256",
          "name": "",
          "type": "uint256"
        }
      ],
      "name": "ownerOf",
      "outputs": [
        {
          "internalType": "address",
          "name": "",
          "type": "address"
        }
      ],
      "stateMutability": "view",
      "type": "function"
    },
    {
      "inputs": [],
      "name": "pause",
      "outputs": [],
      "stateMutability": "nonpayable",
      "type": "function"
    },
    {
      "inputs": [],
      "name": "paused",
      "outputs": [
        {
          "internalType": "bool",
          "name": "",
          "type": "bool"
        }
      ],
      "stateMutability": "view",
      "type": "function"
    },
    {
      "inputs": [],
      "name": "pullOwner",
      "outputs": [],
      "stateMutability": "nonpayable",
      "type": "function"
    },
    {
      "inputs": [
        {
          "internalType": "address",
          "name": "account",
          "type": "address"
        }
      ],
      "name": "pushOwner",
      "outputs": [],
      "stateMutability": "nonpayable",
      "type": "function"
    },
    {
      "inputs": [
        {
          "internalType": "string",
          "name": "role",
          "type": "string"
        }
      ],
      "name": "renounceRole",
      "outputs": [],
      "stateMutability": "nonpayable",
      "type": "function"
    },
    {
      "inputs": [
        {
          "internalType": "string",
          "name": "role",
          "type": "string"
        },
        {
          "internalType": "address",
          "name": "account",
          "type": "address"
        }
      ],
      "name": "revokeRole",
      "outputs": [],
      "stateMutability": "nonpayable",
      "type": "function"
    },
    {
      "inputs": [
        {
          "internalType": "address",
          "name": "from",
          "type": "address"
        },
        {
          "internalType": "address",
          "name": "to",
          "type": "address"
        },
        {
          "internalType": "uint256[]",
          "name": "gemIds",
          "type": "uint256[]"
        }
      ],
      "name": "safeBatchTransferFrom",
      "outputs": [],
      "stateMutability": "nonpayable",
      "type": "function"
    },
    {
      "inputs": [
        {
          "internalType": "address",
          "name": "from",
          "type": "address"
        },
        {
          "internalType": "address",
          "name": "to",
          "type": "address"
        },
        {
          "internalType": "uint256",
          "name": "id",
          "type": "uint256"
        }
      ],
      "name": "safeTransferFrom",
      "outputs": [],
      "stateMutability": "nonpayable",
      "type": "function"
    },
    {
      "inputs": [
        {
          "internalType": "address",
          "name": "from",
          "type": "address"
        },
        {
          "internalType": "address",
          "name": "to",
          "type": "address"
        },
        {
          "internalType": "uint256",
          "name": "id",
          "type": "uint256"
        },
        {
          "internalType": "bytes",
          "name": "data",
          "type": "bytes"
        }
      ],
      "name": "safeTransferFrom",
      "outputs": [],
      "stateMutability": "nonpayable",
      "type": "function"
    },
    {
      "inputs": [
        {
          "internalType": "address",
          "name": "operator",
          "type": "address"
        },
        {
          "internalType": "bool",
          "name": "approved",
          "type": "bool"
        }
      ],
      "name": "setApprovalForAll",
      "outputs": [],
      "stateMutability": "nonpayable",
      "type": "function"
    },
    {
      "inputs": [
        {
          "internalType": "string",
          "name": "newUri",
          "type": "string"
        }
      ],
      "name": "setBaseUri",
      "outputs": [],
      "stateMutability": "nonpayable",
      "type": "function"
    },
    {
      "inputs": [
        {
          "internalType": "bytes4",
          "name": "interfaceId",
          "type": "bytes4"
        }
      ],
      "name": "supportsInterface",
      "outputs": [
        {
          "internalType": "bool",
          "name": "",
          "type": "bool"
        }
      ],
      "stateMutability": "pure",
      "type": "function"
    },
    {
      "inputs": [],
      "name": "symbol",
      "outputs": [
        {
          "internalType": "string",
          "name": "",
          "type": "string"
        }
      ],
      "stateMutability": "view",
      "type": "function"
    },
    {
      "inputs": [
        {
          "internalType": "uint256",
          "name": "gemId",
          "type": "uint256"
        }
      ],
      "name": "tokenURI",
      "outputs": [
        {
          "internalType": "string",
          "name": "",
          "type": "string"
        }
      ],
      "stateMutability": "view",
      "type": "function"
    },
    {
      "inputs": [],
      "name": "totalSupply",
      "outputs": [
        {
          "internalType": "uint256",
          "name": "",
          "type": "uint256"
        }
      ],
      "stateMutability": "view",
      "type": "function"
    },
    {
      "inputs": [
        {
          "internalType": "address",
          "name": "from",
          "type": "address"
        },
        {
          "internalType": "address",
          "name": "to",
          "type": "address"
        },
        {
          "internalType": "uint256",
          "name": "id",
          "type": "uint256"
        }
      ],
      "name": "transferFrom",
      "outputs": [],
      "stateMutability": "nonpayable",
      "type": "function"
    },
    {
      "inputs": [],
      "name": "unpause",
      "outputs": [],
      "stateMutability": "nonpayable",
      "type": "function"
    }
  ],
  "transactionHash": "0x1f09fbc8f86dc248a984814e8a13857cef33d1e4e444758d765cd6ac0f90080e",
  "args": [
    ""
  ],
  "numDeployments": 3,
  "solcInputHash": "08383365ccd50937a9fb45171093b767",
  "bytecode": "0x60806040526000600c553480156200001657600080fd5b506040516200222538038062002225833981016040819052620000399162000287565b6040518060400160405280600381526020016247656d60e81b8152506040518060400160405280600381526020016247454d60e81b81525081600090805190602001906200008992919062000198565b5080516200009f90600190602084019062000198565b5050600680546001600160a01b031916339081179091556040519091506000907faac18e3887f7d855b2483e20615f8e3fb6efc18e25502090082b47047fb57c73908290a3620000ef81620000f6565b50620003b1565b6006546001600160a01b031633146200014657604080516309ab81ed60e01b81526004810191909152600560448201526427aba722a960d91b606482015233602482015260840160405180910390fd5b80516200015b90600a90602084019062000198565b507f157eb1fffc1000c7f0ee8cb1f87be2620ec910b8be9e3af7db8c97328e2757cf816040516200018d91906200033f565b60405180910390a150565b828054620001a69062000374565b90600052602060002090601f016020900481019282620001ca576000855562000215565b82601f10620001e557805160ff191683800117855562000215565b8280016001018555821562000215579182015b8281111562000215578251825591602001919060010190620001f8565b506200022392915062000227565b5090565b5b8082111562000223576000815560010162000228565b634e487b7160e01b600052604160045260246000fd5b60005b838110156200027157818101518382015260200162000257565b8381111562000281576000848401525b50505050565b6000602082840312156200029a57600080fd5b81516001600160401b0380821115620002b257600080fd5b818401915084601f830112620002c757600080fd5b815181811115620002dc57620002dc6200023e565b604051601f8201601f19908116603f011681019083821181831017156200030757620003076200023e565b816040528281528760208487010111156200032157600080fd5b6200033483602083016020880162000254565b979650505050505050565b60208152600082518060208401526200036081604085016020870162000254565b601f01601f19169190910160400192915050565b600181811c908216806200038957607f821691505b60208210811415620003ab57634e487b7160e01b600052602260045260246000fd5b50919050565b611e6480620003c16000396000f3fe608060405234801561001057600080fd5b50600436106101da5760003560e01c806370768f8611610104578063a17391d0116100a2578063c19ae2ed11610071578063c19ae2ed146103ff578063c87b56dd14610412578063d4ee1d9014610425578063e985e9c51461043857600080fd5b8063a17391d0146103b3578063a22cb465146103c6578063ac5a7d5c146103d9578063b88d4fde146103ec57600080fd5b80638456cb59116100de5780638456cb591461037d5780638da5cb5b1461038557806395d89b4114610398578063a0bcfc7f146103a057600080fd5b806370768f861461033757806370a082311461034a578063731f21a01461036a57600080fd5b80633f4ba83a1161017c5780635c975abb1161014b5780635c975abb146102eb5780636352211e146102f35780636c9cd0971461031c5780636cef16e61461032f57600080fd5b80633f4ba83a146102aa57806340c10f19146102b257806342842e0e146102c55780634684d7e9146102d857600080fd5b8063081812fc116101b8578063081812fc14610231578063095ea7b31461027257806318160ddd1461028557806323b872dd1461029757600080fd5b806301ffc9a7146101df578063034601ec1461020757806306fdde031461021c575b600080fd5b6101f26101ed3660046116c9565b610466565b60405190151581526020015b60405180910390f35b61021a6102153660046117d0565b6104b8565b005b6102246104f6565b6040516101fe9190611886565b61025a61023f366004611899565b6004602052600090815260409020546001600160a01b031681565b6040516001600160a01b0390911681526020016101fe565b61021a6102803660046118b2565b610584565b600c545b6040519081526020016101fe565b61021a6102a53660046118dc565b61066b565b61021a610832565b61021a6102c03660046118b2565b6108dd565b61021a6102d33660046118dc565b61093d565b61021a6102e6366004611918565b610a21565b6101f2610ab3565b61025a610301366004611899565b6003602052600090815260409020546001600160a01b031681565b6101f261032a3660046119de565b610acb565b61021a610b0c565b61021a610345366004611a2c565b610bab565b610289610358366004611a61565b60026020526000908152604090205481565b61021a6103783660046119de565b610c01565b61021a610c85565b60065461025a906001600160a01b031681565b610224610d2a565b61021a6103ae366004611a2c565b610d37565b6102896103c1366004611899565b610da7565b61021a6103d4366004611a7c565b610e1a565b61021a6103e7366004611a61565b610e86565b61021a6103fa366004611ab8565b610f92565b61021a61040d3660046119de565b61105d565b610224610420366004611899565b61111c565b60075461025a906001600160a01b031681565b6101f2610446366004611b34565b600560209081526000928352604080842090915290825290205460ff1681565b60006301ffc9a760e01b6001600160e01b03198316148061049757506380ac58cd60e01b6001600160e01b03198316145b806104b25750635b5e139f60e01b6001600160e01b03198316145b92915050565b60005b81518110156104f0576104e884848484815181106104db576104db611b5e565b602002602001015161093d565b6001016104bb565b50505050565b6000805461050390611b74565b80601f016020809104026020016040519081016040528092919081815260200182805461052f90611b74565b801561057c5780601f106105515761010080835404028352916020019161057c565b820191906000526020600020905b81548152906001019060200180831161055f57829003601f168201915b505050505081565b6000818152600360205260409020546001600160a01b0316338114806105cd57506001600160a01b038116600090815260056020908152604080832033845290915290205460ff165b61060f5760405162461bcd60e51b815260206004820152600e60248201526d1393d517d055551213d49256915160921b60448201526064015b60405180910390fd5b60008281526004602052604080822080546001600160a01b0319166001600160a01b0387811691821790925591518593918516917f8c5be1e5ebec7d5bd14f71427d1e84f3dd0314c0f7b2291e5b200ac8c7c3b92591a4505050565b6000818152600360205260409020546001600160a01b038481169116146106c15760405162461bcd60e51b815260206004820152600a60248201526957524f4e475f46524f4d60b01b6044820152606401610606565b6001600160a01b03821661070b5760405162461bcd60e51b81526020600482015260116024820152701253959053125117d49150d25412515395607a1b6044820152606401610606565b336001600160a01b038416148061073857506000818152600460205260409020546001600160a01b031633145b8061076657506001600160a01b038316600090815260056020908152604080832033845290915290205460ff165b6107a35760405162461bcd60e51b815260206004820152600e60248201526d1393d517d055551213d49256915160921b6044820152606401610606565b6001600160a01b0380841660008181526002602090815260408083208054600019019055938616808352848320805460010190558583526003825284832080546001600160a01b03199081168317909155600490925284832080549092169091559251849392917fddf252ad1be2c89b69c2b068fc378daa952ba7f163c4a11628f55a4df523b3ef91a4505050565b604051806040016040528060068152602001652820aaa9a2a960d11b81525061085b8133610acb565b61087c5780336040516309ab81ed60e01b8152600401610606929190611baf565b610884610ab3565b6108a157604051636cd6020160e01b815260040160405180910390fd5b60006008556040513381527f5db9ee0a495bf2e6ff9c91a7834c1ba4fdd244a5e8aa4e537bd38aeae4b073aa906020015b60405180910390a150565b6040518060400160405280600681526020016526a4a72a22a960d11b8152506109068133610acb565b6109275780336040516309ab81ed60e01b8152600401610606929190611baf565b600c8054600181019091556104f08482856111b1565b61094883838361066b565b6001600160a01b0382163b1580610a005750604051630a85bd0160e11b8082523360048301526001600160a01b03858116602484015260448301849052608060648401526000608484015290919084169063150b7a029060a401602060405180830381600087803b1580156109bc57600080fd5b505af11580156109d0573d6000803e3d6000fd5b505050506040513d601f19601f820116820180604052508101906109f49190611bd9565b6001600160e01b031916145b610a1c5760405162461bcd60e51b815260040161060690611bf6565b505050565b6040518060400160405280600681526020016526a4a72a22a960d11b815250610a4a8133610acb565b610a6b5780336040516309ab81ed60e01b8152600401610606929190611baf565b600c5460005b8351811015610aaa57610a9e8583868481518110610a9157610a91611b5e565b60200260200101516111b1565b60019182019101610a71565b50600c55505050565b6000600854600114610ac55750600090565b50600190565b600060096000610ada856111c5565b8152602080820192909252604090810160009081206001600160a01b038616825290925290205460ff16905092915050565b6007546001600160a01b03163314610b5b57604080516309ab81ed60e01b8152600481019190915260096044820152682722abafa7aba722a960b91b6064820152336024820152608401610606565b60068054336001600160a01b0319821681179092556040516001600160a01b03909116919082907faac18e3887f7d855b2483e20615f8e3fb6efc18e25502090082b47047fb57c7390600090a350565b610bb58133610acb565b610bf45760405162461bcd60e51b815260206004820152601060248201526f149bdb19481b9bdd0819dc985b9d195960821b6044820152606401610606565b610bfe81336111d0565b50565b6006546001600160a01b03163314610c2e57336040516309ab81ed60e01b81526004016106069190611c20565b610c388282610acb565b610c775760405162461bcd60e51b815260206004820152601060248201526f149bdb19481b9bdd0819dc985b9d195960821b6044820152606401610606565b610c8182826111d0565b5050565b604051806040016040528060068152602001652820aaa9a2a960d11b815250610cae8133610acb565b610ccf5780336040516309ab81ed60e01b8152600401610606929190611baf565b610cd7610ab3565b15610cf557604051631309a56360e01b815260040160405180910390fd5b60016008556040513381527f62e78cea01bee320cd4e420270b5ea74000d11b0c9f74754ebdbfc544b05a258906020016108d2565b6001805461050390611b74565b6006546001600160a01b03163314610d6457336040516309ab81ed60e01b81526004016106069190611c20565b8051610d7790600a90602084019061161a565b507f157eb1fffc1000c7f0ee8cb1f87be2620ec910b8be9e3af7db8c97328e2757cf816040516108d29190611886565b6000818152600360205260408120546001600160a01b0316610e075760405162461bcd60e51b8152602060048201526019602482015278517565727920666f72206e6f6e6578697374656e742067656d60381b6044820152606401610606565b506000908152600b602052604090205490565b3360008181526005602090815260408083206001600160a01b03871680855290835292819020805460ff191686151590811790915590519081529192917f17307eab39ab6107e8899845ad3d59bd9653f200f220920489ca2b5937696c31910160405180910390a35050565b6006546001600160a01b03163314610eb357336040516309ab81ed60e01b81526004016106069190611c20565b6001600160a01b038116610ef95760405162461bcd60e51b815260206004820152600d60248201526c4e6f206164647265737328302960981b6044820152606401610606565b6006546001600160a01b0382811691161415610f485760405162461bcd60e51b815260206004820152600e60248201526d27b7363c903732bb9037bbb732b960911b6044820152606401610606565b600780546001600160a01b0319166001600160a01b0383169081179091556040517fd52a054f85e9a057277cd95bf6d5da45465068f0467ec7991f3fcc017be6b72590600090a250565b610f9d84848461066b565b6001600160a01b0383163b15806110415750604051630a85bd0160e11b808252906001600160a01b0385169063150b7a0290610fe3903390899088908890600401611c50565b602060405180830381600087803b158015610ffd57600080fd5b505af1158015611011573d6000803e3d6000fd5b505050506040513d601f19601f820116820180604052508101906110359190611bd9565b6001600160e01b031916145b6104f05760405162461bcd60e51b815260040161060690611bf6565b6006546001600160a01b0316331461108a57336040516309ab81ed60e01b81526004016106069190611c20565b60008251116110cc5760405162461bcd60e51b815260206004820152600e60248201526d2937b632903737ba1033b4bb32b760911b6044820152606401610606565b6001600160a01b0381166111125760405162461bcd60e51b815260206004820152600d60248201526c4e6f206164647265737328302960981b6044820152606401610606565b610c81828261124e565b6000818152600360205260409020546060906001600160a01b031661117f5760405162461bcd60e51b8152602060048201526019602482015278517565727920666f72206e6f6e6578697374656e742067656d60381b6044820152606401610606565b600a61118a836112dd565b60405160200161119b929190611ca9565b6040516020818303038152906040529050919050565b6111bb83836113e3565b610a1c82826114be565b60006104b282611d50565b60006111db836111c5565b60008181526009602090815260408083206001600160a01b038716808552925291829020805460ff1916905590519192503391611219908690611d74565b604051908190038120907ff3a2b91552b535c273a48d8b7453c8b0b287e20e51d74121eb50d975dbaa506d90600090a4505050565b6112588282610acb565b610c81576000611267836111c5565b60008181526009602090815260408083206001600160a01b038716808552925291829020805460ff19166001179055905191925033916112a8908690611d74565b604051908190038120907fe0ca4f6d52d59033a91ab89e93c98f9acada14e0086d8b1038284f42e6d5325790600090a4505050565b6060816113015750506040805180820190915260018152600360fc1b602082015290565b8160005b811561132b578061131581611da6565b91506113249050600a83611dd7565b9150611305565b60008167ffffffffffffffff81111561134657611346611709565b6040519080825280601f01601f191660200182016040528015611370576020820181803683370190505b5090505b84156113db57611385600183611deb565b9150611392600a86611e02565b61139d906030611e16565b60f81b8183815181106113b2576113b2611b5e565b60200101906001600160f81b031916908160001a9053506113d4600a86611dd7565b9450611374565b949350505050565b6113ed828261150f565b6001600160a01b0382163b15806114a25750604051630a85bd0160e11b80825233600483015260006024830181905260448301849052608060648401526084830152906001600160a01b0384169063150b7a029060a401602060405180830381600087803b15801561145e57600080fd5b505af1158015611472573d6000803e3d6000fd5b505050506040513d601f19601f820116820180604052508101906114969190611bd9565b6001600160e01b031916145b610c815760405162461bcd60e51b815260040161060690611bf6565b6000828152600b6020526040908190208290555182907f5162e286b586517af78b830db06652a2f5bad8af6b5b6492b7960afd3f2e8e0c906115039084815260200190565b60405180910390a25050565b6001600160a01b0382166115595760405162461bcd60e51b81526020600482015260116024820152701253959053125117d49150d25412515395607a1b6044820152606401610606565b6000818152600360205260409020546001600160a01b0316156115af5760405162461bcd60e51b815260206004820152600e60248201526d1053149150511657d3525395115160921b6044820152606401610606565b6001600160a01b038216600081815260026020908152604080832080546001019055848352600390915280822080546001600160a01b0319168417905551839291907fddf252ad1be2c89b69c2b068fc378daa952ba7f163c4a11628f55a4df523b3ef908290a45050565b82805461162690611b74565b90600052602060002090601f016020900481019282611648576000855561168e565b82601f1061166157805160ff191683800117855561168e565b8280016001018555821561168e579182015b8281111561168e578251825591602001919060010190611673565b5061169a92915061169e565b5090565b5b8082111561169a576000815560010161169f565b6001600160e01b031981168114610bfe57600080fd5b6000602082840312156116db57600080fd5b81356116e6816116b3565b9392505050565b80356001600160a01b038116811461170457600080fd5b919050565b634e487b7160e01b600052604160045260246000fd5b604051601f8201601f1916810167ffffffffffffffff8111828210171561174857611748611709565b604052919050565b600082601f83011261176157600080fd5b8135602067ffffffffffffffff82111561177d5761177d611709565b8160051b61178c82820161171f565b92835284810182019282810190878511156117a657600080fd5b83870192505b848310156117c5578235825291830191908301906117ac565b979650505050505050565b6000806000606084860312156117e557600080fd5b6117ee846116ed565b92506117fc602085016116ed565b9150604084013567ffffffffffffffff81111561181857600080fd5b61182486828701611750565b9150509250925092565b60005b83811015611849578181015183820152602001611831565b838111156104f05750506000910152565b6000815180845261187281602086016020860161182e565b601f01601f19169290920160200192915050565b6020815260006116e6602083018461185a565b6000602082840312156118ab57600080fd5b5035919050565b600080604083850312156118c557600080fd5b6118ce836116ed565b946020939093013593505050565b6000806000606084860312156118f157600080fd5b6118fa846116ed565b9250611908602085016116ed565b9150604084013590509250925092565b6000806040838503121561192b57600080fd5b611934836116ed565b9150602083013567ffffffffffffffff81111561195057600080fd5b61195c85828601611750565b9150509250929050565b600067ffffffffffffffff83111561198057611980611709565b611993601f8401601f191660200161171f565b90508281528383830111156119a757600080fd5b828260208301376000602084830101529392505050565b600082601f8301126119cf57600080fd5b6116e683833560208501611966565b600080604083850312156119f157600080fd5b823567ffffffffffffffff811115611a0857600080fd5b611a14858286016119be565b925050611a23602084016116ed565b90509250929050565b600060208284031215611a3e57600080fd5b813567ffffffffffffffff811115611a5557600080fd5b6113db848285016119be565b600060208284031215611a7357600080fd5b6116e6826116ed565b60008060408385031215611a8f57600080fd5b611a98836116ed565b915060208301358015158114611aad57600080fd5b809150509250929050565b60008060008060808587031215611ace57600080fd5b611ad7856116ed565b9350611ae5602086016116ed565b925060408501359150606085013567ffffffffffffffff811115611b0857600080fd5b8501601f81018713611b1957600080fd5b611b2887823560208401611966565b91505092959194509250565b60008060408385031215611b4757600080fd5b611b50836116ed565b9150611a23602084016116ed565b634e487b7160e01b600052603260045260246000fd5b600181811c90821680611b8857607f821691505b60208210811415611ba957634e487b7160e01b600052602260045260246000fd5b50919050565b604081526000611bc2604083018561185a565b905060018060a01b03831660208301529392505050565b600060208284031215611beb57600080fd5b81516116e6816116b3565b60208082526010908201526f155394d0519157d49150d2541251539560821b604082015260600190565b60408082526005908201526427aba722a960d91b60608201526001600160a01b0391909116602082015260800190565b6001600160a01b0385811682528416602082015260408101839052608060608201819052600090611c839083018461185a565b9695505050505050565b60008151611c9f81856020860161182e565b9290920192915050565b600080845481600182811c915080831680611cc557607f831692505b6020808410821415611ce557634e487b7160e01b86526022600452602486fd5b818015611cf95760018114611d0a57611d37565b60ff19861689528489019650611d37565b60008b81526020902060005b86811015611d2f5781548b820152908501908301611d16565b505084890196505b505050505050611d478185611c8d565b95945050505050565b80516020808301519190811015611ba95760001960209190910360031b1b16919050565b60008251611d8681846020870161182e565b9190910192915050565b634e487b7160e01b600052601160045260246000fd5b6000600019821415611dba57611dba611d90565b5060010190565b634e487b7160e01b600052601260045260246000fd5b600082611de657611de6611dc1565b500490565b600082821015611dfd57611dfd611d90565b500390565b600082611e1157611e11611dc1565b500690565b60008219821115611e2957611e29611d90565b50019056fea2646970667358221220add4fef574d128379b4328e341c9aaabccddaa12ca05c9cdd88bc1445d165c7864736f6c63430008090033",
  "devdoc": {
    "kind": "dev",
    "methods": {},
    "version": 1
  },
  "userdoc": {
    "kind": "user",
    "methods": {},
    "version": 1
  },
  "storageLayout": {
    "storage": [
      {
        "astId": 3872,
        "contract": "contracts/Gem.sol:Gem",
        "label": "name",
        "offset": 0,
        "slot": "0",
        "type": "t_string_storage"
      },
      {
        "astId": 3874,
        "contract": "contracts/Gem.sol:Gem",
        "label": "symbol",
        "offset": 0,
        "slot": "1",
        "type": "t_string_storage"
      },
      {
        "astId": 3885,
        "contract": "contracts/Gem.sol:Gem",
        "label": "balanceOf",
        "offset": 0,
        "slot": "2",
        "type": "t_mapping(t_address,t_uint256)"
      },
      {
        "astId": 3889,
        "contract": "contracts/Gem.sol:Gem",
        "label": "ownerOf",
        "offset": 0,
        "slot": "3",
        "type": "t_mapping(t_uint256,t_address)"
      },
      {
        "astId": 3893,
        "contract": "contracts/Gem.sol:Gem",
        "label": "getApproved",
        "offset": 0,
        "slot": "4",
        "type": "t_mapping(t_uint256,t_address)"
      },
      {
        "astId": 3899,
        "contract": "contracts/Gem.sol:Gem",
        "label": "isApprovedForAll",
        "offset": 0,
        "slot": "5",
        "type": "t_mapping(t_address,t_mapping(t_address,t_bool))"
      },
      {
        "astId": 4610,
        "contract": "contracts/Gem.sol:Gem",
        "label": "owner",
        "offset": 0,
        "slot": "6",
        "type": "t_address"
      },
      {
        "astId": 4612,
        "contract": "contracts/Gem.sol:Gem",
        "label": "newOwner",
        "offset": 0,
        "slot": "7",
        "type": "t_address"
      },
      {
        "astId": 4614,
        "contract": "contracts/Gem.sol:Gem",
        "label": "_paused",
        "offset": 0,
        "slot": "8",
        "type": "t_uint256"
      },
      {
        "astId": 4620,
        "contract": "contracts/Gem.sol:Gem",
        "label": "_roles",
        "offset": 0,
        "slot": "9",
        "type": "t_mapping(t_bytes32,t_mapping(t_address,t_bool))"
      },
      {
        "astId": 6890,
        "contract": "contracts/Gem.sol:Gem",
        "label": "_baseUri",
        "offset": 0,
        "slot": "10",
        "type": "t_string_storage"
      },
      {
        "astId": 6894,
        "contract": "contracts/Gem.sol:Gem",
        "label": "_gemTypes",
        "offset": 0,
        "slot": "11",
        "type": "t_mapping(t_uint256,t_uint256)"
      },
      {
        "astId": 6727,
        "contract": "contracts/Gem.sol:Gem",
        "label": "_gemIdCounter",
        "offset": 0,
        "slot": "12",
        "type": "t_uint256"
      }
    ],
    "types": {
      "t_address": {
        "encoding": "inplace",
        "label": "address",
        "numberOfBytes": "20"
      },
      "t_bool": {
        "encoding": "inplace",
        "label": "bool",
        "numberOfBytes": "1"
      },
      "t_bytes32": {
        "encoding": "inplace",
        "label": "bytes32",
        "numberOfBytes": "32"
      },
      "t_mapping(t_address,t_bool)": {
        "encoding": "mapping",
        "key": "t_address",
        "label": "mapping(address => bool)",
        "numberOfBytes": "32",
        "value": "t_bool"
      },
      "t_mapping(t_address,t_mapping(t_address,t_bool))": {
        "encoding": "mapping",
        "key": "t_address",
        "label": "mapping(address => mapping(address => bool))",
        "numberOfBytes": "32",
        "value": "t_mapping(t_address,t_bool)"
      },
      "t_mapping(t_address,t_uint256)": {
        "encoding": "mapping",
        "key": "t_address",
        "label": "mapping(address => uint256)",
        "numberOfBytes": "32",
        "value": "t_uint256"
      },
      "t_mapping(t_bytes32,t_mapping(t_address,t_bool))": {
        "encoding": "mapping",
        "key": "t_bytes32",
        "label": "mapping(bytes32 => mapping(address => bool))",
        "numberOfBytes": "32",
        "value": "t_mapping(t_address,t_bool)"
      },
      "t_mapping(t_uint256,t_address)": {
        "encoding": "mapping",
        "key": "t_uint256",
        "label": "mapping(uint256 => address)",
        "numberOfBytes": "32",
        "value": "t_address"
      },
      "t_mapping(t_uint256,t_uint256)": {
        "encoding": "mapping",
        "key": "t_uint256",
        "label": "mapping(uint256 => uint256)",
        "numberOfBytes": "32",
        "value": "t_uint256"
      },
      "t_string_storage": {
        "encoding": "bytes",
        "label": "string",
        "numberOfBytes": "32"
      },
      "t_uint256": {
        "encoding": "inplace",
        "label": "uint256",
        "numberOfBytes": "32"
      }
    }
  }
}