{
  "address": "0xcCB0d202F4afc832ee3FBBd48cB6BEEd1C82A8d1",
  "abi": [
    {
      "inputs": [
        {
          "internalType": "string",
          "name": "uri_",
          "type": "string"
        }
      ],
      "stateMutability": "nonpayable",
      "type": "constructor"
    },
    {
      "anonymous": false,
      "inputs": [
        {
          "indexed": true,
          "internalType": "address",
          "name": "owner",
          "type": "address"
        },
        {
          "indexed": true,
          "internalType": "address",
          "name": "operator",
          "type": "address"
        },
        {
          "indexed": false,
          "internalType": "bool",
          "name": "approved",
          "type": "bool"
        }
      ],
      "name": "ApprovalForAll",
      "type": "event"
    },
    {
      "anonymous": false,
      "inputs": [
        {
          "indexed": true,
          "internalType": "address",
          "name": "account",
          "type": "address"
        }
      ],
      "name": "MinterRoleGranted",
      "type": "event"
    },
    {
      "anonymous": false,
      "inputs": [
        {
          "indexed": true,
          "internalType": "address",
          "name": "account",
          "type": "address"
        }
      ],
      "name": "MinterRoleRevoked",
      "type": "event"
    },
    {
      "anonymous": false,
      "inputs": [
        {
          "indexed": true,
          "internalType": "address",
          "name": "previousOwner",
          "type": "address"
        },
        {
          "indexed": true,
          "internalType": "address",
          "name": "newOwner",
          "type": "address"
        }
      ],
      "name": "OwnerPulled",
      "type": "event"
    },
    {
      "anonymous": false,
      "inputs": [
        {
          "indexed": true,
          "internalType": "address",
          "name": "pushedOwner",
          "type": "address"
        }
      ],
      "name": "OwnerPushed",
      "type": "event"
    },
    {
      "anonymous": false,
      "inputs": [
        {
          "indexed": true,
          "internalType": "address",
          "name": "operator",
          "type": "address"
        },
        {
          "indexed": true,
          "internalType": "address",
          "name": "from",
          "type": "address"
        },
        {
          "indexed": true,
          "internalType": "address",
          "name": "to",
          "type": "address"
        },
        {
          "indexed": false,
          "internalType": "uint256[]",
          "name": "ids",
          "type": "uint256[]"
        },
        {
          "indexed": false,
          "internalType": "uint256[]",
          "name": "amounts",
          "type": "uint256[]"
        }
      ],
      "name": "TransferBatch",
      "type": "event"
    },
    {
      "anonymous": false,
      "inputs": [
        {
          "indexed": true,
          "internalType": "address",
          "name": "operator",
          "type": "address"
        },
        {
          "indexed": true,
          "internalType": "address",
          "name": "from",
          "type": "address"
        },
        {
          "indexed": true,
          "internalType": "address",
          "name": "to",
          "type": "address"
        },
        {
          "indexed": false,
          "internalType": "uint256",
          "name": "id",
          "type": "uint256"
        },
        {
          "indexed": false,
          "internalType": "uint256",
          "name": "amount",
          "type": "uint256"
        }
      ],
      "name": "TransferSingle",
      "type": "event"
    },
    {
      "anonymous": false,
      "inputs": [
        {
          "indexed": false,
          "internalType": "string",
          "name": "value",
          "type": "string"
        },
        {
          "indexed": true,
          "internalType": "uint256",
          "name": "id",
          "type": "uint256"
        }
      ],
      "name": "URI",
      "type": "event"
    },
    {
      "anonymous": false,
      "inputs": [
        {
          "indexed": false,
          "internalType": "string",
          "name": "uri",
          "type": "string"
        }
      ],
      "name": "UpdateUri",
      "type": "event"
    },
    {
      "inputs": [
        {
          "internalType": "address",
          "name": "",
          "type": "address"
        },
        {
          "internalType": "uint256",
          "name": "",
          "type": "uint256"
        }
      ],
      "name": "balanceOf",
      "outputs": [
        {
          "internalType": "uint256",
          "name": "",
          "type": "uint256"
        }
      ],
      "stateMutability": "view",
      "type": "function"
    },
    {
      "inputs": [
        {
          "internalType": "address[]",
          "name": "owners",
          "type": "address[]"
        },
        {
          "internalType": "uint256[]",
          "name": "ids",
          "type": "uint256[]"
        }
      ],
      "name": "balanceOfBatch",
      "outputs": [
        {
          "internalType": "uint256[]",
          "name": "balances",
          "type": "uint256[]"
        }
      ],
      "stateMutability": "view",
      "type": "function"
    },
    {
      "inputs": [
        {
          "internalType": "address",
          "name": "to",
          "type": "address"
        },
        {
          "internalType": "uint256[]",
          "name": "gemIds",
          "type": "uint256[]"
        },
        {
          "internalType": "uint256[]",
          "name": "amounts",
          "type": "uint256[]"
        }
      ],
      "name": "batchMint",
      "outputs": [],
      "stateMutability": "nonpayable",
      "type": "function"
    },
    {
      "inputs": [
        {
          "internalType": "address",
          "name": "account",
          "type": "address"
        }
      ],
      "name": "grantMinterRole",
      "outputs": [],
      "stateMutability": "nonpayable",
      "type": "function"
    },
    {
      "inputs": [
        {
          "internalType": "address",
          "name": "",
          "type": "address"
        },
        {
          "internalType": "address",
          "name": "",
          "type": "address"
        }
      ],
      "name": "isApprovedForAll",
      "outputs": [
        {
          "internalType": "bool",
          "name": "",
          "type": "bool"
        }
      ],
      "stateMutability": "view",
      "type": "function"
    },
    {
      "inputs": [
        {
          "internalType": "address",
          "name": "",
          "type": "address"
        }
      ],
      "name": "isMinter",
      "outputs": [
        {
          "internalType": "bool",
          "name": "",
          "type": "bool"
        }
      ],
      "stateMutability": "view",
      "type": "function"
    },
    {
      "inputs": [
        {
          "internalType": "address",
          "name": "to",
          "type": "address"
        },
        {
          "internalType": "uint256",
          "name": "gemId",
          "type": "uint256"
        },
        {
          "internalType": "uint256",
          "name": "amount",
          "type": "uint256"
        }
      ],
      "name": "mint",
      "outputs": [],
      "stateMutability": "nonpayable",
      "type": "function"
    },
    {
      "inputs": [
        {
          "internalType": "address",
          "name": "to",
          "type": "address"
        },
        {
          "internalType": "uint256[]",
          "name": "gemIds",
          "type": "uint256[]"
        }
      ],
      "name": "mintByIds",
      "outputs": [],
      "stateMutability": "nonpayable",
      "type": "function"
    },
    {
      "inputs": [],
      "name": "newOwner",
      "outputs": [
        {
          "internalType": "address",
          "name": "",
          "type": "address"
        }
      ],
      "stateMutability": "view",
      "type": "function"
    },
    {
      "inputs": [],
      "name": "owner",
      "outputs": [
        {
          "internalType": "address",
          "name": "",
          "type": "address"
        }
      ],
      "stateMutability": "view",
      "type": "function"
    },
    {
      "inputs": [],
      "name": "pullOwner",
      "outputs": [],
      "stateMutability": "nonpayable",
      "type": "function"
    },
    {
      "inputs": [
        {
          "internalType": "address",
          "name": "account",
          "type": "address"
        }
      ],
      "name": "pushOwner",
      "outputs": [],
      "stateMutability": "nonpayable",
      "type": "function"
    },
    {
      "inputs": [
        {
          "internalType": "address",
          "name": "account",
          "type": "address"
        }
      ],
      "name": "revokeMinterRole",
      "outputs": [],
      "stateMutability": "nonpayable",
      "type": "function"
    },
    {
      "inputs": [
        {
          "internalType": "address",
          "name": "from",
          "type": "address"
        },
        {
          "internalType": "address",
          "name": "to",
          "type": "address"
        },
        {
          "internalType": "uint256[]",
          "name": "ids",
          "type": "uint256[]"
        },
        {
          "internalType": "uint256[]",
          "name": "amounts",
          "type": "uint256[]"
        },
        {
          "internalType": "bytes",
          "name": "data",
          "type": "bytes"
        }
      ],
      "name": "safeBatchTransferFrom",
      "outputs": [],
      "stateMutability": "nonpayable",
      "type": "function"
    },
    {
      "inputs": [
        {
          "internalType": "address",
          "name": "from",
          "type": "address"
        },
        {
          "internalType": "address",
          "name": "to",
          "type": "address"
        },
        {
          "internalType": "uint256",
          "name": "id",
          "type": "uint256"
        },
        {
          "internalType": "uint256",
          "name": "amount",
          "type": "uint256"
        },
        {
          "internalType": "bytes",
          "name": "data",
          "type": "bytes"
        }
      ],
      "name": "safeTransferFrom",
      "outputs": [],
      "stateMutability": "nonpayable",
      "type": "function"
    },
    {
      "inputs": [
        {
          "internalType": "address",
          "name": "operator",
          "type": "address"
        },
        {
          "internalType": "bool",
          "name": "approved",
          "type": "bool"
        }
      ],
      "name": "setApprovalForAll",
      "outputs": [],
      "stateMutability": "nonpayable",
      "type": "function"
    },
    {
      "inputs": [
        {
          "internalType": "string",
          "name": "newUri",
          "type": "string"
        }
      ],
      "name": "setUri",
      "outputs": [],
      "stateMutability": "nonpayable",
      "type": "function"
    },
    {
      "inputs": [
        {
          "internalType": "bytes4",
          "name": "interfaceId",
          "type": "bytes4"
        }
      ],
      "name": "supportsInterface",
      "outputs": [
        {
          "internalType": "bool",
          "name": "",
          "type": "bool"
        }
      ],
      "stateMutability": "pure",
      "type": "function"
    },
    {
      "inputs": [
        {
          "internalType": "uint256",
          "name": "",
          "type": "uint256"
        }
      ],
      "name": "uri",
      "outputs": [
        {
          "internalType": "string",
          "name": "",
          "type": "string"
        }
      ],
      "stateMutability": "view",
      "type": "function"
    }
  ],
  "transactionHash": "0x9cf29d087ea948726b142818b1cc0cad0a97bd1b4de5f6ed1c41ca5fb272fc55",
  "args": [
    ""
  ],
  "numDeployments": 1,
  "solcInputHash": "73f02f9eb3cb6836a802db183065c528",
  "bytecode": "0x60806040523480156200001157600080fd5b5060405162001e1c38038062001e1c833981016040819052620000349162000214565b600280546001600160a01b03191633908117909155604051600091907faac18e3887f7d855b2483e20615f8e3fb6efc18e25502090082b47047fb57c73908390a3620000808162000087565b506200033e565b6002546001600160a01b03163314620000d35760405162461bcd60e51b815260206004820152600a60248201526927b7363c9037bbb732b960b11b604482015260640160405180910390fd5b8051620000e890600590602084019062000125565b507f939bf366bcc8c80f27fe4f0c8b84a684dff2a850dfaeab01def7dc90b87b330b816040516200011a9190620002cc565b60405180910390a150565b828054620001339062000301565b90600052602060002090601f016020900481019282620001575760008555620001a2565b82601f106200017257805160ff1916838001178555620001a2565b82800160010185558215620001a2579182015b82811115620001a257825182559160200191906001019062000185565b50620001b0929150620001b4565b5090565b5b80821115620001b05760008155600101620001b5565b634e487b7160e01b600052604160045260246000fd5b60005b83811015620001fe578181015183820152602001620001e4565b838111156200020e576000848401525b50505050565b6000602082840312156200022757600080fd5b81516001600160401b03808211156200023f57600080fd5b818401915084601f8301126200025457600080fd5b815181811115620002695762000269620001cb565b604051601f8201601f19908116603f01168101908382118183101715620002945762000294620001cb565b81604052828152876020848701011115620002ae57600080fd5b620002c1836020830160208801620001e1565b979650505050505050565b6020815260008251806020840152620002ed816040850160208701620001e1565b601f01601f19169190910160400192915050565b600181811c908216806200031657607f821691505b602082108114156200033857634e487b7160e01b600052602260045260246000fd5b50919050565b611ace806200034e6000396000f3fe608060405234801561001057600080fd5b50600436106101205760003560e01c806369e2f0fb116100ad578063aa271e1a11610071578063aa271e1a14610290578063ac5a7d5c146102b3578063d4ee1d90146102c6578063e985e9c5146102d9578063f242432a1461030757600080fd5b806369e2f0fb146102245780636cef16e6146102375780638da5cb5b1461023f5780639b642de11461026a578063a22cb4651461027d57600080fd5b8063156e29f6116100f4578063156e29f6146101b85780632eb2c2d6146101cb5780633dd1eb61146101de57806341db68ca146101f15780634e1273f41461020457600080fd5b8062fdd58e1461012557806301ffc9a7146101605780630ca83480146101835780630e89341c14610198575b600080fd5b61014d610133366004611267565b600060208181529281526040808220909352908152205481565b6040519081526020015b60405180910390f35b61017361016e3660046112aa565b61031a565b6040519015158152602001610157565b6101966101913660046113a4565b61036c565b005b6101ab6101a6366004611418565b6103c4565b604051610157919061147e565b6101966101c6366004611491565b610458565b6101966101d936600461153c565b6104a2565b6101966101ec3660046115e6565b610741565b6101966101ff366004611601565b610858565b61021761021236600461164f565b6108d0565b6040516101579190611740565b6101966102323660046115e6565b6109dc565b610196610aa5565b600254610252906001600160a01b031681565b6040516001600160a01b039091168152602001610157565b610196610278366004611753565b610b40565b61019661028b3660046117a4565b610bb8565b61017361029e3660046115e6565b60046020526000908152604090205460ff1681565b6101966102c13660046115e6565b610c24565b600354610252906001600160a01b031681565b6101736102e73660046117e0565b600160209081526000928352604080842090915290825290205460ff1681565b610196610315366004611813565b610cde565b60006301ffc9a760e01b6001600160e01b03198316148061034b5750636cdb3d1360e11b6001600160e01b03198316145b8061036657506303a24d0760e21b6001600160e01b03198316145b92915050565b3360009081526004602052604090205460ff166103a45760405162461bcd60e51b815260040161039b90611878565b60405180910390fd5b6103bf83838360405180602001604052806000815250610ee4565b505050565b6060600580546103d39061189d565b80601f01602080910402602001604051908101604052809291908181526020018280546103ff9061189d565b801561044c5780601f106104215761010080835404028352916020019161044c565b820191906000526020600020905b81548152906001019060200180831161042f57829003601f168201915b50505050509050919050565b3360009081526004602052604090205460ff166104875760405162461bcd60e51b815260040161039b90611878565b6103bf8383836040518060200160405280600081525061105b565b8251825181146104c45760405162461bcd60e51b815260040161039b906118d8565b336001600160a01b03871614806104fe57506001600160a01b038616600090815260016020908152604080832033845290915290205460ff165b61053b5760405162461bcd60e51b815260206004820152600e60248201526d1393d517d055551213d49256915160921b604482015260640161039b565b60005b8181101561061057600085828151811061055a5761055a611901565b60200260200101519050600085838151811061057857610578611901565b60200260200101519050806000808b6001600160a01b03166001600160a01b03168152602001908152602001600020600084815260200190815260200160002060008282546105c7919061192d565b90915550506001600160a01b038816600090815260208181526040808320858452909152812080548392906105fd908490611944565b90915550506001909201915061053e9050565b50846001600160a01b0316866001600160a01b0316336001600160a01b03167f4a39dc06d4c0dbc64b70af90fd698a233a518aa5d07e595d983b8c0526c8f7fb878760405161066092919061195c565b60405180910390a46001600160a01b0385163b156107105760405163bc197c8160e01b808252906001600160a01b0387169063bc197c81906106ae9033908b908a908a908a9060040161198a565b602060405180830381600087803b1580156106c857600080fd5b505af11580156106dc573d6000803e3d6000fd5b505050506040513d601f19601f8201168201806040525081019061070091906119e8565b6001600160e01b0319161461071d565b6001600160a01b03851615155b6107395760405162461bcd60e51b815260040161039b90611a05565b505050505050565b6002546001600160a01b0316331461076b5760405162461bcd60e51b815260040161039b90611a2f565b6001600160a01b0381166107b15760405162461bcd60e51b815260206004820152600d60248201526c4e6f206164647265737328302960981b604482015260640161039b565b6001600160a01b03811660009081526004602052604090205460ff161561080c5760405162461bcd60e51b815260206004820152600f60248201526e105b1c9958591e4819dc985b9d1959608a1b604482015260640161039b565b6001600160a01b038116600081815260046020526040808220805460ff19166001179055517fbd42b6cd963a984d8cbff85acad4dd2c87a6d85ac756d16e6d2ec5ce6c8f07309190a250565b3360009081526004602052604090205460ff166108875760405162461bcd60e51b815260040161039b90611878565b60005b81518110156103bf576108c8838383815181106108a9576108a9611901565b602002602001015160016040518060200160405280600081525061105b565b60010161088a565b815181516060919081146108f65760405162461bcd60e51b815260040161039b906118d8565b835167ffffffffffffffff811115610910576109106112ce565b604051908082528060200260200182016040528015610939578160200160208202803683370190505b50915060005b818110156109d45760008086838151811061095c5761095c611901565b60200260200101516001600160a01b03166001600160a01b03168152602001908152602001600020600085838151811061099857610998611901565b60200260200101518152602001908152602001600020548382815181106109c1576109c1611901565b602090810291909101015260010161093f565b505092915050565b6002546001600160a01b03163314610a065760405162461bcd60e51b815260040161039b90611a2f565b6001600160a01b03811660009081526004602052604090205460ff16610a5c5760405162461bcd60e51b815260206004820152600b60248201526a139bdd0819dc985b9d195960aa1b604482015260640161039b565b6001600160a01b038116600081815260046020526040808220805460ff19169055517ff474b72f3e21ebafdad7dadfcb99ae7eabdbf538d52a0e0eecbf8ce0fa7043fe9190a250565b6003546001600160a01b03163314610af05760405162461bcd60e51b815260206004820152600e60248201526d27b7363c903732bb9037bbb732b960911b604482015260640161039b565b60028054336001600160a01b0319821681179092556040516001600160a01b03909116919082907faac18e3887f7d855b2483e20615f8e3fb6efc18e25502090082b47047fb57c7390600090a350565b6002546001600160a01b03163314610b6a5760405162461bcd60e51b815260040161039b90611a2f565b8051610b7d9060059060208401906111b2565b507f939bf366bcc8c80f27fe4f0c8b84a684dff2a850dfaeab01def7dc90b87b330b81604051610bad919061147e565b60405180910390a150565b3360008181526001602090815260408083206001600160a01b03871680855290835292819020805460ff191686151590811790915590519081529192917f17307eab39ab6107e8899845ad3d59bd9653f200f220920489ca2b5937696c31910160405180910390a35050565b6002546001600160a01b03163314610c4e5760405162461bcd60e51b815260040161039b90611a2f565b6001600160a01b038116610c945760405162461bcd60e51b815260206004820152600d60248201526c4e6f206164647265737328302960981b604482015260640161039b565b600380546001600160a01b0319166001600160a01b0383169081179091556040517fd52a054f85e9a057277cd95bf6d5da45465068f0467ec7991f3fcc017be6b72590600090a250565b336001600160a01b0386161480610d1857506001600160a01b038516600090815260016020908152604080832033845290915290205460ff165b610d555760405162461bcd60e51b815260206004820152600e60248201526d1393d517d055551213d49256915160921b604482015260640161039b565b6001600160a01b03851660009081526020818152604080832086845290915281208054849290610d8690849061192d565b90915550506001600160a01b03841660009081526020818152604080832086845290915281208054849290610dbc908490611944565b909155505060408051848152602081018490526001600160a01b03808716929088169133917fc3d58168c5ae7397731d063d5bbf3d657854427343f4c083240f7aacaa2d0f62910160405180910390a46001600160a01b0384163b15610eb45760405163f23a6e6160e01b808252906001600160a01b0386169063f23a6e6190610e529033908a90899089908990600401611a53565b602060405180830381600087803b158015610e6c57600080fd5b505af1158015610e80573d6000803e3d6000fd5b505050506040513d601f19601f82011682018060405250810190610ea491906119e8565b6001600160e01b03191614610ec1565b6001600160a01b03841615155b610edd5760405162461bcd60e51b815260040161039b90611a05565b5050505050565b825182518114610f065760405162461bcd60e51b815260040161039b906118d8565b60005b81811015610f9557838181518110610f2357610f23611901565b6020026020010151600080886001600160a01b03166001600160a01b031681526020019081526020016000206000878481518110610f6357610f63611901565b602002602001015181526020019081526020016000206000828254610f889190611944565b9091555050600101610f09565b50846001600160a01b031660006001600160a01b0316336001600160a01b03167f4a39dc06d4c0dbc64b70af90fd698a233a518aa5d07e595d983b8c0526c8f7fb8787604051610fe692919061195c565b60405180910390a46001600160a01b0385163b156110355760405163bc197c8160e01b808252906001600160a01b0387169063bc197c8190610e529033906000908a908a908a9060040161198a565b6001600160a01b038516610edd5760405162461bcd60e51b815260040161039b90611a05565b6001600160a01b0384166000908152602081815260408083208684529091528120805484929061108c908490611944565b909155505060408051848152602081018490526001600160a01b0386169160009133917fc3d58168c5ae7397731d063d5bbf3d657854427343f4c083240f7aacaa2d0f62910160405180910390a46001600160a01b0384163b156111835760405163f23a6e6160e01b808252906001600160a01b0386169063f23a6e6190611121903390600090899089908990600401611a53565b602060405180830381600087803b15801561113b57600080fd5b505af115801561114f573d6000803e3d6000fd5b505050506040513d601f19601f8201168201806040525081019061117391906119e8565b6001600160e01b03191614611190565b6001600160a01b03841615155b6111ac5760405162461bcd60e51b815260040161039b90611a05565b50505050565b8280546111be9061189d565b90600052602060002090601f0160209004810192826111e05760008555611226565b82601f106111f957805160ff1916838001178555611226565b82800160010185558215611226579182015b8281111561122657825182559160200191906001019061120b565b50611232929150611236565b5090565b5b808211156112325760008155600101611237565b80356001600160a01b038116811461126257600080fd5b919050565b6000806040838503121561127a57600080fd5b6112838361124b565b946020939093013593505050565b6001600160e01b0319811681146112a757600080fd5b50565b6000602082840312156112bc57600080fd5b81356112c781611291565b9392505050565b634e487b7160e01b600052604160045260246000fd5b604051601f8201601f1916810167ffffffffffffffff8111828210171561130d5761130d6112ce565b604052919050565b600067ffffffffffffffff82111561132f5761132f6112ce565b5060051b60200190565b600082601f83011261134a57600080fd5b8135602061135f61135a83611315565b6112e4565b82815260059290921b8401810191818101908684111561137e57600080fd5b8286015b848110156113995780358352918301918301611382565b509695505050505050565b6000806000606084860312156113b957600080fd5b6113c28461124b565b9250602084013567ffffffffffffffff808211156113df57600080fd5b6113eb87838801611339565b9350604086013591508082111561140157600080fd5b5061140e86828701611339565b9150509250925092565b60006020828403121561142a57600080fd5b5035919050565b6000815180845260005b818110156114575760208185018101518683018201520161143b565b81811115611469576000602083870101525b50601f01601f19169290920160200192915050565b6020815260006112c76020830184611431565b6000806000606084860312156114a657600080fd5b6114af8461124b565b95602085013595506040909401359392505050565b600067ffffffffffffffff8311156114de576114de6112ce565b6114f1601f8401601f19166020016112e4565b905082815283838301111561150557600080fd5b828260208301376000602084830101529392505050565b600082601f83011261152d57600080fd5b6112c7838335602085016114c4565b600080600080600060a0868803121561155457600080fd5b61155d8661124b565b945061156b6020870161124b565b9350604086013567ffffffffffffffff8082111561158857600080fd5b61159489838a01611339565b945060608801359150808211156115aa57600080fd5b6115b689838a01611339565b935060808801359150808211156115cc57600080fd5b506115d98882890161151c565b9150509295509295909350565b6000602082840312156115f857600080fd5b6112c78261124b565b6000806040838503121561161457600080fd5b61161d8361124b565b9150602083013567ffffffffffffffff81111561163957600080fd5b61164585828601611339565b9150509250929050565b6000806040838503121561166257600080fd5b823567ffffffffffffffff8082111561167a57600080fd5b818501915085601f83011261168e57600080fd5b8135602061169e61135a83611315565b82815260059290921b840181019181810190898411156116bd57600080fd5b948201945b838610156116e2576116d38661124b565b825294820194908201906116c2565b965050860135925050808211156116f857600080fd5b5061164585828601611339565b600081518084526020808501945080840160005b8381101561173557815187529582019590820190600101611719565b509495945050505050565b6020815260006112c76020830184611705565b60006020828403121561176557600080fd5b813567ffffffffffffffff81111561177c57600080fd5b8201601f8101841361178d57600080fd5b61179c848235602084016114c4565b949350505050565b600080604083850312156117b757600080fd5b6117c08361124b565b9150602083013580151581146117d557600080fd5b809150509250929050565b600080604083850312156117f357600080fd5b6117fc8361124b565b915061180a6020840161124b565b90509250929050565b600080600080600060a0868803121561182b57600080fd5b6118348661124b565b94506118426020870161124b565b93506040860135925060608601359150608086013567ffffffffffffffff81111561186c57600080fd5b6115d98882890161151c565b6020808252600b908201526a27b7363c9036b4b73a32b960a91b604082015260600190565b600181811c908216806118b157607f821691505b602082108114156118d257634e487b7160e01b600052602260045260246000fd5b50919050565b6020808252600f908201526e0988a9c8ea890be9a92a69a82a8869608b1b604082015260600190565b634e487b7160e01b600052603260045260246000fd5b634e487b7160e01b600052601160045260246000fd5b60008282101561193f5761193f611917565b500390565b6000821982111561195757611957611917565b500190565b60408152600061196f6040830185611705565b82810360208401526119818185611705565b95945050505050565b6001600160a01b0386811682528516602082015260a0604082018190526000906119b690830186611705565b82810360608401526119c88186611705565b905082810360808401526119dc8185611431565b98975050505050505050565b6000602082840312156119fa57600080fd5b81516112c781611291565b60208082526010908201526f155394d0519157d49150d2541251539560821b604082015260600190565b6020808252600a908201526927b7363c9037bbb732b960b11b604082015260600190565b6001600160a01b03868116825285166020820152604081018490526060810183905260a060808201819052600090611a8d90830184611431565b97965050505050505056fea26469706673582212207c6c825cd3055d15cdeec97c114cca680f4694b457a21dd321a73bc781b38e5064736f6c63430008090033",
  "devdoc": {
    "kind": "dev",
    "methods": {},
    "version": 1
  },
  "userdoc": {
    "kind": "user",
    "methods": {},
    "version": 1
  },
  "storageLayout": {
    "storage": [
      {
        "astId": 3892,
        "contract": "contracts/Gem.sol:Gem",
        "label": "balanceOf",
        "offset": 0,
        "slot": "0",
        "type": "t_mapping(t_address,t_mapping(t_uint256,t_uint256))"
      },
      {
        "astId": 3898,
        "contract": "contracts/Gem.sol:Gem",
        "label": "isApprovedForAll",
        "offset": 0,
        "slot": "1",
        "type": "t_mapping(t_address,t_mapping(t_address,t_bool))"
      },
      {
        "astId": 5032,
        "contract": "contracts/Gem.sol:Gem",
        "label": "owner",
        "offset": 0,
        "slot": "2",
        "type": "t_address"
      },
      {
        "astId": 5034,
        "contract": "contracts/Gem.sol:Gem",
        "label": "newOwner",
        "offset": 0,
        "slot": "3",
        "type": "t_address"
      },
      {
        "astId": 5038,
        "contract": "contracts/Gem.sol:Gem",
        "label": "isMinter",
        "offset": 0,
        "slot": "4",
        "type": "t_mapping(t_address,t_bool)"
      },
      {
        "astId": 6316,
        "contract": "contracts/Gem.sol:Gem",
        "label": "_uri",
        "offset": 0,
        "slot": "5",
        "type": "t_string_storage"
      }
    ],
    "types": {
      "t_address": {
        "encoding": "inplace",
        "label": "address",
        "numberOfBytes": "20"
      },
      "t_bool": {
        "encoding": "inplace",
        "label": "bool",
        "numberOfBytes": "1"
      },
      "t_mapping(t_address,t_bool)": {
        "encoding": "mapping",
        "key": "t_address",
        "label": "mapping(address => bool)",
        "numberOfBytes": "32",
        "value": "t_bool"
      },
      "t_mapping(t_address,t_mapping(t_address,t_bool))": {
        "encoding": "mapping",
        "key": "t_address",
        "label": "mapping(address => mapping(address => bool))",
        "numberOfBytes": "32",
        "value": "t_mapping(t_address,t_bool)"
      },
      "t_mapping(t_address,t_mapping(t_uint256,t_uint256))": {
        "encoding": "mapping",
        "key": "t_address",
        "label": "mapping(address => mapping(uint256 => uint256))",
        "numberOfBytes": "32",
        "value": "t_mapping(t_uint256,t_uint256)"
      },
      "t_mapping(t_uint256,t_uint256)": {
        "encoding": "mapping",
        "key": "t_uint256",
        "label": "mapping(uint256 => uint256)",
        "numberOfBytes": "32",
        "value": "t_uint256"
      },
      "t_string_storage": {
        "encoding": "bytes",
        "label": "string",
        "numberOfBytes": "32"
      },
      "t_uint256": {
        "encoding": "inplace",
        "label": "uint256",
        "numberOfBytes": "32"
      }
    }
  }
}