{
  "address": "0x9E189C585f3B78295a70C77f763782e2285c592E",
  "abi": [
    {
      "inputs": [
        {
          "internalType": "uint96",
          "name": "_baseFee",
          "type": "uint96"
        },
        {
          "internalType": "uint96",
          "name": "_gasPriceLink",
          "type": "uint96"
        }
      ],
      "stateMutability": "nonpayable",
      "type": "constructor"
    },
    {
      "inputs": [],
      "name": "InsufficientBalance",
      "type": "error"
    },
    {
      "inputs": [],
      "name": "InvalidSubscription",
      "type": "error"
    },
    {
      "inputs": [
        {
          "internalType": "address",
          "name": "owner",
          "type": "address"
        }
      ],
      "name": "MustBeSubOwner",
      "type": "error"
    },
    {
      "anonymous": false,
      "inputs": [
        {
          "indexed": true,
          "internalType": "uint256",
          "name": "requestId",
          "type": "uint256"
        },
        {
          "indexed": false,
          "internalType": "uint256",
          "name": "outputSeed",
          "type": "uint256"
        },
        {
          "indexed": false,
          "internalType": "uint96",
          "name": "payment",
          "type": "uint96"
        },
        {
          "indexed": false,
          "internalType": "bool",
          "name": "success",
          "type": "bool"
        }
      ],
      "name": "RandomWordsFulfilled",
      "type": "event"
    },
    {
      "anonymous": false,
      "inputs": [
        {
          "indexed": true,
          "internalType": "bytes32",
          "name": "keyHash",
          "type": "bytes32"
        },
        {
          "indexed": false,
          "internalType": "uint256",
          "name": "requestId",
          "type": "uint256"
        },
        {
          "indexed": false,
          "internalType": "uint256",
          "name": "preSeed",
          "type": "uint256"
        },
        {
          "indexed": true,
          "internalType": "uint64",
          "name": "subId",
          "type": "uint64"
        },
        {
          "indexed": false,
          "internalType": "uint16",
          "name": "minimumRequestConfirmations",
          "type": "uint16"
        },
        {
          "indexed": false,
          "internalType": "uint32",
          "name": "callbackGasLimit",
          "type": "uint32"
        },
        {
          "indexed": false,
          "internalType": "uint32",
          "name": "numWords",
          "type": "uint32"
        },
        {
          "indexed": true,
          "internalType": "address",
          "name": "sender",
          "type": "address"
        }
      ],
      "name": "RandomWordsRequested",
      "type": "event"
    },
    {
      "anonymous": false,
      "inputs": [
        {
          "indexed": true,
          "internalType": "uint64",
          "name": "subId",
          "type": "uint64"
        },
        {
          "indexed": false,
          "internalType": "address",
          "name": "to",
          "type": "address"
        },
        {
          "indexed": false,
          "internalType": "uint256",
          "name": "amount",
          "type": "uint256"
        }
      ],
      "name": "SubscriptionCanceled",
      "type": "event"
    },
    {
      "anonymous": false,
      "inputs": [
        {
          "indexed": true,
          "internalType": "uint64",
          "name": "subId",
          "type": "uint64"
        },
        {
          "indexed": false,
          "internalType": "address",
          "name": "owner",
          "type": "address"
        }
      ],
      "name": "SubscriptionCreated",
      "type": "event"
    },
    {
      "anonymous": false,
      "inputs": [
        {
          "indexed": true,
          "internalType": "uint64",
          "name": "subId",
          "type": "uint64"
        },
        {
          "indexed": false,
          "internalType": "uint256",
          "name": "oldBalance",
          "type": "uint256"
        },
        {
          "indexed": false,
          "internalType": "uint256",
          "name": "newBalance",
          "type": "uint256"
        }
      ],
      "name": "SubscriptionFunded",
      "type": "event"
    },
    {
      "inputs": [],
      "name": "BASE_FEE",
      "outputs": [
        {
          "internalType": "uint96",
          "name": "",
          "type": "uint96"
        }
      ],
      "stateMutability": "view",
      "type": "function"
    },
    {
      "inputs": [],
      "name": "GAS_PRICE_LINK",
      "outputs": [
        {
          "internalType": "uint96",
          "name": "",
          "type": "uint96"
        }
      ],
      "stateMutability": "view",
      "type": "function"
    },
    {
      "inputs": [
        {
          "internalType": "uint64",
          "name": "_subId",
          "type": "uint64"
        }
      ],
      "name": "acceptSubscriptionOwnerTransfer",
      "outputs": [],
      "stateMutability": "pure",
      "type": "function"
    },
    {
      "inputs": [
        {
          "internalType": "uint64",
          "name": "_subId",
          "type": "uint64"
        },
        {
          "internalType": "address",
          "name": "_consumer",
          "type": "address"
        }
      ],
      "name": "addConsumer",
      "outputs": [],
      "stateMutability": "pure",
      "type": "function"
    },
    {
      "inputs": [
        {
          "internalType": "uint64",
          "name": "_subId",
          "type": "uint64"
        },
        {
          "internalType": "address",
          "name": "_to",
          "type": "address"
        }
      ],
      "name": "cancelSubscription",
      "outputs": [],
      "stateMutability": "nonpayable",
      "type": "function"
    },
    {
      "inputs": [],
      "name": "createSubscription",
      "outputs": [
        {
          "internalType": "uint64",
          "name": "_subId",
          "type": "uint64"
        }
      ],
      "stateMutability": "nonpayable",
      "type": "function"
    },
    {
      "inputs": [
        {
          "internalType": "uint256",
          "name": "_requestId",
          "type": "uint256"
        },
        {
          "internalType": "address",
          "name": "_consumer",
          "type": "address"
        }
      ],
      "name": "fulfillRandomWords",
      "outputs": [],
      "stateMutability": "nonpayable",
      "type": "function"
    },
    {
      "inputs": [
        {
          "internalType": "uint64",
          "name": "_subId",
          "type": "uint64"
        },
        {
          "internalType": "uint96",
          "name": "_amount",
          "type": "uint96"
        }
      ],
      "name": "fundSubscription",
      "outputs": [],
      "stateMutability": "nonpayable",
      "type": "function"
    },
    {
      "inputs": [],
      "name": "getRequestConfig",
      "outputs": [
        {
          "internalType": "uint16",
          "name": "",
          "type": "uint16"
        },
        {
          "internalType": "uint32",
          "name": "",
          "type": "uint32"
        },
        {
          "internalType": "bytes32[]",
          "name": "",
          "type": "bytes32[]"
        }
      ],
      "stateMutability": "pure",
      "type": "function"
    },
    {
      "inputs": [
        {
          "internalType": "uint64",
          "name": "_subId",
          "type": "uint64"
        }
      ],
      "name": "getSubscription",
      "outputs": [
        {
          "internalType": "uint96",
          "name": "balance",
          "type": "uint96"
        },
        {
          "internalType": "uint64",
          "name": "reqCount",
          "type": "uint64"
        },
        {
          "internalType": "address",
          "name": "owner",
          "type": "address"
        },
        {
          "internalType": "address[]",
          "name": "consumers",
          "type": "address[]"
        }
      ],
      "stateMutability": "view",
      "type": "function"
    },
    {
      "inputs": [
        {
          "internalType": "uint64",
          "name": "_subId",
          "type": "uint64"
        },
        {
          "internalType": "address",
          "name": "_consumer",
          "type": "address"
        }
      ],
      "name": "removeConsumer",
      "outputs": [],
      "stateMutability": "pure",
      "type": "function"
    },
    {
      "inputs": [
        {
          "internalType": "bytes32",
          "name": "_keyHash",
          "type": "bytes32"
        },
        {
          "internalType": "uint64",
          "name": "_subId",
          "type": "uint64"
        },
        {
          "internalType": "uint16",
          "name": "_minimumRequestConfirmations",
          "type": "uint16"
        },
        {
          "internalType": "uint32",
          "name": "_callbackGasLimit",
          "type": "uint32"
        },
        {
          "internalType": "uint32",
          "name": "_numWords",
          "type": "uint32"
        }
      ],
      "name": "requestRandomWords",
      "outputs": [
        {
          "internalType": "uint256",
          "name": "",
          "type": "uint256"
        }
      ],
      "stateMutability": "nonpayable",
      "type": "function"
    },
    {
      "inputs": [
        {
          "internalType": "uint64",
          "name": "_subId",
          "type": "uint64"
        },
        {
          "internalType": "address",
          "name": "_newOwner",
          "type": "address"
        }
      ],
      "name": "requestSubscriptionOwnerTransfer",
      "outputs": [],
      "stateMutability": "pure",
      "type": "function"
    }
  ],
  "transactionHash": "0xaace1c7f556d28def58c8c0e859c462c24ed1d36fe5f0b3c5e423a2ef9c1bc72",
  "args": [
    0,
    0
  ],
  "numDeployments": 1,
  "solcInputHash": "8ea889e37c6cd1f3b0802c44f47b7bbf",
  "bytecode": "0x60c060405260018055606460025534801561001957600080fd5b506040516111df3803806111df8339810160408190526100389161006b565b6001600160601b039182166080521660a05261009e565b80516001600160601b038116811461006657600080fd5b919050565b6000806040838503121561007e57600080fd5b6100878361004f565b91506100956020840161004f565b90509250929050565b60805160a05161111c6100c360003960006101ce01526000610127015261111c6000f3fe608060405234801561001057600080fd5b50600436106100de5760003560e01c8063823597401161008c578063a410347f11610066578063a410347f146101c9578063a47c7696146101f0578063afc69b5314610213578063d7ae1d301461022657600080fd5b8063823597401461019a5780639f87fad71461010d578063a21a23e4146101a857600080fd5b80635d3b1d30116100bd5780635d3b1d30146101665780637341c10c1461010d578063808974ff1461018757600080fd5b8062012291146100e357806304c357cb1461010d5780633d18651e14610122575b600080fd5b6040805160008152602081019182905261010491600391621e848091610ca9565b60405180910390f35b61012061011b366004610d49565b610239565b005b6101497f000000000000000000000000000000000000000000000000000000000000000081565b6040516bffffffffffffffffffffffff9091168152602001610104565b610179610174366004610d90565b6102a0565b604051908152602001610104565b610120610195366004610df7565b610456565b61012061011b366004610e1a565b6101b06107f2565b60405167ffffffffffffffff9091168152602001610104565b6101497f000000000000000000000000000000000000000000000000000000000000000081565b6102036101fe366004610e1a565b6108e0565b6040516101049493929190610e3c565b610120610221366004610eca565b6109df565b610120610234366004610d49565b610b29565b6040517f08c379a000000000000000000000000000000000000000000000000000000000815260206004820152600f60248201527f6e6f7420696d706c656d656e746564000000000000000000000000000000000060448201526064015b60405180910390fd5b67ffffffffffffffff841660009081526003602052604081205473ffffffffffffffffffffffffffffffffffffffff16610306576040517f1f6a65b600000000000000000000000000000000000000000000000000000000815260040160405180910390fd5b600180546000918261031783610f70565b9091555060028054919250600091908261033083610f70565b90915550604080516060808201835267ffffffffffffffff8b811680845263ffffffff8b811660208087018281528d8416888a0181815260008e8152600485528b902099518a549351915187166c01000000000000000000000000027fffffffffffffffffffffffffffffffff00000000ffffffffffffffffffffffff9290971668010000000000000000027fffffffffffffffffffffffffffffffffffffffff000000000000000000000000909416981697909717919091179590951692909217909555855189815290810187905261ffff8d16818701529283019390935260808201529151929350339290918b917f63373d1c4696214b898952999c9aaec57dac1ee2723cec59bea6888f489a97729160a0908290030190a4509695505050505050565b60005a60008481526004602052604090205490915067ffffffffffffffff166104db576040517f08c379a000000000000000000000000000000000000000000000000000000000815260206004820152601360248201527f6e6f6e6578697374656e742072657175657374000000000000000000000000006044820152606401610297565b60008381526004602090815260408083208151606081018352905467ffffffffffffffff808216835263ffffffff6801000000000000000083048116958401959095526c01000000000000000000000000909104909316918101829052929181111561054957610549610f12565b604051908082528060200260200182016040528015610572578160200160208202803683370190505b50905060005b826040015163ffffffff168110156105e65760408051602081018890529081018290526060016040516020818303038152906040528051906020012060001c8282815181106105c9576105c9610fa9565b6020908102919091010152806105de81610f70565b915050610578565b50600080631fe543e360e01b8784604051602401610605929190610fd8565b604051602081830303815290604052907bffffffffffffffffffffffffffffffffffffffffffffffffffffffff19166020820180517bffffffffffffffffffffffffffffffffffffffffffffffffffffffff8381831617835250505050905060008673ffffffffffffffffffffffffffffffffffffffff16856020015163ffffffff16836040516106969190611026565b60006040518083038160008787f1925050503d80600081146106d4576040519150601f19603f3d011682016040523d82523d6000602084013e6106d9565b606091505b5050855167ffffffffffffffff1660009081526003602052909150855167ffffffffffffffff16600090815260036020526040902080548291906014906107479084907401000000000000000000000000000000000000000090046bffffffffffffffffffffffff16611061565b82546101009290920a6bffffffffffffffffffffffff81810219909316918316021790915560008b81526004602090815260409182902080547fffffffffffffffffffffffffffffffff0000000000000000000000000000000016905581518d815292851690830152841515908201528a91507f7dffc5ae5ee4e2e4df1651cf6ad329a73cebdb728f37ea0187b9b17e036756e49060600160405180910390a2505050505050505050565b6000805467ffffffffffffffff16818061080b8361108e565b825467ffffffffffffffff9182166101009390930a928302928202191691909117909155604080518082018252338082526000602080840182815282548716835260038252858320945190516bffffffffffffffffffffffff16740100000000000000000000000000000000000000000273ffffffffffffffffffffffffffffffffffffffff909116179093555492519081529190921692507f464722b4166576d3dcbba877b999bc35cf911f4eaf434b7eba68fa113951d0bf910160405180910390a25060005467ffffffffffffffff1690565b67ffffffffffffffff81166000908152600360205260408120548190819060609073ffffffffffffffffffffffffffffffffffffffff1661094d576040517f1f6a65b600000000000000000000000000000000000000000000000000000000815260040160405180910390fd5b67ffffffffffffffff85166000908152600360205260408120546bffffffffffffffffffffffff74010000000000000000000000000000000000000000820416919073ffffffffffffffffffffffffffffffffffffffff16816040519080825280602002602001820160405280156109cf578160200160208202803683370190505b5093509350935093509193509193565b67ffffffffffffffff821660009081526003602052604090205473ffffffffffffffffffffffffffffffffffffffff16610a45576040517f1f6a65b600000000000000000000000000000000000000000000000000000000815260040160405180910390fd5b67ffffffffffffffff8216600090815260036020526040902080547401000000000000000000000000000000000000000090046bffffffffffffffffffffffff169082906014610a9583856110b6565b92506101000a8154816bffffffffffffffffffffffff02191690836bffffffffffffffffffffffff1602179055508267ffffffffffffffff167fd39ec07f4e209f627a4c427971473820dc129761ba28de8906bd56f57101d4f8828484610afc91906110b6565b604080516bffffffffffffffffffffffff93841681529290911660208301520160405180910390a2505050565b67ffffffffffffffff8216600090815260036020526040902054829073ffffffffffffffffffffffffffffffffffffffff1680610b92576040517f1f6a65b600000000000000000000000000000000000000000000000000000000815260040160405180910390fd5b3373ffffffffffffffffffffffffffffffffffffffff821614610bf9576040517fd8a3fb5200000000000000000000000000000000000000000000000000000000815273ffffffffffffffffffffffffffffffffffffffff82166004820152602401610297565b67ffffffffffffffff841660008181526003602090815260409182902054825173ffffffffffffffffffffffffffffffffffffffff88168152740100000000000000000000000000000000000000009091046bffffffffffffffffffffffff16918101919091527fe8ed5b475a5b5987aa9165e8731bb78043f39eee32ec5a1169a89e27fcd49815910160405180910390a250505067ffffffffffffffff16600090815260036020526040812055565b60006060820161ffff86168352602063ffffffff86168185015260606040850152818551808452608086019150828701935060005b81811015610cfa57845183529383019391830191600101610cde565b509098975050505050505050565b803567ffffffffffffffff81168114610d2057600080fd5b919050565b803573ffffffffffffffffffffffffffffffffffffffff81168114610d2057600080fd5b60008060408385031215610d5c57600080fd5b610d6583610d08565b9150610d7360208401610d25565b90509250929050565b803563ffffffff81168114610d2057600080fd5b600080600080600060a08688031215610da857600080fd5b85359450610db860208701610d08565b9350604086013561ffff81168114610dcf57600080fd5b9250610ddd60608701610d7c565b9150610deb60808701610d7c565b90509295509295909350565b60008060408385031215610e0a57600080fd5b82359150610d7360208401610d25565b600060208284031215610e2c57600080fd5b610e3582610d08565b9392505050565b6000608082016bffffffffffffffffffffffff87168352602067ffffffffffffffff87168185015273ffffffffffffffffffffffffffffffffffffffff80871660408601526080606086015282865180855260a087019150838801945060005b81811015610eba578551841683529484019491840191600101610e9c565b50909a9950505050505050505050565b60008060408385031215610edd57600080fd5b610ee683610d08565b915060208301356bffffffffffffffffffffffff81168114610f0757600080fd5b809150509250929050565b7f4e487b7100000000000000000000000000000000000000000000000000000000600052604160045260246000fd5b7f4e487b7100000000000000000000000000000000000000000000000000000000600052601160045260246000fd5b60007fffffffffffffffffffffffffffffffffffffffffffffffffffffffffffffffff821415610fa257610fa2610f41565b5060010190565b7f4e487b7100000000000000000000000000000000000000000000000000000000600052603260045260246000fd5b6000604082018483526020604081850152818551808452606086019150828701935060005b8181101561101957845183529383019391830191600101610ffd565b5090979650505050505050565b6000825160005b81811015611047576020818601810151858301520161102d565b81811115611056576000828501525b509190910192915050565b60006bffffffffffffffffffffffff8381169083168181101561108657611086610f41565b039392505050565b600067ffffffffffffffff808316818114156110ac576110ac610f41565b6001019392505050565b60006bffffffffffffffffffffffff8083168185168083038211156110dd576110dd610f41565b0194935050505056fea26469706673582212205f5dc17b77244cbd0bceb831c6a203c0e995d2d03fff64b7b44e1b34b975b51c64736f6c63430008090033",
  "devdoc": {
    "kind": "dev",
    "methods": {
      "createSubscription()": {
        "details": "You can manage the consumer set dynamically with addConsumer/removeConsumer.Note to fund the subscription, use transferAndCall. For exampleLINKTOKEN.transferAndCall(address(COORDINATOR),amount,abi.encode(subId));",
        "returns": {
          "_subId": "- A unique subscription id."
        }
      },
      "fulfillRandomWords(uint256,address)": {
        "details": "This mock uses a simplified formula for calculating payment amount and gas usage, and doesnot account for all edge cases handled in the real VRF coordinator. When making requestsagainst the real coordinator a small amount of additional LINK is required.",
        "params": {
          "_consumer": "the VRF randomness consumer to send the result to",
          "_requestId": "the request to fulfill"
        }
      },
      "fundSubscription(uint64,uint96)": {
        "params": {
          "_amount": "the amount to fund",
          "_subId": "the subscription to fund"
        }
      },
      "getRequestConfig()": {
        "returns": {
          "_0": "minimumRequestConfirmations global min for request confirmations",
          "_1": "maxGasLimit global max for request gas limit",
          "_2": "s_provingKeyHashes list of registered key hashes"
        }
      }
    },
    "version": 1
  },
  "userdoc": {
    "kind": "user",
    "methods": {
      "createSubscription()": {
        "notice": "Create a VRF subscription."
      },
      "fulfillRandomWords(uint256,address)": {
        "notice": "fulfillRandomWords fulfills the given request, sending the random words to the suppliedconsumer."
      },
      "fundSubscription(uint64,uint96)": {
        "notice": "fundSubscription allows funding a subscription with an arbitrary amount for testing."
      },
      "getRequestConfig()": {
        "notice": "Get configuration relevant for making requests"
      }
    },
    "version": 1
  },
  "storageLayout": {
    "storage": [
      {
        "astId": 14554,
        "contract": "contracts/mocks/MockVRFCoordinatorV2.sol:MockVRFCoordinatorV2",
        "label": "s_currentSubId",
        "offset": 0,
        "slot": "0",
        "type": "t_uint64"
      },
      {
        "astId": 14557,
        "contract": "contracts/mocks/MockVRFCoordinatorV2.sol:MockVRFCoordinatorV2",
        "label": "s_nextRequestId",
        "offset": 0,
        "slot": "1",
        "type": "t_uint256"
      },
      {
        "astId": 14560,
        "contract": "contracts/mocks/MockVRFCoordinatorV2.sol:MockVRFCoordinatorV2",
        "label": "s_nextPreSeed",
        "offset": 0,
        "slot": "2",
        "type": "t_uint256"
      },
      {
        "astId": 14570,
        "contract": "contracts/mocks/MockVRFCoordinatorV2.sol:MockVRFCoordinatorV2",
        "label": "s_subscriptions",
        "offset": 0,
        "slot": "3",
        "type": "t_mapping(t_uint64,t_struct(Subscription)14565_storage)"
      },
      {
        "astId": 14582,
        "contract": "contracts/mocks/MockVRFCoordinatorV2.sol:MockVRFCoordinatorV2",
        "label": "s_requests",
        "offset": 0,
        "slot": "4",
        "type": "t_mapping(t_uint256,t_struct(Request)14577_storage)"
      }
    ],
    "types": {
      "t_address": {
        "encoding": "inplace",
        "label": "address",
        "numberOfBytes": "20"
      },
      "t_mapping(t_uint256,t_struct(Request)14577_storage)": {
        "encoding": "mapping",
        "key": "t_uint256",
        "label": "mapping(uint256 => struct MockVRFCoordinatorV2.Request)",
        "numberOfBytes": "32",
        "value": "t_struct(Request)14577_storage"
      },
      "t_mapping(t_uint64,t_struct(Subscription)14565_storage)": {
        "encoding": "mapping",
        "key": "t_uint64",
        "label": "mapping(uint64 => struct MockVRFCoordinatorV2.Subscription)",
        "numberOfBytes": "32",
        "value": "t_struct(Subscription)14565_storage"
      },
      "t_struct(Request)14577_storage": {
        "encoding": "inplace",
        "label": "struct MockVRFCoordinatorV2.Request",
        "members": [
          {
            "astId": 14572,
            "contract": "contracts/mocks/MockVRFCoordinatorV2.sol:MockVRFCoordinatorV2",
            "label": "subId",
            "offset": 0,
            "slot": "0",
            "type": "t_uint64"
          },
          {
            "astId": 14574,
            "contract": "contracts/mocks/MockVRFCoordinatorV2.sol:MockVRFCoordinatorV2",
            "label": "callbackGasLimit",
            "offset": 8,
            "slot": "0",
            "type": "t_uint32"
          },
          {
            "astId": 14576,
            "contract": "contracts/mocks/MockVRFCoordinatorV2.sol:MockVRFCoordinatorV2",
            "label": "numWords",
            "offset": 12,
            "slot": "0",
            "type": "t_uint32"
          }
        ],
        "numberOfBytes": "32"
      },
      "t_struct(Subscription)14565_storage": {
        "encoding": "inplace",
        "label": "struct MockVRFCoordinatorV2.Subscription",
        "members": [
          {
            "astId": 14562,
            "contract": "contracts/mocks/MockVRFCoordinatorV2.sol:MockVRFCoordinatorV2",
            "label": "owner",
            "offset": 0,
            "slot": "0",
            "type": "t_address"
          },
          {
            "astId": 14564,
            "contract": "contracts/mocks/MockVRFCoordinatorV2.sol:MockVRFCoordinatorV2",
            "label": "balance",
            "offset": 20,
            "slot": "0",
            "type": "t_uint96"
          }
        ],
        "numberOfBytes": "32"
      },
      "t_uint256": {
        "encoding": "inplace",
        "label": "uint256",
        "numberOfBytes": "32"
      },
      "t_uint32": {
        "encoding": "inplace",
        "label": "uint32",
        "numberOfBytes": "4"
      },
      "t_uint64": {
        "encoding": "inplace",
        "label": "uint64",
        "numberOfBytes": "8"
      },
      "t_uint96": {
        "encoding": "inplace",
        "label": "uint96",
        "numberOfBytes": "12"
      }
    }
  }
}