{
  "address": "0x5854A7d27d2835D2752585a308f2E4ce104158a3",
  "abi": [
    {
      "inputs": [
        {
          "internalType": "address",
          "name": "signer_",
          "type": "address"
        },
        {
          "internalType": "address",
          "name": "egg_",
          "type": "address"
        },
        {
          "internalType": "address",
          "name": "rooster_",
          "type": "address"
        },
        {
          "internalType": "address",
          "name": "gaff_",
          "type": "address"
        },
        {
          "internalType": "address",
          "name": "gem_",
          "type": "address"
        }
      ],
      "stateMutability": "nonpayable",
      "type": "constructor"
    },
    {
      "inputs": [],
      "name": "IsPaused",
      "type": "error"
    },
    {
      "inputs": [],
      "name": "NotPaused",
      "type": "error"
    },
    {
      "inputs": [
        {
          "internalType": "string",
          "name": "role",
          "type": "string"
        },
        {
          "internalType": "address",
          "name": "user",
          "type": "address"
        }
      ],
      "name": "Unauthorized",
      "type": "error"
    },
    {
      "anonymous": false,
      "inputs": [
        {
          "indexed": true,
          "internalType": "address",
          "name": "user",
          "type": "address"
        },
        {
          "indexed": false,
          "internalType": "uint24[]",
          "name": "eggIds",
          "type": "uint24[]"
        }
      ],
      "name": "EggsHatched",
      "type": "event"
    },
    {
      "anonymous": false,
      "inputs": [
        {
          "indexed": true,
          "internalType": "address",
          "name": "previousOwner",
          "type": "address"
        },
        {
          "indexed": true,
          "internalType": "address",
          "name": "newOwner",
          "type": "address"
        }
      ],
      "name": "OwnerPulled",
      "type": "event"
    },
    {
      "anonymous": false,
      "inputs": [
        {
          "indexed": true,
          "internalType": "address",
          "name": "pushedOwner",
          "type": "address"
        }
      ],
      "name": "OwnerPushed",
      "type": "event"
    },
    {
      "anonymous": false,
      "inputs": [
        {
          "indexed": false,
          "internalType": "address",
          "name": "account",
          "type": "address"
        }
      ],
      "name": "Paused",
      "type": "event"
    },
    {
      "anonymous": false,
      "inputs": [
        {
          "indexed": true,
          "internalType": "string",
          "name": "role",
          "type": "string"
        },
        {
          "indexed": true,
          "internalType": "address",
          "name": "account",
          "type": "address"
        },
        {
          "indexed": true,
          "internalType": "address",
          "name": "sender",
          "type": "address"
        }
      ],
      "name": "RoleGranted",
      "type": "event"
    },
    {
      "anonymous": false,
      "inputs": [
        {
          "indexed": true,
          "internalType": "string",
          "name": "role",
          "type": "string"
        },
        {
          "indexed": true,
          "internalType": "address",
          "name": "account",
          "type": "address"
        },
        {
          "indexed": true,
          "internalType": "address",
          "name": "sender",
          "type": "address"
        }
      ],
      "name": "RoleRevoked",
      "type": "event"
    },
    {
      "anonymous": false,
      "inputs": [
        {
          "indexed": false,
          "internalType": "address",
          "name": "account",
          "type": "address"
        }
      ],
      "name": "Unpaused",
      "type": "event"
    },
    {
      "inputs": [],
      "name": "egg",
      "outputs": [
        {
          "internalType": "address",
          "name": "",
          "type": "address"
        }
      ],
      "stateMutability": "view",
      "type": "function"
    },
    {
      "inputs": [],
      "name": "gaff",
      "outputs": [
        {
          "internalType": "address",
          "name": "",
          "type": "address"
        }
      ],
      "stateMutability": "view",
      "type": "function"
    },
    {
      "inputs": [],
      "name": "gem",
      "outputs": [
        {
          "internalType": "address",
          "name": "",
          "type": "address"
        }
      ],
      "stateMutability": "view",
      "type": "function"
    },
    {
      "inputs": [
        {
          "internalType": "string",
          "name": "role",
          "type": "string"
        },
        {
          "internalType": "address",
          "name": "account",
          "type": "address"
        }
      ],
      "name": "grantRole",
      "outputs": [],
      "stateMutability": "nonpayable",
      "type": "function"
    },
    {
      "inputs": [
        {
          "internalType": "string",
          "name": "role",
          "type": "string"
        },
        {
          "internalType": "address",
          "name": "account",
          "type": "address"
        }
      ],
      "name": "hasRole",
      "outputs": [
        {
          "internalType": "bool",
          "name": "",
          "type": "bool"
        }
      ],
      "stateMutability": "view",
      "type": "function"
    },
    {
      "inputs": [
        {
          "internalType": "address",
          "name": "to",
          "type": "address"
        },
        {
          "internalType": "uint24[]",
          "name": "eggIds",
          "type": "uint24[]"
        },
        {
          "internalType": "uint256[]",
          "name": "breeds",
          "type": "uint256[]"
        },
        {
          "internalType": "uint256[]",
          "name": "gaffTypes",
          "type": "uint256[]"
        },
        {
          "internalType": "uint256[]",
          "name": "gemTypes",
          "type": "uint256[]"
        },
        {
          "components": [
            {
              "internalType": "bytes32",
              "name": "r",
              "type": "bytes32"
            },
            {
              "internalType": "bytes32",
              "name": "s",
              "type": "bytes32"
            },
            {
              "internalType": "uint8",
              "name": "v",
              "type": "uint8"
            }
          ],
          "internalType": "struct RoosterEggHatching.Sig",
          "name": "sig",
          "type": "tuple"
        }
      ],
      "name": "hatch",
      "outputs": [],
      "stateMutability": "nonpayable",
      "type": "function"
    },
    {
      "inputs": [],
      "name": "newOwner",
      "outputs": [
        {
          "internalType": "address",
          "name": "",
          "type": "address"
        }
      ],
      "stateMutability": "view",
      "type": "function"
    },
    {
      "inputs": [],
      "name": "owner",
      "outputs": [
        {
          "internalType": "address",
          "name": "",
          "type": "address"
        }
      ],
      "stateMutability": "view",
      "type": "function"
    },
    {
      "inputs": [],
      "name": "pause",
      "outputs": [],
      "stateMutability": "nonpayable",
      "type": "function"
    },
    {
      "inputs": [],
      "name": "paused",
      "outputs": [
        {
          "internalType": "bool",
          "name": "",
          "type": "bool"
        }
      ],
      "stateMutability": "view",
      "type": "function"
    },
    {
      "inputs": [],
      "name": "pullOwner",
      "outputs": [],
      "stateMutability": "nonpayable",
      "type": "function"
    },
    {
      "inputs": [
        {
          "internalType": "address",
          "name": "account",
          "type": "address"
        }
      ],
      "name": "pushOwner",
      "outputs": [],
      "stateMutability": "nonpayable",
      "type": "function"
    },
    {
      "inputs": [
        {
          "internalType": "string",
          "name": "role",
          "type": "string"
        }
      ],
      "name": "renounceRole",
      "outputs": [],
      "stateMutability": "nonpayable",
      "type": "function"
    },
    {
      "inputs": [
        {
          "internalType": "string",
          "name": "role",
          "type": "string"
        },
        {
          "internalType": "address",
          "name": "account",
          "type": "address"
        }
      ],
      "name": "revokeRole",
      "outputs": [],
      "stateMutability": "nonpayable",
      "type": "function"
    },
    {
      "inputs": [],
      "name": "rooster",
      "outputs": [
        {
          "internalType": "address",
          "name": "",
          "type": "address"
        }
      ],
      "stateMutability": "view",
      "type": "function"
    },
    {
      "inputs": [],
      "name": "unpause",
      "outputs": [],
      "stateMutability": "nonpayable",
      "type": "function"
    }
  ],
  "transactionHash": "0xbcc0ba06503eb7f54e2adf10f0c66990c387fe02d0386e1314bb07daf9a5186d",
  "args": [
    "0xF29d77D06CA620558bD8C00E272D70502C35f497",
    "0x5304651fbC23801177c81734d2be6C669e8f9e82",
    "0xA66c49DBf7285c9f9C741Cf1a6c77E74a89C8048",
    "0x6500DFfBA3cC0a7DAc615F5531EbF5664012a406",
    "0xcc98c9B0256dcd02b913910CF27B88e24b4434e0"
  ],
  "numDeployments": 3,
  "solcInputHash": "08383365ccd50937a9fb45171093b767",
  "bytecode": "0x6101006040523480156200001257600080fd5b5060405162001660380380620016608339810160408190526200003591620001e7565b600080546001600160a01b0319163390811782556040519091907faac18e3887f7d855b2483e20615f8e3fb6efc18e25502090082b47047fb57c73908290a36001600160a01b0380851660805283811660a05282811660c052811660e05260408051808201909152600681526529a4a3a722a960d11b6020820152620000bc9086620000c7565b5050505050620002bd565b620000d3828262000169565b62000165576000620000f083620001b760201b62000a8c1760201c565b60008181526003602090815260408083206001600160a01b038716808552925291829020805460ff19166001179055905191925033916200013390869062000257565b604051908190038120907fe0ca4f6d52d59033a91ab89e93c98f9acada14e0086d8b1038284f42e6d5325790600090a4505b5050565b6000600360006200018585620001b760201b62000a8c1760201c565b8152602080820192909252604090810160009081206001600160a01b038616825290925290205460ff16905092915050565b6000620001c48262000295565b92915050565b80516001600160a01b0381168114620001e257600080fd5b919050565b600080600080600060a086880312156200020057600080fd5b6200020b86620001ca565b94506200021b60208701620001ca565b93506200022b60408701620001ca565b92506200023b60608701620001ca565b91506200024b60808701620001ca565b90509295509295909350565b6000825160005b818110156200027a57602081860181015185830152016200025e565b818111156200028a576000828501525b509190910192915050565b80516020808301519190811015620002b7576000198160200360031b1b821691505b50919050565b60805160a05160c05160e0516113466200031a600039600081816101c401526105a8015260008181610206015261052601526000818161010a01526104a4015260008181610240015281816104260152610bdc01526113466000f3fe608060405234801561001057600080fd5b50600436106101005760003560e01c80637bd2bea711610097578063ac5a7d5c11610066578063ac5a7d5c14610228578063c06abfc71461023b578063c19ae2ed14610262578063d4ee1d901461027557600080fd5b80637bd2bea7146101bf5780638456cb59146101e65780638da5cb5b146101ee57806396dc97861461020157600080fd5b80636c9cd097116100d35780636c9cd0971461017e5780636cef16e61461019157806370768f8614610199578063731f21a0146101ac57600080fd5b80633d76ba95146101055780633f4ba83a146101495780635c975abb14610153578063602504c51461016b575b600080fd5b61012c7f000000000000000000000000000000000000000000000000000000000000000081565b6040516001600160a01b0390911681526020015b60405180910390f35b610151610288565b005b61015b61033c565b6040519015158152602001610140565b610151610179366004610e63565b610354565b61015b61018c366004610fed565b610664565b6101516106a6565b6101516101a736600461103f565b610742565b6101516101ba366004610fed565b610798565b61012c7f000000000000000000000000000000000000000000000000000000000000000081565b61015161081c565b60005461012c906001600160a01b031681565b61012c7f000000000000000000000000000000000000000000000000000000000000000081565b61015161023636600461107c565b6108c1565b61012c7f000000000000000000000000000000000000000000000000000000000000000081565b610151610270366004610fed565b6109cd565b60015461012c906001600160a01b031681565b604051806040016040528060068152602001652820aaa9a2a960d11b8152506102b18133610664565b6102db5780336040516309ab81ed60e01b81526004016102d29291906110d0565b60405180910390fd5b6102e361033c565b61030057604051636cd6020160e01b815260040160405180910390fd5b60006002556040513381527f5db9ee0a495bf2e6ff9c91a7834c1ba4fdd244a5e8aa4e537bd38aeae4b073aa906020015b60405180910390a150565b600060025460011461034e5750600090565b50600190565b61035c61033c565b1561037a57604051631309a56360e01b815260040160405180910390fd5b61038987878787878787610a97565b6103c95760405162461bcd60e51b815260206004820152601160248201527024b73b30b634b2103830b930b6b2ba32b960791b60448201526064016102d2565b6103d38989610bcd565b61040f5760405162461bcd60e51b815260206004820152600d60248201526c24b73b30b634b21037bbb732b960991b60448201526064016102d2565b60405163148f829160e11b81526001600160a01b037f0000000000000000000000000000000000000000000000000000000000000000169063291f05229061045d908c908c90600401611127565b600060405180830381600087803b15801561047757600080fd5b505af115801561048b573d6000803e3d6000fd5b5050604051634684d7e960e01b81526001600160a01b037f0000000000000000000000000000000000000000000000000000000000000000169250634684d7e991506104df908d908b908b9060040161116f565b600060405180830381600087803b1580156104f957600080fd5b505af115801561050d573d6000803e3d6000fd5b5050604051634684d7e960e01b81526001600160a01b037f0000000000000000000000000000000000000000000000000000000000000000169250634684d7e99150610561908d908990899060040161116f565b600060405180830381600087803b15801561057b57600080fd5b505af115801561058f573d6000803e3d6000fd5b5050604051634684d7e960e01b81526001600160a01b037f0000000000000000000000000000000000000000000000000000000000000000169250634684d7e991506105e3908d908790879060040161116f565b600060405180830381600087803b1580156105fd57600080fd5b505af1158015610611573d6000803e3d6000fd5b50505050336001600160a01b03167fdd77d0d54cb6c598cb286af7c1fdeb0a6b80fe575d77d22b361152a7532be49a8a8a604051610650929190611127565b60405180910390a250505050505050505050565b60006003600061067385610a8c565b8152602080820192909252604090810160009081206001600160a01b038616825290925290205460ff1690505b92915050565b6001546001600160a01b031633146106f557604080516309ab81ed60e01b8152600481019190915260096044820152682722abafa7aba722a960b91b60648201523360248201526084016102d2565b60008054336001600160a01b03198216811783556040516001600160a01b0390921692909183917faac18e3887f7d855b2483e20615f8e3fb6efc18e25502090082b47047fb57c7391a350565b61074c8133610664565b61078b5760405162461bcd60e51b815260206004820152601060248201526f149bdb19481b9bdd0819dc985b9d195960821b60448201526064016102d2565b6107958133610ccd565b50565b6000546001600160a01b031633146107c557336040516309ab81ed60e01b81526004016102d291906111bc565b6107cf8282610664565b61080e5760405162461bcd60e51b815260206004820152601060248201526f149bdb19481b9bdd0819dc985b9d195960821b60448201526064016102d2565b6108188282610ccd565b5050565b604051806040016040528060068152602001652820aaa9a2a960d11b8152506108458133610664565b6108665780336040516309ab81ed60e01b81526004016102d29291906110d0565b61086e61033c565b1561088c57604051631309a56360e01b815260040160405180910390fd5b60016002556040513381527f62e78cea01bee320cd4e420270b5ea74000d11b0c9f74754ebdbfc544b05a25890602001610331565b6000546001600160a01b031633146108ee57336040516309ab81ed60e01b81526004016102d291906111bc565b6001600160a01b0381166109345760405162461bcd60e51b815260206004820152600d60248201526c4e6f206164647265737328302960981b60448201526064016102d2565b6000546001600160a01b03828116911614156109835760405162461bcd60e51b815260206004820152600e60248201526d27b7363c903732bb9037bbb732b960911b60448201526064016102d2565b600180546001600160a01b0319166001600160a01b0383169081179091556040517fd52a054f85e9a057277cd95bf6d5da45465068f0467ec7991f3fcc017be6b72590600090a250565b6000546001600160a01b031633146109fa57336040516309ab81ed60e01b81526004016102d291906111bc565b6000825111610a3c5760405162461bcd60e51b815260206004820152600e60248201526d2937b632903737ba1033b4bb32b760911b60448201526064016102d2565b6001600160a01b038116610a825760405162461bcd60e51b815260206004820152600d60248201526c4e6f206164647265737328302960981b60448201526064016102d2565b6108188282610d4b565b60006106a0826111ec565b60008033898989898989604051602001610ab7979695949392919061123d565b604051602081830303815290604052805190602001209050600081604051602001610b0e91907f19457468657265756d205369676e6564204d6573736167653a0a3332000000008152601c810191909152603c0190565b604051602081830303815290604052805190602001209050610bbf6040518060400160405280600681526020016529a4a3a722a960d11b815250600183876040016020810190610b5e9190611283565b604080516000815260208181018084529490945260ff909216908201528835606082015290880135608082015260a0016020604051602081039080840390855afa158015610bb0573d6000803e3d6000fd5b50505060206040510351610664565b9a9950505050505050505050565b6000805b82811015610cc357337f00000000000000000000000000000000000000000000000000000000000000006001600160a01b0316636352211e868685818110610c1b57610c1b6112a6565b9050602002016020810190610c3091906112bc565b6040516001600160e01b031960e084901b16815262ffffff909116600482015260240160206040518083038186803b158015610c6b57600080fd5b505afa158015610c7f573d6000803e3d6000fd5b505050506040513d601f19601f82011682018060405250810190610ca391906112d7565b6001600160a01b031614610cbb5760009150506106a0565b600101610bd1565b5060019392505050565b6000610cd883610a8c565b60008181526003602090815260408083206001600160a01b038716808552925291829020805460ff1916905590519192503391610d169086906112f4565b604051908190038120907ff3a2b91552b535c273a48d8b7453c8b0b287e20e51d74121eb50d975dbaa506d90600090a4505050565b610d558282610664565b610818576000610d6483610a8c565b60008181526003602090815260408083206001600160a01b038716808552925291829020805460ff1916600117905590519192503391610da59086906112f4565b604051908190038120907fe0ca4f6d52d59033a91ab89e93c98f9acada14e0086d8b1038284f42e6d5325790600090a4505050565b6001600160a01b038116811461079557600080fd5b8035610dfa81610dda565b919050565b60008083601f840112610e1157600080fd5b50813567ffffffffffffffff811115610e2957600080fd5b6020830191508360208260051b8501011115610e4457600080fd5b9250929050565b600060608284031215610e5d57600080fd5b50919050565b6000806000806000806000806000806101008b8d031215610e8357600080fd5b610e8c8b610def565b995060208b013567ffffffffffffffff80821115610ea957600080fd5b610eb58e838f01610dff565b909b50995060408d0135915080821115610ece57600080fd5b610eda8e838f01610dff565b909950975060608d0135915080821115610ef357600080fd5b610eff8e838f01610dff565b909750955060808d0135915080821115610f1857600080fd5b50610f258d828e01610dff565b9094509250610f3990508c60a08d01610e4b565b90509295989b9194979a5092959850565b634e487b7160e01b600052604160045260246000fd5b600082601f830112610f7157600080fd5b813567ffffffffffffffff80821115610f8c57610f8c610f4a565b604051601f8301601f19908116603f01168101908282118183101715610fb457610fb4610f4a565b81604052838152866020858801011115610fcd57600080fd5b836020870160208301376000602085830101528094505050505092915050565b6000806040838503121561100057600080fd5b823567ffffffffffffffff81111561101757600080fd5b61102385828601610f60565b925050602083013561103481610dda565b809150509250929050565b60006020828403121561105157600080fd5b813567ffffffffffffffff81111561106857600080fd5b61107484828501610f60565b949350505050565b60006020828403121561108e57600080fd5b813561109981610dda565b9392505050565b60005b838110156110bb5781810151838201526020016110a3565b838111156110ca576000848401525b50505050565b60408152600083518060408401526110ef8160608501602088016110a0565b6001600160a01b0393909316602083015250601f91909101601f191601606001919050565b803562ffffff81168114610dfa57600080fd5b60208082528181018390526000908460408401835b868110156111645762ffffff61115184611114565b168252918301919083019060010161113c565b509695505050505050565b6001600160a01b0384168152604060208201819052810182905260006001600160fb1b0383111561119f57600080fd5b8260051b8085606085013760009201606001918252509392505050565b60408082526005908201526427aba722a960d91b60608201526001600160a01b0391909116602082015260800190565b80516020808301519190811015610e5d5760001960209190910360031b1b16919050565b60006001600160fb1b0383111561122657600080fd5b8260051b8083863760009401938452509192915050565b6bffffffffffffffffffffffff198860601b168152600061127661126f611268601485018a8c611210565b8789611210565b8486611210565b9998505050505050505050565b60006020828403121561129557600080fd5b813560ff8116811461109957600080fd5b634e487b7160e01b600052603260045260246000fd5b6000602082840312156112ce57600080fd5b61109982611114565b6000602082840312156112e957600080fd5b815161109981610dda565b600082516113068184602087016110a0565b919091019291505056fea264697066735822122009390bad65626a60999de4d29487ec434949e738bb319c5346b9abed4df60b9664736f6c63430008090033",
  "devdoc": {
    "kind": "dev",
    "methods": {
      "hatch(address,uint24[],uint256[],uint256[],uint256[],(bytes32,bytes32,uint8))": {
        "params": {
          "breeds": "Array of rooster breeds to mint",
          "eggIds": "Array of rooster egg ids to burn",
          "gaffTypes": "Array of gaff amounts to mint (Index number corresponds to gaff id)",
          "gemTypes": "Array of gem ids to mint"
        }
      }
    },
    "version": 1
  },
  "userdoc": {
    "kind": "user",
    "methods": {},
    "version": 1
  },
  "storageLayout": {
    "storage": [
      {
        "astId": 4610,
        "contract": "contracts/EggHatching.sol:RoosterEggHatching",
        "label": "owner",
        "offset": 0,
        "slot": "0",
        "type": "t_address"
      },
      {
        "astId": 4612,
        "contract": "contracts/EggHatching.sol:RoosterEggHatching",
        "label": "newOwner",
        "offset": 0,
        "slot": "1",
        "type": "t_address"
      },
      {
        "astId": 4614,
        "contract": "contracts/EggHatching.sol:RoosterEggHatching",
        "label": "_paused",
        "offset": 0,
        "slot": "2",
        "type": "t_uint256"
      },
      {
        "astId": 4620,
        "contract": "contracts/EggHatching.sol:RoosterEggHatching",
        "label": "_roles",
        "offset": 0,
        "slot": "3",
        "type": "t_mapping(t_bytes32,t_mapping(t_address,t_bool))"
      }
    ],
    "types": {
      "t_address": {
        "encoding": "inplace",
        "label": "address",
        "numberOfBytes": "20"
      },
      "t_bool": {
        "encoding": "inplace",
        "label": "bool",
        "numberOfBytes": "1"
      },
      "t_bytes32": {
        "encoding": "inplace",
        "label": "bytes32",
        "numberOfBytes": "32"
      },
      "t_mapping(t_address,t_bool)": {
        "encoding": "mapping",
        "key": "t_address",
        "label": "mapping(address => bool)",
        "numberOfBytes": "32",
        "value": "t_bool"
      },
      "t_mapping(t_bytes32,t_mapping(t_address,t_bool))": {
        "encoding": "mapping",
        "key": "t_bytes32",
        "label": "mapping(bytes32 => mapping(address => bool))",
        "numberOfBytes": "32",
        "value": "t_mapping(t_address,t_bool)"
      },
      "t_uint256": {
        "encoding": "inplace",
        "label": "uint256",
        "numberOfBytes": "32"
      }
    }
  }
}