{
  "address": "0x7F6C3fB288C11fC7AD4bD2bc08C154A9F37f5c1E",
  "abi": [
    {
      "inputs": [
        {
          "internalType": "address",
          "name": "usdc_",
          "type": "address"
        },
        {
          "internalType": "address",
          "name": "egg_",
          "type": "address"
        },
        {
          "internalType": "address",
          "name": "vault_",
          "type": "address"
        },
        {
          "internalType": "address",
          "name": "signer_",
          "type": "address"
        },
        {
          "internalType": "uint256",
          "name": "minted_",
          "type": "uint256"
        }
      ],
      "stateMutability": "nonpayable",
      "type": "constructor"
    },
    {
      "anonymous": false,
      "inputs": [
        {
          "indexed": false,
          "internalType": "address",
          "name": "user",
          "type": "address"
        },
        {
          "indexed": false,
          "internalType": "uint256",
          "name": "amount",
          "type": "uint256"
        }
      ],
      "name": "MaticCashback",
      "type": "event"
    },
    {
      "anonymous": false,
      "inputs": [
        {
          "indexed": true,
          "internalType": "address",
          "name": "user",
          "type": "address"
        },
        {
          "indexed": false,
          "internalType": "uint256",
          "name": "balance",
          "type": "uint256"
        }
      ],
      "name": "MaticCashbackFailed",
      "type": "event"
    },
    {
      "anonymous": false,
      "inputs": [
        {
          "indexed": true,
          "internalType": "address",
          "name": "account",
          "type": "address"
        }
      ],
      "name": "MinterRoleGranted",
      "type": "event"
    },
    {
      "anonymous": false,
      "inputs": [
        {
          "indexed": true,
          "internalType": "address",
          "name": "account",
          "type": "address"
        }
      ],
      "name": "MinterRoleRevoked",
      "type": "event"
    },
    {
      "anonymous": false,
      "inputs": [
        {
          "indexed": false,
          "internalType": "uint256",
          "name": "supply",
          "type": "uint256"
        },
        {
          "indexed": false,
          "internalType": "uint256",
          "name": "cap",
          "type": "uint256"
        },
        {
          "indexed": false,
          "internalType": "uint256",
          "name": "openingTime",
          "type": "uint256"
        },
        {
          "indexed": false,
          "internalType": "uint256",
          "name": "closingTime",
          "type": "uint256"
        },
        {
          "indexed": false,
          "internalType": "bool",
          "name": "whitelist",
          "type": "bool"
        },
        {
          "indexed": false,
          "internalType": "uint256",
          "name": "price",
          "type": "uint256"
        },
        {
          "indexed": false,
          "internalType": "uint256",
          "name": "cashback",
          "type": "uint256"
        }
      ],
      "name": "NewPresale",
      "type": "event"
    },
    {
      "anonymous": false,
      "inputs": [
        {
          "indexed": true,
          "internalType": "address",
          "name": "previousOwner",
          "type": "address"
        },
        {
          "indexed": true,
          "internalType": "address",
          "name": "newOwner",
          "type": "address"
        }
      ],
      "name": "OwnerPulled",
      "type": "event"
    },
    {
      "anonymous": false,
      "inputs": [
        {
          "indexed": true,
          "internalType": "address",
          "name": "pushedOwner",
          "type": "address"
        }
      ],
      "name": "OwnerPushed",
      "type": "event"
    },
    {
      "anonymous": false,
      "inputs": [
        {
          "indexed": false,
          "internalType": "address",
          "name": "account",
          "type": "address"
        }
      ],
      "name": "Paused",
      "type": "event"
    },
    {
      "anonymous": false,
      "inputs": [
        {
          "indexed": true,
          "internalType": "address",
          "name": "purchaser",
          "type": "address"
        },
        {
          "indexed": false,
          "internalType": "uint256",
          "name": "amount",
          "type": "uint256"
        },
        {
          "indexed": false,
          "internalType": "uint256",
          "name": "value",
          "type": "uint256"
        }
      ],
      "name": "Purchase",
      "type": "event"
    },
    {
      "anonymous": false,
      "inputs": [
        {
          "indexed": false,
          "internalType": "address",
          "name": "account",
          "type": "address"
        }
      ],
      "name": "Unpaused",
      "type": "event"
    },
    {
      "inputs": [
        {
          "internalType": "uint8",
          "name": "amount",
          "type": "uint8"
        },
        {
          "internalType": "bytes32",
          "name": "nonce",
          "type": "bytes32"
        },
        {
          "components": [
            {
              "internalType": "bytes32",
              "name": "r",
              "type": "bytes32"
            },
            {
              "internalType": "bytes32",
              "name": "s",
              "type": "bytes32"
            },
            {
              "internalType": "uint8",
              "name": "v",
              "type": "uint8"
            }
          ],
          "internalType": "struct RoosterEggSale.Sig",
          "name": "sig",
          "type": "tuple"
        }
      ],
      "name": "buyEggs",
      "outputs": [],
      "stateMutability": "nonpayable",
      "type": "function"
    },
    {
      "inputs": [],
      "name": "egg",
      "outputs": [
        {
          "internalType": "contract Egg",
          "name": "",
          "type": "address"
        }
      ],
      "stateMutability": "view",
      "type": "function"
    },
    {
      "inputs": [],
      "name": "getTime",
      "outputs": [
        {
          "internalType": "uint32",
          "name": "",
          "type": "uint32"
        }
      ],
      "stateMutability": "view",
      "type": "function"
    },
    {
      "inputs": [
        {
          "internalType": "address",
          "name": "account",
          "type": "address"
        }
      ],
      "name": "grantMinterRole",
      "outputs": [],
      "stateMutability": "nonpayable",
      "type": "function"
    },
    {
      "inputs": [
        {
          "internalType": "address",
          "name": "",
          "type": "address"
        }
      ],
      "name": "isMinter",
      "outputs": [
        {
          "internalType": "bool",
          "name": "",
          "type": "bool"
        }
      ],
      "stateMutability": "view",
      "type": "function"
    },
    {
      "inputs": [],
      "name": "isOpen",
      "outputs": [
        {
          "internalType": "bool",
          "name": "",
          "type": "bool"
        }
      ],
      "stateMutability": "view",
      "type": "function"
    },
    {
      "inputs": [],
      "name": "maxSupply",
      "outputs": [
        {
          "internalType": "uint256",
          "name": "",
          "type": "uint256"
        }
      ],
      "stateMutability": "view",
      "type": "function"
    },
    {
      "inputs": [
        {
          "internalType": "address",
          "name": "to",
          "type": "address"
        },
        {
          "internalType": "uint256",
          "name": "amount",
          "type": "uint256"
        }
      ],
      "name": "mintEggs",
      "outputs": [],
      "stateMutability": "nonpayable",
      "type": "function"
    },
    {
      "inputs": [],
      "name": "minted",
      "outputs": [
        {
          "internalType": "uint256",
          "name": "",
          "type": "uint256"
        }
      ],
      "stateMutability": "view",
      "type": "function"
    },
    {
      "inputs": [],
      "name": "newOwner",
      "outputs": [
        {
          "internalType": "address",
          "name": "",
          "type": "address"
        }
      ],
      "stateMutability": "view",
      "type": "function"
    },
    {
      "inputs": [],
      "name": "owner",
      "outputs": [
        {
          "internalType": "address",
          "name": "",
          "type": "address"
        }
      ],
      "stateMutability": "view",
      "type": "function"
    },
    {
      "inputs": [],
      "name": "pause",
      "outputs": [],
      "stateMutability": "nonpayable",
      "type": "function"
    },
    {
      "inputs": [],
      "name": "paused",
      "outputs": [
        {
          "internalType": "bool",
          "name": "",
          "type": "bool"
        }
      ],
      "stateMutability": "view",
      "type": "function"
    },
    {
      "inputs": [],
      "name": "presale",
      "outputs": [
        {
          "internalType": "uint32",
          "name": "supply",
          "type": "uint32"
        },
        {
          "internalType": "uint32",
          "name": "cap",
          "type": "uint32"
        },
        {
          "internalType": "uint32",
          "name": "sold",
          "type": "uint32"
        },
        {
          "internalType": "uint32",
          "name": "openingTime",
          "type": "uint32"
        },
        {
          "internalType": "uint32",
          "name": "closingTime",
          "type": "uint32"
        },
        {
          "internalType": "bool",
          "name": "whitelist",
          "type": "bool"
        },
        {
          "internalType": "uint256",
          "name": "price",
          "type": "uint256"
        },
        {
          "internalType": "uint256",
          "name": "cashback",
          "type": "uint256"
        }
      ],
      "stateMutability": "view",
      "type": "function"
    },
    {
      "inputs": [],
      "name": "pullOwner",
      "outputs": [],
      "stateMutability": "nonpayable",
      "type": "function"
    },
    {
      "inputs": [
        {
          "internalType": "address",
          "name": "",
          "type": "address"
        }
      ],
      "name": "purchasedAmount",
      "outputs": [
        {
          "internalType": "uint256",
          "name": "",
          "type": "uint256"
        }
      ],
      "stateMutability": "view",
      "type": "function"
    },
    {
      "inputs": [
        {
          "internalType": "address",
          "name": "account",
          "type": "address"
        }
      ],
      "name": "pushOwner",
      "outputs": [],
      "stateMutability": "nonpayable",
      "type": "function"
    },
    {
      "inputs": [
        {
          "internalType": "address",
          "name": "account",
          "type": "address"
        }
      ],
      "name": "revokeMinterRole",
      "outputs": [],
      "stateMutability": "nonpayable",
      "type": "function"
    },
    {
      "inputs": [
        {
          "internalType": "string",
          "name": "baseURI_",
          "type": "string"
        }
      ],
      "name": "setBaseURI",
      "outputs": [],
      "stateMutability": "nonpayable",
      "type": "function"
    },
    {
      "inputs": [
        {
          "internalType": "uint32",
          "name": "openingTime",
          "type": "uint32"
        },
        {
          "internalType": "uint32",
          "name": "closingTime",
          "type": "uint32"
        },
        {
          "internalType": "uint32",
          "name": "supply",
          "type": "uint32"
        },
        {
          "internalType": "uint32",
          "name": "cap",
          "type": "uint32"
        },
        {
          "internalType": "bool",
          "name": "whitelist",
          "type": "bool"
        },
        {
          "internalType": "uint256",
          "name": "price",
          "type": "uint256"
        },
        {
          "internalType": "uint256",
          "name": "cashback",
          "type": "uint256"
        }
      ],
      "name": "setPresale",
      "outputs": [],
      "stateMutability": "nonpayable",
      "type": "function"
    },
    {
      "inputs": [],
      "name": "signer",
      "outputs": [
        {
          "internalType": "address",
          "name": "",
          "type": "address"
        }
      ],
      "stateMutability": "view",
      "type": "function"
    },
    {
      "inputs": [],
      "name": "unpause",
      "outputs": [],
      "stateMutability": "nonpayable",
      "type": "function"
    },
    {
      "inputs": [],
      "name": "usdc",
      "outputs": [
        {
          "internalType": "contract IERC20",
          "name": "",
          "type": "address"
        }
      ],
      "stateMutability": "view",
      "type": "function"
    },
    {
      "inputs": [],
      "name": "vault",
      "outputs": [
        {
          "internalType": "address",
          "name": "",
          "type": "address"
        }
      ],
      "stateMutability": "view",
      "type": "function"
    },
    {
      "inputs": [
        {
          "internalType": "uint256",
          "name": "amount",
          "type": "uint256"
        }
      ],
      "name": "withdrawMatic",
      "outputs": [],
      "stateMutability": "nonpayable",
      "type": "function"
    },
    {
      "stateMutability": "payable",
      "type": "receive"
    }
  ],
  "transactionHash": "0x0407b5789573687515d91fc32146f1a538399eb69367f55949515b8793846460",
  "args": [
    "0x5256013CaAb14d902198eD9C943BeFc8E6a4F3C1",
    "0x986595739CB4F776BfD1677AF6AFE307D800F22f",
    "0x18bF4D2Da2A03134834107F7cCF2cEA2d6bdbbCc",
    "0xF29d77D06CA620558bD8C00E272D70502C35f497",
    1
  ],
  "numDeployments": 1,
  "solcInputHash": "098ca35b27a7f562232c87be6222f611",
  "bytecode": "0x6101006040523480156200001257600080fd5b5060405162001c0c38038062001c0c8339810160408190526200003591620000be565b600080546001600160a81b031916610100339081029190911782556040517faac18e3887f7d855b2483e20615f8e3fb6efc18e25502090082b47047fb57c73908390a36001600160a01b0394851660a05292841660805290831660c05290911660e05260065562000125565b80516001600160a01b0381168114620000b957600080fd5b919050565b600080600080600060a08688031215620000d757600080fd5b620000e286620000a1565b9450620000f260208701620000a1565b93506200010260408701620000a1565b92506200011260608701620000a1565b9150608086015190509295509295909350565b60805160a05160c05160e051611a756200019760003960008181610188015261160a0152600081816104bd01528181610f18015261127b01526000818161021b0152610f470152600081816104120152818161094201528181610cfc01528181610fec01526114000152611a756000f3fe60806040526004361061016a5760003560e01c80636cef16e6116100d1578063c06abfc71161008a578063e8a379b211610064578063e8a379b21461046b578063ec0d16a11461048b578063fbfa77cf146104ab578063fdea8e0b146104df57600080fd5b8063c06abfc714610400578063d4ee1d9014610434578063d5abeb011461045457600080fd5b80636cef16e6146103415780638456cb59146103565780638da5cb5b1461036b57806397efc5a114610390578063aa271e1a146103b0578063ac5a7d5c146103e057600080fd5b806347535d7b1161012357806347535d7b1461028d5780634f02c420146102b2578063557ed1ba146102c857806355f804b3146102e95780635c975abb1461030957806369e2f0fb1461032157600080fd5b8063238ac933146101765780632ac8636c146101c75780633dd1eb61146101e95780633e413bee146102095780633f4ba83a1461023d57806344c4dcc11461025257600080fd5b3661017157005b600080fd5b34801561018257600080fd5b506101aa7f000000000000000000000000000000000000000000000000000000000000000081565b6040516001600160a01b0390911681526020015b60405180910390f35b3480156101d357600080fd5b506101e76101e23660046116e3565b610589565b005b3480156101f557600080fd5b506101e7610204366004611775565b610772565b34801561021557600080fd5b506101aa7f000000000000000000000000000000000000000000000000000000000000000081565b34801561024957600080fd5b506101e761088e565b34801561025e57600080fd5b5061027f61026d366004611775565b60076020526000908152604090205481565b6040519081526020016101be565b34801561029957600080fd5b506102a26108c7565b60405190151581526020016101be565b3480156102be57600080fd5b5061027f60065481565b3480156102d457600080fd5b5060405163ffffffff421681526020016101be565b3480156102f557600080fd5b506101e76103043660046117ad565b6108fc565b34801561031557600080fd5b5060005460ff166102a2565b34801561032d57600080fd5b506101e761033c366004611775565b6109ac565b34801561034d57600080fd5b506101e7610a7a565b34801561036257600080fd5b506101e7610b1a565b34801561037757600080fd5b506000546101aa9061010090046001600160a01b031681565b34801561039c57600080fd5b506101e76103ab36600461186d565b610b51565b3480156103bc57600080fd5b506102a26103cb366004611775565b60026020526000908152604090205460ff1681565b3480156103ec57600080fd5b506101e76103fb366004611775565b611189565b34801561040c57600080fd5b506101aa7f000000000000000000000000000000000000000000000000000000000000000081565b34801561044057600080fd5b506001546101aa906001600160a01b031681565b34801561046057600080fd5b5061027f620249f081565b34801561047757600080fd5b506101e76104863660046118b7565b611248565b34801561049757600080fd5b506101e76104a63660046118d0565b611330565b3480156104b757600080fd5b506101aa7f000000000000000000000000000000000000000000000000000000000000000081565b3480156104eb57600080fd5b506003546004546005546105399263ffffffff808216936401000000008304821693600160401b8404831693600160601b8104841693600160801b82041692600160a01b90910460ff169188565b6040805163ffffffff998a16815297891660208901529588169587019590955292861660608601529416608084015292151560a083015260c082019290925260e0810191909152610100016101be565b60005461010090046001600160a01b031633146105c15760405162461bcd60e51b81526004016105b8906118fa565b60405180910390fd5b8663ffffffff168663ffffffff16101561061d5760405162461bcd60e51b815260206004820152601b60248201527f436c6f73696e672074696d65203c204f70656e696e672074696d65000000000060448201526064016105b8565b6106256108c7565b61069457428763ffffffff16116106755760405162461bcd60e51b8152602060048201526014602482015273496e76616c6964206f70656e696e672074696d6560601b60448201526064016105b8565b6003805463ffffffff60601b1916600160601b63ffffffff8a16021790555b6003805463ffffffff87811673ffffffff0000000000000000ffffffffffffffff19909216600160801b8a831690810267ffffffffffffffff19169190911783176401000000008984169081029190911760ff60a01b1916600160a01b8915159081029190911790955560048790556005869055604080519485526020850191909152918b16918301919091526060820152608081019190915260a0810183905260c081018290527fcdb3464eabb9305d09272bcfeb1e8674bf67a3e86e4dc86b74e09a04068569209060e00160405180910390a150505050505050565b60005461010090046001600160a01b031633146107a15760405162461bcd60e51b81526004016105b8906118fa565b6001600160a01b0381166107e75760405162461bcd60e51b815260206004820152600d60248201526c4e6f206164647265737328302960981b60448201526064016105b8565b6001600160a01b03811660009081526002602052604090205460ff16156108425760405162461bcd60e51b815260206004820152600f60248201526e105b1c9958591e4819dc985b9d1959608a1b60448201526064016105b8565b6001600160a01b038116600081815260026020526040808220805460ff19166001179055517fbd42b6cd963a984d8cbff85acad4dd2c87a6d85ac756d16e6d2ec5ce6c8f07309190a250565b60005461010090046001600160a01b031633146108bd5760405162461bcd60e51b81526004016105b8906118fa565b6108c5611460565b565b600354600090600160601b900463ffffffff1642108015906108f75750600354600160801b900463ffffffff1642105b905090565b60005461010090046001600160a01b0316331461092b5760405162461bcd60e51b81526004016105b8906118fa565b6040516355f804b360e01b81526001600160a01b037f000000000000000000000000000000000000000000000000000000000000000016906355f804b39061097790849060040161191e565b600060405180830381600087803b15801561099157600080fd5b505af11580156109a5573d6000803e3d6000fd5b5050505050565b60005461010090046001600160a01b031633146109db5760405162461bcd60e51b81526004016105b8906118fa565b6001600160a01b03811660009081526002602052604090205460ff16610a315760405162461bcd60e51b815260206004820152600b60248201526a139bdd0819dc985b9d195960aa1b60448201526064016105b8565b6001600160a01b038116600081815260026020526040808220805460ff19169055517ff474b72f3e21ebafdad7dadfcb99ae7eabdbf538d52a0e0eecbf8ce0fa7043fe9190a250565b6001546001600160a01b03163314610ac55760405162461bcd60e51b815260206004820152600e60248201526d27b7363c903732bb9037bbb732b960911b60448201526064016105b8565b6000805433610100818102610100600160a81b031984161784556040516001600160a01b03919093041692909183917faac18e3887f7d855b2483e20615f8e3fb6efc18e25502090082b47047fb57c7391a350565b60005461010090046001600160a01b03163314610b495760405162461bcd60e51b81526004016105b8906118fa565b6108c56114f3565b60005460ff1615610b975760405162461bcd60e51b815260206004820152601060248201526f14185d5cd8589b194e881c185d5cd95960821b60448201526064016105b8565b6004543390600090610bad9060ff871690611989565b905060008560ff16600360020154610bc59190611989565b9050610bcf6108c7565b610c065760405162461bcd60e51b81526020600482015260086024820152672737ba1037b832b760c11b60448201526064016105b8565b620249f08660ff16600654610c1b91906119a8565b1115610c5e5760405162461bcd60e51b815260206004820152601260248201527145786365656473206d617820737570706c7960701b60448201526064016105b8565b60035463ffffffff80821691610c809160ff8a1691600160401b9004166119c0565b63ffffffff161115610cc55760405162461bcd60e51b815260206004820152600e60248201526d4578636565647320737570706c7960901b60448201526064016105b8565b6003546040516344c4dcc160e01b81526001600160a01b03858116600483015264010000000090920463ffffffff169160ff8916917f0000000000000000000000000000000000000000000000000000000000000000909116906344c4dcc19060240160206040518083038186803b158015610d4057600080fd5b505afa158015610d54573d6000803e3d6000fd5b505050506040513d601f19601f82011682018060405250810190610d7891906119e8565b6001600160a01b038616600090815260076020526040902054610d9e9160ff16906119a8565b610da891906119a8565b1115610de45760405162461bcd60e51b815260206004820152600b60248201526a045786365656473206361760ac1b60448201526064016105b8565b600354600160a01b900460ff1615610ea45760008581526008602052604090205460ff16610e415760405162461bcd60e51b815260206004820152600a602482015269139bdb98d9481d5cd95960b21b60448201526064016105b8565b610e4c83868661156e565b610e8a5760405162461bcd60e51b815260206004820152600f60248201526e139bdd081dda1a5d195b1a5cdd1959608a1b60448201526064016105b8565b6000858152600860205260409020805460ff191660011790555b6006805460ff88169081019091556003805463ffffffff600160401b80830482168501909116026bffffffff0000000000000000199091161790556001600160a01b0384811660008181526007602052604090819020805490940190935591516323b872dd60e01b815260048101929092527f000000000000000000000000000000000000000000000000000000000000000081166024830152604482018490527f000000000000000000000000000000000000000000000000000000000000000016906323b872dd90606401602060405180830381600087803b158015610f8b57600080fd5b505af1158015610f9f573d6000803e3d6000fd5b505050506040513d601f19601f82011682018060405250810190610fc39190611a05565b5060405163ec0d16a160e01b81526001600160a01b03848116600483015260ff881660248301527f0000000000000000000000000000000000000000000000000000000000000000169063ec0d16a190604401600060405180830381600087803b15801561103057600080fd5b505af1158015611044573d6000803e3d6000fd5b50505050600081111561113a576000836001600160a01b03168260405160006040518083038185875af1925050503d806000811461109e576040519150601f19603f3d011682016040523d82523d6000602084013e6110a3565b606091505b5050905080156110f457604080516001600160a01b0386168152602081018490527f9db06889236e0d3ccbb25b6d3235472c344c7c6344f6a2c4d439baf64558adf7910160405180910390a1611138565b836001600160a01b03167faa7c8b793f177361ae906f241e79303b4257976b38d8139e2f1f4a54704a7a854760405161112f91815260200190565b60405180910390a25b505b6040805160ff88168152602081018490526001600160a01b038516917f12cb4648cf3058b17ceeb33e579f8b0bc269fe0843f3900b8e24b6c54871703c910160405180910390a2505050505050565b60005461010090046001600160a01b031633146111b85760405162461bcd60e51b81526004016105b8906118fa565b6001600160a01b0381166111fe5760405162461bcd60e51b815260206004820152600d60248201526c4e6f206164647265737328302960981b60448201526064016105b8565b600180546001600160a01b0319166001600160a01b0383169081179091556040517fd52a054f85e9a057277cd95bf6d5da45465068f0467ec7991f3fcc017be6b72590600090a250565b60005461010090046001600160a01b031633146112775760405162461bcd60e51b81526004016105b8906118fa565b60007f00000000000000000000000000000000000000000000000000000000000000006001600160a01b03168260405160006040518083038185875af1925050503d80600081146112e4576040519150601f19603f3d011682016040523d82523d6000602084013e6112e9565b606091505b505090508061132c5760405162461bcd60e51b815260206004820152600f60248201526e15da5d1a191c985dc819985a5b1959608a1b60448201526064016105b8565b5050565b3360009081526002602052604090205460ff1661137d5760405162461bcd60e51b815260206004820152600b60248201526a27b7363c9036b4b73a32b960a91b60448201526064016105b8565b620249f08160065461138f91906119a8565b11156113d25760405162461bcd60e51b815260206004820152601260248201527145786365656473206d617820737570706c7960701b60448201526064016105b8565b600680548201905560405163ec0d16a160e01b81526001600160a01b038381166004830152602482018390527f0000000000000000000000000000000000000000000000000000000000000000169063ec0d16a190604401600060405180830381600087803b15801561144457600080fd5b505af1158015611458573d6000803e3d6000fd5b505050505050565b60005460ff166114a95760405162461bcd60e51b815260206004820152601460248201527314185d5cd8589b194e881b9bdd081c185d5cd95960621b60448201526064016105b8565b6000805460ff191690557f5db9ee0a495bf2e6ff9c91a7834c1ba4fdd244a5e8aa4e537bd38aeae4b073aa335b6040516001600160a01b03909116815260200160405180910390a1565b60005460ff16156115395760405162461bcd60e51b815260206004820152601060248201526f14185d5cd8589b194e881c185d5cd95960821b60448201526064016105b8565b6000805460ff191660011790557f62e78cea01bee320cd4e420270b5ea74000d11b0c9f74754ebdbfc544b05a2586114d63390565b6040516bffffffffffffffffffffffff19606085901b1660208201526034810183905260009081906054016040516020818303038152906040528051906020012090506000816040516020016115f091907f19457468657265756d205369676e6564204d6573736167653a0a3332000000008152601c810191909152603c0190565b6040516020818303038152906040528051906020012090507f00000000000000000000000000000000000000000000000000000000000000006001600160a01b03166001828660400160208101906116489190611a22565b604080516000815260208181018084529490945260ff909216908201528735606082015290870135608082015260a0016020604051602081039080840390855afa15801561169a573d6000803e3d6000fd5b505050602060405103516001600160a01b031614925050509392505050565b803563ffffffff811681146116cd57600080fd5b919050565b80151581146116e057600080fd5b50565b600080600080600080600060e0888a0312156116fe57600080fd5b611707886116b9565b9650611715602089016116b9565b9550611723604089016116b9565b9450611731606089016116b9565b93506080880135611741816116d2565b9699959850939692959460a0840135945060c09093013592915050565b80356001600160a01b03811681146116cd57600080fd5b60006020828403121561178757600080fd5b6117908261175e565b9392505050565b634e487b7160e01b600052604160045260246000fd5b6000602082840312156117bf57600080fd5b813567ffffffffffffffff808211156117d757600080fd5b818401915084601f8301126117eb57600080fd5b8135818111156117fd576117fd611797565b604051601f8201601f19908116603f0116810190838211818310171561182557611825611797565b8160405282815287602084870101111561183e57600080fd5b826020860160208301376000928101602001929092525095945050505050565b60ff811681146116e057600080fd5b600080600083850360a081121561188357600080fd5b843561188e8161185e565b9350602085013592506060603f19820112156118a957600080fd5b506040840190509250925092565b6000602082840312156118c957600080fd5b5035919050565b600080604083850312156118e357600080fd5b6118ec8361175e565b946020939093013593505050565b6020808252600a908201526927b7363c9037bbb732b960b11b604082015260600190565b600060208083528351808285015260005b8181101561194b5785810183015185820160400152820161192f565b8181111561195d576000604083870101525b50601f01601f1916929092016040019392505050565b634e487b7160e01b600052601160045260246000fd5b60008160001904831182151516156119a3576119a3611973565b500290565b600082198211156119bb576119bb611973565b500190565b600063ffffffff8083168185168083038211156119df576119df611973565b01949350505050565b6000602082840312156119fa57600080fd5b81516117908161185e565b600060208284031215611a1757600080fd5b8151611790816116d2565b600060208284031215611a3457600080fd5b81356117908161185e56fea26469706673582212201662f8fb03993403a9ed447c00074c4d79f94a0fb0ec5533c409097df5ad91eb64736f6c63430008090033",
  "devdoc": {
    "kind": "dev",
    "methods": {
      "paused()": {
        "details": "Returns true if the contract is paused, and false otherwise."
      }
    },
    "version": 1
  },
  "userdoc": {
    "kind": "user",
    "methods": {},
    "version": 1
  },
  "storageLayout": {
    "storage": [
      {
        "astId": 122,
        "contract": "contracts/EggSale.sol:RoosterEggSale",
        "label": "_paused",
        "offset": 0,
        "slot": "0",
        "type": "t_bool"
      },
      {
        "astId": 5036,
        "contract": "contracts/EggSale.sol:RoosterEggSale",
        "label": "owner",
        "offset": 1,
        "slot": "0",
        "type": "t_address"
      },
      {
        "astId": 5038,
        "contract": "contracts/EggSale.sol:RoosterEggSale",
        "label": "newOwner",
        "offset": 0,
        "slot": "1",
        "type": "t_address"
      },
      {
        "astId": 5042,
        "contract": "contracts/EggSale.sol:RoosterEggSale",
        "label": "isMinter",
        "offset": 0,
        "slot": "2",
        "type": "t_mapping(t_address,t_bool)"
      },
      {
        "astId": 6142,
        "contract": "contracts/EggSale.sol:RoosterEggSale",
        "label": "presale",
        "offset": 0,
        "slot": "3",
        "type": "t_struct(Presale)6218_storage"
      },
      {
        "astId": 6154,
        "contract": "contracts/EggSale.sol:RoosterEggSale",
        "label": "minted",
        "offset": 0,
        "slot": "6",
        "type": "t_uint256"
      },
      {
        "astId": 6161,
        "contract": "contracts/EggSale.sol:RoosterEggSale",
        "label": "purchasedAmount",
        "offset": 0,
        "slot": "7",
        "type": "t_mapping(t_address,t_uint256)"
      },
      {
        "astId": 6165,
        "contract": "contracts/EggSale.sol:RoosterEggSale",
        "label": "_nonceUsed",
        "offset": 0,
        "slot": "8",
        "type": "t_mapping(t_bytes32,t_bool)"
      }
    ],
    "types": {
      "t_address": {
        "encoding": "inplace",
        "label": "address",
        "numberOfBytes": "20"
      },
      "t_bool": {
        "encoding": "inplace",
        "label": "bool",
        "numberOfBytes": "1"
      },
      "t_bytes32": {
        "encoding": "inplace",
        "label": "bytes32",
        "numberOfBytes": "32"
      },
      "t_mapping(t_address,t_bool)": {
        "encoding": "mapping",
        "key": "t_address",
        "label": "mapping(address => bool)",
        "numberOfBytes": "32",
        "value": "t_bool"
      },
      "t_mapping(t_address,t_uint256)": {
        "encoding": "mapping",
        "key": "t_address",
        "label": "mapping(address => uint256)",
        "numberOfBytes": "32",
        "value": "t_uint256"
      },
      "t_mapping(t_bytes32,t_bool)": {
        "encoding": "mapping",
        "key": "t_bytes32",
        "label": "mapping(bytes32 => bool)",
        "numberOfBytes": "32",
        "value": "t_bool"
      },
      "t_struct(Presale)6218_storage": {
        "encoding": "inplace",
        "label": "struct RoosterEggSale.Presale",
        "members": [
          {
            "astId": 6203,
            "contract": "contracts/EggSale.sol:RoosterEggSale",
            "label": "supply",
            "offset": 0,
            "slot": "0",
            "type": "t_uint32"
          },
          {
            "astId": 6205,
            "contract": "contracts/EggSale.sol:RoosterEggSale",
            "label": "cap",
            "offset": 4,
            "slot": "0",
            "type": "t_uint32"
          },
          {
            "astId": 6207,
            "contract": "contracts/EggSale.sol:RoosterEggSale",
            "label": "sold",
            "offset": 8,
            "slot": "0",
            "type": "t_uint32"
          },
          {
            "astId": 6209,
            "contract": "contracts/EggSale.sol:RoosterEggSale",
            "label": "openingTime",
            "offset": 12,
            "slot": "0",
            "type": "t_uint32"
          },
          {
            "astId": 6211,
            "contract": "contracts/EggSale.sol:RoosterEggSale",
            "label": "closingTime",
            "offset": 16,
            "slot": "0",
            "type": "t_uint32"
          },
          {
            "astId": 6213,
            "contract": "contracts/EggSale.sol:RoosterEggSale",
            "label": "whitelist",
            "offset": 20,
            "slot": "0",
            "type": "t_bool"
          },
          {
            "astId": 6215,
            "contract": "contracts/EggSale.sol:RoosterEggSale",
            "label": "price",
            "offset": 0,
            "slot": "1",
            "type": "t_uint256"
          },
          {
            "astId": 6217,
            "contract": "contracts/EggSale.sol:RoosterEggSale",
            "label": "cashback",
            "offset": 0,
            "slot": "2",
            "type": "t_uint256"
          }
        ],
        "numberOfBytes": "96"
      },
      "t_uint256": {
        "encoding": "inplace",
        "label": "uint256",
        "numberOfBytes": "32"
      },
      "t_uint32": {
        "encoding": "inplace",
        "label": "uint32",
        "numberOfBytes": "4"
      }
    }
  }
}