{
  "address": "0x796423297b84be912ffe9233e59d8b5b37c82b7e",
  "abi": [
    {
      "inputs": [
        {
          "internalType": "string",
          "name": "baseUri_",
          "type": "string"
        }
      ],
      "stateMutability": "nonpayable",
      "type": "constructor"
    },
    {
      "anonymous": false,
      "inputs": [
        {
          "indexed": true,
          "internalType": "address",
          "name": "owner",
          "type": "address"
        },
        {
          "indexed": true,
          "internalType": "address",
          "name": "spender",
          "type": "address"
        },
        {
          "indexed": true,
          "internalType": "uint256",
          "name": "id",
          "type": "uint256"
        }
      ],
      "name": "Approval",
      "type": "event"
    },
    {
      "anonymous": false,
      "inputs": [
        {
          "indexed": true,
          "internalType": "address",
          "name": "owner",
          "type": "address"
        },
        {
          "indexed": true,
          "internalType": "address",
          "name": "operator",
          "type": "address"
        },
        {
          "indexed": false,
          "internalType": "bool",
          "name": "approved",
          "type": "bool"
        }
      ],
      "name": "ApprovalForAll",
      "type": "event"
    },
    {
      "anonymous": false,
      "inputs": [
        {
          "indexed": true,
          "internalType": "uint256",
          "name": "roosterId",
          "type": "uint256"
        },
        {
          "indexed": false,
          "internalType": "uint256",
          "name": "breed",
          "type": "uint256"
        }
      ],
      "name": "BreedSet",
      "type": "event"
    },
    {
      "anonymous": false,
      "inputs": [
        {
          "indexed": true,
          "internalType": "address",
          "name": "account",
          "type": "address"
        }
      ],
      "name": "MinterRoleGranted",
      "type": "event"
    },
    {
      "anonymous": false,
      "inputs": [
        {
          "indexed": true,
          "internalType": "address",
          "name": "account",
          "type": "address"
        }
      ],
      "name": "MinterRoleRevoked",
      "type": "event"
    },
    {
      "anonymous": false,
      "inputs": [
        {
          "indexed": true,
          "internalType": "address",
          "name": "previousOwner",
          "type": "address"
        },
        {
          "indexed": true,
          "internalType": "address",
          "name": "newOwner",
          "type": "address"
        }
      ],
      "name": "OwnerPulled",
      "type": "event"
    },
    {
      "anonymous": false,
      "inputs": [
        {
          "indexed": true,
          "internalType": "address",
          "name": "pushedOwner",
          "type": "address"
        }
      ],
      "name": "OwnerPushed",
      "type": "event"
    },
    {
      "anonymous": false,
      "inputs": [
        {
          "indexed": false,
          "internalType": "address",
          "name": "account",
          "type": "address"
        }
      ],
      "name": "Paused",
      "type": "event"
    },
    {
      "anonymous": false,
      "inputs": [
        {
          "indexed": true,
          "internalType": "address",
          "name": "from",
          "type": "address"
        },
        {
          "indexed": true,
          "internalType": "address",
          "name": "to",
          "type": "address"
        },
        {
          "indexed": true,
          "internalType": "uint256",
          "name": "id",
          "type": "uint256"
        }
      ],
      "name": "Transfer",
      "type": "event"
    },
    {
      "anonymous": false,
      "inputs": [
        {
          "indexed": false,
          "internalType": "address",
          "name": "account",
          "type": "address"
        }
      ],
      "name": "Unpaused",
      "type": "event"
    },
    {
      "anonymous": false,
      "inputs": [
        {
          "indexed": false,
          "internalType": "string",
          "name": "baseUri",
          "type": "string"
        }
      ],
      "name": "UpdateBaseUri",
      "type": "event"
    },
    {
      "inputs": [
        {
          "internalType": "address",
          "name": "spender",
          "type": "address"
        },
        {
          "internalType": "uint256",
          "name": "id",
          "type": "uint256"
        }
      ],
      "name": "approve",
      "outputs": [],
      "stateMutability": "nonpayable",
      "type": "function"
    },
    {
      "inputs": [
        {
          "internalType": "address",
          "name": "",
          "type": "address"
        }
      ],
      "name": "balanceOf",
      "outputs": [
        {
          "internalType": "uint256",
          "name": "",
          "type": "uint256"
        }
      ],
      "stateMutability": "view",
      "type": "function"
    },
    {
      "inputs": [
        {
          "internalType": "address",
          "name": "to",
          "type": "address"
        },
        {
          "internalType": "uint256[]",
          "name": "breeds",
          "type": "uint256[]"
        }
      ],
      "name": "batchMint",
      "outputs": [],
      "stateMutability": "nonpayable",
      "type": "function"
    },
    {
      "inputs": [
        {
          "internalType": "uint256",
          "name": "roosterId",
          "type": "uint256"
        }
      ],
      "name": "breeds",
      "outputs": [
        {
          "internalType": "uint256",
          "name": "",
          "type": "uint256"
        }
      ],
      "stateMutability": "view",
      "type": "function"
    },
    {
      "inputs": [
        {
          "internalType": "uint256",
          "name": "",
          "type": "uint256"
        }
      ],
      "name": "getApproved",
      "outputs": [
        {
          "internalType": "address",
          "name": "",
          "type": "address"
        }
      ],
      "stateMutability": "view",
      "type": "function"
    },
    {
      "inputs": [
        {
          "internalType": "address",
          "name": "account",
          "type": "address"
        }
      ],
      "name": "grantMinterRole",
      "outputs": [],
      "stateMutability": "nonpayable",
      "type": "function"
    },
    {
      "inputs": [
        {
          "internalType": "address",
          "name": "",
          "type": "address"
        },
        {
          "internalType": "address",
          "name": "",
          "type": "address"
        }
      ],
      "name": "isApprovedForAll",
      "outputs": [
        {
          "internalType": "bool",
          "name": "",
          "type": "bool"
        }
      ],
      "stateMutability": "view",
      "type": "function"
    },
    {
      "inputs": [
        {
          "internalType": "address",
          "name": "",
          "type": "address"
        }
      ],
      "name": "isMinter",
      "outputs": [
        {
          "internalType": "bool",
          "name": "",
          "type": "bool"
        }
      ],
      "stateMutability": "view",
      "type": "function"
    },
    {
      "inputs": [
        {
          "internalType": "address",
          "name": "to",
          "type": "address"
        },
        {
          "internalType": "uint256",
          "name": "breed",
          "type": "uint256"
        }
      ],
      "name": "mint",
      "outputs": [],
      "stateMutability": "nonpayable",
      "type": "function"
    },
    {
      "inputs": [],
      "name": "name",
      "outputs": [
        {
          "internalType": "string",
          "name": "",
          "type": "string"
        }
      ],
      "stateMutability": "view",
      "type": "function"
    },
    {
      "inputs": [],
      "name": "newOwner",
      "outputs": [
        {
          "internalType": "address",
          "name": "",
          "type": "address"
        }
      ],
      "stateMutability": "view",
      "type": "function"
    },
    {
      "inputs": [],
      "name": "owner",
      "outputs": [
        {
          "internalType": "address",
          "name": "",
          "type": "address"
        }
      ],
      "stateMutability": "view",
      "type": "function"
    },
    {
      "inputs": [
        {
          "internalType": "uint256",
          "name": "",
          "type": "uint256"
        }
      ],
      "name": "ownerOf",
      "outputs": [
        {
          "internalType": "address",
          "name": "",
          "type": "address"
        }
      ],
      "stateMutability": "view",
      "type": "function"
    },
    {
      "inputs": [],
      "name": "pause",
      "outputs": [],
      "stateMutability": "nonpayable",
      "type": "function"
    },
    {
      "inputs": [],
      "name": "paused",
      "outputs": [
        {
          "internalType": "bool",
          "name": "",
          "type": "bool"
        }
      ],
      "stateMutability": "view",
      "type": "function"
    },
    {
      "inputs": [],
      "name": "pullOwner",
      "outputs": [],
      "stateMutability": "nonpayable",
      "type": "function"
    },
    {
      "inputs": [
        {
          "internalType": "address",
          "name": "account",
          "type": "address"
        }
      ],
      "name": "pushOwner",
      "outputs": [],
      "stateMutability": "nonpayable",
      "type": "function"
    },
    {
      "inputs": [
        {
          "internalType": "address",
          "name": "account",
          "type": "address"
        }
      ],
      "name": "revokeMinterRole",
      "outputs": [],
      "stateMutability": "nonpayable",
      "type": "function"
    },
    {
      "inputs": [
        {
          "internalType": "address",
          "name": "from",
          "type": "address"
        },
        {
          "internalType": "address",
          "name": "to",
          "type": "address"
        },
        {
          "internalType": "uint256[]",
          "name": "roosterIds",
          "type": "uint256[]"
        }
      ],
      "name": "safeBatchTransferFrom",
      "outputs": [],
      "stateMutability": "nonpayable",
      "type": "function"
    },
    {
      "inputs": [
        {
          "internalType": "address",
          "name": "from",
          "type": "address"
        },
        {
          "internalType": "address",
          "name": "to",
          "type": "address"
        },
        {
          "internalType": "uint256",
          "name": "id",
          "type": "uint256"
        }
      ],
      "name": "safeTransferFrom",
      "outputs": [],
      "stateMutability": "nonpayable",
      "type": "function"
    },
    {
      "inputs": [
        {
          "internalType": "address",
          "name": "from",
          "type": "address"
        },
        {
          "internalType": "address",
          "name": "to",
          "type": "address"
        },
        {
          "internalType": "uint256",
          "name": "id",
          "type": "uint256"
        },
        {
          "internalType": "bytes",
          "name": "data",
          "type": "bytes"
        }
      ],
      "name": "safeTransferFrom",
      "outputs": [],
      "stateMutability": "nonpayable",
      "type": "function"
    },
    {
      "inputs": [
        {
          "internalType": "address",
          "name": "operator",
          "type": "address"
        },
        {
          "internalType": "bool",
          "name": "approved",
          "type": "bool"
        }
      ],
      "name": "setApprovalForAll",
      "outputs": [],
      "stateMutability": "nonpayable",
      "type": "function"
    },
    {
      "inputs": [
        {
          "internalType": "string",
          "name": "newUri",
          "type": "string"
        }
      ],
      "name": "setBaseUri",
      "outputs": [],
      "stateMutability": "nonpayable",
      "type": "function"
    },
    {
      "inputs": [
        {
          "internalType": "bytes4",
          "name": "interfaceId",
          "type": "bytes4"
        }
      ],
      "name": "supportsInterface",
      "outputs": [
        {
          "internalType": "bool",
          "name": "",
          "type": "bool"
        }
      ],
      "stateMutability": "pure",
      "type": "function"
    },
    {
      "inputs": [],
      "name": "symbol",
      "outputs": [
        {
          "internalType": "string",
          "name": "",
          "type": "string"
        }
      ],
      "stateMutability": "view",
      "type": "function"
    },
    {
      "inputs": [
        {
          "internalType": "uint256",
          "name": "roosterId",
          "type": "uint256"
        }
      ],
      "name": "tokenURI",
      "outputs": [
        {
          "internalType": "string",
          "name": "",
          "type": "string"
        }
      ],
      "stateMutability": "view",
      "type": "function"
    },
    {
      "inputs": [],
      "name": "totalSupply",
      "outputs": [
        {
          "internalType": "uint256",
          "name": "",
          "type": "uint256"
        }
      ],
      "stateMutability": "view",
      "type": "function"
    },
    {
      "inputs": [
        {
          "internalType": "address",
          "name": "from",
          "type": "address"
        },
        {
          "internalType": "address",
          "name": "to",
          "type": "address"
        },
        {
          "internalType": "uint256",
          "name": "id",
          "type": "uint256"
        }
      ],
      "name": "transferFrom",
      "outputs": [],
      "stateMutability": "nonpayable",
      "type": "function"
    },
    {
      "inputs": [],
      "name": "unpause",
      "outputs": [],
      "stateMutability": "nonpayable",
      "type": "function"
    }
  ],
  "transactionHash": "0x989e45fd82f7955ced3ad2c0156714f5a55517657ac6433326bb36214ad97714",
  "args": [
    ""
  ],
  "numDeployments": 3,
  "solcInputHash": "098ca35b27a7f562232c87be6222f611",
  "bytecode": "0x60806040526000600b553480156200001657600080fd5b506040516200204e3803806200204e833981016040819052620000399162000295565b604051806040016040528060078152602001662937b7b9ba32b960c91b815250604051806040016040528060078152602001662927a7a9aa22a960c91b815250816000908051906020019062000091929190620001a6565b508051620000a7906001906020840190620001a6565b5050600680546001600160a81b0319166101003390810291909117909155604051600092507faac18e3887f7d855b2483e20615f8e3fb6efc18e25502090082b47047fb57c73908390a3620000fc8162000103565b50620003bf565b60065461010090046001600160a01b03163314620001545760405162461bcd60e51b815260206004820152600a60248201526927b7363c9037bbb732b960b11b604482015260640160405180910390fd5b805162000169906009906020840190620001a6565b507f157eb1fffc1000c7f0ee8cb1f87be2620ec910b8be9e3af7db8c97328e2757cf816040516200019b91906200034d565b60405180910390a150565b828054620001b49062000382565b90600052602060002090601f016020900481019282620001d8576000855562000223565b82601f10620001f357805160ff191683800117855562000223565b8280016001018555821562000223579182015b828111156200022357825182559160200191906001019062000206565b506200023192915062000235565b5090565b5b8082111562000231576000815560010162000236565b634e487b7160e01b600052604160045260246000fd5b60005b838110156200027f57818101518382015260200162000265565b838111156200028f576000848401525b50505050565b600060208284031215620002a857600080fd5b81516001600160401b0380821115620002c057600080fd5b818401915084601f830112620002d557600080fd5b815181811115620002ea57620002ea6200024c565b604051601f8201601f19908116603f011681019083821181831017156200031557620003156200024c565b816040528281528760208487010111156200032f57600080fd5b6200034283602083016020880162000262565b979650505050505050565b60208152600082518060208401526200036e81604085016020870162000262565b601f01601f19169190910160400192915050565b600181811c908216806200039757607f821691505b60208210811415620003b957634e487b7160e01b600052602260045260246000fd5b50919050565b611c7f80620003cf6000396000f3fe608060405234801561001057600080fd5b50600436106101cf5760003560e01c80636352211e11610104578063a0bcfc7f116100a2578063b88d4fde11610071578063b88d4fde146103f9578063c87b56dd1461040c578063d4ee1d901461041f578063e985e9c51461043257600080fd5b8063a0bcfc7f1461039d578063a22cb465146103b0578063aa271e1a146103c3578063ac5a7d5c146103e657600080fd5b806370a08231116100de57806370a08231146103555780638456cb59146103755780638da5cb5b1461037d57806395d89b411461039557600080fd5b80636352211e1461031157806369e2f0fb1461033a5780636cef16e61461034d57600080fd5b80632c0209f51161017157806340c10f191161014b57806340c10f19146102cd57806342842e0e146102e05780634684d7e9146102f35780635c975abb1461030657600080fd5b80632c0209f51461029f5780633dd1eb61146102b25780633f4ba83a146102c557600080fd5b8063081812fc116101ad578063081812fc14610226578063095ea7b31461026757806318160ddd1461027a57806323b872dd1461028c57600080fd5b806301ffc9a7146101d4578063034601ec146101fc57806306fdde0314610211575b600080fd5b6101e76101e23660046115ab565b610460565b60405190151581526020015b60405180910390f35b61020f61020a3660046116b2565b6104b2565b005b6102196104f0565b6040516101f39190611768565b61024f61023436600461177b565b6004602052600090815260409020546001600160a01b031681565b6040516001600160a01b0390911681526020016101f3565b61020f610275366004611794565b61057e565b600b545b6040519081526020016101f3565b61020f61029a3660046117be565b610665565b61027e6102ad36600461177b565b61082c565b61020f6102c03660046117fa565b6108a3565b61020f6109bf565b61020f6102db366004611794565b6109f8565b61020f6102ee3660046117be565b610a60565b61020f610301366004611815565b610b3f565b60065460ff166101e7565b61024f61031f36600461177b565b6003602052600090815260409020546001600160a01b031681565b61020f6103483660046117fa565b610bd3565b61020f610ca1565b61027e6103633660046117fa565b60026020526000908152604090205481565b61020f610d46565b60065461024f9061010090046001600160a01b031681565b610219610d7d565b61020f6103ab3660046118bb565b610d8a565b61020f6103be366004611904565b610e07565b6101e76103d13660046117fa565b60086020526000908152604090205460ff1681565b61020f6103f43660046117fa565b610e73565b61020f610407366004611940565b610f32565b61021961041a36600461177b565b610ffd565b60075461024f906001600160a01b031681565b6101e76104403660046119bc565b600560209081526000928352604080842090915290825290205460ff1681565b60006301ffc9a760e01b6001600160e01b03198316148061049157506380ac58cd60e01b6001600160e01b03198316145b806104ac5750635b5e139f60e01b6001600160e01b03198316145b92915050565b60005b81518110156104ea576104e284848484815181106104d5576104d56119ef565b6020026020010151610a60565b6001016104b5565b50505050565b600080546104fd90611a05565b80601f016020809104026020016040519081016040528092919081815260200182805461052990611a05565b80156105765780601f1061054b57610100808354040283529160200191610576565b820191906000526020600020905b81548152906001019060200180831161055957829003601f168201915b505050505081565b6000818152600360205260409020546001600160a01b0316338114806105c757506001600160a01b038116600090815260056020908152604080832033845290915290205460ff165b6106095760405162461bcd60e51b815260206004820152600e60248201526d1393d517d055551213d49256915160921b60448201526064015b60405180910390fd5b60008281526004602052604080822080546001600160a01b0319166001600160a01b0387811691821790925591518593918516917f8c5be1e5ebec7d5bd14f71427d1e84f3dd0314c0f7b2291e5b200ac8c7c3b92591a4505050565b6000818152600360205260409020546001600160a01b038481169116146106bb5760405162461bcd60e51b815260206004820152600a60248201526957524f4e475f46524f4d60b01b6044820152606401610600565b6001600160a01b0382166107055760405162461bcd60e51b81526020600482015260116024820152701253959053125117d49150d25412515395607a1b6044820152606401610600565b336001600160a01b038416148061073257506000818152600460205260409020546001600160a01b031633145b8061076057506001600160a01b038316600090815260056020908152604080832033845290915290205460ff165b61079d5760405162461bcd60e51b815260206004820152600e60248201526d1393d517d055551213d49256915160921b6044820152606401610600565b6001600160a01b0380841660008181526002602090815260408083208054600019019055938616808352848320805460010190558583526003825284832080546001600160a01b03199081168317909155600490925284832080549092169091559251849392917fddf252ad1be2c89b69c2b068fc378daa952ba7f163c4a11628f55a4df523b3ef91a4505050565b6000818152600360205260408120546001600160a01b03166108905760405162461bcd60e51b815260206004820152601d60248201527f517565727920666f72206e6f6e6578697374656e7420726f6f737465720000006044820152606401610600565b506000908152600a602052604090205490565b60065461010090046001600160a01b031633146108d25760405162461bcd60e51b815260040161060090611a40565b6001600160a01b0381166109185760405162461bcd60e51b815260206004820152600d60248201526c4e6f206164647265737328302960981b6044820152606401610600565b6001600160a01b03811660009081526008602052604090205460ff16156109735760405162461bcd60e51b815260206004820152600f60248201526e105b1c9958591e4819dc985b9d1959608a1b6044820152606401610600565b6001600160a01b038116600081815260086020526040808220805460ff19166001179055517fbd42b6cd963a984d8cbff85acad4dd2c87a6d85ac756d16e6d2ec5ce6c8f07309190a250565b60065461010090046001600160a01b031633146109ee5760405162461bcd60e51b815260040161060090611a40565b6109f6611096565b565b3360009081526008602052604090205460ff16610a455760405162461bcd60e51b815260206004820152600b60248201526a27b7363c9036b4b73a32b960a91b6044820152606401610600565b600b805460018101909155610a5b838284611129565b505050565b610a6b838383610665565b6001600160a01b0382163b1580610b235750604051630a85bd0160e11b8082523360048301526001600160a01b03858116602484015260448301849052608060648401526000608484015290919084169063150b7a029060a401602060405180830381600087803b158015610adf57600080fd5b505af1158015610af3573d6000803e3d6000fd5b505050506040513d601f19601f82011682018060405250810190610b179190611a64565b6001600160e01b031916145b610a5b5760405162461bcd60e51b815260040161060090611a81565b3360009081526008602052604090205460ff16610b8c5760405162461bcd60e51b815260206004820152600b60248201526a27b7363c9036b4b73a32b960a91b6044820152606401610600565b600b5460005b8251811015610bcb57610bbf8483858481518110610bb257610bb26119ef565b6020026020010151611129565b60019182019101610b92565b50600b555050565b60065461010090046001600160a01b03163314610c025760405162461bcd60e51b815260040161060090611a40565b6001600160a01b03811660009081526008602052604090205460ff16610c585760405162461bcd60e51b815260206004820152600b60248201526a139bdd0819dc985b9d195960aa1b6044820152606401610600565b6001600160a01b038116600081815260086020526040808220805460ff19169055517ff474b72f3e21ebafdad7dadfcb99ae7eabdbf538d52a0e0eecbf8ce0fa7043fe9190a250565b6007546001600160a01b03163314610cec5760405162461bcd60e51b815260206004820152600e60248201526d27b7363c903732bb9037bbb732b960911b6044820152606401610600565b60068054610100600160a81b031981166101003381810292909217909355604051929091046001600160a01b03169182907faac18e3887f7d855b2483e20615f8e3fb6efc18e25502090082b47047fb57c7390600090a350565b60065461010090046001600160a01b03163314610d755760405162461bcd60e51b815260040161060090611a40565b6109f661113d565b600180546104fd90611a05565b60065461010090046001600160a01b03163314610db95760405162461bcd60e51b815260040161060090611a40565b8051610dcc9060099060208401906114f9565b507f157eb1fffc1000c7f0ee8cb1f87be2620ec910b8be9e3af7db8c97328e2757cf81604051610dfc9190611768565b60405180910390a150565b3360008181526005602090815260408083206001600160a01b03871680855290835292819020805460ff191686151590811790915590519081529192917f17307eab39ab6107e8899845ad3d59bd9653f200f220920489ca2b5937696c31910160405180910390a35050565b60065461010090046001600160a01b03163314610ea25760405162461bcd60e51b815260040161060090611a40565b6001600160a01b038116610ee85760405162461bcd60e51b815260206004820152600d60248201526c4e6f206164647265737328302960981b6044820152606401610600565b600780546001600160a01b0319166001600160a01b0383169081179091556040517fd52a054f85e9a057277cd95bf6d5da45465068f0467ec7991f3fcc017be6b72590600090a250565b610f3d848484610665565b6001600160a01b0383163b1580610fe15750604051630a85bd0160e11b808252906001600160a01b0385169063150b7a0290610f83903390899088908890600401611aab565b602060405180830381600087803b158015610f9d57600080fd5b505af1158015610fb1573d6000803e3d6000fd5b505050506040513d601f19601f82011682018060405250810190610fd59190611a64565b6001600160e01b031916145b6104ea5760405162461bcd60e51b815260040161060090611a81565b6000818152600360205260409020546060906001600160a01b03166110645760405162461bcd60e51b815260206004820152601d60248201527f517565727920666f72206e6f6e6578697374656e7420726f6f737465720000006044820152606401610600565b600961106f836111b8565b604051602001611080929190611b04565b6040516020818303038152906040529050919050565b60065460ff166110df5760405162461bcd60e51b815260206004820152601460248201527314185d5cd8589b194e881b9bdd081c185d5cd95960621b6044820152606401610600565b6006805460ff191690557f5db9ee0a495bf2e6ff9c91a7834c1ba4fdd244a5e8aa4e537bd38aeae4b073aa335b6040516001600160a01b03909116815260200160405180910390a1565b61113383836112be565b610a5b828261139d565b60065460ff16156111835760405162461bcd60e51b815260206004820152601060248201526f14185d5cd8589b194e881c185d5cd95960821b6044820152606401610600565b6006805460ff191660011790557f62e78cea01bee320cd4e420270b5ea74000d11b0c9f74754ebdbfc544b05a25861110c3390565b6060816111dc5750506040805180820190915260018152600360fc1b602082015290565b8160005b811561120657806111f081611bc1565b91506111ff9050600a83611bf2565b91506111e0565b60008167ffffffffffffffff811115611221576112216115eb565b6040519080825280601f01601f19166020018201604052801561124b576020820181803683370190505b5090505b84156112b657611260600183611c06565b915061126d600a86611c1d565b611278906030611c31565b60f81b81838151811061128d5761128d6119ef565b60200101906001600160f81b031916908160001a9053506112af600a86611bf2565b945061124f565b949350505050565b6112c882826113ee565b6001600160a01b0382163b158061137d5750604051630a85bd0160e11b80825233600483015260006024830181905260448301849052608060648401526084830152906001600160a01b0384169063150b7a029060a401602060405180830381600087803b15801561133957600080fd5b505af115801561134d573d6000803e3d6000fd5b505050506040513d601f19601f820116820180604052508101906113719190611a64565b6001600160e01b031916145b6113995760405162461bcd60e51b815260040161060090611a81565b5050565b6000828152600a6020526040908190208290555182907fe46d199dd459049fd4c9c752a8b7559ad5dbc0ddb9b399cd9db4636fd5aa8a83906113e29084815260200190565b60405180910390a25050565b6001600160a01b0382166114385760405162461bcd60e51b81526020600482015260116024820152701253959053125117d49150d25412515395607a1b6044820152606401610600565b6000818152600360205260409020546001600160a01b03161561148e5760405162461bcd60e51b815260206004820152600e60248201526d1053149150511657d3525395115160921b6044820152606401610600565b6001600160a01b038216600081815260026020908152604080832080546001019055848352600390915280822080546001600160a01b0319168417905551839291907fddf252ad1be2c89b69c2b068fc378daa952ba7f163c4a11628f55a4df523b3ef908290a45050565b82805461150590611a05565b90600052602060002090601f016020900481019282611527576000855561156d565b82601f1061154057805160ff191683800117855561156d565b8280016001018555821561156d579182015b8281111561156d578251825591602001919060010190611552565b5061157992915061157d565b5090565b5b80821115611579576000815560010161157e565b6001600160e01b0319811681146115a857600080fd5b50565b6000602082840312156115bd57600080fd5b81356115c881611592565b9392505050565b80356001600160a01b03811681146115e657600080fd5b919050565b634e487b7160e01b600052604160045260246000fd5b604051601f8201601f1916810167ffffffffffffffff8111828210171561162a5761162a6115eb565b604052919050565b600082601f83011261164357600080fd5b8135602067ffffffffffffffff82111561165f5761165f6115eb565b8160051b61166e828201611601565b928352848101820192828101908785111561168857600080fd5b83870192505b848310156116a75782358252918301919083019061168e565b979650505050505050565b6000806000606084860312156116c757600080fd5b6116d0846115cf565b92506116de602085016115cf565b9150604084013567ffffffffffffffff8111156116fa57600080fd5b61170686828701611632565b9150509250925092565b60005b8381101561172b578181015183820152602001611713565b838111156104ea5750506000910152565b60008151808452611754816020860160208601611710565b601f01601f19169290920160200192915050565b6020815260006115c8602083018461173c565b60006020828403121561178d57600080fd5b5035919050565b600080604083850312156117a757600080fd5b6117b0836115cf565b946020939093013593505050565b6000806000606084860312156117d357600080fd5b6117dc846115cf565b92506117ea602085016115cf565b9150604084013590509250925092565b60006020828403121561180c57600080fd5b6115c8826115cf565b6000806040838503121561182857600080fd5b611831836115cf565b9150602083013567ffffffffffffffff81111561184d57600080fd5b61185985828601611632565b9150509250929050565b600067ffffffffffffffff83111561187d5761187d6115eb565b611890601f8401601f1916602001611601565b90508281528383830111156118a457600080fd5b828260208301376000602084830101529392505050565b6000602082840312156118cd57600080fd5b813567ffffffffffffffff8111156118e457600080fd5b8201601f810184136118f557600080fd5b6112b684823560208401611863565b6000806040838503121561191757600080fd5b611920836115cf565b91506020830135801515811461193557600080fd5b809150509250929050565b6000806000806080858703121561195657600080fd5b61195f856115cf565b935061196d602086016115cf565b925060408501359150606085013567ffffffffffffffff81111561199057600080fd5b8501601f810187136119a157600080fd5b6119b087823560208401611863565b91505092959194509250565b600080604083850312156119cf57600080fd5b6119d8836115cf565b91506119e6602084016115cf565b90509250929050565b634e487b7160e01b600052603260045260246000fd5b600181811c90821680611a1957607f821691505b60208210811415611a3a57634e487b7160e01b600052602260045260246000fd5b50919050565b6020808252600a908201526927b7363c9037bbb732b960b11b604082015260600190565b600060208284031215611a7657600080fd5b81516115c881611592565b60208082526010908201526f155394d0519157d49150d2541251539560821b604082015260600190565b6001600160a01b0385811682528416602082015260408101839052608060608201819052600090611ade9083018461173c565b9695505050505050565b60008151611afa818560208601611710565b9290920192915050565b600080845481600182811c915080831680611b2057607f831692505b6020808410821415611b4057634e487b7160e01b86526022600452602486fd5b818015611b545760018114611b6557611b92565b60ff19861689528489019650611b92565b60008b81526020902060005b86811015611b8a5781548b820152908501908301611b71565b505084890196505b505050505050611ba28185611ae8565b95945050505050565b634e487b7160e01b600052601160045260246000fd5b6000600019821415611bd557611bd5611bab565b5060010190565b634e487b7160e01b600052601260045260246000fd5b600082611c0157611c01611bdc565b500490565b600082821015611c1857611c18611bab565b500390565b600082611c2c57611c2c611bdc565b500690565b60008219821115611c4457611c44611bab565b50019056fea2646970667358221220622a4bf4b5069fd86fd0332fdd1434a9e61297949b032236b89c924618ef39f364736f6c63430008090033",
  "devdoc": {
    "kind": "dev",
    "methods": {
      "paused()": {
        "details": "Returns true if the contract is paused, and false otherwise."
      }
    },
    "version": 1
  },
  "userdoc": {
    "kind": "user",
    "methods": {},
    "version": 1
  },
  "storageLayout": {
    "storage": [
      {
        "astId": 4541,
        "contract": "contracts/Rooster.sol:Rooster",
        "label": "name",
        "offset": 0,
        "slot": "0",
        "type": "t_string_storage"
      },
      {
        "astId": 4543,
        "contract": "contracts/Rooster.sol:Rooster",
        "label": "symbol",
        "offset": 0,
        "slot": "1",
        "type": "t_string_storage"
      },
      {
        "astId": 4554,
        "contract": "contracts/Rooster.sol:Rooster",
        "label": "balanceOf",
        "offset": 0,
        "slot": "2",
        "type": "t_mapping(t_address,t_uint256)"
      },
      {
        "astId": 4558,
        "contract": "contracts/Rooster.sol:Rooster",
        "label": "ownerOf",
        "offset": 0,
        "slot": "3",
        "type": "t_mapping(t_uint256,t_address)"
      },
      {
        "astId": 4562,
        "contract": "contracts/Rooster.sol:Rooster",
        "label": "getApproved",
        "offset": 0,
        "slot": "4",
        "type": "t_mapping(t_uint256,t_address)"
      },
      {
        "astId": 4568,
        "contract": "contracts/Rooster.sol:Rooster",
        "label": "isApprovedForAll",
        "offset": 0,
        "slot": "5",
        "type": "t_mapping(t_address,t_mapping(t_address,t_bool))"
      },
      {
        "astId": 122,
        "contract": "contracts/Rooster.sol:Rooster",
        "label": "_paused",
        "offset": 0,
        "slot": "6",
        "type": "t_bool"
      },
      {
        "astId": 5036,
        "contract": "contracts/Rooster.sol:Rooster",
        "label": "owner",
        "offset": 1,
        "slot": "6",
        "type": "t_address"
      },
      {
        "astId": 5038,
        "contract": "contracts/Rooster.sol:Rooster",
        "label": "newOwner",
        "offset": 0,
        "slot": "7",
        "type": "t_address"
      },
      {
        "astId": 5042,
        "contract": "contracts/Rooster.sol:Rooster",
        "label": "isMinter",
        "offset": 0,
        "slot": "8",
        "type": "t_mapping(t_address,t_bool)"
      },
      {
        "astId": 7522,
        "contract": "contracts/Rooster.sol:Rooster",
        "label": "_baseUri",
        "offset": 0,
        "slot": "9",
        "type": "t_string_storage"
      },
      {
        "astId": 7526,
        "contract": "contracts/Rooster.sol:Rooster",
        "label": "_breeds",
        "offset": 0,
        "slot": "10",
        "type": "t_mapping(t_uint256,t_uint256)"
      },
      {
        "astId": 7362,
        "contract": "contracts/Rooster.sol:Rooster",
        "label": "_roosterIdCounter",
        "offset": 0,
        "slot": "11",
        "type": "t_uint256"
      }
    ],
    "types": {
      "t_address": {
        "encoding": "inplace",
        "label": "address",
        "numberOfBytes": "20"
      },
      "t_bool": {
        "encoding": "inplace",
        "label": "bool",
        "numberOfBytes": "1"
      },
      "t_mapping(t_address,t_bool)": {
        "encoding": "mapping",
        "key": "t_address",
        "label": "mapping(address => bool)",
        "numberOfBytes": "32",
        "value": "t_bool"
      },
      "t_mapping(t_address,t_mapping(t_address,t_bool))": {
        "encoding": "mapping",
        "key": "t_address",
        "label": "mapping(address => mapping(address => bool))",
        "numberOfBytes": "32",
        "value": "t_mapping(t_address,t_bool)"
      },
      "t_mapping(t_address,t_uint256)": {
        "encoding": "mapping",
        "key": "t_address",
        "label": "mapping(address => uint256)",
        "numberOfBytes": "32",
        "value": "t_uint256"
      },
      "t_mapping(t_uint256,t_address)": {
        "encoding": "mapping",
        "key": "t_uint256",
        "label": "mapping(uint256 => address)",
        "numberOfBytes": "32",
        "value": "t_address"
      },
      "t_mapping(t_uint256,t_uint256)": {
        "encoding": "mapping",
        "key": "t_uint256",
        "label": "mapping(uint256 => uint256)",
        "numberOfBytes": "32",
        "value": "t_uint256"
      },
      "t_string_storage": {
        "encoding": "bytes",
        "label": "string",
        "numberOfBytes": "32"
      },
      "t_uint256": {
        "encoding": "inplace",
        "label": "uint256",
        "numberOfBytes": "32"
      }
    }
  }
}