{
  "address": "0x4f5a7026acb74954041F24b69AA93ff5356904C0",
  "abi": [
    {
      "inputs": [
        {
          "internalType": "string",
          "name": "baseUri_",
          "type": "string"
        }
      ],
      "stateMutability": "nonpayable",
      "type": "constructor"
    },
    {
      "anonymous": false,
      "inputs": [
        {
          "indexed": true,
          "internalType": "address",
          "name": "owner",
          "type": "address"
        },
        {
          "indexed": true,
          "internalType": "address",
          "name": "spender",
          "type": "address"
        },
        {
          "indexed": true,
          "internalType": "uint256",
          "name": "id",
          "type": "uint256"
        }
      ],
      "name": "Approval",
      "type": "event"
    },
    {
      "anonymous": false,
      "inputs": [
        {
          "indexed": true,
          "internalType": "address",
          "name": "owner",
          "type": "address"
        },
        {
          "indexed": true,
          "internalType": "address",
          "name": "operator",
          "type": "address"
        },
        {
          "indexed": false,
          "internalType": "bool",
          "name": "approved",
          "type": "bool"
        }
      ],
      "name": "ApprovalForAll",
      "type": "event"
    },
    {
      "anonymous": false,
      "inputs": [
        {
          "indexed": true,
          "internalType": "uint256",
          "name": "roosterId",
          "type": "uint256"
        },
        {
          "indexed": false,
          "internalType": "uint256",
          "name": "breed",
          "type": "uint256"
        }
      ],
      "name": "BreedSet",
      "type": "event"
    },
    {
      "anonymous": false,
      "inputs": [
        {
          "indexed": true,
          "internalType": "address",
          "name": "account",
          "type": "address"
        }
      ],
      "name": "MinterRoleGranted",
      "type": "event"
    },
    {
      "anonymous": false,
      "inputs": [
        {
          "indexed": true,
          "internalType": "address",
          "name": "account",
          "type": "address"
        }
      ],
      "name": "MinterRoleRevoked",
      "type": "event"
    },
    {
      "anonymous": false,
      "inputs": [
        {
          "indexed": true,
          "internalType": "address",
          "name": "previousOwner",
          "type": "address"
        },
        {
          "indexed": true,
          "internalType": "address",
          "name": "newOwner",
          "type": "address"
        }
      ],
      "name": "OwnerPulled",
      "type": "event"
    },
    {
      "anonymous": false,
      "inputs": [
        {
          "indexed": true,
          "internalType": "address",
          "name": "pushedOwner",
          "type": "address"
        }
      ],
      "name": "OwnerPushed",
      "type": "event"
    },
    {
      "anonymous": false,
      "inputs": [
        {
          "indexed": true,
          "internalType": "address",
          "name": "from",
          "type": "address"
        },
        {
          "indexed": true,
          "internalType": "address",
          "name": "to",
          "type": "address"
        },
        {
          "indexed": true,
          "internalType": "uint256",
          "name": "id",
          "type": "uint256"
        }
      ],
      "name": "Transfer",
      "type": "event"
    },
    {
      "anonymous": false,
      "inputs": [
        {
          "indexed": false,
          "internalType": "string",
          "name": "baseUri",
          "type": "string"
        }
      ],
      "name": "UpdateBaseUri",
      "type": "event"
    },
    {
      "inputs": [
        {
          "internalType": "address",
          "name": "spender",
          "type": "address"
        },
        {
          "internalType": "uint256",
          "name": "id",
          "type": "uint256"
        }
      ],
      "name": "approve",
      "outputs": [],
      "stateMutability": "nonpayable",
      "type": "function"
    },
    {
      "inputs": [
        {
          "internalType": "address",
          "name": "",
          "type": "address"
        }
      ],
      "name": "balanceOf",
      "outputs": [
        {
          "internalType": "uint256",
          "name": "",
          "type": "uint256"
        }
      ],
      "stateMutability": "view",
      "type": "function"
    },
    {
      "inputs": [
        {
          "internalType": "address",
          "name": "to",
          "type": "address"
        },
        {
          "internalType": "uint256[]",
          "name": "breeds",
          "type": "uint256[]"
        }
      ],
      "name": "batchMint",
      "outputs": [],
      "stateMutability": "nonpayable",
      "type": "function"
    },
    {
      "inputs": [
        {
          "internalType": "uint256",
          "name": "roosterId",
          "type": "uint256"
        }
      ],
      "name": "breeds",
      "outputs": [
        {
          "internalType": "uint256",
          "name": "",
          "type": "uint256"
        }
      ],
      "stateMutability": "view",
      "type": "function"
    },
    {
      "inputs": [
        {
          "internalType": "uint256",
          "name": "",
          "type": "uint256"
        }
      ],
      "name": "getApproved",
      "outputs": [
        {
          "internalType": "address",
          "name": "",
          "type": "address"
        }
      ],
      "stateMutability": "view",
      "type": "function"
    },
    {
      "inputs": [
        {
          "internalType": "address",
          "name": "account",
          "type": "address"
        }
      ],
      "name": "grantMinterRole",
      "outputs": [],
      "stateMutability": "nonpayable",
      "type": "function"
    },
    {
      "inputs": [
        {
          "internalType": "address",
          "name": "",
          "type": "address"
        },
        {
          "internalType": "address",
          "name": "",
          "type": "address"
        }
      ],
      "name": "isApprovedForAll",
      "outputs": [
        {
          "internalType": "bool",
          "name": "",
          "type": "bool"
        }
      ],
      "stateMutability": "view",
      "type": "function"
    },
    {
      "inputs": [
        {
          "internalType": "address",
          "name": "",
          "type": "address"
        }
      ],
      "name": "isMinter",
      "outputs": [
        {
          "internalType": "bool",
          "name": "",
          "type": "bool"
        }
      ],
      "stateMutability": "view",
      "type": "function"
    },
    {
      "inputs": [
        {
          "internalType": "address",
          "name": "to",
          "type": "address"
        },
        {
          "internalType": "uint256",
          "name": "breed",
          "type": "uint256"
        }
      ],
      "name": "mint",
      "outputs": [],
      "stateMutability": "nonpayable",
      "type": "function"
    },
    {
      "inputs": [],
      "name": "name",
      "outputs": [
        {
          "internalType": "string",
          "name": "",
          "type": "string"
        }
      ],
      "stateMutability": "view",
      "type": "function"
    },
    {
      "inputs": [],
      "name": "newOwner",
      "outputs": [
        {
          "internalType": "address",
          "name": "",
          "type": "address"
        }
      ],
      "stateMutability": "view",
      "type": "function"
    },
    {
      "inputs": [],
      "name": "owner",
      "outputs": [
        {
          "internalType": "address",
          "name": "",
          "type": "address"
        }
      ],
      "stateMutability": "view",
      "type": "function"
    },
    {
      "inputs": [
        {
          "internalType": "uint256",
          "name": "",
          "type": "uint256"
        }
      ],
      "name": "ownerOf",
      "outputs": [
        {
          "internalType": "address",
          "name": "",
          "type": "address"
        }
      ],
      "stateMutability": "view",
      "type": "function"
    },
    {
      "inputs": [],
      "name": "pullOwner",
      "outputs": [],
      "stateMutability": "nonpayable",
      "type": "function"
    },
    {
      "inputs": [
        {
          "internalType": "address",
          "name": "account",
          "type": "address"
        }
      ],
      "name": "pushOwner",
      "outputs": [],
      "stateMutability": "nonpayable",
      "type": "function"
    },
    {
      "inputs": [
        {
          "internalType": "address",
          "name": "account",
          "type": "address"
        }
      ],
      "name": "revokeMinterRole",
      "outputs": [],
      "stateMutability": "nonpayable",
      "type": "function"
    },
    {
      "inputs": [
        {
          "internalType": "address",
          "name": "from",
          "type": "address"
        },
        {
          "internalType": "address",
          "name": "to",
          "type": "address"
        },
        {
          "internalType": "uint256[]",
          "name": "roosterIds",
          "type": "uint256[]"
        }
      ],
      "name": "safeBatchTransferFrom",
      "outputs": [],
      "stateMutability": "nonpayable",
      "type": "function"
    },
    {
      "inputs": [
        {
          "internalType": "address",
          "name": "from",
          "type": "address"
        },
        {
          "internalType": "address",
          "name": "to",
          "type": "address"
        },
        {
          "internalType": "uint256",
          "name": "id",
          "type": "uint256"
        }
      ],
      "name": "safeTransferFrom",
      "outputs": [],
      "stateMutability": "nonpayable",
      "type": "function"
    },
    {
      "inputs": [
        {
          "internalType": "address",
          "name": "from",
          "type": "address"
        },
        {
          "internalType": "address",
          "name": "to",
          "type": "address"
        },
        {
          "internalType": "uint256",
          "name": "id",
          "type": "uint256"
        },
        {
          "internalType": "bytes",
          "name": "data",
          "type": "bytes"
        }
      ],
      "name": "safeTransferFrom",
      "outputs": [],
      "stateMutability": "nonpayable",
      "type": "function"
    },
    {
      "inputs": [
        {
          "internalType": "address",
          "name": "operator",
          "type": "address"
        },
        {
          "internalType": "bool",
          "name": "approved",
          "type": "bool"
        }
      ],
      "name": "setApprovalForAll",
      "outputs": [],
      "stateMutability": "nonpayable",
      "type": "function"
    },
    {
      "inputs": [
        {
          "internalType": "string",
          "name": "newUri",
          "type": "string"
        }
      ],
      "name": "setBaseUri",
      "outputs": [],
      "stateMutability": "nonpayable",
      "type": "function"
    },
    {
      "inputs": [
        {
          "internalType": "bytes4",
          "name": "interfaceId",
          "type": "bytes4"
        }
      ],
      "name": "supportsInterface",
      "outputs": [
        {
          "internalType": "bool",
          "name": "",
          "type": "bool"
        }
      ],
      "stateMutability": "pure",
      "type": "function"
    },
    {
      "inputs": [],
      "name": "symbol",
      "outputs": [
        {
          "internalType": "string",
          "name": "",
          "type": "string"
        }
      ],
      "stateMutability": "view",
      "type": "function"
    },
    {
      "inputs": [
        {
          "internalType": "uint256",
          "name": "roosterId",
          "type": "uint256"
        }
      ],
      "name": "tokenURI",
      "outputs": [
        {
          "internalType": "string",
          "name": "",
          "type": "string"
        }
      ],
      "stateMutability": "view",
      "type": "function"
    },
    {
      "inputs": [],
      "name": "totalSupply",
      "outputs": [
        {
          "internalType": "uint256",
          "name": "",
          "type": "uint256"
        }
      ],
      "stateMutability": "view",
      "type": "function"
    },
    {
      "inputs": [
        {
          "internalType": "address",
          "name": "from",
          "type": "address"
        },
        {
          "internalType": "address",
          "name": "to",
          "type": "address"
        },
        {
          "internalType": "uint256",
          "name": "id",
          "type": "uint256"
        }
      ],
      "name": "transferFrom",
      "outputs": [],
      "stateMutability": "nonpayable",
      "type": "function"
    }
  ],
  "transactionHash": "0x2f43b1714954d09428894a3e4edb425a83b5d905b7d4fc67523ae589fff27ab6",
  "args": [
    ""
  ],
  "numDeployments": 2,
  "solcInputHash": "962469a4fb996ca0d8a52110e1722da3",
  "bytecode": "0x60806040526000600b553480156200001657600080fd5b5060405162001e4538038062001e45833981016040819052620000399162000289565b604051806040016040528060078152602001662937b7b9ba32b960c91b815250604051806040016040528060078152602001662927a7a9aa22a960c91b8152508160009080519060200190620000919291906200019a565b508051620000a79060019060208401906200019a565b5050600680546001600160a01b03191633908117909155604051600092507faac18e3887f7d855b2483e20615f8e3fb6efc18e25502090082b47047fb57c73908390a3620000f581620000fc565b50620003b3565b6006546001600160a01b03163314620001485760405162461bcd60e51b815260206004820152600a60248201526927b7363c9037bbb732b960b11b604482015260640160405180910390fd5b80516200015d9060099060208401906200019a565b507f157eb1fffc1000c7f0ee8cb1f87be2620ec910b8be9e3af7db8c97328e2757cf816040516200018f919062000341565b60405180910390a150565b828054620001a89062000376565b90600052602060002090601f016020900481019282620001cc576000855562000217565b82601f10620001e757805160ff191683800117855562000217565b8280016001018555821562000217579182015b8281111562000217578251825591602001919060010190620001fa565b506200022592915062000229565b5090565b5b808211156200022557600081556001016200022a565b634e487b7160e01b600052604160045260246000fd5b60005b838110156200027357818101518382015260200162000259565b8381111562000283576000848401525b50505050565b6000602082840312156200029c57600080fd5b81516001600160401b0380821115620002b457600080fd5b818401915084601f830112620002c957600080fd5b815181811115620002de57620002de62000240565b604051601f8201601f19908116603f0116810190838211818310171562000309576200030962000240565b816040528281528760208487010111156200032357600080fd5b6200033683602083016020880162000256565b979650505050505050565b60208152600082518060208401526200036281604085016020870162000256565b601f01601f19169190910160400192915050565b600181811c908216806200038b57607f821691505b60208210811415620003ad57634e487b7160e01b600052602260045260246000fd5b50919050565b611a8280620003c36000396000f3fe608060405234801561001057600080fd5b506004361061018e5760003560e01c806369e2f0fb116100de578063a22cb46511610097578063b88d4fde11610071578063b88d4fde14610398578063c87b56dd146103ab578063d4ee1d90146103be578063e985e9c5146103d157600080fd5b8063a22cb4651461034f578063aa271e1a14610362578063ac5a7d5c1461038557600080fd5b806369e2f0fb146102e65780636cef16e6146102f957806370a08231146103015780638da5cb5b1461032157806395d89b4114610334578063a0bcfc7f1461033c57600080fd5b806323b872dd1161014b57806340c10f191161012557806340c10f191461028457806342842e0e146102975780634684d7e9146102aa5780636352211e146102bd57600080fd5b806323b872dd1461024b5780632c0209f51461025e5780633dd1eb611461027157600080fd5b806301ffc9a714610193578063034601ec146101bb57806306fdde03146101d0578063081812fc146101e5578063095ea7b31461022657806318160ddd14610239575b600080fd5b6101a66101a13660046113ae565b6103ff565b60405190151581526020015b60405180910390f35b6101ce6101c93660046114b5565b610451565b005b6101d861048f565b6040516101b2919061156b565b61020e6101f336600461157e565b6004602052600090815260409020546001600160a01b031681565b6040516001600160a01b0390911681526020016101b2565b6101ce610234366004611597565b61051d565b600b545b6040519081526020016101b2565b6101ce6102593660046115c1565b610604565b61023d61026c36600461157e565b6107cb565b6101ce61027f3660046115fd565b610842565b6101ce610292366004611597565b610959565b6101ce6102a53660046115c1565b6109c1565b6101ce6102b8366004611618565b610aa0565b61020e6102cb36600461157e565b6003602052600090815260409020546001600160a01b031681565b6101ce6102f43660046115fd565b610b34565b6101ce610bfd565b61023d61030f3660046115fd565b60026020526000908152604090205481565b60065461020e906001600160a01b031681565b6101d8610c98565b6101ce61034a3660046116be565b610ca5565b6101ce61035d366004611707565b610d1d565b6101a66103703660046115fd565b60086020526000908152604090205460ff1681565b6101ce6103933660046115fd565b610d89565b6101ce6103a6366004611743565b610e43565b6101d86103b936600461157e565b610f0e565b60075461020e906001600160a01b031681565b6101a66103df3660046117bf565b600560209081526000928352604080842090915290825290205460ff1681565b60006301ffc9a760e01b6001600160e01b03198316148061043057506380ac58cd60e01b6001600160e01b03198316145b8061044b5750635b5e139f60e01b6001600160e01b03198316145b92915050565b60005b8151811015610489576104818484848481518110610474576104746117f2565b60200260200101516109c1565b600101610454565b50505050565b6000805461049c90611808565b80601f01602080910402602001604051908101604052809291908181526020018280546104c890611808565b80156105155780601f106104ea57610100808354040283529160200191610515565b820191906000526020600020905b8154815290600101906020018083116104f857829003601f168201915b505050505081565b6000818152600360205260409020546001600160a01b03163381148061056657506001600160a01b038116600090815260056020908152604080832033845290915290205460ff165b6105a85760405162461bcd60e51b815260206004820152600e60248201526d1393d517d055551213d49256915160921b60448201526064015b60405180910390fd5b60008281526004602052604080822080546001600160a01b0319166001600160a01b0387811691821790925591518593918516917f8c5be1e5ebec7d5bd14f71427d1e84f3dd0314c0f7b2291e5b200ac8c7c3b92591a4505050565b6000818152600360205260409020546001600160a01b0384811691161461065a5760405162461bcd60e51b815260206004820152600a60248201526957524f4e475f46524f4d60b01b604482015260640161059f565b6001600160a01b0382166106a45760405162461bcd60e51b81526020600482015260116024820152701253959053125117d49150d25412515395607a1b604482015260640161059f565b336001600160a01b03841614806106d157506000818152600460205260409020546001600160a01b031633145b806106ff57506001600160a01b038316600090815260056020908152604080832033845290915290205460ff165b61073c5760405162461bcd60e51b815260206004820152600e60248201526d1393d517d055551213d49256915160921b604482015260640161059f565b6001600160a01b0380841660008181526002602090815260408083208054600019019055938616808352848320805460010190558583526003825284832080546001600160a01b03199081168317909155600490925284832080549092169091559251849392917fddf252ad1be2c89b69c2b068fc378daa952ba7f163c4a11628f55a4df523b3ef91a4505050565b6000818152600360205260408120546001600160a01b031661082f5760405162461bcd60e51b815260206004820152601d60248201527f517565727920666f72206e6f6e6578697374656e7420726f6f73746572000000604482015260640161059f565b506000908152600a602052604090205490565b6006546001600160a01b0316331461086c5760405162461bcd60e51b815260040161059f90611843565b6001600160a01b0381166108b25760405162461bcd60e51b815260206004820152600d60248201526c4e6f206164647265737328302960981b604482015260640161059f565b6001600160a01b03811660009081526008602052604090205460ff161561090d5760405162461bcd60e51b815260206004820152600f60248201526e105b1c9958591e4819dc985b9d1959608a1b604482015260640161059f565b6001600160a01b038116600081815260086020526040808220805460ff19166001179055517fbd42b6cd963a984d8cbff85acad4dd2c87a6d85ac756d16e6d2ec5ce6c8f07309190a250565b3360009081526008602052604090205460ff166109a65760405162461bcd60e51b815260206004820152600b60248201526a27b7363c9036b4b73a32b960a91b604482015260640161059f565b600b8054600181019091556109bc838284610fa7565b505050565b6109cc838383610604565b6001600160a01b0382163b1580610a845750604051630a85bd0160e11b8082523360048301526001600160a01b03858116602484015260448301849052608060648401526000608484015290919084169063150b7a029060a401602060405180830381600087803b158015610a4057600080fd5b505af1158015610a54573d6000803e3d6000fd5b505050506040513d601f19601f82011682018060405250810190610a789190611867565b6001600160e01b031916145b6109bc5760405162461bcd60e51b815260040161059f90611884565b3360009081526008602052604090205460ff16610aed5760405162461bcd60e51b815260206004820152600b60248201526a27b7363c9036b4b73a32b960a91b604482015260640161059f565b600b5460005b8251811015610b2c57610b208483858481518110610b1357610b136117f2565b6020026020010151610fa7565b60019182019101610af3565b50600b555050565b6006546001600160a01b03163314610b5e5760405162461bcd60e51b815260040161059f90611843565b6001600160a01b03811660009081526008602052604090205460ff16610bb45760405162461bcd60e51b815260206004820152600b60248201526a139bdd0819dc985b9d195960aa1b604482015260640161059f565b6001600160a01b038116600081815260086020526040808220805460ff19169055517ff474b72f3e21ebafdad7dadfcb99ae7eabdbf538d52a0e0eecbf8ce0fa7043fe9190a250565b6007546001600160a01b03163314610c485760405162461bcd60e51b815260206004820152600e60248201526d27b7363c903732bb9037bbb732b960911b604482015260640161059f565b60068054336001600160a01b0319821681179092556040516001600160a01b03909116919082907faac18e3887f7d855b2483e20615f8e3fb6efc18e25502090082b47047fb57c7390600090a350565b6001805461049c90611808565b6006546001600160a01b03163314610ccf5760405162461bcd60e51b815260040161059f90611843565b8051610ce29060099060208401906112fc565b507f157eb1fffc1000c7f0ee8cb1f87be2620ec910b8be9e3af7db8c97328e2757cf81604051610d12919061156b565b60405180910390a150565b3360008181526005602090815260408083206001600160a01b03871680855290835292819020805460ff191686151590811790915590519081529192917f17307eab39ab6107e8899845ad3d59bd9653f200f220920489ca2b5937696c31910160405180910390a35050565b6006546001600160a01b03163314610db35760405162461bcd60e51b815260040161059f90611843565b6001600160a01b038116610df95760405162461bcd60e51b815260206004820152600d60248201526c4e6f206164647265737328302960981b604482015260640161059f565b600780546001600160a01b0319166001600160a01b0383169081179091556040517fd52a054f85e9a057277cd95bf6d5da45465068f0467ec7991f3fcc017be6b72590600090a250565b610e4e848484610604565b6001600160a01b0383163b1580610ef25750604051630a85bd0160e11b808252906001600160a01b0385169063150b7a0290610e949033908990889088906004016118ae565b602060405180830381600087803b158015610eae57600080fd5b505af1158015610ec2573d6000803e3d6000fd5b505050506040513d601f19601f82011682018060405250810190610ee69190611867565b6001600160e01b031916145b6104895760405162461bcd60e51b815260040161059f90611884565b6000818152600360205260409020546060906001600160a01b0316610f755760405162461bcd60e51b815260206004820152601d60248201527f517565727920666f72206e6f6e6578697374656e7420726f6f73746572000000604482015260640161059f565b6009610f8083610fbb565b604051602001610f91929190611907565b6040516020818303038152906040529050919050565b610fb183836110c1565b6109bc82826111a0565b606081610fdf5750506040805180820190915260018152600360fc1b602082015290565b8160005b81156110095780610ff3816119c4565b91506110029050600a836119f5565b9150610fe3565b60008167ffffffffffffffff811115611024576110246113ee565b6040519080825280601f01601f19166020018201604052801561104e576020820181803683370190505b5090505b84156110b957611063600183611a09565b9150611070600a86611a20565b61107b906030611a34565b60f81b818381518110611090576110906117f2565b60200101906001600160f81b031916908160001a9053506110b2600a866119f5565b9450611052565b949350505050565b6110cb82826111f1565b6001600160a01b0382163b15806111805750604051630a85bd0160e11b80825233600483015260006024830181905260448301849052608060648401526084830152906001600160a01b0384169063150b7a029060a401602060405180830381600087803b15801561113c57600080fd5b505af1158015611150573d6000803e3d6000fd5b505050506040513d601f19601f820116820180604052508101906111749190611867565b6001600160e01b031916145b61119c5760405162461bcd60e51b815260040161059f90611884565b5050565b6000828152600a6020526040908190208290555182907fe46d199dd459049fd4c9c752a8b7559ad5dbc0ddb9b399cd9db4636fd5aa8a83906111e59084815260200190565b60405180910390a25050565b6001600160a01b03821661123b5760405162461bcd60e51b81526020600482015260116024820152701253959053125117d49150d25412515395607a1b604482015260640161059f565b6000818152600360205260409020546001600160a01b0316156112915760405162461bcd60e51b815260206004820152600e60248201526d1053149150511657d3525395115160921b604482015260640161059f565b6001600160a01b038216600081815260026020908152604080832080546001019055848352600390915280822080546001600160a01b0319168417905551839291907fddf252ad1be2c89b69c2b068fc378daa952ba7f163c4a11628f55a4df523b3ef908290a45050565b82805461130890611808565b90600052602060002090601f01602090048101928261132a5760008555611370565b82601f1061134357805160ff1916838001178555611370565b82800160010185558215611370579182015b82811115611370578251825591602001919060010190611355565b5061137c929150611380565b5090565b5b8082111561137c5760008155600101611381565b6001600160e01b0319811681146113ab57600080fd5b50565b6000602082840312156113c057600080fd5b81356113cb81611395565b9392505050565b80356001600160a01b03811681146113e957600080fd5b919050565b634e487b7160e01b600052604160045260246000fd5b604051601f8201601f1916810167ffffffffffffffff8111828210171561142d5761142d6113ee565b604052919050565b600082601f83011261144657600080fd5b8135602067ffffffffffffffff821115611462576114626113ee565b8160051b611471828201611404565b928352848101820192828101908785111561148b57600080fd5b83870192505b848310156114aa57823582529183019190830190611491565b979650505050505050565b6000806000606084860312156114ca57600080fd5b6114d3846113d2565b92506114e1602085016113d2565b9150604084013567ffffffffffffffff8111156114fd57600080fd5b61150986828701611435565b9150509250925092565b60005b8381101561152e578181015183820152602001611516565b838111156104895750506000910152565b60008151808452611557816020860160208601611513565b601f01601f19169290920160200192915050565b6020815260006113cb602083018461153f565b60006020828403121561159057600080fd5b5035919050565b600080604083850312156115aa57600080fd5b6115b3836113d2565b946020939093013593505050565b6000806000606084860312156115d657600080fd5b6115df846113d2565b92506115ed602085016113d2565b9150604084013590509250925092565b60006020828403121561160f57600080fd5b6113cb826113d2565b6000806040838503121561162b57600080fd5b611634836113d2565b9150602083013567ffffffffffffffff81111561165057600080fd5b61165c85828601611435565b9150509250929050565b600067ffffffffffffffff831115611680576116806113ee565b611693601f8401601f1916602001611404565b90508281528383830111156116a757600080fd5b828260208301376000602084830101529392505050565b6000602082840312156116d057600080fd5b813567ffffffffffffffff8111156116e757600080fd5b8201601f810184136116f857600080fd5b6110b984823560208401611666565b6000806040838503121561171a57600080fd5b611723836113d2565b91506020830135801515811461173857600080fd5b809150509250929050565b6000806000806080858703121561175957600080fd5b611762856113d2565b9350611770602086016113d2565b925060408501359150606085013567ffffffffffffffff81111561179357600080fd5b8501601f810187136117a457600080fd5b6117b387823560208401611666565b91505092959194509250565b600080604083850312156117d257600080fd5b6117db836113d2565b91506117e9602084016113d2565b90509250929050565b634e487b7160e01b600052603260045260246000fd5b600181811c9082168061181c57607f821691505b6020821081141561183d57634e487b7160e01b600052602260045260246000fd5b50919050565b6020808252600a908201526927b7363c9037bbb732b960b11b604082015260600190565b60006020828403121561187957600080fd5b81516113cb81611395565b60208082526010908201526f155394d0519157d49150d2541251539560821b604082015260600190565b6001600160a01b03858116825284166020820152604081018390526080606082018190526000906118e19083018461153f565b9695505050505050565b600081516118fd818560208601611513565b9290920192915050565b600080845481600182811c91508083168061192357607f831692505b602080841082141561194357634e487b7160e01b86526022600452602486fd5b818015611957576001811461196857611995565b60ff19861689528489019650611995565b60008b81526020902060005b8681101561198d5781548b820152908501908301611974565b505084890196505b5050505050506119a581856118eb565b95945050505050565b634e487b7160e01b600052601160045260246000fd5b60006000198214156119d8576119d86119ae565b5060010190565b634e487b7160e01b600052601260045260246000fd5b600082611a0457611a046119df565b500490565b600082821015611a1b57611a1b6119ae565b500390565b600082611a2f57611a2f6119df565b500690565b60008219821115611a4757611a476119ae565b50019056fea2646970667358221220b2a663b07ddbf1289767fc3c8f3638fe52e8ec3116ceb4261932b11c7ea9493364736f6c63430008090033",
  "devdoc": {
    "kind": "dev",
    "methods": {},
    "version": 1
  },
  "userdoc": {
    "kind": "user",
    "methods": {},
    "version": 1
  },
  "storageLayout": {
    "storage": [
      {
        "astId": 4541,
        "contract": "contracts/Rooster.sol:Rooster",
        "label": "name",
        "offset": 0,
        "slot": "0",
        "type": "t_string_storage"
      },
      {
        "astId": 4543,
        "contract": "contracts/Rooster.sol:Rooster",
        "label": "symbol",
        "offset": 0,
        "slot": "1",
        "type": "t_string_storage"
      },
      {
        "astId": 4554,
        "contract": "contracts/Rooster.sol:Rooster",
        "label": "balanceOf",
        "offset": 0,
        "slot": "2",
        "type": "t_mapping(t_address,t_uint256)"
      },
      {
        "astId": 4558,
        "contract": "contracts/Rooster.sol:Rooster",
        "label": "ownerOf",
        "offset": 0,
        "slot": "3",
        "type": "t_mapping(t_uint256,t_address)"
      },
      {
        "astId": 4562,
        "contract": "contracts/Rooster.sol:Rooster",
        "label": "getApproved",
        "offset": 0,
        "slot": "4",
        "type": "t_mapping(t_uint256,t_address)"
      },
      {
        "astId": 4568,
        "contract": "contracts/Rooster.sol:Rooster",
        "label": "isApprovedForAll",
        "offset": 0,
        "slot": "5",
        "type": "t_mapping(t_address,t_mapping(t_address,t_bool))"
      },
      {
        "astId": 5032,
        "contract": "contracts/Rooster.sol:Rooster",
        "label": "owner",
        "offset": 0,
        "slot": "6",
        "type": "t_address"
      },
      {
        "astId": 5034,
        "contract": "contracts/Rooster.sol:Rooster",
        "label": "newOwner",
        "offset": 0,
        "slot": "7",
        "type": "t_address"
      },
      {
        "astId": 5038,
        "contract": "contracts/Rooster.sol:Rooster",
        "label": "isMinter",
        "offset": 0,
        "slot": "8",
        "type": "t_mapping(t_address,t_bool)"
      },
      {
        "astId": 6934,
        "contract": "contracts/Rooster.sol:Rooster",
        "label": "_baseUri",
        "offset": 0,
        "slot": "9",
        "type": "t_string_storage"
      },
      {
        "astId": 6938,
        "contract": "contracts/Rooster.sol:Rooster",
        "label": "_breeds",
        "offset": 0,
        "slot": "10",
        "type": "t_mapping(t_uint256,t_uint256)"
      },
      {
        "astId": 6774,
        "contract": "contracts/Rooster.sol:Rooster",
        "label": "_roosterIdCounter",
        "offset": 0,
        "slot": "11",
        "type": "t_uint256"
      }
    ],
    "types": {
      "t_address": {
        "encoding": "inplace",
        "label": "address",
        "numberOfBytes": "20"
      },
      "t_bool": {
        "encoding": "inplace",
        "label": "bool",
        "numberOfBytes": "1"
      },
      "t_mapping(t_address,t_bool)": {
        "encoding": "mapping",
        "key": "t_address",
        "label": "mapping(address => bool)",
        "numberOfBytes": "32",
        "value": "t_bool"
      },
      "t_mapping(t_address,t_mapping(t_address,t_bool))": {
        "encoding": "mapping",
        "key": "t_address",
        "label": "mapping(address => mapping(address => bool))",
        "numberOfBytes": "32",
        "value": "t_mapping(t_address,t_bool)"
      },
      "t_mapping(t_address,t_uint256)": {
        "encoding": "mapping",
        "key": "t_address",
        "label": "mapping(address => uint256)",
        "numberOfBytes": "32",
        "value": "t_uint256"
      },
      "t_mapping(t_uint256,t_address)": {
        "encoding": "mapping",
        "key": "t_uint256",
        "label": "mapping(uint256 => address)",
        "numberOfBytes": "32",
        "value": "t_address"
      },
      "t_mapping(t_uint256,t_uint256)": {
        "encoding": "mapping",
        "key": "t_uint256",
        "label": "mapping(uint256 => uint256)",
        "numberOfBytes": "32",
        "value": "t_uint256"
      },
      "t_string_storage": {
        "encoding": "bytes",
        "label": "string",
        "numberOfBytes": "32"
      },
      "t_uint256": {
        "encoding": "inplace",
        "label": "uint256",
        "numberOfBytes": "32"
      }
    }
  }
}