{
  "address": "0x5304651fbC23801177c81734d2be6C669e8f9e82",
  "abi": [
    {
      "inputs": [
        {
          "internalType": "contract IERC20",
          "name": "usdc_",
          "type": "address"
        },
        {
          "internalType": "address",
          "name": "wallet_",
          "type": "address"
        },
        {
          "internalType": "uint24",
          "name": "inititalTokenId_",
          "type": "uint24"
        },
        {
          "internalType": "string",
          "name": "baseURI_",
          "type": "string"
        }
      ],
      "stateMutability": "nonpayable",
      "type": "constructor"
    },
    {
      "anonymous": false,
      "inputs": [
        {
          "indexed": true,
          "internalType": "address",
          "name": "owner",
          "type": "address"
        },
        {
          "indexed": true,
          "internalType": "address",
          "name": "approved",
          "type": "address"
        },
        {
          "indexed": true,
          "internalType": "uint256",
          "name": "tokenId",
          "type": "uint256"
        }
      ],
      "name": "Approval",
      "type": "event"
    },
    {
      "anonymous": false,
      "inputs": [
        {
          "indexed": true,
          "internalType": "address",
          "name": "owner",
          "type": "address"
        },
        {
          "indexed": true,
          "internalType": "address",
          "name": "operator",
          "type": "address"
        },
        {
          "indexed": false,
          "internalType": "bool",
          "name": "approved",
          "type": "bool"
        }
      ],
      "name": "ApprovalForAll",
      "type": "event"
    },
    {
      "anonymous": false,
      "inputs": [
        {
          "indexed": false,
          "internalType": "address",
          "name": "user",
          "type": "address"
        },
        {
          "indexed": false,
          "internalType": "uint256",
          "name": "amount",
          "type": "uint256"
        }
      ],
      "name": "MaticCashback",
      "type": "event"
    },
    {
      "anonymous": false,
      "inputs": [
        {
          "indexed": true,
          "internalType": "address",
          "name": "user",
          "type": "address"
        },
        {
          "indexed": false,
          "internalType": "uint256",
          "name": "balance",
          "type": "uint256"
        }
      ],
      "name": "MaticCashbackFailed",
      "type": "event"
    },
    {
      "anonymous": false,
      "inputs": [
        {
          "indexed": false,
          "internalType": "address",
          "name": "user",
          "type": "address"
        },
        {
          "indexed": false,
          "internalType": "uint256",
          "name": "amount",
          "type": "uint256"
        }
      ],
      "name": "MaticReceived",
      "type": "event"
    },
    {
      "anonymous": false,
      "inputs": [
        {
          "indexed": false,
          "internalType": "uint256",
          "name": "amount",
          "type": "uint256"
        }
      ],
      "name": "MaticWithdrawn",
      "type": "event"
    },
    {
      "anonymous": false,
      "inputs": [
        {
          "indexed": false,
          "internalType": "uint24",
          "name": "supply",
          "type": "uint24"
        },
        {
          "indexed": false,
          "internalType": "uint24",
          "name": "cap",
          "type": "uint24"
        },
        {
          "indexed": false,
          "internalType": "uint32",
          "name": "openingTime",
          "type": "uint32"
        },
        {
          "indexed": false,
          "internalType": "uint32",
          "name": "closingTime",
          "type": "uint32"
        },
        {
          "indexed": false,
          "internalType": "uint256",
          "name": "price",
          "type": "uint256"
        },
        {
          "indexed": false,
          "internalType": "uint256",
          "name": "cashbackPerEgg",
          "type": "uint256"
        }
      ],
      "name": "NewPresale",
      "type": "event"
    },
    {
      "anonymous": false,
      "inputs": [
        {
          "indexed": true,
          "internalType": "address",
          "name": "previousOwner",
          "type": "address"
        },
        {
          "indexed": true,
          "internalType": "address",
          "name": "newOwner",
          "type": "address"
        }
      ],
      "name": "OwnershipTransferred",
      "type": "event"
    },
    {
      "anonymous": false,
      "inputs": [
        {
          "indexed": false,
          "internalType": "address",
          "name": "account",
          "type": "address"
        }
      ],
      "name": "Paused",
      "type": "event"
    },
    {
      "anonymous": false,
      "inputs": [
        {
          "indexed": true,
          "internalType": "address",
          "name": "purchaser",
          "type": "address"
        },
        {
          "indexed": false,
          "internalType": "uint8",
          "name": "amount",
          "type": "uint8"
        },
        {
          "indexed": false,
          "internalType": "uint256",
          "name": "value",
          "type": "uint256"
        }
      ],
      "name": "Purchase",
      "type": "event"
    },
    {
      "anonymous": false,
      "inputs": [
        {
          "indexed": true,
          "internalType": "address",
          "name": "from",
          "type": "address"
        },
        {
          "indexed": true,
          "internalType": "address",
          "name": "to",
          "type": "address"
        },
        {
          "indexed": true,
          "internalType": "uint256",
          "name": "tokenId",
          "type": "uint256"
        }
      ],
      "name": "Transfer",
      "type": "event"
    },
    {
      "anonymous": false,
      "inputs": [
        {
          "indexed": false,
          "internalType": "address",
          "name": "account",
          "type": "address"
        }
      ],
      "name": "Unpaused",
      "type": "event"
    },
    {
      "inputs": [
        {
          "internalType": "address",
          "name": "to",
          "type": "address"
        },
        {
          "internalType": "uint256",
          "name": "tokenId",
          "type": "uint256"
        }
      ],
      "name": "approve",
      "outputs": [],
      "stateMutability": "nonpayable",
      "type": "function"
    },
    {
      "inputs": [
        {
          "internalType": "address",
          "name": "owner",
          "type": "address"
        }
      ],
      "name": "balanceOf",
      "outputs": [
        {
          "internalType": "uint256",
          "name": "",
          "type": "uint256"
        }
      ],
      "stateMutability": "view",
      "type": "function"
    },
    {
      "inputs": [],
      "name": "baseURI",
      "outputs": [
        {
          "internalType": "string",
          "name": "",
          "type": "string"
        }
      ],
      "stateMutability": "view",
      "type": "function"
    },
    {
      "inputs": [
        {
          "internalType": "uint256",
          "name": "tokenId",
          "type": "uint256"
        }
      ],
      "name": "burn",
      "outputs": [],
      "stateMutability": "nonpayable",
      "type": "function"
    },
    {
      "inputs": [
        {
          "internalType": "uint24[]",
          "name": "tokenIds",
          "type": "uint24[]"
        }
      ],
      "name": "burnBatch",
      "outputs": [],
      "stateMutability": "nonpayable",
      "type": "function"
    },
    {
      "inputs": [
        {
          "internalType": "uint8",
          "name": "amount",
          "type": "uint8"
        }
      ],
      "name": "buyEggs",
      "outputs": [],
      "stateMutability": "nonpayable",
      "type": "function"
    },
    {
      "inputs": [],
      "name": "cap",
      "outputs": [
        {
          "internalType": "uint24",
          "name": "",
          "type": "uint24"
        }
      ],
      "stateMutability": "view",
      "type": "function"
    },
    {
      "inputs": [],
      "name": "cashbackPerEgg",
      "outputs": [
        {
          "internalType": "uint256",
          "name": "",
          "type": "uint256"
        }
      ],
      "stateMutability": "view",
      "type": "function"
    },
    {
      "inputs": [],
      "name": "closingTime",
      "outputs": [
        {
          "internalType": "uint32",
          "name": "",
          "type": "uint32"
        }
      ],
      "stateMutability": "view",
      "type": "function"
    },
    {
      "inputs": [
        {
          "internalType": "uint256",
          "name": "tokenId",
          "type": "uint256"
        }
      ],
      "name": "getApproved",
      "outputs": [
        {
          "internalType": "address",
          "name": "",
          "type": "address"
        }
      ],
      "stateMutability": "view",
      "type": "function"
    },
    {
      "inputs": [],
      "name": "getTime",
      "outputs": [
        {
          "internalType": "uint32",
          "name": "",
          "type": "uint32"
        }
      ],
      "stateMutability": "view",
      "type": "function"
    },
    {
      "inputs": [
        {
          "internalType": "address",
          "name": "owner",
          "type": "address"
        },
        {
          "internalType": "address",
          "name": "operator",
          "type": "address"
        }
      ],
      "name": "isApprovedForAll",
      "outputs": [
        {
          "internalType": "bool",
          "name": "",
          "type": "bool"
        }
      ],
      "stateMutability": "view",
      "type": "function"
    },
    {
      "inputs": [],
      "name": "isOpen",
      "outputs": [
        {
          "internalType": "bool",
          "name": "",
          "type": "bool"
        }
      ],
      "stateMutability": "view",
      "type": "function"
    },
    {
      "inputs": [
        {
          "internalType": "address",
          "name": "to",
          "type": "address"
        },
        {
          "internalType": "uint256",
          "name": "amount",
          "type": "uint256"
        }
      ],
      "name": "mintEggs",
      "outputs": [],
      "stateMutability": "nonpayable",
      "type": "function"
    },
    {
      "inputs": [],
      "name": "name",
      "outputs": [
        {
          "internalType": "string",
          "name": "",
          "type": "string"
        }
      ],
      "stateMutability": "view",
      "type": "function"
    },
    {
      "inputs": [],
      "name": "openingTime",
      "outputs": [
        {
          "internalType": "uint32",
          "name": "",
          "type": "uint32"
        }
      ],
      "stateMutability": "view",
      "type": "function"
    },
    {
      "inputs": [],
      "name": "owner",
      "outputs": [
        {
          "internalType": "address",
          "name": "",
          "type": "address"
        }
      ],
      "stateMutability": "view",
      "type": "function"
    },
    {
      "inputs": [
        {
          "internalType": "uint256",
          "name": "tokenId",
          "type": "uint256"
        }
      ],
      "name": "ownerOf",
      "outputs": [
        {
          "internalType": "address",
          "name": "",
          "type": "address"
        }
      ],
      "stateMutability": "view",
      "type": "function"
    },
    {
      "inputs": [],
      "name": "pause",
      "outputs": [],
      "stateMutability": "nonpayable",
      "type": "function"
    },
    {
      "inputs": [],
      "name": "paused",
      "outputs": [
        {
          "internalType": "bool",
          "name": "",
          "type": "bool"
        }
      ],
      "stateMutability": "view",
      "type": "function"
    },
    {
      "inputs": [],
      "name": "price",
      "outputs": [
        {
          "internalType": "uint256",
          "name": "",
          "type": "uint256"
        }
      ],
      "stateMutability": "view",
      "type": "function"
    },
    {
      "inputs": [
        {
          "internalType": "address",
          "name": "",
          "type": "address"
        }
      ],
      "name": "purchasedAmount",
      "outputs": [
        {
          "internalType": "uint8",
          "name": "",
          "type": "uint8"
        }
      ],
      "stateMutability": "view",
      "type": "function"
    },
    {
      "inputs": [],
      "name": "renounceOwnership",
      "outputs": [],
      "stateMutability": "nonpayable",
      "type": "function"
    },
    {
      "inputs": [
        {
          "internalType": "address",
          "name": "from",
          "type": "address"
        },
        {
          "internalType": "address",
          "name": "to",
          "type": "address"
        },
        {
          "internalType": "uint256",
          "name": "tokenId",
          "type": "uint256"
        }
      ],
      "name": "safeTransferFrom",
      "outputs": [],
      "stateMutability": "nonpayable",
      "type": "function"
    },
    {
      "inputs": [
        {
          "internalType": "address",
          "name": "from",
          "type": "address"
        },
        {
          "internalType": "address",
          "name": "to",
          "type": "address"
        },
        {
          "internalType": "uint256",
          "name": "tokenId",
          "type": "uint256"
        },
        {
          "internalType": "bytes",
          "name": "_data",
          "type": "bytes"
        }
      ],
      "name": "safeTransferFrom",
      "outputs": [],
      "stateMutability": "nonpayable",
      "type": "function"
    },
    {
      "inputs": [
        {
          "internalType": "address",
          "name": "operator",
          "type": "address"
        },
        {
          "internalType": "bool",
          "name": "approved",
          "type": "bool"
        }
      ],
      "name": "setApprovalForAll",
      "outputs": [],
      "stateMutability": "nonpayable",
      "type": "function"
    },
    {
      "inputs": [
        {
          "internalType": "string",
          "name": "baseURI_",
          "type": "string"
        }
      ],
      "name": "setBaseURI",
      "outputs": [],
      "stateMutability": "nonpayable",
      "type": "function"
    },
    {
      "inputs": [
        {
          "internalType": "uint32",
          "name": "openingTime_",
          "type": "uint32"
        },
        {
          "internalType": "uint32",
          "name": "closingTime_",
          "type": "uint32"
        },
        {
          "internalType": "uint24",
          "name": "supply_",
          "type": "uint24"
        },
        {
          "internalType": "uint24",
          "name": "cap_",
          "type": "uint24"
        },
        {
          "internalType": "uint256",
          "name": "price_",
          "type": "uint256"
        },
        {
          "internalType": "uint256",
          "name": "cashbackPerEgg_",
          "type": "uint256"
        }
      ],
      "name": "setPresale",
      "outputs": [],
      "stateMutability": "nonpayable",
      "type": "function"
    },
    {
      "inputs": [],
      "name": "sold",
      "outputs": [
        {
          "internalType": "uint24",
          "name": "",
          "type": "uint24"
        }
      ],
      "stateMutability": "view",
      "type": "function"
    },
    {
      "inputs": [],
      "name": "supply",
      "outputs": [
        {
          "internalType": "uint24",
          "name": "",
          "type": "uint24"
        }
      ],
      "stateMutability": "view",
      "type": "function"
    },
    {
      "inputs": [
        {
          "internalType": "bytes4",
          "name": "interfaceId",
          "type": "bytes4"
        }
      ],
      "name": "supportsInterface",
      "outputs": [
        {
          "internalType": "bool",
          "name": "",
          "type": "bool"
        }
      ],
      "stateMutability": "view",
      "type": "function"
    },
    {
      "inputs": [],
      "name": "symbol",
      "outputs": [
        {
          "internalType": "string",
          "name": "",
          "type": "string"
        }
      ],
      "stateMutability": "view",
      "type": "function"
    },
    {
      "inputs": [
        {
          "internalType": "uint256",
          "name": "tokenId",
          "type": "uint256"
        }
      ],
      "name": "tokenURI",
      "outputs": [
        {
          "internalType": "string",
          "name": "",
          "type": "string"
        }
      ],
      "stateMutability": "view",
      "type": "function"
    },
    {
      "inputs": [
        {
          "internalType": "address",
          "name": "from",
          "type": "address"
        },
        {
          "internalType": "address",
          "name": "to",
          "type": "address"
        },
        {
          "internalType": "uint256",
          "name": "tokenId",
          "type": "uint256"
        }
      ],
      "name": "transferFrom",
      "outputs": [],
      "stateMutability": "nonpayable",
      "type": "function"
    },
    {
      "inputs": [
        {
          "internalType": "address",
          "name": "newOwner",
          "type": "address"
        }
      ],
      "name": "transferOwnership",
      "outputs": [],
      "stateMutability": "nonpayable",
      "type": "function"
    },
    {
      "inputs": [],
      "name": "unpause",
      "outputs": [],
      "stateMutability": "nonpayable",
      "type": "function"
    },
    {
      "inputs": [],
      "name": "usdc",
      "outputs": [
        {
          "internalType": "contract IERC20",
          "name": "",
          "type": "address"
        }
      ],
      "stateMutability": "view",
      "type": "function"
    },
    {
      "inputs": [],
      "name": "wallet",
      "outputs": [
        {
          "internalType": "address",
          "name": "",
          "type": "address"
        }
      ],
      "stateMutability": "view",
      "type": "function"
    },
    {
      "inputs": [
        {
          "internalType": "uint256",
          "name": "amount",
          "type": "uint256"
        }
      ],
      "name": "withdrawMatic",
      "outputs": [],
      "stateMutability": "nonpayable",
      "type": "function"
    },
    {
      "stateMutability": "payable",
      "type": "receive"
    }
  ],
  "transactionHash": "0x0fa4395fa10d15823b0b77c58272e700ce089d17a435217d2cacf6f66ecedf03",
  "args": [
    "0xF54F493A2fE3D03bDB7474ddb5AA103eedE8A81C",
    "0x18bF4D2Da2A03134834107F7cCF2cEA2d6bdbbCc",
    1,
    "https://mds-roosterwars-backend-test.azurewebsites.net/egg/metadata/"
  ],
  "numDeployments": 4,
  "solcInputHash": "73545f6ca06f03b61659eb24ad9d44ec",
  "bytecode": "0x60c06040523480156200001157600080fd5b5060405162002edc38038062002edc83398101604081905262000034916200024c565b604080518082018252600a815269526f6f7374657245676760b01b60208083019182528351808501909452600b84526a524f4f535445525f45474760a81b908401528151919291620000899160009162000177565b5080516200009f90600190602084019062000177565b505050620000bc620000b66200012160201b60201c565b62000125565b6006805460ff60a01b191690556001600160a01b03808516608052831660a0528051620000f190600a90602084019062000177565b50506007805462ffffff90921666010000000000000262ffffff60301b1990921691909117905550620003ae9050565b3390565b600680546001600160a01b038381166001600160a01b0319831681179093556040519116919082907f8be0079c531659141344cd1fd0a4f28419497f9722a3daafe3b4186f6b6457e090600090a35050565b828054620001859062000371565b90600052602060002090601f016020900481019282620001a95760008555620001f4565b82601f10620001c457805160ff1916838001178555620001f4565b82800160010185558215620001f4579182015b82811115620001f4578251825591602001919060010190620001d7565b506200020292915062000206565b5090565b5b8082111562000202576000815560010162000207565b6001600160a01b03811681146200023357600080fd5b50565b634e487b7160e01b600052604160045260246000fd5b600080600080608085870312156200026357600080fd5b845162000270816200021d565b8094505060208086015162000285816200021d565b604087015190945062ffffff811681146200029f57600080fd5b60608701519093506001600160401b0380821115620002bd57600080fd5b818801915088601f830112620002d257600080fd5b815181811115620002e757620002e762000236565b604051601f8201601f19908116603f0116810190838211818310171562000312576200031262000236565b816040528281528b868487010111156200032b57600080fd5b600093505b828410156200034f578484018601518185018701529285019262000330565b82841115620003615760008684830101525b989b979a50959850505050505050565b600181811c908216806200038657607f821691505b60208210811415620003a857634e487b7160e01b600052602260045260246000fd5b50919050565b60805160a051612aec620003f06000396000818161052a01528181610c910152818161125101526112c60152600081816103f10152610cc00152612aec6000f3fe6080604052600436106102345760003560e01c806355f804b31161012e578063a22cb465116100ab578063e985e9c51161006f578063e985e9c514610718578063ec0d16a114610761578063f2fde38b14610781578063f7f8bae2146107a1578063f924a57e146107c157600080fd5b8063a22cb46514610674578063b7a8807c14610694578063b88d4fde146106b8578063c87b56dd146106d8578063e8a379b2146106f857600080fd5b8063715018a6116100f2578063715018a6146106015780638456cb59146106165780638da5cb5b1461062b57806395d89b4114610649578063a035b1fe1461065e57600080fd5b806355f804b31461055f5780635c975abb1461057f5780636352211e1461059e5780636c0360eb146105be57806370a08231146105d357600080fd5b80633e413bee116101bc57806346852d301161018057806346852d30146104aa57806347535d7b146104ca5780634b6753bc146104df578063521eb27314610518578063557ed1ba1461054c57600080fd5b80633e413bee146103df5780633f4ba83a1461041357806342842e0e1461042857806342966c681461044857806344c4dcc11461046857600080fd5b8063081812fc11610203578063081812fc14610322578063095ea7b31461035a57806323b872dd1461037c578063291f05221461039c578063355274ea146103bc57600080fd5b806301ffc9a71461027857806302c7e7af146102ad578063047fc9aa146102dd57806306fdde031461030057600080fd5b3661027357604080513381523460208201527fecb865883ec69b0d00ee1bed3b735ecf8dec2e91e6ce400100c5e3fad740abb4910160405180910390a1005b600080fd5b34801561028457600080fd5b506102986102933660046122d9565b6107d7565b60405190151581526020015b60405180910390f35b3480156102b957600080fd5b506007546102c99062ffffff1681565b60405162ffffff90911681526020016102a4565b3480156102e957600080fd5b506006546102c990600160e81b900462ffffff1681565b34801561030c57600080fd5b50610315610829565b6040516102a49190612355565b34801561032e57600080fd5b5061034261033d366004612368565b6108bb565b6040516001600160a01b0390911681526020016102a4565b34801561036657600080fd5b5061037a61037536600461239d565b610955565b005b34801561038857600080fd5b5061037a6103973660046123c7565b610a6b565b3480156103a857600080fd5b5061037a6103b7366004612403565b610a9d565b3480156103c857600080fd5b506007546102c9906301000000900462ffffff1681565b3480156103eb57600080fd5b506103427f000000000000000000000000000000000000000000000000000000000000000081565b34801561041f57600080fd5b5061037a610aee565b34801561043457600080fd5b5061037a6104433660046123c7565b610b22565b34801561045457600080fd5b5061037a610463366004612368565b610b3d565b34801561047457600080fd5b50610498610483366004612478565b600b6020526000908152604090205460ff1681565b60405160ff90911681526020016102a4565b3480156104b657600080fd5b5061037a6104c5366004612493565b610bb7565b3480156104d657600080fd5b50610298610e7f565b3480156104eb57600080fd5b5060065461050390600160c81b900463ffffffff1681565b60405163ffffffff90911681526020016102a4565b34801561052457600080fd5b506103427f000000000000000000000000000000000000000000000000000000000000000081565b34801561055857600080fd5b5042610503565b34801561056b57600080fd5b5061037a61057a366004612542565b610eb5565b34801561058b57600080fd5b50600654600160a01b900460ff16610298565b3480156105aa57600080fd5b506103426105b9366004612368565b610ef6565b3480156105ca57600080fd5b50610315610f6d565b3480156105df57600080fd5b506105f36105ee366004612478565b610ffb565b6040519081526020016102a4565b34801561060d57600080fd5b5061037a611082565b34801561062257600080fd5b5061037a6110b6565b34801561063757600080fd5b506006546001600160a01b0316610342565b34801561065557600080fd5b506103156110e8565b34801561066a57600080fd5b506105f360085481565b34801561068057600080fd5b5061037a61068f366004612599565b6110f7565b3480156106a057600080fd5b5060065461050390600160a81b900463ffffffff1681565b3480156106c457600080fd5b5061037a6106d33660046125d0565b611102565b3480156106e457600080fd5b506103156106f3366004612368565b61113a565b34801561070457600080fd5b5061037a610713366004612368565b611222565b34801561072457600080fd5b5061029861073336600461264c565b6001600160a01b03918216600090815260056020908152604080832093909416825291909152205460ff1690565b34801561076d57600080fd5b5061037a61077c36600461239d565b6113af565b34801561078d57600080fd5b5061037a61079c366004612478565b6113e3565b3480156107ad57600080fd5b5061037a6107bc3660046126a6565b61147b565b3480156107cd57600080fd5b506105f360095481565b60006001600160e01b031982166380ac58cd60e01b148061080857506001600160e01b03198216635b5e139f60e01b145b8061082357506301ffc9a760e01b6001600160e01b03198316145b92915050565b6060600080546108389061270c565b80601f01602080910402602001604051908101604052809291908181526020018280546108649061270c565b80156108b15780601f10610886576101008083540402835291602001916108b1565b820191906000526020600020905b81548152906001019060200180831161089457829003601f168201915b5050505050905090565b6000818152600260205260408120546001600160a01b03166109395760405162461bcd60e51b815260206004820152602c60248201527f4552433732313a20617070726f76656420717565727920666f72206e6f6e657860448201526b34b9ba32b73a103a37b5b2b760a11b60648201526084015b60405180910390fd5b506000908152600460205260409020546001600160a01b031690565b600061096082610ef6565b9050806001600160a01b0316836001600160a01b031614156109ce5760405162461bcd60e51b815260206004820152602160248201527f4552433732313a20617070726f76616c20746f2063757272656e74206f776e656044820152603960f91b6064820152608401610930565b336001600160a01b03821614806109ea57506109ea8133610733565b610a5c5760405162461bcd60e51b815260206004820152603860248201527f4552433732313a20617070726f76652063616c6c6572206973206e6f74206f7760448201527f6e6572206e6f7220617070726f76656420666f7220616c6c00000000000000006064820152608401610930565b610a66838361169b565b505050565b610a76335b82611709565b610a925760405162461bcd60e51b815260040161093090612747565b610a66838383611800565b60005b81811015610a6657610adc838383818110610abd57610abd612798565b9050602002016020810190610ad291906127ae565b62ffffff16610b3d565b80610ae6816127df565b915050610aa0565b6006546001600160a01b03163314610b185760405162461bcd60e51b8152600401610930906127fa565b610b2061199c565b565b610a6683838360405180602001604052806000815250611102565b610b4633610a70565b610bab5760405162461bcd60e51b815260206004820152603060248201527f4552433732314275726e61626c653a2063616c6c6572206973206e6f74206f7760448201526f1b995c881b9bdc88185c1c1c9bdd995960821b6064820152608401610930565b610bb481611a39565b50565b6008543390600090610bcd9060ff85169061282f565b905060008360ff16600954610be2919061282f565b9050610bee8385611ad4565b6007805460ff86169190600090610c0b90849062ffffff1661284e565b825462ffffff9182166101009390930a9283029190920219909116179055506001600160a01b0383166000908152600b602052604081208054869290610c5590849060ff16612875565b825460ff9182166101009390930a9283029190920219909116179055506040516323b872dd60e01b81526001600160a01b0384811660048301527f000000000000000000000000000000000000000000000000000000000000000081166024830152604482018490527f000000000000000000000000000000000000000000000000000000000000000016906323b872dd90606401602060405180830381600087803b158015610d0457600080fd5b505af1158015610d18573d6000803e3d6000fd5b505050506040513d601f19601f82011682018060405250810190610d3c919061289a565b50610d4a838560ff16611c3e565b6000836001600160a01b03168260405160006040518083038185875af1925050503d8060008114610d97576040519150601f19603f3d011682016040523d82523d6000602084013e610d9c565b606091505b505090508015610ded57604080516001600160a01b0386168152602081018490527f9db06889236e0d3ccbb25b6d3235472c344c7c6344f6a2c4d439baf64558adf7910160405180910390a1610e31565b836001600160a01b03167faa7c8b793f177361ae906f241e79303b4257976b38d8139e2f1f4a54704a7a8547604051610e2891815260200190565b60405180910390a25b6040805160ff87168152602081018590526001600160a01b038616917f86ca388bddbd052fddab95414057fccc7d306c3af44b103dad7efab306b06ee0910160405180910390a25050505050565b600654600090600160a81b900463ffffffff164210801590610eb05750600654600160c81b900463ffffffff164211155b905090565b6006546001600160a01b03163314610edf5760405162461bcd60e51b8152600401610930906127fa565b8051610ef290600a90602084019061222a565b5050565b6000818152600260205260408120546001600160a01b0316806108235760405162461bcd60e51b815260206004820152602960248201527f4552433732313a206f776e657220717565727920666f72206e6f6e657869737460448201526832b73a103a37b5b2b760b91b6064820152608401610930565b600a8054610f7a9061270c565b80601f0160208091040260200160405190810160405280929190818152602001828054610fa69061270c565b8015610ff35780601f10610fc857610100808354040283529160200191610ff3565b820191906000526020600020905b815481529060010190602001808311610fd657829003601f168201915b505050505081565b60006001600160a01b0382166110665760405162461bcd60e51b815260206004820152602a60248201527f4552433732313a2062616c616e636520717565727920666f7220746865207a65604482015269726f206164647265737360b01b6064820152608401610930565b506001600160a01b031660009081526003602052604090205490565b6006546001600160a01b031633146110ac5760405162461bcd60e51b8152600401610930906127fa565b610b206000611cb4565b6006546001600160a01b031633146110e05760405162461bcd60e51b8152600401610930906127fa565b610b20611d06565b6060600180546108389061270c565b610ef2338383611d8e565b61110c3383611709565b6111285760405162461bcd60e51b815260040161093090612747565b61113484848484611e5d565b50505050565b60606000600a805461114b9061270c565b90501161118c5760405162461bcd60e51b815260206004820152600f60248201526e10985cd9555492481b9bdd081cd95d608a1b6044820152606401610930565b6000828152600260205260409020546001600160a01b03166111f05760405162461bcd60e51b815260206004820152601b60248201527f517565727920666f72206e6f6e6578697374656e7420746f6b656e00000000006044820152606401610930565b600a6111fb83611e90565b60405160200161120c9291906128d3565b6040516020818303038152906040529050919050565b336112356006546001600160a01b031690565b6001600160a01b0316816001600160a01b0316148061128557507f00000000000000000000000000000000000000000000000000000000000000006001600160a01b0316816001600160a01b0316145b6112c25760405162461bcd60e51b815260206004820152600e60248201526d496e76616c69642061636365737360901b6044820152606401610930565b60007f00000000000000000000000000000000000000000000000000000000000000006001600160a01b03168360405160006040518083038185875af1925050503d806000811461132f576040519150601f19603f3d011682016040523d82523d6000602084013e611334565b606091505b50509050806113775760405162461bcd60e51b815260206004820152600f60248201526e15da5d1a191c985dc819985a5b1959608a1b6044820152606401610930565b6040518381527f5285e88bb974363c82f2ddb2e8a509e21f6ec0034e56f1f94f2adc306d1d55839060200160405180910390a1505050565b6006546001600160a01b031633146113d95760405162461bcd60e51b8152600401610930906127fa565b610ef28282611c3e565b6006546001600160a01b0316331461140d5760405162461bcd60e51b8152600401610930906127fa565b6001600160a01b0381166114725760405162461bcd60e51b815260206004820152602660248201527f4f776e61626c653a206e6577206f776e657220697320746865207a65726f206160448201526564647265737360d01b6064820152608401610930565b610bb481611cb4565b6006546001600160a01b031633146114a55760405162461bcd60e51b8152600401610930906127fa565b6114ad610e7f565b15806114c25750600654600160a01b900460ff165b6114ff5760405162461bcd60e51b815260206004820152600e60248201526d43616e6e6f7420736574206e6f7760901b6044820152606401610930565b611507610e7f565b6115d2578563ffffffff168563ffffffff1610156115675760405162461bcd60e51b815260206004820152601b60248201527f436c6f73696e672074696d65203c204f70656e696e672074696d6500000000006044820152606401610930565b428663ffffffff16116115b35760405162461bcd60e51b8152602060048201526014602482015273496e76616c6964206f70656e696e672074696d6560601b6044820152606401610930565b6006805463ffffffff60a81b1916600160a81b63ffffffff8916021790555b600680546007805465ffffff0000001916630100000062ffffff8881169182029290921790925560088690556001600160c81b03909216600160e81b92881692830263ffffffff60c81b191617600160c81b63ffffffff8a811691820292909217909455600985905560408051938452602084019290925289169082015260608101919091526080810183905260a081018290527ff50edff2299e0c1c34da34ad84c64df54150e833ef534a802ef8c2dcdbaec53c9060c00160405180910390a1505050505050565b600081815260046020526040902080546001600160a01b0319166001600160a01b03841690811790915581906116d082610ef6565b6001600160a01b03167f8c5be1e5ebec7d5bd14f71427d1e84f3dd0314c0f7b2291e5b200ac8c7c3b92560405160405180910390a45050565b6000818152600260205260408120546001600160a01b03166117825760405162461bcd60e51b815260206004820152602c60248201527f4552433732313a206f70657261746f7220717565727920666f72206e6f6e657860448201526b34b9ba32b73a103a37b5b2b760a11b6064820152608401610930565b600061178d83610ef6565b9050806001600160a01b0316846001600160a01b031614806117c85750836001600160a01b03166117bd846108bb565b6001600160a01b0316145b806117f857506001600160a01b0380821660009081526005602090815260408083209388168352929052205460ff165b949350505050565b826001600160a01b031661181382610ef6565b6001600160a01b0316146118775760405162461bcd60e51b815260206004820152602560248201527f4552433732313a207472616e736665722066726f6d20696e636f72726563742060448201526437bbb732b960d91b6064820152608401610930565b6001600160a01b0382166118d95760405162461bcd60e51b8152602060048201526024808201527f4552433732313a207472616e7366657220746f20746865207a65726f206164646044820152637265737360e01b6064820152608401610930565b6118e460008261169b565b6001600160a01b038316600090815260036020526040812080546001929061190d90849061297a565b90915550506001600160a01b038216600090815260036020526040812080546001929061193b908490612991565b909155505060008181526002602052604080822080546001600160a01b0319166001600160a01b0386811691821790925591518493918716917fddf252ad1be2c89b69c2b068fc378daa952ba7f163c4a11628f55a4df523b3ef91a4505050565b600654600160a01b900460ff166119ec5760405162461bcd60e51b815260206004820152601460248201527314185d5cd8589b194e881b9bdd081c185d5cd95960621b6044820152606401610930565b6006805460ff60a01b191690557f5db9ee0a495bf2e6ff9c91a7834c1ba4fdd244a5e8aa4e537bd38aeae4b073aa335b6040516001600160a01b03909116815260200160405180910390a1565b6000611a4482610ef6565b9050611a5160008361169b565b6001600160a01b0381166000908152600360205260408120805460019290611a7a90849061297a565b909155505060008281526002602052604080822080546001600160a01b0319169055518391906001600160a01b038416907fddf252ad1be2c89b69c2b068fc378daa952ba7f163c4a11628f55a4df523b3ef908390a45050565b600654600160a01b900460ff1615611b215760405162461bcd60e51b815260206004820152601060248201526f14185d5cd8589b194e881c185d5cd95960821b6044820152606401610930565b611b29610e7f565b611b605760405162461bcd60e51b81526020600482015260086024820152672737ba1037b832b760c11b6044820152606401610930565b60065460075462ffffff600160e81b909204821691611b849160ff8516911661284e565b62ffffff161115611bc85760405162461bcd60e51b815260206004820152600e60248201526d4578636565647320737570706c7960901b6044820152606401610930565b6007546001600160a01b0383166000908152600b6020526040902054630100000090910462ffffff1690611bff9060ff1683612875565b60ff161115610ef25760405162461bcd60e51b815260206004820152600b60248201526a045786365656473206361760ac1b6044820152606401610930565b6007546601000000000000900462ffffff1660005b82811015611c8757611c758483611c69816129a9565b945062ffffff16611f8e565b80611c7f816127df565b915050611c53565b506007805462ffffff90921666010000000000000268ffffff000000000000199092169190911790555050565b600680546001600160a01b038381166001600160a01b0319831681179093556040519116919082907f8be0079c531659141344cd1fd0a4f28419497f9722a3daafe3b4186f6b6457e090600090a35050565b600654600160a01b900460ff1615611d535760405162461bcd60e51b815260206004820152601060248201526f14185d5cd8589b194e881c185d5cd95960821b6044820152606401610930565b6006805460ff60a01b1916600160a01b1790557f62e78cea01bee320cd4e420270b5ea74000d11b0c9f74754ebdbfc544b05a258611a1c3390565b816001600160a01b0316836001600160a01b03161415611df05760405162461bcd60e51b815260206004820152601960248201527f4552433732313a20617070726f766520746f2063616c6c6572000000000000006044820152606401610930565b6001600160a01b03838116600081815260056020908152604080832094871680845294825291829020805460ff191686151590811790915591519182527f17307eab39ab6107e8899845ad3d59bd9653f200f220920489ca2b5937696c31910160405180910390a3505050565b611e68848484611800565b611e7484848484611fa8565b6111345760405162461bcd60e51b8152600401610930906129cc565b606081611eb45750506040805180820190915260018152600360fc1b602082015290565b8160005b8115611ede5780611ec8816127df565b9150611ed79050600a83612a34565b9150611eb8565b60008167ffffffffffffffff811115611ef957611ef96124b6565b6040519080825280601f01601f191660200182016040528015611f23576020820181803683370190505b5090505b84156117f857611f3860018361297a565b9150611f45600a86612a48565b611f50906030612991565b60f81b818381518110611f6557611f65612798565b60200101906001600160f81b031916908160001a905350611f87600a86612a34565b9450611f27565b610ef28282604051806020016040528060008152506120b5565b60006001600160a01b0384163b156120aa57604051630a85bd0160e11b81526001600160a01b0385169063150b7a0290611fec903390899088908890600401612a5c565b602060405180830381600087803b15801561200657600080fd5b505af1925050508015612036575060408051601f3d908101601f1916820190925261203391810190612a99565b60015b612090573d808015612064576040519150601f19603f3d011682016040523d82523d6000602084013e612069565b606091505b5080516120885760405162461bcd60e51b8152600401610930906129cc565b805181602001fd5b6001600160e01b031916630a85bd0160e11b1490506117f8565b506001949350505050565b6120bf83836120e8565b6120cc6000848484611fa8565b610a665760405162461bcd60e51b8152600401610930906129cc565b6001600160a01b03821661213e5760405162461bcd60e51b815260206004820181905260248201527f4552433732313a206d696e7420746f20746865207a65726f20616464726573736044820152606401610930565b6000818152600260205260409020546001600160a01b0316156121a35760405162461bcd60e51b815260206004820152601c60248201527f4552433732313a20746f6b656e20616c7265616479206d696e746564000000006044820152606401610930565b6001600160a01b03821660009081526003602052604081208054600192906121cc908490612991565b909155505060008181526002602052604080822080546001600160a01b0319166001600160a01b03861690811790915590518392907fddf252ad1be2c89b69c2b068fc378daa952ba7f163c4a11628f55a4df523b3ef908290a45050565b8280546122369061270c565b90600052602060002090601f016020900481019282612258576000855561229e565b82601f1061227157805160ff191683800117855561229e565b8280016001018555821561229e579182015b8281111561229e578251825591602001919060010190612283565b506122aa9291506122ae565b5090565b5b808211156122aa57600081556001016122af565b6001600160e01b031981168114610bb457600080fd5b6000602082840312156122eb57600080fd5b81356122f6816122c3565b9392505050565b60005b83811015612318578181015183820152602001612300565b838111156111345750506000910152565b600081518084526123418160208601602086016122fd565b601f01601f19169290920160200192915050565b6020815260006122f66020830184612329565b60006020828403121561237a57600080fd5b5035919050565b80356001600160a01b038116811461239857600080fd5b919050565b600080604083850312156123b057600080fd5b6123b983612381565b946020939093013593505050565b6000806000606084860312156123dc57600080fd5b6123e584612381565b92506123f360208501612381565b9150604084013590509250925092565b6000806020838503121561241657600080fd5b823567ffffffffffffffff8082111561242e57600080fd5b818501915085601f83011261244257600080fd5b81358181111561245157600080fd5b8660208260051b850101111561246657600080fd5b60209290920196919550909350505050565b60006020828403121561248a57600080fd5b6122f682612381565b6000602082840312156124a557600080fd5b813560ff811681146122f657600080fd5b634e487b7160e01b600052604160045260246000fd5b600067ffffffffffffffff808411156124e7576124e76124b6565b604051601f8501601f19908116603f0116810190828211818310171561250f5761250f6124b6565b8160405280935085815286868601111561252857600080fd5b858560208301376000602087830101525050509392505050565b60006020828403121561255457600080fd5b813567ffffffffffffffff81111561256b57600080fd5b8201601f8101841361257c57600080fd5b6117f8848235602084016124cc565b8015158114610bb457600080fd5b600080604083850312156125ac57600080fd5b6125b583612381565b915060208301356125c58161258b565b809150509250929050565b600080600080608085870312156125e657600080fd5b6125ef85612381565b93506125fd60208601612381565b925060408501359150606085013567ffffffffffffffff81111561262057600080fd5b8501601f8101871361263157600080fd5b612640878235602084016124cc565b91505092959194509250565b6000806040838503121561265f57600080fd5b61266883612381565b915061267660208401612381565b90509250929050565b803563ffffffff8116811461239857600080fd5b803562ffffff8116811461239857600080fd5b60008060008060008060c087890312156126bf57600080fd5b6126c88761267f565b95506126d66020880161267f565b94506126e460408801612693565b93506126f260608801612693565b92506080870135915060a087013590509295509295509295565b600181811c9082168061272057607f821691505b6020821081141561274157634e487b7160e01b600052602260045260246000fd5b50919050565b60208082526031908201527f4552433732313a207472616e736665722063616c6c6572206973206e6f74206f6040820152701ddb995c881b9bdc88185c1c1c9bdd9959607a1b606082015260800190565b634e487b7160e01b600052603260045260246000fd5b6000602082840312156127c057600080fd5b6122f682612693565b634e487b7160e01b600052601160045260246000fd5b60006000198214156127f3576127f36127c9565b5060010190565b6020808252818101527f4f776e61626c653a2063616c6c6572206973206e6f7420746865206f776e6572604082015260600190565b6000816000190483118215151615612849576128496127c9565b500290565b600062ffffff80831681851680830382111561286c5761286c6127c9565b01949350505050565b600060ff821660ff84168060ff03821115612892576128926127c9565b019392505050565b6000602082840312156128ac57600080fd5b81516122f68161258b565b600081516128c98185602086016122fd565b9290920192915050565b600080845481600182811c9150808316806128ef57607f831692505b602080841082141561290f57634e487b7160e01b86526022600452602486fd5b818015612923576001811461293457612961565b60ff19861689528489019650612961565b60008b81526020902060005b868110156129595781548b820152908501908301612940565b505084890196505b50505050505061297181856128b7565b95945050505050565b60008282101561298c5761298c6127c9565b500390565b600082198211156129a4576129a46127c9565b500190565b600062ffffff808316818114156129c2576129c26127c9565b6001019392505050565b60208082526032908201527f4552433732313a207472616e7366657220746f206e6f6e20455243373231526560408201527131b2b4bb32b91034b6b83632b6b2b73a32b960711b606082015260800190565b634e487b7160e01b600052601260045260246000fd5b600082612a4357612a43612a1e565b500490565b600082612a5757612a57612a1e565b500690565b6001600160a01b0385811682528416602082015260408101839052608060608201819052600090612a8f90830184612329565b9695505050505050565b600060208284031215612aab57600080fd5b81516122f6816122c356fea2646970667358221220c3cfb9e81a7e00b5bdc572ee9851c4996cc923e7f62e8266c729956f096a29df64736f6c63430008090033",
  "devdoc": {
    "kind": "dev",
    "methods": {
      "approve(address,uint256)": {
        "details": "See {IERC721-approve}."
      },
      "balanceOf(address)": {
        "details": "See {IERC721-balanceOf}."
      },
      "burn(uint256)": {
        "details": "Burns `tokenId`. See {ERC721-_burn}. Requirements: - The caller must own `tokenId` or be an approved operator."
      },
      "getApproved(uint256)": {
        "details": "See {IERC721-getApproved}."
      },
      "isApprovedForAll(address,address)": {
        "details": "See {IERC721-isApprovedForAll}."
      },
      "name()": {
        "details": "See {IERC721Metadata-name}."
      },
      "owner()": {
        "details": "Returns the address of the current owner."
      },
      "ownerOf(uint256)": {
        "details": "See {IERC721-ownerOf}."
      },
      "paused()": {
        "details": "Returns true if the contract is paused, and false otherwise."
      },
      "renounceOwnership()": {
        "details": "Leaves the contract without owner. It will not be possible to call `onlyOwner` functions anymore. Can only be called by the current owner. NOTE: Renouncing ownership will leave the contract without an owner, thereby removing any functionality that is only available to the owner."
      },
      "safeTransferFrom(address,address,uint256)": {
        "details": "See {IERC721-safeTransferFrom}."
      },
      "safeTransferFrom(address,address,uint256,bytes)": {
        "details": "See {IERC721-safeTransferFrom}."
      },
      "setApprovalForAll(address,bool)": {
        "details": "See {IERC721-setApprovalForAll}."
      },
      "supportsInterface(bytes4)": {
        "details": "See {IERC165-supportsInterface}."
      },
      "symbol()": {
        "details": "See {IERC721Metadata-symbol}."
      },
      "tokenURI(uint256)": {
        "details": "See {IERC721Metadata-tokenURI}."
      },
      "transferFrom(address,address,uint256)": {
        "details": "See {IERC721-transferFrom}."
      },
      "transferOwnership(address)": {
        "details": "Transfers ownership of the contract to a new account (`newOwner`). Can only be called by the current owner."
      }
    },
    "version": 1
  },
  "userdoc": {
    "kind": "user",
    "methods": {},
    "version": 1
  },
  "storageLayout": {
    "storage": [
      {
        "astId": 2256,
        "contract": "contracts/Egg.sol:RoosterEgg",
        "label": "_name",
        "offset": 0,
        "slot": "0",
        "type": "t_string_storage"
      },
      {
        "astId": 2258,
        "contract": "contracts/Egg.sol:RoosterEgg",
        "label": "_symbol",
        "offset": 0,
        "slot": "1",
        "type": "t_string_storage"
      },
      {
        "astId": 2262,
        "contract": "contracts/Egg.sol:RoosterEgg",
        "label": "_owners",
        "offset": 0,
        "slot": "2",
        "type": "t_mapping(t_uint256,t_address)"
      },
      {
        "astId": 2266,
        "contract": "contracts/Egg.sol:RoosterEgg",
        "label": "_balances",
        "offset": 0,
        "slot": "3",
        "type": "t_mapping(t_address,t_uint256)"
      },
      {
        "astId": 2270,
        "contract": "contracts/Egg.sol:RoosterEgg",
        "label": "_tokenApprovals",
        "offset": 0,
        "slot": "4",
        "type": "t_mapping(t_uint256,t_address)"
      },
      {
        "astId": 2276,
        "contract": "contracts/Egg.sol:RoosterEgg",
        "label": "_operatorApprovals",
        "offset": 0,
        "slot": "5",
        "type": "t_mapping(t_address,t_mapping(t_address,t_bool))"
      },
      {
        "astId": 7,
        "contract": "contracts/Egg.sol:RoosterEgg",
        "label": "_owner",
        "offset": 0,
        "slot": "6",
        "type": "t_address"
      },
      {
        "astId": 122,
        "contract": "contracts/Egg.sol:RoosterEgg",
        "label": "_paused",
        "offset": 20,
        "slot": "6",
        "type": "t_bool"
      },
      {
        "astId": 5255,
        "contract": "contracts/Egg.sol:RoosterEgg",
        "label": "openingTime",
        "offset": 21,
        "slot": "6",
        "type": "t_uint32"
      },
      {
        "astId": 5257,
        "contract": "contracts/Egg.sol:RoosterEgg",
        "label": "closingTime",
        "offset": 25,
        "slot": "6",
        "type": "t_uint32"
      },
      {
        "astId": 5259,
        "contract": "contracts/Egg.sol:RoosterEgg",
        "label": "supply",
        "offset": 29,
        "slot": "6",
        "type": "t_uint24"
      },
      {
        "astId": 5261,
        "contract": "contracts/Egg.sol:RoosterEgg",
        "label": "sold",
        "offset": 0,
        "slot": "7",
        "type": "t_uint24"
      },
      {
        "astId": 5263,
        "contract": "contracts/Egg.sol:RoosterEgg",
        "label": "cap",
        "offset": 3,
        "slot": "7",
        "type": "t_uint24"
      },
      {
        "astId": 5265,
        "contract": "contracts/Egg.sol:RoosterEgg",
        "label": "_tokenIdCounter",
        "offset": 6,
        "slot": "7",
        "type": "t_uint24"
      },
      {
        "astId": 5267,
        "contract": "contracts/Egg.sol:RoosterEgg",
        "label": "price",
        "offset": 0,
        "slot": "8",
        "type": "t_uint256"
      },
      {
        "astId": 5269,
        "contract": "contracts/Egg.sol:RoosterEgg",
        "label": "cashbackPerEgg",
        "offset": 0,
        "slot": "9",
        "type": "t_uint256"
      },
      {
        "astId": 5276,
        "contract": "contracts/Egg.sol:RoosterEgg",
        "label": "baseURI",
        "offset": 0,
        "slot": "10",
        "type": "t_string_storage"
      },
      {
        "astId": 5280,
        "contract": "contracts/Egg.sol:RoosterEgg",
        "label": "purchasedAmount",
        "offset": 0,
        "slot": "11",
        "type": "t_mapping(t_address,t_uint8)"
      }
    ],
    "types": {
      "t_address": {
        "encoding": "inplace",
        "label": "address",
        "numberOfBytes": "20"
      },
      "t_bool": {
        "encoding": "inplace",
        "label": "bool",
        "numberOfBytes": "1"
      },
      "t_mapping(t_address,t_bool)": {
        "encoding": "mapping",
        "key": "t_address",
        "label": "mapping(address => bool)",
        "numberOfBytes": "32",
        "value": "t_bool"
      },
      "t_mapping(t_address,t_mapping(t_address,t_bool))": {
        "encoding": "mapping",
        "key": "t_address",
        "label": "mapping(address => mapping(address => bool))",
        "numberOfBytes": "32",
        "value": "t_mapping(t_address,t_bool)"
      },
      "t_mapping(t_address,t_uint256)": {
        "encoding": "mapping",
        "key": "t_address",
        "label": "mapping(address => uint256)",
        "numberOfBytes": "32",
        "value": "t_uint256"
      },
      "t_mapping(t_address,t_uint8)": {
        "encoding": "mapping",
        "key": "t_address",
        "label": "mapping(address => uint8)",
        "numberOfBytes": "32",
        "value": "t_uint8"
      },
      "t_mapping(t_uint256,t_address)": {
        "encoding": "mapping",
        "key": "t_uint256",
        "label": "mapping(uint256 => address)",
        "numberOfBytes": "32",
        "value": "t_address"
      },
      "t_string_storage": {
        "encoding": "bytes",
        "label": "string",
        "numberOfBytes": "32"
      },
      "t_uint24": {
        "encoding": "inplace",
        "label": "uint24",
        "numberOfBytes": "3"
      },
      "t_uint256": {
        "encoding": "inplace",
        "label": "uint256",
        "numberOfBytes": "32"
      },
      "t_uint32": {
        "encoding": "inplace",
        "label": "uint32",
        "numberOfBytes": "4"
      },
      "t_uint8": {
        "encoding": "inplace",
        "label": "uint8",
        "numberOfBytes": "1"
      }
    }
  }
}