{
  "address": "0x49D36651a86848dE4279bE010b0c10D065Ec7D0F",
  "abi": [
    {
      "inputs": [
        {
          "internalType": "address",
          "name": "usdc_",
          "type": "address"
        },
        {
          "internalType": "address",
          "name": "rooster_",
          "type": "address"
        },
        {
          "internalType": "address",
          "name": "scholarship_",
          "type": "address"
        },
        {
          "internalType": "address",
          "name": "vault_",
          "type": "address"
        }
      ],
      "stateMutability": "nonpayable",
      "type": "constructor"
    },
    {
      "inputs": [],
      "name": "IsPaused",
      "type": "error"
    },
    {
      "inputs": [],
      "name": "NotPaused",
      "type": "error"
    },
    {
      "inputs": [
        {
          "internalType": "string",
          "name": "role",
          "type": "string"
        },
        {
          "internalType": "address",
          "name": "user",
          "type": "address"
        }
      ],
      "name": "Unauthorized",
      "type": "error"
    },
    {
      "anonymous": false,
      "inputs": [
        {
          "indexed": true,
          "internalType": "uint256",
          "name": "gameId",
          "type": "uint256"
        },
        {
          "indexed": false,
          "internalType": "uint256[]",
          "name": "roosterIds",
          "type": "uint256[]"
        },
        {
          "indexed": false,
          "internalType": "uint256",
          "name": "amount",
          "type": "uint256"
        },
        {
          "indexed": true,
          "internalType": "address",
          "name": "recipient",
          "type": "address"
        }
      ],
      "name": "ClaimRefund",
      "type": "event"
    },
    {
      "anonymous": false,
      "inputs": [
        {
          "indexed": true,
          "internalType": "uint256",
          "name": "gameId",
          "type": "uint256"
        },
        {
          "indexed": false,
          "internalType": "uint256[]",
          "name": "roosterIds",
          "type": "uint256[]"
        },
        {
          "indexed": false,
          "internalType": "uint256",
          "name": "amount",
          "type": "uint256"
        },
        {
          "indexed": true,
          "internalType": "address",
          "name": "recipient",
          "type": "address"
        }
      ],
      "name": "ClaimReward",
      "type": "event"
    },
    {
      "anonymous": false,
      "inputs": [
        {
          "indexed": true,
          "internalType": "uint256",
          "name": "gameId",
          "type": "uint256"
        },
        {
          "indexed": true,
          "internalType": "uint16",
          "name": "requirementId",
          "type": "uint16"
        },
        {
          "indexed": true,
          "internalType": "address",
          "name": "organzier",
          "type": "address"
        }
      ],
      "name": "CreateGame",
      "type": "event"
    },
    {
      "anonymous": false,
      "inputs": [
        {
          "indexed": true,
          "internalType": "address",
          "name": "previousOwner",
          "type": "address"
        },
        {
          "indexed": true,
          "internalType": "address",
          "name": "newOwner",
          "type": "address"
        }
      ],
      "name": "OwnerPulled",
      "type": "event"
    },
    {
      "anonymous": false,
      "inputs": [
        {
          "indexed": true,
          "internalType": "address",
          "name": "pushedOwner",
          "type": "address"
        }
      ],
      "name": "OwnerPushed",
      "type": "event"
    },
    {
      "anonymous": false,
      "inputs": [
        {
          "indexed": false,
          "internalType": "address",
          "name": "account",
          "type": "address"
        }
      ],
      "name": "Paused",
      "type": "event"
    },
    {
      "anonymous": false,
      "inputs": [
        {
          "indexed": true,
          "internalType": "uint256",
          "name": "gameId",
          "type": "uint256"
        },
        {
          "indexed": false,
          "internalType": "uint256[]",
          "name": "roosterIds",
          "type": "uint256[]"
        },
        {
          "indexed": true,
          "internalType": "address",
          "name": "sender",
          "type": "address"
        }
      ],
      "name": "RegisterGame",
      "type": "event"
    },
    {
      "anonymous": false,
      "inputs": [
        {
          "indexed": true,
          "internalType": "string",
          "name": "role",
          "type": "string"
        },
        {
          "indexed": true,
          "internalType": "address",
          "name": "account",
          "type": "address"
        },
        {
          "indexed": true,
          "internalType": "address",
          "name": "sender",
          "type": "address"
        }
      ],
      "name": "RoleGranted",
      "type": "event"
    },
    {
      "anonymous": false,
      "inputs": [
        {
          "indexed": true,
          "internalType": "string",
          "name": "role",
          "type": "string"
        },
        {
          "indexed": true,
          "internalType": "address",
          "name": "account",
          "type": "address"
        },
        {
          "indexed": true,
          "internalType": "address",
          "name": "sender",
          "type": "address"
        }
      ],
      "name": "RoleRevoked",
      "type": "event"
    },
    {
      "anonymous": false,
      "inputs": [
        {
          "indexed": true,
          "internalType": "uint256",
          "name": "gameId",
          "type": "uint256"
        },
        {
          "indexed": true,
          "internalType": "enum ITournament.Action",
          "name": "action",
          "type": "uint8"
        }
      ],
      "name": "SetGame",
      "type": "event"
    },
    {
      "anonymous": false,
      "inputs": [
        {
          "indexed": false,
          "internalType": "address",
          "name": "account",
          "type": "address"
        }
      ],
      "name": "Unpaused",
      "type": "event"
    },
    {
      "anonymous": false,
      "inputs": [
        {
          "indexed": true,
          "internalType": "uint256",
          "name": "gameId",
          "type": "uint256"
        },
        {
          "indexed": false,
          "internalType": "uint256",
          "name": "amount",
          "type": "uint256"
        }
      ],
      "name": "WithdrawExpiredRewards",
      "type": "event"
    },
    {
      "inputs": [
        {
          "internalType": "uint256",
          "name": "gameId",
          "type": "uint256"
        },
        {
          "internalType": "uint256[]",
          "name": "roosterIds",
          "type": "uint256[]"
        }
      ],
      "name": "batchQuery",
      "outputs": [
        {
          "internalType": "uint32[]",
          "name": "",
          "type": "uint32[]"
        }
      ],
      "stateMutability": "view",
      "type": "function"
    },
    {
      "inputs": [
        {
          "internalType": "uint256",
          "name": "gameId",
          "type": "uint256"
        },
        {
          "internalType": "uint256[]",
          "name": "roosterIds",
          "type": "uint256[]"
        },
        {
          "internalType": "address",
          "name": "recipient",
          "type": "address"
        }
      ],
      "name": "claimRefund",
      "outputs": [
        {
          "internalType": "uint256",
          "name": "amount",
          "type": "uint256"
        }
      ],
      "stateMutability": "nonpayable",
      "type": "function"
    },
    {
      "inputs": [
        {
          "internalType": "uint256",
          "name": "gameId",
          "type": "uint256"
        },
        {
          "internalType": "uint256[]",
          "name": "roosterIds",
          "type": "uint256[]"
        },
        {
          "internalType": "uint32[]",
          "name": "rankings",
          "type": "uint32[]"
        },
        {
          "internalType": "bytes32[][]",
          "name": "proofs",
          "type": "bytes32[][]"
        },
        {
          "internalType": "address",
          "name": "recipient",
          "type": "address"
        }
      ],
      "name": "claimReward",
      "outputs": [
        {
          "internalType": "uint256",
          "name": "amount",
          "type": "uint256"
        },
        {
          "internalType": "uint256",
          "name": "fee",
          "type": "uint256"
        }
      ],
      "stateMutability": "nonpayable",
      "type": "function"
    },
    {
      "inputs": [
        {
          "components": [
            {
              "internalType": "uint32",
              "name": "registrationStartTimestamp",
              "type": "uint32"
            },
            {
              "internalType": "uint32",
              "name": "registrationEndTimestamp",
              "type": "uint32"
            },
            {
              "internalType": "uint32",
              "name": "tournamentStartTimestamp",
              "type": "uint32"
            },
            {
              "internalType": "uint32",
              "name": "tournamentEndTimestamp",
              "type": "uint32"
            },
            {
              "internalType": "uint32",
              "name": "minRoosters",
              "type": "uint32"
            },
            {
              "internalType": "uint32",
              "name": "maxRoosters",
              "type": "uint32"
            },
            {
              "internalType": "uint32",
              "name": "roosters",
              "type": "uint32"
            },
            {
              "internalType": "uint128",
              "name": "entranceFee",
              "type": "uint128"
            },
            {
              "internalType": "uint128",
              "name": "balance",
              "type": "uint128"
            },
            {
              "internalType": "bytes32",
              "name": "rankingRoot",
              "type": "bytes32"
            },
            {
              "internalType": "uint16[]",
              "name": "distributions",
              "type": "uint16[]"
            },
            {
              "internalType": "uint16",
              "name": "fee",
              "type": "uint16"
            },
            {
              "internalType": "uint16",
              "name": "requirementId",
              "type": "uint16"
            },
            {
              "internalType": "enum ITournament.State",
              "name": "state",
              "type": "uint8"
            }
          ],
          "internalType": "struct ITournament.Game",
          "name": "game",
          "type": "tuple"
        }
      ],
      "name": "createGame",
      "outputs": [
        {
          "internalType": "uint256",
          "name": "gameId",
          "type": "uint256"
        }
      ],
      "stateMutability": "nonpayable",
      "type": "function"
    },
    {
      "inputs": [
        {
          "internalType": "uint256",
          "name": "",
          "type": "uint256"
        }
      ],
      "name": "games",
      "outputs": [
        {
          "internalType": "uint32",
          "name": "registrationStartTimestamp",
          "type": "uint32"
        },
        {
          "internalType": "uint32",
          "name": "registrationEndTimestamp",
          "type": "uint32"
        },
        {
          "internalType": "uint32",
          "name": "tournamentStartTimestamp",
          "type": "uint32"
        },
        {
          "internalType": "uint32",
          "name": "tournamentEndTimestamp",
          "type": "uint32"
        },
        {
          "internalType": "uint32",
          "name": "minRoosters",
          "type": "uint32"
        },
        {
          "internalType": "uint32",
          "name": "maxRoosters",
          "type": "uint32"
        },
        {
          "internalType": "uint32",
          "name": "roosters",
          "type": "uint32"
        },
        {
          "internalType": "uint128",
          "name": "entranceFee",
          "type": "uint128"
        },
        {
          "internalType": "uint128",
          "name": "balance",
          "type": "uint128"
        },
        {
          "internalType": "bytes32",
          "name": "rankingRoot",
          "type": "bytes32"
        },
        {
          "internalType": "uint16",
          "name": "fee",
          "type": "uint16"
        },
        {
          "internalType": "uint16",
          "name": "requirementId",
          "type": "uint16"
        },
        {
          "internalType": "enum ITournament.State",
          "name": "state",
          "type": "uint8"
        }
      ],
      "stateMutability": "view",
      "type": "function"
    },
    {
      "inputs": [
        {
          "internalType": "uint256",
          "name": "gameId",
          "type": "uint256"
        }
      ],
      "name": "getDistributionsSum",
      "outputs": [
        {
          "internalType": "uint32",
          "name": "sum",
          "type": "uint32"
        }
      ],
      "stateMutability": "view",
      "type": "function"
    },
    {
      "inputs": [
        {
          "internalType": "string",
          "name": "role",
          "type": "string"
        },
        {
          "internalType": "address",
          "name": "account",
          "type": "address"
        }
      ],
      "name": "grantRole",
      "outputs": [],
      "stateMutability": "nonpayable",
      "type": "function"
    },
    {
      "inputs": [
        {
          "internalType": "string",
          "name": "role",
          "type": "string"
        },
        {
          "internalType": "address",
          "name": "account",
          "type": "address"
        }
      ],
      "name": "hasRole",
      "outputs": [
        {
          "internalType": "bool",
          "name": "",
          "type": "bool"
        }
      ],
      "stateMutability": "view",
      "type": "function"
    },
    {
      "inputs": [],
      "name": "newOwner",
      "outputs": [
        {
          "internalType": "address",
          "name": "",
          "type": "address"
        }
      ],
      "stateMutability": "view",
      "type": "function"
    },
    {
      "inputs": [],
      "name": "owner",
      "outputs": [
        {
          "internalType": "address",
          "name": "",
          "type": "address"
        }
      ],
      "stateMutability": "view",
      "type": "function"
    },
    {
      "inputs": [],
      "name": "pause",
      "outputs": [],
      "stateMutability": "nonpayable",
      "type": "function"
    },
    {
      "inputs": [],
      "name": "paused",
      "outputs": [
        {
          "internalType": "bool",
          "name": "",
          "type": "bool"
        }
      ],
      "stateMutability": "view",
      "type": "function"
    },
    {
      "inputs": [],
      "name": "pullOwner",
      "outputs": [],
      "stateMutability": "nonpayable",
      "type": "function"
    },
    {
      "inputs": [
        {
          "internalType": "address",
          "name": "account",
          "type": "address"
        }
      ],
      "name": "pushOwner",
      "outputs": [],
      "stateMutability": "nonpayable",
      "type": "function"
    },
    {
      "inputs": [
        {
          "internalType": "uint256",
          "name": "gameId",
          "type": "uint256"
        },
        {
          "internalType": "uint256[]",
          "name": "roosterIds",
          "type": "uint256[]"
        },
        {
          "components": [
            {
              "internalType": "bytes32",
              "name": "r",
              "type": "bytes32"
            },
            {
              "internalType": "bytes32",
              "name": "s",
              "type": "bytes32"
            },
            {
              "internalType": "uint8",
              "name": "v",
              "type": "uint8"
            }
          ],
          "internalType": "struct ITournament.Sig",
          "name": "sig",
          "type": "tuple"
        }
      ],
      "name": "register",
      "outputs": [],
      "stateMutability": "nonpayable",
      "type": "function"
    },
    {
      "inputs": [
        {
          "internalType": "string",
          "name": "role",
          "type": "string"
        }
      ],
      "name": "renounceRole",
      "outputs": [],
      "stateMutability": "nonpayable",
      "type": "function"
    },
    {
      "inputs": [
        {
          "internalType": "string",
          "name": "role",
          "type": "string"
        },
        {
          "internalType": "address",
          "name": "account",
          "type": "address"
        }
      ],
      "name": "revokeRole",
      "outputs": [],
      "stateMutability": "nonpayable",
      "type": "function"
    },
    {
      "inputs": [],
      "name": "rooster",
      "outputs": [
        {
          "internalType": "contract IERC721",
          "name": "",
          "type": "address"
        }
      ],
      "stateMutability": "view",
      "type": "function"
    },
    {
      "inputs": [
        {
          "internalType": "uint256",
          "name": "",
          "type": "uint256"
        },
        {
          "internalType": "uint256",
          "name": "",
          "type": "uint256"
        }
      ],
      "name": "roosters",
      "outputs": [
        {
          "internalType": "uint32",
          "name": "",
          "type": "uint32"
        }
      ],
      "stateMutability": "view",
      "type": "function"
    },
    {
      "inputs": [],
      "name": "scholarship",
      "outputs": [
        {
          "internalType": "contract Scholarship",
          "name": "",
          "type": "address"
        }
      ],
      "stateMutability": "view",
      "type": "function"
    },
    {
      "inputs": [
        {
          "internalType": "enum ITournament.Action",
          "name": "action",
          "type": "uint8"
        },
        {
          "internalType": "uint256",
          "name": "gameId",
          "type": "uint256"
        },
        {
          "internalType": "bytes32",
          "name": "rankingRoot",
          "type": "bytes32"
        },
        {
          "internalType": "uint16[]",
          "name": "distributions",
          "type": "uint16[]"
        }
      ],
      "name": "setGame",
      "outputs": [],
      "stateMutability": "nonpayable",
      "type": "function"
    },
    {
      "inputs": [
        {
          "internalType": "address",
          "name": "vault_",
          "type": "address"
        },
        {
          "internalType": "address",
          "name": "scholarship_",
          "type": "address"
        }
      ],
      "name": "setProtocol",
      "outputs": [],
      "stateMutability": "nonpayable",
      "type": "function"
    },
    {
      "inputs": [],
      "name": "totalGames",
      "outputs": [
        {
          "internalType": "uint256",
          "name": "",
          "type": "uint256"
        }
      ],
      "stateMutability": "view",
      "type": "function"
    },
    {
      "inputs": [],
      "name": "unpause",
      "outputs": [],
      "stateMutability": "nonpayable",
      "type": "function"
    },
    {
      "inputs": [],
      "name": "usdc",
      "outputs": [
        {
          "internalType": "contract IERC20",
          "name": "",
          "type": "address"
        }
      ],
      "stateMutability": "view",
      "type": "function"
    },
    {
      "inputs": [],
      "name": "vault",
      "outputs": [
        {
          "internalType": "address",
          "name": "",
          "type": "address"
        }
      ],
      "stateMutability": "view",
      "type": "function"
    },
    {
      "inputs": [
        {
          "internalType": "uint256",
          "name": "gameId",
          "type": "uint256"
        }
      ],
      "name": "withdrawExpiredRewards",
      "outputs": [
        {
          "internalType": "uint256",
          "name": "amount",
          "type": "uint256"
        }
      ],
      "stateMutability": "nonpayable",
      "type": "function"
    }
  ],
  "transactionHash": "0x1d531a3a4c3931713752eb1d8d9602c536aef3bffe1f27caa80aac6d8d0533ec",
  "args": [
    "0xF54F493A2fE3D03bDB7474ddb5AA103eedE8A81C",
    "0xA66c49DBf7285c9f9C741Cf1a6c77E74a89C8048",
    "0x719Da3BC40A33b22D7639587c3Bb4DA914b21bB8",
    "0x18bF4D2Da2A03134834107F7cCF2cEA2d6bdbbCc"
  ],
  "numDeployments": 2,
  "solcInputHash": "888f5b64edca68ca359221f185e867d1",
  "bytecode": "0x60c06040523480156200001157600080fd5b5060405162004a9b38038062004a9b8339810160408190526200003491620000cd565b600080546001600160a01b0319163390811782556040519091907faac18e3887f7d855b2483e20615f8e3fb6efc18e25502090082b47047fb57c73908290a36001600160a01b0393841660805291831660a052600480549184166001600160a01b0319928316179055600580549290931691161790556200012a565b80516001600160a01b0381168114620000c857600080fd5b919050565b60008060008060808587031215620000e457600080fd5b620000ef85620000b0565b9350620000ff60208601620000b0565b92506200010f60408601620000b0565b91506200011f60608601620000b0565b905092959194509250565b60805160a0516149216200017a6000396000818161020a0152613154015260008181610256015281816108ca01528181611c9601528181612792015281816127de0152612e8801526149216000f3fe608060405234801561001057600080fd5b50600436106101b95760003560e01c80638456cb59116100f9578063c3b4627e11610097578063d0ebe5f511610071578063d0ebe5f514610436578063d4ee1d9014610449578063db560f1614610469578063fbfa77cf1461047c57600080fd5b8063c3b4627e146103db578063cae32752146103ee578063cba119f21461041657600080fd5b80639c9d6e2e116100d35780639c9d6e2e14610382578063a753977514610395578063ac5a7d5c146103b5578063c19ae2ed146103c857600080fd5b80638456cb59146103475780638da5cb5b1461034f57806390e5bec81461036f57600080fd5b80634e3522bf116101665780636c9cd097116101405780636c9cd097146103065780636cef16e61461031957806370768f8614610321578063731f21a01461033457600080fd5b80634e3522bf1461029557806355cb0781146102db5780635c975abb146102ee57600080fd5b80633e413bee116101975780633e413bee146102515780633f4ba83a1461027857806343a390c31461028257600080fd5b8063117a5b90146101be5780632c4e591b146101f35780633d76ba9514610205575b600080fd5b6101d16101cc366004613a70565b61049c565b6040516101ea9d9c9b9a99989796959493929190613af3565b60405180910390f35b6006545b6040519081526020016101ea565b61022c7f000000000000000000000000000000000000000000000000000000000000000081565b60405173ffffffffffffffffffffffffffffffffffffffff90911681526020016101ea565b61022c7f000000000000000000000000000000000000000000000000000000000000000081565b610280610592565b005b6101f7610290366004613a70565b61068f565b6102c66102a3366004613ba5565b600760209081526000928352604080842090915290825290205463ffffffff1681565b60405163ffffffff90911681526020016101ea565b6101f76102e9366004613d5f565b610934565b6102f6610f9a565b60405190151581526020016101ea565b6102f6610314366004613f6d565b610fb2565b610280611000565b61028061032f366004613fbf565b6110fb565b610280610342366004613f6d565b61115e565b61028061124b565b60005461022c9073ffffffffffffffffffffffffffffffffffffffff1681565b61028061037d366004614040565b611339565b6101f76103903660046140ae565b6119ad565b60045461022c9073ffffffffffffffffffffffffffffffffffffffff1681565b6102806103c336600461410d565b611d37565b6102806103d6366004613f6d565b611efd565b6102806103e936600461412a565b612044565b6104016103fc366004614158565b61218c565b604080519283526020830191909152016101ea565b6104296104243660046142fd565b612866565b6040516101ea9190614349565b610280610444366004614393565b612945565b60015461022c9073ffffffffffffffffffffffffffffffffffffffff1681565b6102c6610477366004613a70565b612f09565b60055461022c9073ffffffffffffffffffffffffffffffffffffffff1681565b600681815481106104ac57600080fd5b6000918252602090912060059091020180546001820154600283015460049093015463ffffffff80841695506401000000008085048216956801000000000000000086048316956c0100000000000000000000000081048416957001000000000000000000000000000000008083048616967401000000000000000000000000000000000000000084048716967801000000000000000000000000000000000000000000000000909404909316946fffffffffffffffffffffffffffffffff808416959290930490921692909161ffff808316926201000081049091169160ff9104168d565b6040518060400160405280600681526020017f50415553455200000000000000000000000000000000000000000000000000008152506105d28133610fb2565b6106155780336040517f09ab81ed00000000000000000000000000000000000000000000000000000000815260040161060c92919061448e565b60405180910390fd5b61061d610f9a565b610653576040517f6cd6020100000000000000000000000000000000000000000000000000000000815260040160405180910390fd5b60006002556040513381527f5db9ee0a495bf2e6ff9c91a7834c1ba4fdd244a5e8aa4e537bd38aeae4b073aa906020015b60405180910390a150565b60006040518060400160405280600781526020017f4d414e41474552000000000000000000000000000000000000000000000000008152506106d18133610fb2565b61070b5780336040517f09ab81ed00000000000000000000000000000000000000000000000000000000815260040161060c92919061448e565b600060068481548110610720576107206144c6565b6000918252602090912060059091020180549091506107599062093a80906c01000000000000000000000000900463ffffffff16614524565b4210156107a85760405162461bcd60e51b815260206004820152600b60248201527f4e6f742065787069726564000000000000000000000000000000000000000000604482015260640161060c565b60016004820154640100000000900460ff1660038111156107cb576107cb613a89565b146108185760405162461bcd60e51b815260206004820152600960248201527f4e6f7420656e6465640000000000000000000000000000000000000000000000604482015260640161060c565b600181015470010000000000000000000000000000000090046fffffffffffffffffffffffffffffffff169250826108925760405162461bcd60e51b815260206004820152601360248201527f4e6f7468696e6720746f20776974686472617700000000000000000000000000604482015260640161060c565b6001810180546fffffffffffffffffffffffffffffffff1690556005546108f39073ffffffffffffffffffffffffffffffffffffffff7f00000000000000000000000000000000000000000000000000000000000000008116911685612f9c565b837fec3e09ac5180123230478a10d990cff7e788545bf19cf184c13b2ce9231c7e418460405161092591815260200190565b60405180910390a25050919050565b60006040518060400160405280600781526020017f4d414e41474552000000000000000000000000000000000000000000000000008152506109768133610fb2565b6109b05780336040517f09ab81ed00000000000000000000000000000000000000000000000000000000815260040161060c92919061448e565b826020015163ffffffff16836000015163ffffffff1610610a395760405162461bcd60e51b815260206004820152602160248201527f496e76616c69642072656769737465726174696f6e2074696d652077696e646f60448201527f7700000000000000000000000000000000000000000000000000000000000000606482015260840161060c565b42836000015163ffffffff161015610a935760405162461bcd60e51b815260206004820181905260248201527f496e76616c69642072656769737465726174696f6e2073746172742074696d65604482015260640161060c565b826060015163ffffffff16836040015163ffffffff1610610af65760405162461bcd60e51b815260206004820152601e60248201527f496e76616c696420746f75726e616d656e742074696d652077696e646f770000604482015260640161060c565b826020015163ffffffff16836040015163ffffffff1611610b595760405162461bcd60e51b815260206004820152601d60248201527f496e76616c696420746f75726e616d656e742073746172742074696d65000000604482015260640161060c565b826101400151600081518110610b7157610b716144c6565b602002602001015161ffff16600014610bcc5760405162461bcd60e51b815260206004820152601360248201527f30746820696e646578206d757374206265203000000000000000000000000000604482015260640161060c565b61271083610160015161ffff161115610c275760405162461bcd60e51b815260206004820152600b60248201527f496e76616c696420666565000000000000000000000000000000000000000000604482015260640161060c565b600654600060c085018190529092506101a08401819052506000610120840181815260068054600181018255925284517ff652222313e28459528d920b65115c16c04f3efc82aaedc97be59f3f377c0d3f6005909302928301805460208089015160408a015160608b015160808c015160a08d015160c08e015163ffffffff998a167fffffffffffffffffffffffffffffffffffffffffffffffff000000000000000090981697909717640100000000958a1695909502949094177fffffffffffffffffffffffffffffffff0000000000000000ffffffffffffffff1668010000000000000000938916939093027fffffffffffffffffffffffffffffffff00000000ffffffffffffffffffffffff16929092176c0100000000000000000000000091881691909102177fffffffffffffffff0000000000000000ffffffffffffffffffffffffffffffff1670010000000000000000000000000000000091871682027fffffffffffffffff00000000ffffffffffffffffffffffffffffffffffffffff16177401000000000000000000000000000000000000000092871692909202919091177fffffffff00000000ffffffffffffffffffffffffffffffffffffffffffffffff167801000000000000000000000000000000000000000000000000959093169490940291909117825560e08801516101008901516fffffffffffffffffffffffffffffffff9182169116909302929092177ff652222313e28459528d920b65115c16c04f3efc82aaedc97be59f3f377c0d4085015591517ff652222313e28459528d920b65115c16c04f3efc82aaedc97be59f3f377c0d4184015561014086015180518794610ec4937ff652222313e28459528d920b65115c16c04f3efc82aaedc97be59f3f377c0d429091019201906139bb565b5061016082015160048201805461018085015161ffff90811662010000027fffffffffffffffffffffffffffffffffffffffffffffffffffffffff00000000909216931692909217919091178082556101a084015191907fffffffffffffffffffffffffffffffffffffffffffffffffffffff00ffffffff16640100000000836003811115610f5557610f55613a89565b02179055505050610180830151604051339161ffff169084907f057c949bb55926c0a0c7f0bfefde238aa3f84a3a017bdde76aeb522fbe28083e90600090a450919050565b6000600254600114610fac5750600090565b50600190565b600060036000610fc185613075565b81526020808201929092526040908101600090812073ffffffffffffffffffffffffffffffffffffffff8616825290925290205460ff16905092915050565b60015473ffffffffffffffffffffffffffffffffffffffff16331461108957604080517f09ab81ed0000000000000000000000000000000000000000000000000000000081526004810191909152600960448201527f4e45575f4f574e45520000000000000000000000000000000000000000000000606482015233602482015260840161060c565b60008054337fffffffffffffffffffffffff000000000000000000000000000000000000000082168117835560405173ffffffffffffffffffffffffffffffffffffffff90921692909183917faac18e3887f7d855b2483e20615f8e3fb6efc18e25502090082b47047fb57c7391a350565b6111058133610fb2565b6111515760405162461bcd60e51b815260206004820152601060248201527f526f6c65206e6f74206772616e74656400000000000000000000000000000000604482015260640161060c565b61115b8133613086565b50565b60005473ffffffffffffffffffffffffffffffffffffffff1633146111e757604080517f09ab81ed0000000000000000000000000000000000000000000000000000000081526004810191909152600560448201527f4f574e4552000000000000000000000000000000000000000000000000000000606482015233602482015260840161060c565b6111f18282610fb2565b61123d5760405162461bcd60e51b815260206004820152601060248201527f526f6c65206e6f74206772616e74656400000000000000000000000000000000604482015260640161060c565b6112478282613086565b5050565b6040518060400160405280600681526020017f504155534552000000000000000000000000000000000000000000000000000081525061128b8133610fb2565b6112c55780336040517f09ab81ed00000000000000000000000000000000000000000000000000000000815260040161060c92919061448e565b6112cd610f9a565b15611304576040517f1309a56300000000000000000000000000000000000000000000000000000000815260040160405180910390fd5b60016002556040513381527f62e78cea01bee320cd4e420270b5ea74000d11b0c9f74754ebdbfc544b05a25890602001610684565b6040518060400160405280600781526020017f4d414e41474552000000000000000000000000000000000000000000000000008152506113798133610fb2565b6113b35780336040517f09ab81ed00000000000000000000000000000000000000000000000000000000815260040161060c92919061448e565b6000600686815481106113c8576113c86144c6565b60009182526020822060059091020191508760048111156113eb576113eb613a89565b1415611522578054839063ffffffff1642106114495760405162461bcd60e51b815260206004820152601560248201527f52656769737465726174696f6e20737461727465640000000000000000000000604482015260640161060c565b600081116114995760405162461bcd60e51b815260206004820152601a60248201527f646973747275627574696f6e73206e6f742070726f7669646564000000000000604482015260640161060c565b60005b8181101561151b57826003018686838181106114ba576114ba6144c6565b90506020020160208101906114cf919061453c565b81546001810183556000928352602090922060108304018054600f9093166002026101000a61ffff8181021990941692909316929092021790558061151381614557565b91505061149c565b5050611967565b600187600481111561153657611536613a89565b141561172e5760006004820154640100000000900460ff16600381111561155f5761155f613a89565b146115ac5760405162461bcd60e51b815260206004820152600b60248201527f4e6f74206f6e676f696e67000000000000000000000000000000000000000000604482015260640161060c565b80546c01000000000000000000000000900463ffffffff164210156116135760405162461bcd60e51b815260206004820152600960248201527f4e6f7420656e6465640000000000000000000000000000000000000000000000604482015260640161060c565b846116605760405162461bcd60e51b815260206004820152601860248201527f72616e6b696e67526f6f74206e6f742070726f76696465640000000000000000604482015260640161060c565b805463ffffffff7001000000000000000000000000000000008204811678010000000000000000000000000000000000000000000000009092041610156116e95760405162461bcd60e51b815260206004820152601360248201527f4e6f7420656e6f75676820726f6f737465727300000000000000000000000000604482015260640161060c565b60028101859055600481018054600191907fffffffffffffffffffffffffffffffffffffffffffffffffffffff00ffffffff16640100000000835b0217905550611967565b600487600481111561174257611742613a89565b14156117f05760006004820154640100000000900460ff16600381111561176b5761176b613a89565b146117b85760405162461bcd60e51b815260206004820152600b60248201527f4e6f74206f6e676f696e67000000000000000000000000000000000000000000604482015260640161060c565b600481018054600391907fffffffffffffffffffffffffffffffffffffffffffffffffffffff00ffffffff1664010000000083611724565b600287600481111561180457611804613a89565b14156118b25760006004820154640100000000900460ff16600381111561182d5761182d613a89565b1461187a5760405162461bcd60e51b815260206004820152600b60248201527f4e6f74206f6e676f696e67000000000000000000000000000000000000000000604482015260640161060c565b600481018054600291907fffffffffffffffffffffffffffffffffffffffffffffffffffffff00ffffffff1664010000000083611724565b60038760048111156118c6576118c6613a89565b14156119675760026004820154640100000000900460ff1660038111156118ef576118ef613a89565b1461193c5760405162461bcd60e51b815260206004820152600a60248201527f4e6f742070617573656400000000000000000000000000000000000000000000604482015260640161060c565b6004810180547fffffffffffffffffffffffffffffffffffffffffffffffffffffff00ffffffff1690555b86600481111561197957611979613a89565b60405187907fded99f1a8ca84d9e91ae9369ef5dab9758de46b4e8109da848ceda6ed4464e8590600090a350505050505050565b60006119b7610f9a565b156119ee576040517f1309a56300000000000000000000000000000000000000000000000000000000815260040160405180910390fd5b600060068681548110611a0357611a036144c6565b6000918252602090912060059091020190508360036004830154640100000000900460ff166003811115611a3957611a39613a89565b14611a865760405162461bcd60e51b815260206004820152600d60248201527f4e6f742063616e63656c6c656400000000000000000000000000000000000000604482015260640161060c565b611a9133878761312f565b611add5760405162461bcd60e51b815260206004820152600960248201527f4e6f74206f776e65720000000000000000000000000000000000000000000000604482015260640161060c565b60005b81811015611bf157600088815260076020526040812063ffffffff91898985818110611b0e57611b0e6144c6565b602090810292909201358352508101919091526040016000205463ffffffff1614611b7b5760405162461bcd60e51b815260206004820152600f60248201527f416c726561647920636c61696d65640000000000000000000000000000000000604482015260640161060c565b611b8a600163ffffffff614590565b600089815260076020526040812090898985818110611bab57611bab6144c6565b90506020020135815260200190815260200160002060006101000a81548163ffffffff021916908363ffffffff1602179055508080611be990614557565b915050611ae0565b506001820154611c149082906fffffffffffffffffffffffffffffffff166145b5565b9250611c1f83613322565b600183018054601090611c5990849070010000000000000000000000000000000090046fffffffffffffffffffffffffffffffff166145f2565b92506101000a8154816fffffffffffffffffffffffffffffffff02191690836fffffffffffffffffffffffffffffffff160217905550611cda84847f000000000000000000000000000000000000000000000000000000000000000073ffffffffffffffffffffffffffffffffffffffff16612f9c9092919063ffffffff16565b8373ffffffffffffffffffffffffffffffffffffffff16877f5fcacaea1fd24459895ce71c81d7f698e8142ac0dff6a7ab1c226d2bd6dd97f6888887604051611d259392919061466a565b60405180910390a35050949350505050565b60005473ffffffffffffffffffffffffffffffffffffffff163314611dc057604080517f09ab81ed0000000000000000000000000000000000000000000000000000000081526004810191909152600560448201527f4f574e4552000000000000000000000000000000000000000000000000000000606482015233602482015260840161060c565b73ffffffffffffffffffffffffffffffffffffffff8116611e235760405162461bcd60e51b815260206004820152600d60248201527f4e6f206164647265737328302900000000000000000000000000000000000000604482015260640161060c565b60005473ffffffffffffffffffffffffffffffffffffffff82811691161415611e8e5760405162461bcd60e51b815260206004820152600e60248201527f4f6e6c79206e6577206f776e6572000000000000000000000000000000000000604482015260640161060c565b600180547fffffffffffffffffffffffff00000000000000000000000000000000000000001673ffffffffffffffffffffffffffffffffffffffff83169081179091556040517fd52a054f85e9a057277cd95bf6d5da45465068f0467ec7991f3fcc017be6b72590600090a250565b60005473ffffffffffffffffffffffffffffffffffffffff163314611f8657604080517f09ab81ed0000000000000000000000000000000000000000000000000000000081526004810191909152600560448201527f4f574e4552000000000000000000000000000000000000000000000000000000606482015233602482015260840161060c565b6000825111611fd75760405162461bcd60e51b815260206004820152600e60248201527f526f6c65206e6f7420676976656e000000000000000000000000000000000000604482015260640161060c565b73ffffffffffffffffffffffffffffffffffffffff811661203a5760405162461bcd60e51b815260206004820152600d60248201527f4e6f206164647265737328302900000000000000000000000000000000000000604482015260640161060c565b61124782826133ae565b60005473ffffffffffffffffffffffffffffffffffffffff1633146120cd57604080517f09ab81ed0000000000000000000000000000000000000000000000000000000081526004810191909152600560448201527f4f574e4552000000000000000000000000000000000000000000000000000000606482015233602482015260840161060c565b73ffffffffffffffffffffffffffffffffffffffff82161561212a57600580547fffffffffffffffffffffffff00000000000000000000000000000000000000001673ffffffffffffffffffffffffffffffffffffffff84161790555b73ffffffffffffffffffffffffffffffffffffffff811615611247576004805473ffffffffffffffffffffffffffffffffffffffff83167fffffffffffffffffffffffff00000000000000000000000000000000000000009091161790555050565b600080612197610f9a565b156121ce576040517f1309a56300000000000000000000000000000000000000000000000000000000815260040160405180910390fd5b600060068a815481106121e3576121e36144c6565b6000918252602090912060059091020190508786146122445760405162461bcd60e51b815260206004820152600f60248201527f4c656e677468206d69736d617463680000000000000000000000000000000000604482015260640161060c565b60016004820154640100000000900460ff16600381111561226757612267613a89565b146122b45760405162461bcd60e51b815260206004820152600960248201527f4e6f7420656e6465640000000000000000000000000000000000000000000000604482015260640161060c565b80546122da9062093a80906c01000000000000000000000000900463ffffffff16614524565b42106123285760405162461bcd60e51b815260206004820152600760248201527f4578706972656400000000000000000000000000000000000000000000000000604482015260640161060c565b612333338a8a61312f565b61237f5760405162461bcd60e51b815260206004820152600960248201527f4e6f74206f776e65720000000000000000000000000000000000000000000000604482015260640161060c565b805460018201546000916123c891780100000000000000000000000000000000000000000000000090910463ffffffff16906fffffffffffffffffffffffffffffffff1661468e565b6fffffffffffffffffffffffffffffffff16905060005b898110156126ca5760008c8c8c848181106123fc576123fc6144c6565b905060200201358b8b85818110612415576124156144c6565b905060200201602081019061242a91906146c6565b60405160200161247293929190928352602083019190915260e01b7fffffffff0000000000000000000000000000000000000000000000000000000016604082015260440190565b6040516020818303038152906040528051906020012090506124b288838151811061249f5761249f6144c6565b6020026020010151856002015483613468565b6124fe5760405162461bcd60e51b815260206004820152600d60248201527f496e76616c69642070726f6f6600000000000000000000000000000000000000604482015260640161060c565b60008d815260076020526040812063ffffffff918e8e86818110612524576125246144c6565b602090810292909201358352508101919091526040016000205463ffffffff16146125b75760405162461bcd60e51b815260206004820152602160248201527f416c726561647920636c61696d6564206f72206e6f742072656769737465726560448201527f6400000000000000000000000000000000000000000000000000000000000000606482015260840161060c565b8989838181106125c9576125c96144c6565b90506020020160208101906125de91906146c6565b60008e8152600760205260408120908e8e868181106125ff576125ff6144c6565b90506020020135815260200190815260200160002060006101000a81548163ffffffff021916908363ffffffff160217905550612710846003018b8b8581811061264b5761264b6144c6565b905060200201602081019061266091906146c6565b63ffffffff1681548110612676576126766144c6565b600091825260209091206010820401546126a091600f166002026101000a900461ffff16856145b5565b6126aa91906146e1565b6126b49087614524565b95505080806126c290614557565b9150506123df565b506126d484613322565b60018301805460109061270e90849070010000000000000000000000000000000090046fffffffffffffffffffffffffffffffff166145f2565b82546fffffffffffffffffffffffffffffffff9182166101009390930a92830291909202199091161790555060055460048301546127b99173ffffffffffffffffffffffffffffffffffffffff16906127109061276f9061ffff16886145b5565b61277991906146e1565b945073ffffffffffffffffffffffffffffffffffffffff7f0000000000000000000000000000000000000000000000000000000000000000169085612f9c565b612805856127c7858761471c565b73ffffffffffffffffffffffffffffffffffffffff7f0000000000000000000000000000000000000000000000000000000000000000169190612f9c565b8473ffffffffffffffffffffffffffffffffffffffff168b7ffdf9f5a42428bac06c94e56a8cf625dbda565529322c5ad85170e8a01f05773a8c8c886040516128509392919061466a565b60405180910390a3505097509795505050505050565b606060008267ffffffffffffffff81111561288357612883613bc7565b6040519080825280602002602001820160405280156128ac578160200160208202803683370190505b50905060005b8381101561293a576000868152600760205260408120908686848181106128db576128db6144c6565b90506020020135815260200190815260200160002060009054906101000a900463ffffffff16828281518110612913576129136144c6565b63ffffffff909216602092830291909101909101528061293281614557565b9150506128b2565b5090505b9392505050565b61294d610f9a565b15612984576040517f1309a56300000000000000000000000000000000000000000000000000000000815260040160405180910390fd5b600060068581548110612999576129996144c6565b600091825260209091206005909102018054909150839063ffffffff16421015612a055760405162461bcd60e51b815260206004820152600b60248201527f4e6f742073746172746564000000000000000000000000000000000000000000604482015260640161060c565b8154640100000000900463ffffffff164210612a635760405162461bcd60e51b815260206004820152600560248201527f456e646564000000000000000000000000000000000000000000000000000000604482015260640161060c565b60006004830154640100000000900460ff166003811115612a8657612a86613a89565b14612ad35760405162461bcd60e51b815260206004820152601360248201527f506175736564206f722043616e63656c6c656400000000000000000000000000604482015260640161060c565b8154612b1b9063ffffffff7801000000000000000000000000000000000000000000000000820481169174010000000000000000000000000000000000000000900416614590565b63ffffffff16811115612b705760405162461bcd60e51b815260206004820152600d60248201527f52656163686564206c696d697400000000000000000000000000000000000000604482015260640161060c565b612b7b33868661312f565b612bc75760405162461bcd60e51b815260206004820152600960248201527f4e6f74206f776e65720000000000000000000000000000000000000000000000604482015260640161060c565b6004820154612be490879062010000900461ffff1687878761347e565b612c305760405162461bcd60e51b815260206004820152600d60248201527f4e6f74207175616c696669656400000000000000000000000000000000000000604482015260640161060c565b60005b81811015612d3557600087815260076020526040812090878784818110612c5c57612c5c6144c6565b602090810292909201358352508101919091526040016000205463ffffffff1615612cc95760405162461bcd60e51b815260206004820152601260248201527f416c726561647920726567697374657265640000000000000000000000000000604482015260640161060c565b600087815260076020526040812063ffffffff91888885818110612cef57612cef6144c6565b90506020020135815260200190815260200160002060006101000a81548163ffffffff021916908363ffffffff1602179055508080612d2d90614557565b915050612c33565b50612d3f816135c3565b82548390601890612d739084907801000000000000000000000000000000000000000000000000900463ffffffff16614733565b825463ffffffff9182166101009390930a9283029190920219909116179055506001820154612dbe90612db99083906fffffffffffffffffffffffffffffffff166145b5565b613322565b600183018054601090612df890849070010000000000000000000000000000000090046fffffffffffffffffffffffffffffffff1661475b565b92506101000a8154816fffffffffffffffffffffffffffffffff02191690836fffffffffffffffffffffffffffffffff160217905550612eb03330838560010160009054906101000a90046fffffffffffffffffffffffffffffffff166fffffffffffffffffffffffffffffffff16612e7191906145b5565b73ffffffffffffffffffffffffffffffffffffffff7f00000000000000000000000000000000000000000000000000000000000000001692919061363f565b3373ffffffffffffffffffffffffffffffffffffffff16867fb27d176135db41e0d10f2aeed50c1a07e7086df2be3298b376b1a59997a5b81d8787604051612ef9929190614786565b60405180910390a3505050505050565b60008060068381548110612f1f57612f1f6144c6565b906000526020600020906005020190506000600190505b6003820154811015612f9557816003018181548110612f5757612f576144c6565b60009182526020909120601082040154612f8191600f166002026101000a900461ffff1684614733565b925080612f8d81614557565b915050612f36565b5050919050565b60405173ffffffffffffffffffffffffffffffffffffffff83166024820152604481018290526130709084907fa9059cbb00000000000000000000000000000000000000000000000000000000906064015b604080517fffffffffffffffffffffffffffffffffffffffffffffffffffffffffffffffe08184030181529190526020810180517bffffffffffffffffffffffffffffffffffffffffffffffffffffffff167fffffffff00000000000000000000000000000000000000000000000000000000909316929092179091526136a3565b505050565b60006130808261479a565b92915050565b600061309183613075565b600081815260036020908152604080832073ffffffffffffffffffffffffffffffffffffffff871680855292529182902080547fffffffffffffffffffffffffffffffffffffffffffffffffffffffffffffff00169055905191925033916130fa9086906147df565b604051908190038120907ff3a2b91552b535c273a48d8b7453c8b0b287e20e51d74121eb50d975dbaa506d90600090a4505050565b6000805b82811015613317578473ffffffffffffffffffffffffffffffffffffffff167f000000000000000000000000000000000000000000000000000000000000000073ffffffffffffffffffffffffffffffffffffffff16636352211e8686858181106131a0576131a06144c6565b905060200201356040518263ffffffff1660e01b81526004016131c591815260200190565b60206040518083038186803b1580156131dd57600080fd5b505afa1580156131f1573d6000803e3d6000fd5b505050506040513d601f19601f8201168201806040525081019061321591906147fb565b73ffffffffffffffffffffffffffffffffffffffff16141580156132f6575060045473ffffffffffffffffffffffffffffffffffffffff808716911663e336a108868685818110613268576132686144c6565b905060200201356040518263ffffffff1660e01b815260040161328d91815260200190565b60206040518083038186803b1580156132a557600080fd5b505afa1580156132b9573d6000803e3d6000fd5b505050506040513d601f19601f820116820180604052508101906132dd91906147fb565b73ffffffffffffffffffffffffffffffffffffffff1614155b1561330557600091505061293e565b8061330f81614557565b915050613133565b506001949350505050565b60006fffffffffffffffffffffffffffffffff8211156133aa5760405162461bcd60e51b815260206004820152602760248201527f53616665436173743a2076616c756520646f65736e27742066697420696e203160448201527f3238206269747300000000000000000000000000000000000000000000000000606482015260840161060c565b5090565b6133b88282610fb2565b6112475760006133c783613075565b600081815260036020908152604080832073ffffffffffffffffffffffffffffffffffffffff871680855292529182902080547fffffffffffffffffffffffffffffffffffffffffffffffffffffffffffffff00166001179055905191925033916134339086906147df565b604051908190038120907fe0ca4f6d52d59033a91ab89e93c98f9acada14e0086d8b1038284f42e6d5325790600090a4505050565b6000826134758584613795565b14949350505050565b600080868686866040516020016134989493929190614818565b6040516020818303038152906040528051906020012090506000816040516020016134ef91907f19457468657265756d205369676e6564204d6573736167653a0a3332000000008152601c810191909152603c0190565b6040516020818303038152906040528051906020012090506135b76040518060400160405280600681526020017f5349474e455200000000000000000000000000000000000000000000000000008152506001838760400160208101906135569190614893565b604080516000815260208181018084529490945260ff909216908201528835606082015290880135608082015260a0016020604051602081039080840390855afa1580156135a8573d6000803e3d6000fd5b50505060206040510351610fb2565b98975050505050505050565b600063ffffffff8211156133aa5760405162461bcd60e51b815260206004820152602660248201527f53616665436173743a2076616c756520646f65736e27742066697420696e203360448201527f3220626974730000000000000000000000000000000000000000000000000000606482015260840161060c565b60405173ffffffffffffffffffffffffffffffffffffffff8085166024830152831660448201526064810182905261369d9085907f23b872dd0000000000000000000000000000000000000000000000000000000090608401612fee565b50505050565b6000613705826040518060400160405280602081526020017f5361666545524332303a206c6f772d6c6576656c2063616c6c206661696c65648152508573ffffffffffffffffffffffffffffffffffffffff166138099092919063ffffffff16565b805190915015613070578080602001905181019061372391906148b6565b6130705760405162461bcd60e51b815260206004820152602a60248201527f5361666545524332303a204552433230206f7065726174696f6e20646964206e60448201527f6f74207375636365656400000000000000000000000000000000000000000000606482015260840161060c565b600081815b84518110156138015760008582815181106137b7576137b76144c6565b602002602001015190508083116137dd57600083815260208290526040902092506137ee565b600081815260208490526040902092505b50806137f981614557565b91505061379a565b509392505050565b60606138188484600085613820565b949350505050565b6060824710156138985760405162461bcd60e51b815260206004820152602660248201527f416464726573733a20696e73756666696369656e742062616c616e636520666f60448201527f722063616c6c0000000000000000000000000000000000000000000000000000606482015260840161060c565b73ffffffffffffffffffffffffffffffffffffffff85163b6138fc5760405162461bcd60e51b815260206004820152601d60248201527f416464726573733a2063616c6c20746f206e6f6e2d636f6e7472616374000000604482015260640161060c565b6000808673ffffffffffffffffffffffffffffffffffffffff16858760405161392591906147df565b60006040518083038185875af1925050503d8060008114613962576040519150601f19603f3d011682016040523d82523d6000602084013e613967565b606091505b5091509150613977828286613982565b979650505050505050565b6060831561399157508161293e565b8251156139a15782518084602001fd5b8160405162461bcd60e51b815260040161060c91906148d8565b82805482825590600052602060002090600f01601090048101928215613a545791602002820160005b83821115613a2457835183826101000a81548161ffff021916908361ffff16021790555092602001926002016020816001010492830192600103026139e4565b8015613a525782816101000a81549061ffff0219169055600201602081600101049283019260010302613a24565b505b506133aa9291505b808211156133aa5760008155600101613a5c565b600060208284031215613a8257600080fd5b5035919050565b7f4e487b7100000000000000000000000000000000000000000000000000000000600052602160045260246000fd5b60048110613aef577f4e487b7100000000000000000000000000000000000000000000000000000000600052602160045260246000fd5b9052565b63ffffffff8e811682528d811660208301528c811660408301528b811660608301528a8116608083015289811660a0830152881660c08201526101a081016fffffffffffffffffffffffffffffffff881660e08301526fffffffffffffffffffffffffffffffff871661010083015285610120830152613b7a61014083018661ffff169052565b61ffff8416610160830152613b93610180830184613ab8565b9e9d5050505050505050505050505050565b60008060408385031215613bb857600080fd5b50508035926020909101359150565b7f4e487b7100000000000000000000000000000000000000000000000000000000600052604160045260246000fd5b6040516101c0810167ffffffffffffffff81118282101715613c1a57613c1a613bc7565b60405290565b604051601f82017fffffffffffffffffffffffffffffffffffffffffffffffffffffffffffffffe016810167ffffffffffffffff81118282101715613c6757613c67613bc7565b604052919050565b803563ffffffff81168114613c8357600080fd5b919050565b80356fffffffffffffffffffffffffffffffff81168114613c8357600080fd5b600067ffffffffffffffff821115613cc257613cc2613bc7565b5060051b60200190565b803561ffff81168114613c8357600080fd5b600082601f830112613cef57600080fd5b81356020613d04613cff83613ca8565b613c20565b82815260059290921b84018101918181019086841115613d2357600080fd5b8286015b84811015613d4557613d3881613ccc565b8352918301918301613d27565b509695505050505050565b803560048110613c8357600080fd5b600060208284031215613d7157600080fd5b813567ffffffffffffffff80821115613d8957600080fd5b908301906101c08286031215613d9e57600080fd5b613da6613bf6565b613daf83613c6f565b8152613dbd60208401613c6f565b6020820152613dce60408401613c6f565b6040820152613ddf60608401613c6f565b6060820152613df060808401613c6f565b6080820152613e0160a08401613c6f565b60a0820152613e1260c08401613c6f565b60c0820152613e2360e08401613c88565b60e0820152610100613e36818501613c88565b9082015261012083810135908201526101408084013583811115613e5957600080fd5b613e6588828701613cde565b8284015250506101609150613e7b828401613ccc565b828201526101809150613e8f828401613ccc565b828201526101a09150613ea3828401613d50565b91810191909152949350505050565b600082601f830112613ec357600080fd5b813567ffffffffffffffff811115613edd57613edd613bc7565b613f0e60207fffffffffffffffffffffffffffffffffffffffffffffffffffffffffffffffe0601f84011601613c20565b818152846020838601011115613f2357600080fd5b816020850160208301376000918101602001919091529392505050565b73ffffffffffffffffffffffffffffffffffffffff8116811461115b57600080fd5b8035613c8381613f40565b60008060408385031215613f8057600080fd5b823567ffffffffffffffff811115613f9757600080fd5b613fa385828601613eb2565b9250506020830135613fb481613f40565b809150509250929050565b600060208284031215613fd157600080fd5b813567ffffffffffffffff811115613fe857600080fd5b61381884828501613eb2565b60008083601f84011261400657600080fd5b50813567ffffffffffffffff81111561401e57600080fd5b6020830191508360208260051b850101111561403957600080fd5b9250929050565b60008060008060006080868803121561405857600080fd5b85356005811061406757600080fd5b94506020860135935060408601359250606086013567ffffffffffffffff81111561409157600080fd5b61409d88828901613ff4565b969995985093965092949392505050565b600080600080606085870312156140c457600080fd5b84359350602085013567ffffffffffffffff8111156140e257600080fd5b6140ee87828801613ff4565b909450925050604085013561410281613f40565b939692955090935050565b60006020828403121561411f57600080fd5b813561293e81613f40565b6000806040838503121561413d57600080fd5b823561414881613f40565b91506020830135613fb481613f40565b600080600080600080600060a0888a03121561417357600080fd5b8735965067ffffffffffffffff6020890135111561419057600080fd5b6141a08960208a01358a01613ff4565b909650945067ffffffffffffffff604089013511156141be57600080fd5b6141ce8960408a01358a01613ff4565b909450925067ffffffffffffffff606089013511156141ec57600080fd5b6060880135880189601f82011261420257600080fd5b61420f613cff8235613ca8565b81358082526020808301929160051b8401018c101561422d57600080fd5b602083015b6020843560051b8501018110156142dd5767ffffffffffffffff8135111561425957600080fd5b803584018d603f82011261426c57600080fd5b61427c613cff6020830135613ca8565b80602083013582526020820191508f6040602085013560051b85010111156142a357600080fd5b604083015b6040602085013560051b8501018110156142cc5780358352602092830192016142a8565b508552505060209283019201614232565b5093506142ef91505060808901613f62565b905092959891949750929550565b60008060006040848603121561431257600080fd5b83359250602084013567ffffffffffffffff81111561433057600080fd5b61433c86828701613ff4565b9497909650939450505050565b6020808252825182820181905260009190848201906040850190845b8181101561438757835163ffffffff1683529284019291840191600101614365565b50909695505050505050565b60008060008084860360a08112156143aa57600080fd5b85359450602086013567ffffffffffffffff8111156143c857600080fd5b6143d488828901613ff4565b90955093505060607fffffffffffffffffffffffffffffffffffffffffffffffffffffffffffffffc08201121561440a57600080fd5b509295919450926040019150565b60005b8381101561443357818101518382015260200161441b565b8381111561369d5750506000910152565b6000815180845261445c816020860160208601614418565b601f017fffffffffffffffffffffffffffffffffffffffffffffffffffffffffffffffe0169290920160200192915050565b6040815260006144a16040830185614444565b905073ffffffffffffffffffffffffffffffffffffffff831660208301529392505050565b7f4e487b7100000000000000000000000000000000000000000000000000000000600052603260045260246000fd5b7f4e487b7100000000000000000000000000000000000000000000000000000000600052601160045260246000fd5b60008219821115614537576145376144f5565b500190565b60006020828403121561454e57600080fd5b61293e82613ccc565b60007fffffffffffffffffffffffffffffffffffffffffffffffffffffffffffffffff821415614589576145896144f5565b5060010190565b600063ffffffff838116908316818110156145ad576145ad6144f5565b039392505050565b6000817fffffffffffffffffffffffffffffffffffffffffffffffffffffffffffffffff04831182151516156145ed576145ed6144f5565b500290565b60006fffffffffffffffffffffffffffffffff838116908316818110156145ad576145ad6144f5565b81835260007f07ffffffffffffffffffffffffffffffffffffffffffffffffffffffffffffff83111561464d57600080fd5b8260051b8083602087013760009401602001938452509192915050565b60408152600061467e60408301858761461b565b9050826020830152949350505050565b60006fffffffffffffffffffffffffffffffff808316818516818304811182151516156146bd576146bd6144f5565b02949350505050565b6000602082840312156146d857600080fd5b61293e82613c6f565b600082614717577f4e487b7100000000000000000000000000000000000000000000000000000000600052601260045260246000fd5b500490565b60008282101561472e5761472e6144f5565b500390565b600063ffffffff808316818516808303821115614752576147526144f5565b01949350505050565b60006fffffffffffffffffffffffffffffffff808316818516808303821115614752576147526144f5565b60208152600061381860208301848661461b565b805160208083015191908110156147d9577fffffffffffffffffffffffffffffffffffffffffffffffffffffffffffffffff8160200360031b1b821691505b50919050565b600082516147f1818460208701614418565b9190910192915050565b60006020828403121561480d57600080fd5b815161293e81613f40565b8481527fffff0000000000000000000000000000000000000000000000000000000000008460f01b16602082015260007f07ffffffffffffffffffffffffffffffffffffffffffffffffffffffffffffff83111561487557600080fd5b8260051b808560228501376000920160220191825250949350505050565b6000602082840312156148a557600080fd5b813560ff8116811461293e57600080fd5b6000602082840312156148c857600080fd5b8151801515811461293e57600080fd5b60208152600061293e602083018461444456fea26469706673582212205e634853552df9282236b9b78d8be297e59956805e50aa60a524e7425c2887f564736f6c63430008090033",
  "devdoc": {
    "kind": "dev",
    "methods": {
      "batchQuery(uint256,uint256[])": {
        "params": {
          "gameId": "Game id",
          "roosterIds": "List of rooster ids"
        }
      },
      "claimRefund(uint256,uint256[],address)": {
        "params": {
          "gameId": "Game id",
          "recipient": "Recipient address",
          "roosterIds": "List of roosters registered"
        },
        "returns": {
          "amount": "Amount claimed"
        }
      },
      "claimReward(uint256,uint256[],uint32[],bytes32[][],address)": {
        "params": {
          "gameId": "Game id",
          "rankings": "List of rankings",
          "roosterIds": "List of rooster ids"
        }
      },
      "createGame((uint32,uint32,uint32,uint32,uint32,uint32,uint32,uint128,uint128,bytes32,uint16[],uint16,uint16,uint8))": {
        "params": {
          "game": "Game info"
        },
        "returns": {
          "gameId": "uint256"
        }
      },
      "getDistributionsSum(uint256)": {
        "params": {
          "gameId": "Game id"
        },
        "returns": {
          "sum": "uint32"
        }
      },
      "register(uint256,uint256[],(bytes32,bytes32,uint8))": {
        "params": {
          "gameId": "Game id",
          "roosterIds": "List of roosters to register",
          "sig": "Signature for tournament qualification"
        }
      },
      "setGame(uint8,uint256,bytes32,uint16[])": {
        "params": {
          "action": "Action enum",
          "distributions": "Distrubtion percentages to add.",
          "gameId": "Game id",
          "rankingRoot": "Merkle root of ranking"
        }
      },
      "setProtocol(address,address)": {
        "params": {
          "scholarship_": "Scholarship contract address",
          "vault_": "Vault address"
        }
      },
      "totalGames()": {
        "returns": {
          "_0": "uint256"
        }
      }
    },
    "version": 1
  },
  "userdoc": {
    "kind": "user",
    "methods": {
      "batchQuery(uint256,uint256[])": {
        "notice": "Queries state of roosters in batch"
      },
      "claimRefund(uint256,uint256[],address)": {
        "notice": "Claims refund from cancelled tournament"
      },
      "claimReward(uint256,uint256[],uint32[],bytes32[][],address)": {
        "notice": "Claims reward from tournament prize pool"
      },
      "createGame((uint32,uint32,uint32,uint32,uint32,uint32,uint32,uint128,uint128,bytes32,uint16[],uint16,uint16,uint8))": {
        "notice": "Creates new game"
      },
      "getDistributionsSum(uint256)": {
        "notice": "Gets sum of distribution percentages"
      },
      "register(uint256,uint256[],(bytes32,bytes32,uint8))": {
        "notice": "Registers for the tournament game"
      },
      "setGame(uint8,uint256,bytes32,uint16[])": {
        "notice": "Sets state of game"
      },
      "setProtocol(address,address)": {
        "notice": "Sets addresses"
      },
      "totalGames()": {
        "notice": "Returns total `games` created"
      }
    },
    "version": 1
  },
  "storageLayout": {
    "storage": [
      {
        "astId": 16937,
        "contract": "contracts/tournament/Tournament.sol:Tournament",
        "label": "owner",
        "offset": 0,
        "slot": "0",
        "type": "t_address"
      },
      {
        "astId": 16939,
        "contract": "contracts/tournament/Tournament.sol:Tournament",
        "label": "newOwner",
        "offset": 0,
        "slot": "1",
        "type": "t_address"
      },
      {
        "astId": 16941,
        "contract": "contracts/tournament/Tournament.sol:Tournament",
        "label": "_paused",
        "offset": 0,
        "slot": "2",
        "type": "t_uint256"
      },
      {
        "astId": 16947,
        "contract": "contracts/tournament/Tournament.sol:Tournament",
        "label": "_roles",
        "offset": 0,
        "slot": "3",
        "type": "t_mapping(t_bytes32,t_mapping(t_address,t_bool))"
      },
      {
        "astId": 15557,
        "contract": "contracts/tournament/Tournament.sol:Tournament",
        "label": "scholarship",
        "offset": 0,
        "slot": "4",
        "type": "t_contract(Scholarship)13655"
      },
      {
        "astId": 15559,
        "contract": "contracts/tournament/Tournament.sol:Tournament",
        "label": "vault",
        "offset": 0,
        "slot": "5",
        "type": "t_address"
      },
      {
        "astId": 15563,
        "contract": "contracts/tournament/Tournament.sol:Tournament",
        "label": "games",
        "offset": 0,
        "slot": "6",
        "type": "t_array(t_struct(Game)15432_storage)dyn_storage"
      },
      {
        "astId": 15569,
        "contract": "contracts/tournament/Tournament.sol:Tournament",
        "label": "roosters",
        "offset": 0,
        "slot": "7",
        "type": "t_mapping(t_uint256,t_mapping(t_uint256,t_uint32))"
      }
    ],
    "types": {
      "t_address": {
        "encoding": "inplace",
        "label": "address",
        "numberOfBytes": "20"
      },
      "t_array(t_struct(Game)15432_storage)dyn_storage": {
        "base": "t_struct(Game)15432_storage",
        "encoding": "dynamic_array",
        "label": "struct ITournament.Game[]",
        "numberOfBytes": "32"
      },
      "t_array(t_uint16)dyn_storage": {
        "base": "t_uint16",
        "encoding": "dynamic_array",
        "label": "uint16[]",
        "numberOfBytes": "32"
      },
      "t_bool": {
        "encoding": "inplace",
        "label": "bool",
        "numberOfBytes": "1"
      },
      "t_bytes32": {
        "encoding": "inplace",
        "label": "bytes32",
        "numberOfBytes": "32"
      },
      "t_contract(Scholarship)13655": {
        "encoding": "inplace",
        "label": "contract Scholarship",
        "numberOfBytes": "20"
      },
      "t_enum(State)15444": {
        "encoding": "inplace",
        "label": "enum ITournament.State",
        "numberOfBytes": "1"
      },
      "t_mapping(t_address,t_bool)": {
        "encoding": "mapping",
        "key": "t_address",
        "label": "mapping(address => bool)",
        "numberOfBytes": "32",
        "value": "t_bool"
      },
      "t_mapping(t_bytes32,t_mapping(t_address,t_bool))": {
        "encoding": "mapping",
        "key": "t_bytes32",
        "label": "mapping(bytes32 => mapping(address => bool))",
        "numberOfBytes": "32",
        "value": "t_mapping(t_address,t_bool)"
      },
      "t_mapping(t_uint256,t_mapping(t_uint256,t_uint32))": {
        "encoding": "mapping",
        "key": "t_uint256",
        "label": "mapping(uint256 => mapping(uint256 => uint32))",
        "numberOfBytes": "32",
        "value": "t_mapping(t_uint256,t_uint32)"
      },
      "t_mapping(t_uint256,t_uint32)": {
        "encoding": "mapping",
        "key": "t_uint256",
        "label": "mapping(uint256 => uint32)",
        "numberOfBytes": "32",
        "value": "t_uint32"
      },
      "t_struct(Game)15432_storage": {
        "encoding": "inplace",
        "label": "struct ITournament.Game",
        "members": [
          {
            "astId": 15403,
            "contract": "contracts/tournament/Tournament.sol:Tournament",
            "label": "registrationStartTimestamp",
            "offset": 0,
            "slot": "0",
            "type": "t_uint32"
          },
          {
            "astId": 15405,
            "contract": "contracts/tournament/Tournament.sol:Tournament",
            "label": "registrationEndTimestamp",
            "offset": 4,
            "slot": "0",
            "type": "t_uint32"
          },
          {
            "astId": 15407,
            "contract": "contracts/tournament/Tournament.sol:Tournament",
            "label": "tournamentStartTimestamp",
            "offset": 8,
            "slot": "0",
            "type": "t_uint32"
          },
          {
            "astId": 15409,
            "contract": "contracts/tournament/Tournament.sol:Tournament",
            "label": "tournamentEndTimestamp",
            "offset": 12,
            "slot": "0",
            "type": "t_uint32"
          },
          {
            "astId": 15411,
            "contract": "contracts/tournament/Tournament.sol:Tournament",
            "label": "minRoosters",
            "offset": 16,
            "slot": "0",
            "type": "t_uint32"
          },
          {
            "astId": 15413,
            "contract": "contracts/tournament/Tournament.sol:Tournament",
            "label": "maxRoosters",
            "offset": 20,
            "slot": "0",
            "type": "t_uint32"
          },
          {
            "astId": 15415,
            "contract": "contracts/tournament/Tournament.sol:Tournament",
            "label": "roosters",
            "offset": 24,
            "slot": "0",
            "type": "t_uint32"
          },
          {
            "astId": 15417,
            "contract": "contracts/tournament/Tournament.sol:Tournament",
            "label": "entranceFee",
            "offset": 0,
            "slot": "1",
            "type": "t_uint128"
          },
          {
            "astId": 15419,
            "contract": "contracts/tournament/Tournament.sol:Tournament",
            "label": "balance",
            "offset": 16,
            "slot": "1",
            "type": "t_uint128"
          },
          {
            "astId": 15421,
            "contract": "contracts/tournament/Tournament.sol:Tournament",
            "label": "rankingRoot",
            "offset": 0,
            "slot": "2",
            "type": "t_bytes32"
          },
          {
            "astId": 15424,
            "contract": "contracts/tournament/Tournament.sol:Tournament",
            "label": "distributions",
            "offset": 0,
            "slot": "3",
            "type": "t_array(t_uint16)dyn_storage"
          },
          {
            "astId": 15426,
            "contract": "contracts/tournament/Tournament.sol:Tournament",
            "label": "fee",
            "offset": 0,
            "slot": "4",
            "type": "t_uint16"
          },
          {
            "astId": 15428,
            "contract": "contracts/tournament/Tournament.sol:Tournament",
            "label": "requirementId",
            "offset": 2,
            "slot": "4",
            "type": "t_uint16"
          },
          {
            "astId": 15431,
            "contract": "contracts/tournament/Tournament.sol:Tournament",
            "label": "state",
            "offset": 4,
            "slot": "4",
            "type": "t_enum(State)15444"
          }
        ],
        "numberOfBytes": "160"
      },
      "t_uint128": {
        "encoding": "inplace",
        "label": "uint128",
        "numberOfBytes": "16"
      },
      "t_uint16": {
        "encoding": "inplace",
        "label": "uint16",
        "numberOfBytes": "2"
      },
      "t_uint256": {
        "encoding": "inplace",
        "label": "uint256",
        "numberOfBytes": "32"
      },
      "t_uint32": {
        "encoding": "inplace",
        "label": "uint32",
        "numberOfBytes": "4"
      }
    }
  }
}