{
  "address": "0xc6930018A1bdF3c01e31C12A7D0B48fdBDfc0b2D",
  "abi": [
    {
      "inputs": [
        {
          "internalType": "address",
          "name": "usdc_",
          "type": "address"
        },
        {
          "internalType": "address",
          "name": "rooster_",
          "type": "address"
        },
        {
          "internalType": "address",
          "name": "scholarship_",
          "type": "address"
        },
        {
          "internalType": "address",
          "name": "vault_",
          "type": "address"
        }
      ],
      "stateMutability": "nonpayable",
      "type": "constructor"
    },
    {
      "inputs": [],
      "name": "IsPaused",
      "type": "error"
    },
    {
      "inputs": [],
      "name": "NotPaused",
      "type": "error"
    },
    {
      "inputs": [
        {
          "internalType": "string",
          "name": "role",
          "type": "string"
        },
        {
          "internalType": "address",
          "name": "user",
          "type": "address"
        }
      ],
      "name": "Unauthorized",
      "type": "error"
    },
    {
      "anonymous": false,
      "inputs": [
        {
          "indexed": true,
          "internalType": "uint256",
          "name": "gameId",
          "type": "uint256"
        },
        {
          "indexed": false,
          "internalType": "uint256[]",
          "name": "roosterIds",
          "type": "uint256[]"
        },
        {
          "indexed": false,
          "internalType": "uint256",
          "name": "amount",
          "type": "uint256"
        },
        {
          "indexed": true,
          "internalType": "address",
          "name": "recipient",
          "type": "address"
        }
      ],
      "name": "ClaimRefund",
      "type": "event"
    },
    {
      "anonymous": false,
      "inputs": [
        {
          "indexed": true,
          "internalType": "uint256",
          "name": "gameId",
          "type": "uint256"
        },
        {
          "indexed": false,
          "internalType": "uint256[]",
          "name": "roosterIds",
          "type": "uint256[]"
        },
        {
          "indexed": false,
          "internalType": "uint256",
          "name": "amount",
          "type": "uint256"
        },
        {
          "indexed": true,
          "internalType": "address",
          "name": "recipient",
          "type": "address"
        }
      ],
      "name": "ClaimReward",
      "type": "event"
    },
    {
      "anonymous": false,
      "inputs": [
        {
          "indexed": true,
          "internalType": "uint256",
          "name": "gameId",
          "type": "uint256"
        },
        {
          "indexed": true,
          "internalType": "uint16",
          "name": "requirementId",
          "type": "uint16"
        },
        {
          "indexed": true,
          "internalType": "address",
          "name": "organzier",
          "type": "address"
        }
      ],
      "name": "CreateGame",
      "type": "event"
    },
    {
      "anonymous": false,
      "inputs": [
        {
          "indexed": true,
          "internalType": "address",
          "name": "previousOwner",
          "type": "address"
        },
        {
          "indexed": true,
          "internalType": "address",
          "name": "newOwner",
          "type": "address"
        }
      ],
      "name": "OwnerPulled",
      "type": "event"
    },
    {
      "anonymous": false,
      "inputs": [
        {
          "indexed": true,
          "internalType": "address",
          "name": "pushedOwner",
          "type": "address"
        }
      ],
      "name": "OwnerPushed",
      "type": "event"
    },
    {
      "anonymous": false,
      "inputs": [
        {
          "indexed": false,
          "internalType": "address",
          "name": "account",
          "type": "address"
        }
      ],
      "name": "Paused",
      "type": "event"
    },
    {
      "anonymous": false,
      "inputs": [
        {
          "indexed": true,
          "internalType": "uint256",
          "name": "gameId",
          "type": "uint256"
        },
        {
          "indexed": false,
          "internalType": "uint256[]",
          "name": "roosterIds",
          "type": "uint256[]"
        },
        {
          "indexed": true,
          "internalType": "address",
          "name": "sender",
          "type": "address"
        }
      ],
      "name": "RegisterGame",
      "type": "event"
    },
    {
      "anonymous": false,
      "inputs": [
        {
          "indexed": true,
          "internalType": "string",
          "name": "role",
          "type": "string"
        },
        {
          "indexed": true,
          "internalType": "address",
          "name": "account",
          "type": "address"
        },
        {
          "indexed": true,
          "internalType": "address",
          "name": "sender",
          "type": "address"
        }
      ],
      "name": "RoleGranted",
      "type": "event"
    },
    {
      "anonymous": false,
      "inputs": [
        {
          "indexed": true,
          "internalType": "string",
          "name": "role",
          "type": "string"
        },
        {
          "indexed": true,
          "internalType": "address",
          "name": "account",
          "type": "address"
        },
        {
          "indexed": true,
          "internalType": "address",
          "name": "sender",
          "type": "address"
        }
      ],
      "name": "RoleRevoked",
      "type": "event"
    },
    {
      "anonymous": false,
      "inputs": [
        {
          "indexed": true,
          "internalType": "uint256",
          "name": "gameId",
          "type": "uint256"
        },
        {
          "indexed": true,
          "internalType": "enum ITournament.Action",
          "name": "action",
          "type": "uint8"
        }
      ],
      "name": "SetGame",
      "type": "event"
    },
    {
      "anonymous": false,
      "inputs": [
        {
          "indexed": false,
          "internalType": "address",
          "name": "account",
          "type": "address"
        }
      ],
      "name": "Unpaused",
      "type": "event"
    },
    {
      "anonymous": false,
      "inputs": [
        {
          "indexed": true,
          "internalType": "uint256",
          "name": "gameId",
          "type": "uint256"
        },
        {
          "indexed": false,
          "internalType": "uint256",
          "name": "amount",
          "type": "uint256"
        }
      ],
      "name": "WithdrawExpiredRewards",
      "type": "event"
    },
    {
      "inputs": [
        {
          "internalType": "uint256",
          "name": "gameId",
          "type": "uint256"
        },
        {
          "internalType": "uint256[]",
          "name": "roosterIds",
          "type": "uint256[]"
        }
      ],
      "name": "batchQuery",
      "outputs": [
        {
          "internalType": "uint32[]",
          "name": "",
          "type": "uint32[]"
        }
      ],
      "stateMutability": "view",
      "type": "function"
    },
    {
      "inputs": [
        {
          "internalType": "uint256",
          "name": "gameId",
          "type": "uint256"
        },
        {
          "internalType": "uint256[]",
          "name": "roosterIds",
          "type": "uint256[]"
        },
        {
          "internalType": "address",
          "name": "recipient",
          "type": "address"
        }
      ],
      "name": "claimRefund",
      "outputs": [
        {
          "internalType": "uint256",
          "name": "amount",
          "type": "uint256"
        }
      ],
      "stateMutability": "nonpayable",
      "type": "function"
    },
    {
      "inputs": [
        {
          "internalType": "uint256",
          "name": "gameId",
          "type": "uint256"
        },
        {
          "internalType": "uint256[]",
          "name": "roosterIds",
          "type": "uint256[]"
        },
        {
          "internalType": "uint32[]",
          "name": "rankings",
          "type": "uint32[]"
        },
        {
          "internalType": "bytes32[][]",
          "name": "proofs",
          "type": "bytes32[][]"
        },
        {
          "internalType": "address",
          "name": "recipient",
          "type": "address"
        }
      ],
      "name": "claimReward",
      "outputs": [
        {
          "internalType": "uint256",
          "name": "amount",
          "type": "uint256"
        },
        {
          "internalType": "uint256",
          "name": "fee",
          "type": "uint256"
        }
      ],
      "stateMutability": "nonpayable",
      "type": "function"
    },
    {
      "inputs": [
        {
          "components": [
            {
              "internalType": "uint32",
              "name": "checkinStartTime",
              "type": "uint32"
            },
            {
              "internalType": "uint32",
              "name": "checkinEndTime",
              "type": "uint32"
            },
            {
              "internalType": "uint32",
              "name": "gameStartTime",
              "type": "uint32"
            },
            {
              "internalType": "uint32",
              "name": "gameEndTime",
              "type": "uint32"
            },
            {
              "internalType": "uint32",
              "name": "minRoosters",
              "type": "uint32"
            },
            {
              "internalType": "uint32",
              "name": "maxRoosters",
              "type": "uint32"
            },
            {
              "internalType": "uint32",
              "name": "roosters",
              "type": "uint32"
            },
            {
              "internalType": "uint128",
              "name": "entranceFee",
              "type": "uint128"
            },
            {
              "internalType": "uint128",
              "name": "balance",
              "type": "uint128"
            },
            {
              "internalType": "bytes32",
              "name": "rankingRoot",
              "type": "bytes32"
            },
            {
              "internalType": "uint16[]",
              "name": "distributions",
              "type": "uint16[]"
            },
            {
              "internalType": "uint16",
              "name": "fee",
              "type": "uint16"
            },
            {
              "internalType": "uint16",
              "name": "requirementId",
              "type": "uint16"
            },
            {
              "internalType": "enum ITournament.State",
              "name": "state",
              "type": "uint8"
            }
          ],
          "internalType": "struct ITournament.Game",
          "name": "game",
          "type": "tuple"
        }
      ],
      "name": "createGame",
      "outputs": [
        {
          "internalType": "uint256",
          "name": "gameId",
          "type": "uint256"
        }
      ],
      "stateMutability": "nonpayable",
      "type": "function"
    },
    {
      "inputs": [
        {
          "internalType": "uint256",
          "name": "",
          "type": "uint256"
        }
      ],
      "name": "games",
      "outputs": [
        {
          "internalType": "uint32",
          "name": "checkinStartTime",
          "type": "uint32"
        },
        {
          "internalType": "uint32",
          "name": "checkinEndTime",
          "type": "uint32"
        },
        {
          "internalType": "uint32",
          "name": "gameStartTime",
          "type": "uint32"
        },
        {
          "internalType": "uint32",
          "name": "gameEndTime",
          "type": "uint32"
        },
        {
          "internalType": "uint32",
          "name": "minRoosters",
          "type": "uint32"
        },
        {
          "internalType": "uint32",
          "name": "maxRoosters",
          "type": "uint32"
        },
        {
          "internalType": "uint32",
          "name": "roosters",
          "type": "uint32"
        },
        {
          "internalType": "uint128",
          "name": "entranceFee",
          "type": "uint128"
        },
        {
          "internalType": "uint128",
          "name": "balance",
          "type": "uint128"
        },
        {
          "internalType": "bytes32",
          "name": "rankingRoot",
          "type": "bytes32"
        },
        {
          "internalType": "uint16",
          "name": "fee",
          "type": "uint16"
        },
        {
          "internalType": "uint16",
          "name": "requirementId",
          "type": "uint16"
        },
        {
          "internalType": "enum ITournament.State",
          "name": "state",
          "type": "uint8"
        }
      ],
      "stateMutability": "view",
      "type": "function"
    },
    {
      "inputs": [
        {
          "internalType": "uint256",
          "name": "gameId",
          "type": "uint256"
        }
      ],
      "name": "getDistributionsSum",
      "outputs": [
        {
          "internalType": "uint32",
          "name": "sum",
          "type": "uint32"
        }
      ],
      "stateMutability": "view",
      "type": "function"
    },
    {
      "inputs": [
        {
          "internalType": "string",
          "name": "role",
          "type": "string"
        },
        {
          "internalType": "address",
          "name": "account",
          "type": "address"
        }
      ],
      "name": "grantRole",
      "outputs": [],
      "stateMutability": "nonpayable",
      "type": "function"
    },
    {
      "inputs": [
        {
          "internalType": "string",
          "name": "role",
          "type": "string"
        },
        {
          "internalType": "address",
          "name": "account",
          "type": "address"
        }
      ],
      "name": "hasRole",
      "outputs": [
        {
          "internalType": "bool",
          "name": "",
          "type": "bool"
        }
      ],
      "stateMutability": "view",
      "type": "function"
    },
    {
      "inputs": [],
      "name": "newOwner",
      "outputs": [
        {
          "internalType": "address",
          "name": "",
          "type": "address"
        }
      ],
      "stateMutability": "view",
      "type": "function"
    },
    {
      "inputs": [],
      "name": "owner",
      "outputs": [
        {
          "internalType": "address",
          "name": "",
          "type": "address"
        }
      ],
      "stateMutability": "view",
      "type": "function"
    },
    {
      "inputs": [],
      "name": "pause",
      "outputs": [],
      "stateMutability": "nonpayable",
      "type": "function"
    },
    {
      "inputs": [],
      "name": "paused",
      "outputs": [
        {
          "internalType": "bool",
          "name": "",
          "type": "bool"
        }
      ],
      "stateMutability": "view",
      "type": "function"
    },
    {
      "inputs": [],
      "name": "pullOwner",
      "outputs": [],
      "stateMutability": "nonpayable",
      "type": "function"
    },
    {
      "inputs": [
        {
          "internalType": "address",
          "name": "account",
          "type": "address"
        }
      ],
      "name": "pushOwner",
      "outputs": [],
      "stateMutability": "nonpayable",
      "type": "function"
    },
    {
      "inputs": [
        {
          "internalType": "uint256",
          "name": "gameId",
          "type": "uint256"
        },
        {
          "internalType": "uint256[]",
          "name": "roosterIds",
          "type": "uint256[]"
        },
        {
          "components": [
            {
              "internalType": "bytes32",
              "name": "r",
              "type": "bytes32"
            },
            {
              "internalType": "bytes32",
              "name": "s",
              "type": "bytes32"
            },
            {
              "internalType": "uint8",
              "name": "v",
              "type": "uint8"
            }
          ],
          "internalType": "struct ITournament.Sig",
          "name": "sig",
          "type": "tuple"
        }
      ],
      "name": "register",
      "outputs": [],
      "stateMutability": "nonpayable",
      "type": "function"
    },
    {
      "inputs": [
        {
          "internalType": "string",
          "name": "role",
          "type": "string"
        }
      ],
      "name": "renounceRole",
      "outputs": [],
      "stateMutability": "nonpayable",
      "type": "function"
    },
    {
      "inputs": [
        {
          "internalType": "string",
          "name": "role",
          "type": "string"
        },
        {
          "internalType": "address",
          "name": "account",
          "type": "address"
        }
      ],
      "name": "revokeRole",
      "outputs": [],
      "stateMutability": "nonpayable",
      "type": "function"
    },
    {
      "inputs": [],
      "name": "rooster",
      "outputs": [
        {
          "internalType": "contract IERC721",
          "name": "",
          "type": "address"
        }
      ],
      "stateMutability": "view",
      "type": "function"
    },
    {
      "inputs": [
        {
          "internalType": "uint256",
          "name": "",
          "type": "uint256"
        },
        {
          "internalType": "uint256",
          "name": "",
          "type": "uint256"
        }
      ],
      "name": "roosters",
      "outputs": [
        {
          "internalType": "uint32",
          "name": "",
          "type": "uint32"
        }
      ],
      "stateMutability": "view",
      "type": "function"
    },
    {
      "inputs": [],
      "name": "scholarship",
      "outputs": [
        {
          "internalType": "contract Scholarship",
          "name": "",
          "type": "address"
        }
      ],
      "stateMutability": "view",
      "type": "function"
    },
    {
      "inputs": [
        {
          "internalType": "enum ITournament.Action",
          "name": "action",
          "type": "uint8"
        },
        {
          "internalType": "uint256",
          "name": "gameId",
          "type": "uint256"
        },
        {
          "internalType": "bytes32",
          "name": "rankingRoot",
          "type": "bytes32"
        },
        {
          "internalType": "uint16[]",
          "name": "distributions",
          "type": "uint16[]"
        }
      ],
      "name": "setGame",
      "outputs": [],
      "stateMutability": "nonpayable",
      "type": "function"
    },
    {
      "inputs": [
        {
          "internalType": "address",
          "name": "vault_",
          "type": "address"
        },
        {
          "internalType": "address",
          "name": "scholarship_",
          "type": "address"
        }
      ],
      "name": "setProtocol",
      "outputs": [],
      "stateMutability": "nonpayable",
      "type": "function"
    },
    {
      "inputs": [],
      "name": "totalGames",
      "outputs": [
        {
          "internalType": "uint256",
          "name": "",
          "type": "uint256"
        }
      ],
      "stateMutability": "view",
      "type": "function"
    },
    {
      "inputs": [],
      "name": "unpause",
      "outputs": [],
      "stateMutability": "nonpayable",
      "type": "function"
    },
    {
      "inputs": [],
      "name": "usdc",
      "outputs": [
        {
          "internalType": "contract IERC20",
          "name": "",
          "type": "address"
        }
      ],
      "stateMutability": "view",
      "type": "function"
    },
    {
      "inputs": [],
      "name": "vault",
      "outputs": [
        {
          "internalType": "address",
          "name": "",
          "type": "address"
        }
      ],
      "stateMutability": "view",
      "type": "function"
    },
    {
      "inputs": [
        {
          "internalType": "uint256",
          "name": "gameId",
          "type": "uint256"
        }
      ],
      "name": "withdrawExpiredRewards",
      "outputs": [
        {
          "internalType": "uint256",
          "name": "amount",
          "type": "uint256"
        }
      ],
      "stateMutability": "nonpayable",
      "type": "function"
    }
  ],
  "transactionHash": "0x7cdc6da1b2f5ad2db513d2691a3640e564121b82de01a424543df992bded944e",
  "args": [
    "0xF54F493A2fE3D03bDB7474ddb5AA103eedE8A81C",
    "0xA66c49DBf7285c9f9C741Cf1a6c77E74a89C8048",
    "0x719Da3BC40A33b22D7639587c3Bb4DA914b21bB8",
    "0x18bF4D2Da2A03134834107F7cCF2cEA2d6bdbbCc"
  ],
  "numDeployments": 1,
  "solcInputHash": "4370bb061e14603816baabdb2c3b68ae",
  "bytecode": "0x60c06040523480156200001157600080fd5b5060405162004a7538038062004a758339810160408190526200003491620000cd565b600080546001600160a01b0319163390811782556040519091907faac18e3887f7d855b2483e20615f8e3fb6efc18e25502090082b47047fb57c73908290a36001600160a01b0393841660805291831660a052600480549184166001600160a01b0319928316179055600580549290931691161790556200012a565b80516001600160a01b0381168114620000c857600080fd5b919050565b60008060008060808587031215620000e457600080fd5b620000ef85620000b0565b9350620000ff60208601620000b0565b92506200010f60408601620000b0565b91506200011f60608601620000b0565b905092959194509250565b60805160a0516148fb6200017a6000396000818161020a015261312e015260008181610256015281816108ca01528181611c700152818161276c015281816127b80152612e6201526148fb6000f3fe608060405234801561001057600080fd5b50600436106101b95760003560e01c80638456cb59116100f9578063c3b4627e11610097578063d0ebe5f511610071578063d0ebe5f514610436578063d4ee1d9014610449578063db560f1614610469578063fbfa77cf1461047c57600080fd5b8063c3b4627e146103db578063cae32752146103ee578063cba119f21461041657600080fd5b80639c9d6e2e116100d35780639c9d6e2e14610382578063a753977514610395578063ac5a7d5c146103b5578063c19ae2ed146103c857600080fd5b80638456cb59146103475780638da5cb5b1461034f57806390e5bec81461036f57600080fd5b80634e3522bf116101665780636c9cd097116101405780636c9cd097146103065780636cef16e61461031957806370768f8614610321578063731f21a01461033457600080fd5b80634e3522bf1461029557806355cb0781146102db5780635c975abb146102ee57600080fd5b80633e413bee116101975780633e413bee146102515780633f4ba83a1461027857806343a390c31461028257600080fd5b8063117a5b90146101be5780632c4e591b146101f35780633d76ba9514610205575b600080fd5b6101d16101cc366004613a4a565b61049c565b6040516101ea9d9c9b9a99989796959493929190613acd565b60405180910390f35b6006545b6040519081526020016101ea565b61022c7f000000000000000000000000000000000000000000000000000000000000000081565b60405173ffffffffffffffffffffffffffffffffffffffff90911681526020016101ea565b61022c7f000000000000000000000000000000000000000000000000000000000000000081565b610280610592565b005b6101f7610290366004613a4a565b61068f565b6102c66102a3366004613b7f565b600760209081526000928352604080842090915290825290205463ffffffff1681565b60405163ffffffff90911681526020016101ea565b6101f76102e9366004613d39565b610934565b6102f6610f74565b60405190151581526020016101ea565b6102f6610314366004613f47565b610f8c565b610280610fda565b61028061032f366004613f99565b6110d5565b610280610342366004613f47565b611138565b610280611225565b60005461022c9073ffffffffffffffffffffffffffffffffffffffff1681565b61028061037d36600461401a565b611313565b6101f7610390366004614088565b611987565b60045461022c9073ffffffffffffffffffffffffffffffffffffffff1681565b6102806103c33660046140e7565b611d11565b6102806103d6366004613f47565b611ed7565b6102806103e9366004614104565b61201e565b6104016103fc366004614132565b612166565b604080519283526020830191909152016101ea565b6104296104243660046142d7565b612840565b6040516101ea9190614323565b61028061044436600461436d565b61291f565b60015461022c9073ffffffffffffffffffffffffffffffffffffffff1681565b6102c6610477366004613a4a565b612ee3565b60055461022c9073ffffffffffffffffffffffffffffffffffffffff1681565b600681815481106104ac57600080fd5b6000918252602090912060059091020180546001820154600283015460049093015463ffffffff80841695506401000000008085048216956801000000000000000086048316956c0100000000000000000000000081048416957001000000000000000000000000000000008083048616967401000000000000000000000000000000000000000084048716967801000000000000000000000000000000000000000000000000909404909316946fffffffffffffffffffffffffffffffff808416959290930490921692909161ffff808316926201000081049091169160ff9104168d565b6040518060400160405280600681526020017f50415553455200000000000000000000000000000000000000000000000000008152506105d28133610f8c565b6106155780336040517f09ab81ed00000000000000000000000000000000000000000000000000000000815260040161060c929190614468565b60405180910390fd5b61061d610f74565b610653576040517f6cd6020100000000000000000000000000000000000000000000000000000000815260040160405180910390fd5b60006002556040513381527f5db9ee0a495bf2e6ff9c91a7834c1ba4fdd244a5e8aa4e537bd38aeae4b073aa906020015b60405180910390a150565b60006040518060400160405280600781526020017f4d414e41474552000000000000000000000000000000000000000000000000008152506106d18133610f8c565b61070b5780336040517f09ab81ed00000000000000000000000000000000000000000000000000000000815260040161060c929190614468565b600060068481548110610720576107206144a0565b6000918252602090912060059091020180549091506107599062093a80906c01000000000000000000000000900463ffffffff166144fe565b4210156107a85760405162461bcd60e51b815260206004820152600b60248201527f4e6f742065787069726564000000000000000000000000000000000000000000604482015260640161060c565b60016004820154640100000000900460ff1660038111156107cb576107cb613a63565b146108185760405162461bcd60e51b815260206004820152600960248201527f4e6f7420656e6465640000000000000000000000000000000000000000000000604482015260640161060c565b600181015470010000000000000000000000000000000090046fffffffffffffffffffffffffffffffff169250826108925760405162461bcd60e51b815260206004820152601360248201527f4e6f7468696e6720746f20776974686472617700000000000000000000000000604482015260640161060c565b6001810180546fffffffffffffffffffffffffffffffff1690556005546108f39073ffffffffffffffffffffffffffffffffffffffff7f00000000000000000000000000000000000000000000000000000000000000008116911685612f76565b837fec3e09ac5180123230478a10d990cff7e788545bf19cf184c13b2ce9231c7e418460405161092591815260200190565b60405180910390a25050919050565b60006040518060400160405280600781526020017f4d414e41474552000000000000000000000000000000000000000000000000008152506109768133610f8c565b6109b05780336040517f09ab81ed00000000000000000000000000000000000000000000000000000000815260040161060c929190614468565b826020015163ffffffff16836000015163ffffffff1610610a135760405162461bcd60e51b815260206004820152601b60248201527f496e76616c696420636865636b696e2074696d652077696e646f770000000000604482015260640161060c565b42836000015163ffffffff161015610a6d5760405162461bcd60e51b815260206004820152601a60248201527f496e76616c696420636865636b696e2073746172742074696d65000000000000604482015260640161060c565b826060015163ffffffff16836040015163ffffffff1610610ad05760405162461bcd60e51b815260206004820152601860248201527f496e76616c69642067616d652074696d652077696e646f770000000000000000604482015260640161060c565b826020015163ffffffff16836040015163ffffffff1611610b335760405162461bcd60e51b815260206004820152601760248201527f496e76616c69642067616d652073746172742074696d65000000000000000000604482015260640161060c565b826101400151600081518110610b4b57610b4b6144a0565b602002602001015161ffff16600014610ba65760405162461bcd60e51b815260206004820152601360248201527f30746820696e646578206d757374206265203000000000000000000000000000604482015260640161060c565b61271083610160015161ffff161115610c015760405162461bcd60e51b815260206004820152600b60248201527f496e76616c696420666565000000000000000000000000000000000000000000604482015260640161060c565b600654600060c085018190529092506101a08401819052506000610120840181815260068054600181018255925284517ff652222313e28459528d920b65115c16c04f3efc82aaedc97be59f3f377c0d3f6005909302928301805460208089015160408a015160608b015160808c015160a08d015160c08e015163ffffffff998a167fffffffffffffffffffffffffffffffffffffffffffffffff000000000000000090981697909717640100000000958a1695909502949094177fffffffffffffffffffffffffffffffff0000000000000000ffffffffffffffff1668010000000000000000938916939093027fffffffffffffffffffffffffffffffff00000000ffffffffffffffffffffffff16929092176c0100000000000000000000000091881691909102177fffffffffffffffff0000000000000000ffffffffffffffffffffffffffffffff1670010000000000000000000000000000000091871682027fffffffffffffffff00000000ffffffffffffffffffffffffffffffffffffffff16177401000000000000000000000000000000000000000092871692909202919091177fffffffff00000000ffffffffffffffffffffffffffffffffffffffffffffffff167801000000000000000000000000000000000000000000000000959093169490940291909117825560e08801516101008901516fffffffffffffffffffffffffffffffff9182169116909302929092177ff652222313e28459528d920b65115c16c04f3efc82aaedc97be59f3f377c0d4085015591517ff652222313e28459528d920b65115c16c04f3efc82aaedc97be59f3f377c0d4184015561014086015180518794610e9e937ff652222313e28459528d920b65115c16c04f3efc82aaedc97be59f3f377c0d42909101920190613995565b5061016082015160048201805461018085015161ffff90811662010000027fffffffffffffffffffffffffffffffffffffffffffffffffffffffff00000000909216931692909217919091178082556101a084015191907fffffffffffffffffffffffffffffffffffffffffffffffffffffff00ffffffff16640100000000836003811115610f2f57610f2f613a63565b02179055505050610180830151604051339161ffff169084907f057c949bb55926c0a0c7f0bfefde238aa3f84a3a017bdde76aeb522fbe28083e90600090a450919050565b6000600254600114610f865750600090565b50600190565b600060036000610f9b8561304f565b81526020808201929092526040908101600090812073ffffffffffffffffffffffffffffffffffffffff8616825290925290205460ff16905092915050565b60015473ffffffffffffffffffffffffffffffffffffffff16331461106357604080517f09ab81ed0000000000000000000000000000000000000000000000000000000081526004810191909152600960448201527f4e45575f4f574e45520000000000000000000000000000000000000000000000606482015233602482015260840161060c565b60008054337fffffffffffffffffffffffff000000000000000000000000000000000000000082168117835560405173ffffffffffffffffffffffffffffffffffffffff90921692909183917faac18e3887f7d855b2483e20615f8e3fb6efc18e25502090082b47047fb57c7391a350565b6110df8133610f8c565b61112b5760405162461bcd60e51b815260206004820152601060248201527f526f6c65206e6f74206772616e74656400000000000000000000000000000000604482015260640161060c565b6111358133613060565b50565b60005473ffffffffffffffffffffffffffffffffffffffff1633146111c157604080517f09ab81ed0000000000000000000000000000000000000000000000000000000081526004810191909152600560448201527f4f574e4552000000000000000000000000000000000000000000000000000000606482015233602482015260840161060c565b6111cb8282610f8c565b6112175760405162461bcd60e51b815260206004820152601060248201527f526f6c65206e6f74206772616e74656400000000000000000000000000000000604482015260640161060c565b6112218282613060565b5050565b6040518060400160405280600681526020017f50415553455200000000000000000000000000000000000000000000000000008152506112658133610f8c565b61129f5780336040517f09ab81ed00000000000000000000000000000000000000000000000000000000815260040161060c929190614468565b6112a7610f74565b156112de576040517f1309a56300000000000000000000000000000000000000000000000000000000815260040160405180910390fd5b60016002556040513381527f62e78cea01bee320cd4e420270b5ea74000d11b0c9f74754ebdbfc544b05a25890602001610684565b6040518060400160405280600781526020017f4d414e41474552000000000000000000000000000000000000000000000000008152506113538133610f8c565b61138d5780336040517f09ab81ed00000000000000000000000000000000000000000000000000000000815260040161060c929190614468565b6000600686815481106113a2576113a26144a0565b60009182526020822060059091020191508760048111156113c5576113c5613a63565b14156114fc578054839063ffffffff1642106114235760405162461bcd60e51b815260206004820152600e60248201527f5369676e75702073746172746564000000000000000000000000000000000000604482015260640161060c565b600081116114735760405162461bcd60e51b815260206004820152601a60248201527f646973747275627574696f6e73206e6f742070726f7669646564000000000000604482015260640161060c565b60005b818110156114f55782600301868683818110611494576114946144a0565b90506020020160208101906114a99190614516565b81546001810183556000928352602090922060108304018054600f9093166002026101000a61ffff818102199094169290931692909202179055806114ed81614531565b915050611476565b5050611941565b600187600481111561151057611510613a63565b14156117085760006004820154640100000000900460ff16600381111561153957611539613a63565b146115865760405162461bcd60e51b815260206004820152600b60248201527f4e6f74206f6e676f696e67000000000000000000000000000000000000000000604482015260640161060c565b80546c01000000000000000000000000900463ffffffff164210156115ed5760405162461bcd60e51b815260206004820152600960248201527f4e6f7420656e6465640000000000000000000000000000000000000000000000604482015260640161060c565b8461163a5760405162461bcd60e51b815260206004820152601860248201527f72616e6b696e67526f6f74206e6f742070726f76696465640000000000000000604482015260640161060c565b805463ffffffff7001000000000000000000000000000000008204811678010000000000000000000000000000000000000000000000009092041610156116c35760405162461bcd60e51b815260206004820152601360248201527f4e6f7420656e6f75676820726f6f737465727300000000000000000000000000604482015260640161060c565b60028101859055600481018054600191907fffffffffffffffffffffffffffffffffffffffffffffffffffffff00ffffffff16640100000000835b0217905550611941565b600487600481111561171c5761171c613a63565b14156117ca5760006004820154640100000000900460ff16600381111561174557611745613a63565b146117925760405162461bcd60e51b815260206004820152600b60248201527f4e6f74206f6e676f696e67000000000000000000000000000000000000000000604482015260640161060c565b600481018054600391907fffffffffffffffffffffffffffffffffffffffffffffffffffffff00ffffffff16640100000000836116fe565b60028760048111156117de576117de613a63565b141561188c5760006004820154640100000000900460ff16600381111561180757611807613a63565b146118545760405162461bcd60e51b815260206004820152600b60248201527f4e6f74206f6e676f696e67000000000000000000000000000000000000000000604482015260640161060c565b600481018054600291907fffffffffffffffffffffffffffffffffffffffffffffffffffffff00ffffffff16640100000000836116fe565b60038760048111156118a0576118a0613a63565b14156119415760026004820154640100000000900460ff1660038111156118c9576118c9613a63565b146119165760405162461bcd60e51b815260206004820152600a60248201527f4e6f742070617573656400000000000000000000000000000000000000000000604482015260640161060c565b6004810180547fffffffffffffffffffffffffffffffffffffffffffffffffffffff00ffffffff1690555b86600481111561195357611953613a63565b60405187907fded99f1a8ca84d9e91ae9369ef5dab9758de46b4e8109da848ceda6ed4464e8590600090a350505050505050565b6000611991610f74565b156119c8576040517f1309a56300000000000000000000000000000000000000000000000000000000815260040160405180910390fd5b6000600686815481106119dd576119dd6144a0565b6000918252602090912060059091020190508360036004830154640100000000900460ff166003811115611a1357611a13613a63565b14611a605760405162461bcd60e51b815260206004820152600d60248201527f4e6f742063616e63656c6c656400000000000000000000000000000000000000604482015260640161060c565b611a6b338787613109565b611ab75760405162461bcd60e51b815260206004820152600960248201527f4e6f74206f776e65720000000000000000000000000000000000000000000000604482015260640161060c565b60005b81811015611bcb57600088815260076020526040812063ffffffff91898985818110611ae857611ae86144a0565b602090810292909201358352508101919091526040016000205463ffffffff1614611b555760405162461bcd60e51b815260206004820152600f60248201527f416c726561647920636c61696d65640000000000000000000000000000000000604482015260640161060c565b611b64600163ffffffff61456a565b600089815260076020526040812090898985818110611b8557611b856144a0565b90506020020135815260200190815260200160002060006101000a81548163ffffffff021916908363ffffffff1602179055508080611bc390614531565b915050611aba565b506001820154611bee9082906fffffffffffffffffffffffffffffffff1661458f565b9250611bf9836132fc565b600183018054601090611c3390849070010000000000000000000000000000000090046fffffffffffffffffffffffffffffffff166145cc565b92506101000a8154816fffffffffffffffffffffffffffffffff02191690836fffffffffffffffffffffffffffffffff160217905550611cb484847f000000000000000000000000000000000000000000000000000000000000000073ffffffffffffffffffffffffffffffffffffffff16612f769092919063ffffffff16565b8373ffffffffffffffffffffffffffffffffffffffff16877f5fcacaea1fd24459895ce71c81d7f698e8142ac0dff6a7ab1c226d2bd6dd97f6888887604051611cff93929190614644565b60405180910390a35050949350505050565b60005473ffffffffffffffffffffffffffffffffffffffff163314611d9a57604080517f09ab81ed0000000000000000000000000000000000000000000000000000000081526004810191909152600560448201527f4f574e4552000000000000000000000000000000000000000000000000000000606482015233602482015260840161060c565b73ffffffffffffffffffffffffffffffffffffffff8116611dfd5760405162461bcd60e51b815260206004820152600d60248201527f4e6f206164647265737328302900000000000000000000000000000000000000604482015260640161060c565b60005473ffffffffffffffffffffffffffffffffffffffff82811691161415611e685760405162461bcd60e51b815260206004820152600e60248201527f4f6e6c79206e6577206f776e6572000000000000000000000000000000000000604482015260640161060c565b600180547fffffffffffffffffffffffff00000000000000000000000000000000000000001673ffffffffffffffffffffffffffffffffffffffff83169081179091556040517fd52a054f85e9a057277cd95bf6d5da45465068f0467ec7991f3fcc017be6b72590600090a250565b60005473ffffffffffffffffffffffffffffffffffffffff163314611f6057604080517f09ab81ed0000000000000000000000000000000000000000000000000000000081526004810191909152600560448201527f4f574e4552000000000000000000000000000000000000000000000000000000606482015233602482015260840161060c565b6000825111611fb15760405162461bcd60e51b815260206004820152600e60248201527f526f6c65206e6f7420676976656e000000000000000000000000000000000000604482015260640161060c565b73ffffffffffffffffffffffffffffffffffffffff81166120145760405162461bcd60e51b815260206004820152600d60248201527f4e6f206164647265737328302900000000000000000000000000000000000000604482015260640161060c565b6112218282613388565b60005473ffffffffffffffffffffffffffffffffffffffff1633146120a757604080517f09ab81ed0000000000000000000000000000000000000000000000000000000081526004810191909152600560448201527f4f574e4552000000000000000000000000000000000000000000000000000000606482015233602482015260840161060c565b73ffffffffffffffffffffffffffffffffffffffff82161561210457600580547fffffffffffffffffffffffff00000000000000000000000000000000000000001673ffffffffffffffffffffffffffffffffffffffff84161790555b73ffffffffffffffffffffffffffffffffffffffff811615611221576004805473ffffffffffffffffffffffffffffffffffffffff83167fffffffffffffffffffffffff00000000000000000000000000000000000000009091161790555050565b600080612171610f74565b156121a8576040517f1309a56300000000000000000000000000000000000000000000000000000000815260040160405180910390fd5b600060068a815481106121bd576121bd6144a0565b60009182526020909120600590910201905087861461221e5760405162461bcd60e51b815260206004820152600f60248201527f4c656e677468206d69736d617463680000000000000000000000000000000000604482015260640161060c565b60016004820154640100000000900460ff16600381111561224157612241613a63565b1461228e5760405162461bcd60e51b815260206004820152600960248201527f4e6f7420656e6465640000000000000000000000000000000000000000000000604482015260640161060c565b80546122b49062093a80906c01000000000000000000000000900463ffffffff166144fe565b42106123025760405162461bcd60e51b815260206004820152600760248201527f4578706972656400000000000000000000000000000000000000000000000000604482015260640161060c565b61230d338a8a613109565b6123595760405162461bcd60e51b815260206004820152600960248201527f4e6f74206f776e65720000000000000000000000000000000000000000000000604482015260640161060c565b805460018201546000916123a291780100000000000000000000000000000000000000000000000090910463ffffffff16906fffffffffffffffffffffffffffffffff16614668565b6fffffffffffffffffffffffffffffffff16905060005b898110156126a45760008c8c8c848181106123d6576123d66144a0565b905060200201358b8b858181106123ef576123ef6144a0565b905060200201602081019061240491906146a0565b60405160200161244c93929190928352602083019190915260e01b7fffffffff0000000000000000000000000000000000000000000000000000000016604082015260440190565b60405160208183030381529060405280519060200120905061248c888381518110612479576124796144a0565b6020026020010151856002015483613442565b6124d85760405162461bcd60e51b815260206004820152600d60248201527f496e76616c69642070726f6f6600000000000000000000000000000000000000604482015260640161060c565b60008d815260076020526040812063ffffffff918e8e868181106124fe576124fe6144a0565b602090810292909201358352508101919091526040016000205463ffffffff16146125915760405162461bcd60e51b815260206004820152602160248201527f416c726561647920636c61696d6564206f72206e6f742072656769737465726560448201527f6400000000000000000000000000000000000000000000000000000000000000606482015260840161060c565b8989838181106125a3576125a36144a0565b90506020020160208101906125b891906146a0565b60008e8152600760205260408120908e8e868181106125d9576125d96144a0565b90506020020135815260200190815260200160002060006101000a81548163ffffffff021916908363ffffffff160217905550612710846003018b8b85818110612625576126256144a0565b905060200201602081019061263a91906146a0565b63ffffffff1681548110612650576126506144a0565b6000918252602090912060108204015461267a91600f166002026101000a900461ffff168561458f565b61268491906146bb565b61268e90876144fe565b955050808061269c90614531565b9150506123b9565b506126ae846132fc565b6001830180546010906126e890849070010000000000000000000000000000000090046fffffffffffffffffffffffffffffffff166145cc565b82546fffffffffffffffffffffffffffffffff9182166101009390930a92830291909202199091161790555060055460048301546127939173ffffffffffffffffffffffffffffffffffffffff1690612710906127499061ffff168861458f565b61275391906146bb565b945073ffffffffffffffffffffffffffffffffffffffff7f0000000000000000000000000000000000000000000000000000000000000000169085612f76565b6127df856127a185876146f6565b73ffffffffffffffffffffffffffffffffffffffff7f0000000000000000000000000000000000000000000000000000000000000000169190612f76565b8473ffffffffffffffffffffffffffffffffffffffff168b7ffdf9f5a42428bac06c94e56a8cf625dbda565529322c5ad85170e8a01f05773a8c8c8860405161282a93929190614644565b60405180910390a3505097509795505050505050565b606060008267ffffffffffffffff81111561285d5761285d613ba1565b604051908082528060200260200182016040528015612886578160200160208202803683370190505b50905060005b83811015612914576000868152600760205260408120908686848181106128b5576128b56144a0565b90506020020135815260200190815260200160002060009054906101000a900463ffffffff168282815181106128ed576128ed6144a0565b63ffffffff909216602092830291909101909101528061290c81614531565b91505061288c565b5090505b9392505050565b612927610f74565b1561295e576040517f1309a56300000000000000000000000000000000000000000000000000000000815260040160405180910390fd5b600060068581548110612973576129736144a0565b600091825260209091206005909102018054909150839063ffffffff164210156129df5760405162461bcd60e51b815260206004820152600b60248201527f4e6f742073746172746564000000000000000000000000000000000000000000604482015260640161060c565b8154640100000000900463ffffffff164210612a3d5760405162461bcd60e51b815260206004820152600560248201527f456e646564000000000000000000000000000000000000000000000000000000604482015260640161060c565b60006004830154640100000000900460ff166003811115612a6057612a60613a63565b14612aad5760405162461bcd60e51b815260206004820152601360248201527f506175736564206f722043616e63656c6c656400000000000000000000000000604482015260640161060c565b8154612af59063ffffffff780100000000000000000000000000000000000000000000000082048116917401000000000000000000000000000000000000000090041661456a565b63ffffffff16811115612b4a5760405162461bcd60e51b815260206004820152600d60248201527f52656163686564206c696d697400000000000000000000000000000000000000604482015260640161060c565b612b55338686613109565b612ba15760405162461bcd60e51b815260206004820152600960248201527f4e6f74206f776e65720000000000000000000000000000000000000000000000604482015260640161060c565b6004820154612bbe90879062010000900461ffff16878787613458565b612c0a5760405162461bcd60e51b815260206004820152600d60248201527f4e6f74207175616c696669656400000000000000000000000000000000000000604482015260640161060c565b60005b81811015612d0f57600087815260076020526040812090878784818110612c3657612c366144a0565b602090810292909201358352508101919091526040016000205463ffffffff1615612ca35760405162461bcd60e51b815260206004820152601260248201527f416c726561647920726567697374657265640000000000000000000000000000604482015260640161060c565b600087815260076020526040812063ffffffff91888885818110612cc957612cc96144a0565b90506020020135815260200190815260200160002060006101000a81548163ffffffff021916908363ffffffff1602179055508080612d0790614531565b915050612c0d565b50612d198161359d565b82548390601890612d4d9084907801000000000000000000000000000000000000000000000000900463ffffffff1661470d565b825463ffffffff9182166101009390930a9283029190920219909116179055506001820154612d9890612d939083906fffffffffffffffffffffffffffffffff1661458f565b6132fc565b600183018054601090612dd290849070010000000000000000000000000000000090046fffffffffffffffffffffffffffffffff16614735565b92506101000a8154816fffffffffffffffffffffffffffffffff02191690836fffffffffffffffffffffffffffffffff160217905550612e8a3330838560010160009054906101000a90046fffffffffffffffffffffffffffffffff166fffffffffffffffffffffffffffffffff16612e4b919061458f565b73ffffffffffffffffffffffffffffffffffffffff7f000000000000000000000000000000000000000000000000000000000000000016929190613619565b3373ffffffffffffffffffffffffffffffffffffffff16867fb27d176135db41e0d10f2aeed50c1a07e7086df2be3298b376b1a59997a5b81d8787604051612ed3929190614760565b60405180910390a3505050505050565b60008060068381548110612ef957612ef96144a0565b906000526020600020906005020190506000600190505b6003820154811015612f6f57816003018181548110612f3157612f316144a0565b60009182526020909120601082040154612f5b91600f166002026101000a900461ffff168461470d565b925080612f6781614531565b915050612f10565b5050919050565b60405173ffffffffffffffffffffffffffffffffffffffff831660248201526044810182905261304a9084907fa9059cbb00000000000000000000000000000000000000000000000000000000906064015b604080517fffffffffffffffffffffffffffffffffffffffffffffffffffffffffffffffe08184030181529190526020810180517bffffffffffffffffffffffffffffffffffffffffffffffffffffffff167fffffffff000000000000000000000000000000000000000000000000000000009093169290921790915261367d565b505050565b600061305a82614774565b92915050565b600061306b8361304f565b600081815260036020908152604080832073ffffffffffffffffffffffffffffffffffffffff871680855292529182902080547fffffffffffffffffffffffffffffffffffffffffffffffffffffffffffffff00169055905191925033916130d49086906147b9565b604051908190038120907ff3a2b91552b535c273a48d8b7453c8b0b287e20e51d74121eb50d975dbaa506d90600090a4505050565b6000805b828110156132f1578473ffffffffffffffffffffffffffffffffffffffff167f000000000000000000000000000000000000000000000000000000000000000073ffffffffffffffffffffffffffffffffffffffff16636352211e86868581811061317a5761317a6144a0565b905060200201356040518263ffffffff1660e01b815260040161319f91815260200190565b60206040518083038186803b1580156131b757600080fd5b505afa1580156131cb573d6000803e3d6000fd5b505050506040513d601f19601f820116820180604052508101906131ef91906147d5565b73ffffffffffffffffffffffffffffffffffffffff16141580156132d0575060045473ffffffffffffffffffffffffffffffffffffffff808716911663e336a108868685818110613242576132426144a0565b905060200201356040518263ffffffff1660e01b815260040161326791815260200190565b60206040518083038186803b15801561327f57600080fd5b505afa158015613293573d6000803e3d6000fd5b505050506040513d601f19601f820116820180604052508101906132b791906147d5565b73ffffffffffffffffffffffffffffffffffffffff1614155b156132df576000915050612918565b806132e981614531565b91505061310d565b506001949350505050565b60006fffffffffffffffffffffffffffffffff8211156133845760405162461bcd60e51b815260206004820152602760248201527f53616665436173743a2076616c756520646f65736e27742066697420696e203160448201527f3238206269747300000000000000000000000000000000000000000000000000606482015260840161060c565b5090565b6133928282610f8c565b6112215760006133a18361304f565b600081815260036020908152604080832073ffffffffffffffffffffffffffffffffffffffff871680855292529182902080547fffffffffffffffffffffffffffffffffffffffffffffffffffffffffffffff001660011790559051919250339161340d9086906147b9565b604051908190038120907fe0ca4f6d52d59033a91ab89e93c98f9acada14e0086d8b1038284f42e6d5325790600090a4505050565b60008261344f858461376f565b14949350505050565b6000808686868660405160200161347294939291906147f2565b6040516020818303038152906040528051906020012090506000816040516020016134c991907f19457468657265756d205369676e6564204d6573736167653a0a3332000000008152601c810191909152603c0190565b6040516020818303038152906040528051906020012090506135916040518060400160405280600681526020017f5349474e45520000000000000000000000000000000000000000000000000000815250600183876040016020810190613530919061486d565b604080516000815260208181018084529490945260ff909216908201528835606082015290880135608082015260a0016020604051602081039080840390855afa158015613582573d6000803e3d6000fd5b50505060206040510351610f8c565b98975050505050505050565b600063ffffffff8211156133845760405162461bcd60e51b815260206004820152602660248201527f53616665436173743a2076616c756520646f65736e27742066697420696e203360448201527f3220626974730000000000000000000000000000000000000000000000000000606482015260840161060c565b60405173ffffffffffffffffffffffffffffffffffffffff808516602483015283166044820152606481018290526136779085907f23b872dd0000000000000000000000000000000000000000000000000000000090608401612fc8565b50505050565b60006136df826040518060400160405280602081526020017f5361666545524332303a206c6f772d6c6576656c2063616c6c206661696c65648152508573ffffffffffffffffffffffffffffffffffffffff166137e39092919063ffffffff16565b80519091501561304a57808060200190518101906136fd9190614890565b61304a5760405162461bcd60e51b815260206004820152602a60248201527f5361666545524332303a204552433230206f7065726174696f6e20646964206e60448201527f6f74207375636365656400000000000000000000000000000000000000000000606482015260840161060c565b600081815b84518110156137db576000858281518110613791576137916144a0565b602002602001015190508083116137b757600083815260208290526040902092506137c8565b600081815260208490526040902092505b50806137d381614531565b915050613774565b509392505050565b60606137f284846000856137fa565b949350505050565b6060824710156138725760405162461bcd60e51b815260206004820152602660248201527f416464726573733a20696e73756666696369656e742062616c616e636520666f60448201527f722063616c6c0000000000000000000000000000000000000000000000000000606482015260840161060c565b73ffffffffffffffffffffffffffffffffffffffff85163b6138d65760405162461bcd60e51b815260206004820152601d60248201527f416464726573733a2063616c6c20746f206e6f6e2d636f6e7472616374000000604482015260640161060c565b6000808673ffffffffffffffffffffffffffffffffffffffff1685876040516138ff91906147b9565b60006040518083038185875af1925050503d806000811461393c576040519150601f19603f3d011682016040523d82523d6000602084013e613941565b606091505b509150915061395182828661395c565b979650505050505050565b6060831561396b575081612918565b82511561397b5782518084602001fd5b8160405162461bcd60e51b815260040161060c91906148b2565b82805482825590600052602060002090600f01601090048101928215613a2e5791602002820160005b838211156139fe57835183826101000a81548161ffff021916908361ffff16021790555092602001926002016020816001010492830192600103026139be565b8015613a2c5782816101000a81549061ffff02191690556002016020816001010492830192600103026139fe565b505b506133849291505b808211156133845760008155600101613a36565b600060208284031215613a5c57600080fd5b5035919050565b7f4e487b7100000000000000000000000000000000000000000000000000000000600052602160045260246000fd5b60048110613ac9577f4e487b7100000000000000000000000000000000000000000000000000000000600052602160045260246000fd5b9052565b63ffffffff8e811682528d811660208301528c811660408301528b811660608301528a8116608083015289811660a0830152881660c08201526101a081016fffffffffffffffffffffffffffffffff881660e08301526fffffffffffffffffffffffffffffffff871661010083015285610120830152613b5461014083018661ffff169052565b61ffff8416610160830152613b6d610180830184613a92565b9e9d5050505050505050505050505050565b60008060408385031215613b9257600080fd5b50508035926020909101359150565b7f4e487b7100000000000000000000000000000000000000000000000000000000600052604160045260246000fd5b6040516101c0810167ffffffffffffffff81118282101715613bf457613bf4613ba1565b60405290565b604051601f82017fffffffffffffffffffffffffffffffffffffffffffffffffffffffffffffffe016810167ffffffffffffffff81118282101715613c4157613c41613ba1565b604052919050565b803563ffffffff81168114613c5d57600080fd5b919050565b80356fffffffffffffffffffffffffffffffff81168114613c5d57600080fd5b600067ffffffffffffffff821115613c9c57613c9c613ba1565b5060051b60200190565b803561ffff81168114613c5d57600080fd5b600082601f830112613cc957600080fd5b81356020613cde613cd983613c82565b613bfa565b82815260059290921b84018101918181019086841115613cfd57600080fd5b8286015b84811015613d1f57613d1281613ca6565b8352918301918301613d01565b509695505050505050565b803560048110613c5d57600080fd5b600060208284031215613d4b57600080fd5b813567ffffffffffffffff80821115613d6357600080fd5b908301906101c08286031215613d7857600080fd5b613d80613bd0565b613d8983613c49565b8152613d9760208401613c49565b6020820152613da860408401613c49565b6040820152613db960608401613c49565b6060820152613dca60808401613c49565b6080820152613ddb60a08401613c49565b60a0820152613dec60c08401613c49565b60c0820152613dfd60e08401613c62565b60e0820152610100613e10818501613c62565b9082015261012083810135908201526101408084013583811115613e3357600080fd5b613e3f88828701613cb8565b8284015250506101609150613e55828401613ca6565b828201526101809150613e69828401613ca6565b828201526101a09150613e7d828401613d2a565b91810191909152949350505050565b600082601f830112613e9d57600080fd5b813567ffffffffffffffff811115613eb757613eb7613ba1565b613ee860207fffffffffffffffffffffffffffffffffffffffffffffffffffffffffffffffe0601f84011601613bfa565b818152846020838601011115613efd57600080fd5b816020850160208301376000918101602001919091529392505050565b73ffffffffffffffffffffffffffffffffffffffff8116811461113557600080fd5b8035613c5d81613f1a565b60008060408385031215613f5a57600080fd5b823567ffffffffffffffff811115613f7157600080fd5b613f7d85828601613e8c565b9250506020830135613f8e81613f1a565b809150509250929050565b600060208284031215613fab57600080fd5b813567ffffffffffffffff811115613fc257600080fd5b6137f284828501613e8c565b60008083601f840112613fe057600080fd5b50813567ffffffffffffffff811115613ff857600080fd5b6020830191508360208260051b850101111561401357600080fd5b9250929050565b60008060008060006080868803121561403257600080fd5b85356005811061404157600080fd5b94506020860135935060408601359250606086013567ffffffffffffffff81111561406b57600080fd5b61407788828901613fce565b969995985093965092949392505050565b6000806000806060858703121561409e57600080fd5b84359350602085013567ffffffffffffffff8111156140bc57600080fd5b6140c887828801613fce565b90945092505060408501356140dc81613f1a565b939692955090935050565b6000602082840312156140f957600080fd5b813561291881613f1a565b6000806040838503121561411757600080fd5b823561412281613f1a565b91506020830135613f8e81613f1a565b600080600080600080600060a0888a03121561414d57600080fd5b8735965067ffffffffffffffff6020890135111561416a57600080fd5b61417a8960208a01358a01613fce565b909650945067ffffffffffffffff6040890135111561419857600080fd5b6141a88960408a01358a01613fce565b909450925067ffffffffffffffff606089013511156141c657600080fd5b6060880135880189601f8201126141dc57600080fd5b6141e9613cd98235613c82565b81358082526020808301929160051b8401018c101561420757600080fd5b602083015b6020843560051b8501018110156142b75767ffffffffffffffff8135111561423357600080fd5b803584018d603f82011261424657600080fd5b614256613cd96020830135613c82565b80602083013582526020820191508f6040602085013560051b850101111561427d57600080fd5b604083015b6040602085013560051b8501018110156142a6578035835260209283019201614282565b50855250506020928301920161420c565b5093506142c991505060808901613f3c565b905092959891949750929550565b6000806000604084860312156142ec57600080fd5b83359250602084013567ffffffffffffffff81111561430a57600080fd5b61431686828701613fce565b9497909650939450505050565b6020808252825182820181905260009190848201906040850190845b8181101561436157835163ffffffff168352928401929184019160010161433f565b50909695505050505050565b60008060008084860360a081121561438457600080fd5b85359450602086013567ffffffffffffffff8111156143a257600080fd5b6143ae88828901613fce565b90955093505060607fffffffffffffffffffffffffffffffffffffffffffffffffffffffffffffffc0820112156143e457600080fd5b509295919450926040019150565b60005b8381101561440d5781810151838201526020016143f5565b838111156136775750506000910152565b600081518084526144368160208601602086016143f2565b601f017fffffffffffffffffffffffffffffffffffffffffffffffffffffffffffffffe0169290920160200192915050565b60408152600061447b604083018561441e565b905073ffffffffffffffffffffffffffffffffffffffff831660208301529392505050565b7f4e487b7100000000000000000000000000000000000000000000000000000000600052603260045260246000fd5b7f4e487b7100000000000000000000000000000000000000000000000000000000600052601160045260246000fd5b60008219821115614511576145116144cf565b500190565b60006020828403121561452857600080fd5b61291882613ca6565b60007fffffffffffffffffffffffffffffffffffffffffffffffffffffffffffffffff821415614563576145636144cf565b5060010190565b600063ffffffff83811690831681811015614587576145876144cf565b039392505050565b6000817fffffffffffffffffffffffffffffffffffffffffffffffffffffffffffffffff04831182151516156145c7576145c76144cf565b500290565b60006fffffffffffffffffffffffffffffffff83811690831681811015614587576145876144cf565b81835260007f07ffffffffffffffffffffffffffffffffffffffffffffffffffffffffffffff83111561462757600080fd5b8260051b8083602087013760009401602001938452509192915050565b6040815260006146586040830185876145f5565b9050826020830152949350505050565b60006fffffffffffffffffffffffffffffffff80831681851681830481118215151615614697576146976144cf565b02949350505050565b6000602082840312156146b257600080fd5b61291882613c49565b6000826146f1577f4e487b7100000000000000000000000000000000000000000000000000000000600052601260045260246000fd5b500490565b600082821015614708576147086144cf565b500390565b600063ffffffff80831681851680830382111561472c5761472c6144cf565b01949350505050565b60006fffffffffffffffffffffffffffffffff80831681851680830382111561472c5761472c6144cf565b6020815260006137f26020830184866145f5565b805160208083015191908110156147b3577fffffffffffffffffffffffffffffffffffffffffffffffffffffffffffffffff8160200360031b1b821691505b50919050565b600082516147cb8184602087016143f2565b9190910192915050565b6000602082840312156147e757600080fd5b815161291881613f1a565b8481527fffff0000000000000000000000000000000000000000000000000000000000008460f01b16602082015260007f07ffffffffffffffffffffffffffffffffffffffffffffffffffffffffffffff83111561484f57600080fd5b8260051b808560228501376000920160220191825250949350505050565b60006020828403121561487f57600080fd5b813560ff8116811461291857600080fd5b6000602082840312156148a257600080fd5b8151801515811461291857600080fd5b602081526000612918602083018461441e56fea2646970667358221220f9b519c28b3f28142f1fd8d494d26f9c305bbae08bcc5b03a6567c40c5be475964736f6c63430008090033",
  "devdoc": {
    "kind": "dev",
    "methods": {
      "batchQuery(uint256,uint256[])": {
        "params": {
          "gameId": "Game id",
          "roosterIds": "List of rooster ids"
        }
      },
      "claimRefund(uint256,uint256[],address)": {
        "params": {
          "gameId": "Game id",
          "recipient": "Recipient address",
          "roosterIds": "List of roosters registered"
        },
        "returns": {
          "amount": "Amount claimed"
        }
      },
      "claimReward(uint256,uint256[],uint32[],bytes32[][],address)": {
        "params": {
          "gameId": "Game id",
          "rankings": "List of rankings",
          "roosterIds": "List of rooster ids"
        }
      },
      "createGame((uint32,uint32,uint32,uint32,uint32,uint32,uint32,uint128,uint128,bytes32,uint16[],uint16,uint16,uint8))": {
        "params": {
          "game": "Game info"
        },
        "returns": {
          "gameId": "uint256"
        }
      },
      "getDistributionsSum(uint256)": {
        "params": {
          "gameId": "Game id"
        },
        "returns": {
          "sum": "uint32"
        }
      },
      "register(uint256,uint256[],(bytes32,bytes32,uint8))": {
        "params": {
          "gameId": "Game id",
          "roosterIds": "List of roosters to register",
          "sig": "Signature for tournament qualification"
        }
      },
      "setGame(uint8,uint256,bytes32,uint16[])": {
        "params": {
          "action": "Action enum",
          "distributions": "Distrubtion percentages to add.",
          "gameId": "Game id",
          "rankingRoot": "Merkle root of ranking"
        }
      },
      "setProtocol(address,address)": {
        "params": {
          "scholarship_": "Scholarship contract address",
          "vault_": "Vault address"
        }
      },
      "totalGames()": {
        "returns": {
          "_0": "uint256"
        }
      }
    },
    "version": 1
  },
  "userdoc": {
    "kind": "user",
    "methods": {
      "batchQuery(uint256,uint256[])": {
        "notice": "Queries state of roosters in batch"
      },
      "claimRefund(uint256,uint256[],address)": {
        "notice": "Claims refund from cancelled tournament"
      },
      "claimReward(uint256,uint256[],uint32[],bytes32[][],address)": {
        "notice": "Claims reward from tournament prize pool"
      },
      "createGame((uint32,uint32,uint32,uint32,uint32,uint32,uint32,uint128,uint128,bytes32,uint16[],uint16,uint16,uint8))": {
        "notice": "Creates new game"
      },
      "getDistributionsSum(uint256)": {
        "notice": "Gets sum of distribution percentages"
      },
      "register(uint256,uint256[],(bytes32,bytes32,uint8))": {
        "notice": "Registers for the tournament game"
      },
      "setGame(uint8,uint256,bytes32,uint16[])": {
        "notice": "Sets state of game"
      },
      "setProtocol(address,address)": {
        "notice": "Sets addresses"
      },
      "totalGames()": {
        "notice": "Returns total `games` created"
      }
    },
    "version": 1
  },
  "storageLayout": {
    "storage": [
      {
        "astId": 16937,
        "contract": "contracts/tournament/Tournament.sol:Tournament",
        "label": "owner",
        "offset": 0,
        "slot": "0",
        "type": "t_address"
      },
      {
        "astId": 16939,
        "contract": "contracts/tournament/Tournament.sol:Tournament",
        "label": "newOwner",
        "offset": 0,
        "slot": "1",
        "type": "t_address"
      },
      {
        "astId": 16941,
        "contract": "contracts/tournament/Tournament.sol:Tournament",
        "label": "_paused",
        "offset": 0,
        "slot": "2",
        "type": "t_uint256"
      },
      {
        "astId": 16947,
        "contract": "contracts/tournament/Tournament.sol:Tournament",
        "label": "_roles",
        "offset": 0,
        "slot": "3",
        "type": "t_mapping(t_bytes32,t_mapping(t_address,t_bool))"
      },
      {
        "astId": 15557,
        "contract": "contracts/tournament/Tournament.sol:Tournament",
        "label": "scholarship",
        "offset": 0,
        "slot": "4",
        "type": "t_contract(Scholarship)13655"
      },
      {
        "astId": 15559,
        "contract": "contracts/tournament/Tournament.sol:Tournament",
        "label": "vault",
        "offset": 0,
        "slot": "5",
        "type": "t_address"
      },
      {
        "astId": 15563,
        "contract": "contracts/tournament/Tournament.sol:Tournament",
        "label": "games",
        "offset": 0,
        "slot": "6",
        "type": "t_array(t_struct(Game)15432_storage)dyn_storage"
      },
      {
        "astId": 15569,
        "contract": "contracts/tournament/Tournament.sol:Tournament",
        "label": "roosters",
        "offset": 0,
        "slot": "7",
        "type": "t_mapping(t_uint256,t_mapping(t_uint256,t_uint32))"
      }
    ],
    "types": {
      "t_address": {
        "encoding": "inplace",
        "label": "address",
        "numberOfBytes": "20"
      },
      "t_array(t_struct(Game)15432_storage)dyn_storage": {
        "base": "t_struct(Game)15432_storage",
        "encoding": "dynamic_array",
        "label": "struct ITournament.Game[]",
        "numberOfBytes": "32"
      },
      "t_array(t_uint16)dyn_storage": {
        "base": "t_uint16",
        "encoding": "dynamic_array",
        "label": "uint16[]",
        "numberOfBytes": "32"
      },
      "t_bool": {
        "encoding": "inplace",
        "label": "bool",
        "numberOfBytes": "1"
      },
      "t_bytes32": {
        "encoding": "inplace",
        "label": "bytes32",
        "numberOfBytes": "32"
      },
      "t_contract(Scholarship)13655": {
        "encoding": "inplace",
        "label": "contract Scholarship",
        "numberOfBytes": "20"
      },
      "t_enum(State)15444": {
        "encoding": "inplace",
        "label": "enum ITournament.State",
        "numberOfBytes": "1"
      },
      "t_mapping(t_address,t_bool)": {
        "encoding": "mapping",
        "key": "t_address",
        "label": "mapping(address => bool)",
        "numberOfBytes": "32",
        "value": "t_bool"
      },
      "t_mapping(t_bytes32,t_mapping(t_address,t_bool))": {
        "encoding": "mapping",
        "key": "t_bytes32",
        "label": "mapping(bytes32 => mapping(address => bool))",
        "numberOfBytes": "32",
        "value": "t_mapping(t_address,t_bool)"
      },
      "t_mapping(t_uint256,t_mapping(t_uint256,t_uint32))": {
        "encoding": "mapping",
        "key": "t_uint256",
        "label": "mapping(uint256 => mapping(uint256 => uint32))",
        "numberOfBytes": "32",
        "value": "t_mapping(t_uint256,t_uint32)"
      },
      "t_mapping(t_uint256,t_uint32)": {
        "encoding": "mapping",
        "key": "t_uint256",
        "label": "mapping(uint256 => uint32)",
        "numberOfBytes": "32",
        "value": "t_uint32"
      },
      "t_struct(Game)15432_storage": {
        "encoding": "inplace",
        "label": "struct ITournament.Game",
        "members": [
          {
            "astId": 15403,
            "contract": "contracts/tournament/Tournament.sol:Tournament",
            "label": "checkinStartTime",
            "offset": 0,
            "slot": "0",
            "type": "t_uint32"
          },
          {
            "astId": 15405,
            "contract": "contracts/tournament/Tournament.sol:Tournament",
            "label": "checkinEndTime",
            "offset": 4,
            "slot": "0",
            "type": "t_uint32"
          },
          {
            "astId": 15407,
            "contract": "contracts/tournament/Tournament.sol:Tournament",
            "label": "gameStartTime",
            "offset": 8,
            "slot": "0",
            "type": "t_uint32"
          },
          {
            "astId": 15409,
            "contract": "contracts/tournament/Tournament.sol:Tournament",
            "label": "gameEndTime",
            "offset": 12,
            "slot": "0",
            "type": "t_uint32"
          },
          {
            "astId": 15411,
            "contract": "contracts/tournament/Tournament.sol:Tournament",
            "label": "minRoosters",
            "offset": 16,
            "slot": "0",
            "type": "t_uint32"
          },
          {
            "astId": 15413,
            "contract": "contracts/tournament/Tournament.sol:Tournament",
            "label": "maxRoosters",
            "offset": 20,
            "slot": "0",
            "type": "t_uint32"
          },
          {
            "astId": 15415,
            "contract": "contracts/tournament/Tournament.sol:Tournament",
            "label": "roosters",
            "offset": 24,
            "slot": "0",
            "type": "t_uint32"
          },
          {
            "astId": 15417,
            "contract": "contracts/tournament/Tournament.sol:Tournament",
            "label": "entranceFee",
            "offset": 0,
            "slot": "1",
            "type": "t_uint128"
          },
          {
            "astId": 15419,
            "contract": "contracts/tournament/Tournament.sol:Tournament",
            "label": "balance",
            "offset": 16,
            "slot": "1",
            "type": "t_uint128"
          },
          {
            "astId": 15421,
            "contract": "contracts/tournament/Tournament.sol:Tournament",
            "label": "rankingRoot",
            "offset": 0,
            "slot": "2",
            "type": "t_bytes32"
          },
          {
            "astId": 15424,
            "contract": "contracts/tournament/Tournament.sol:Tournament",
            "label": "distributions",
            "offset": 0,
            "slot": "3",
            "type": "t_array(t_uint16)dyn_storage"
          },
          {
            "astId": 15426,
            "contract": "contracts/tournament/Tournament.sol:Tournament",
            "label": "fee",
            "offset": 0,
            "slot": "4",
            "type": "t_uint16"
          },
          {
            "astId": 15428,
            "contract": "contracts/tournament/Tournament.sol:Tournament",
            "label": "requirementId",
            "offset": 2,
            "slot": "4",
            "type": "t_uint16"
          },
          {
            "astId": 15431,
            "contract": "contracts/tournament/Tournament.sol:Tournament",
            "label": "state",
            "offset": 4,
            "slot": "4",
            "type": "t_enum(State)15444"
          }
        ],
        "numberOfBytes": "160"
      },
      "t_uint128": {
        "encoding": "inplace",
        "label": "uint128",
        "numberOfBytes": "16"
      },
      "t_uint16": {
        "encoding": "inplace",
        "label": "uint16",
        "numberOfBytes": "2"
      },
      "t_uint256": {
        "encoding": "inplace",
        "label": "uint256",
        "numberOfBytes": "32"
      },
      "t_uint32": {
        "encoding": "inplace",
        "label": "uint32",
        "numberOfBytes": "4"
      }
    }
  }
}