{
  "address": "0x4DA070c8d44530E35b0e7cD3aE71897974396765",
  "abi": [
    {
      "inputs": [
        {
          "internalType": "address",
          "name": "_signer",
          "type": "address"
        }
      ],
      "stateMutability": "nonpayable",
      "type": "constructor"
    },
    {
      "anonymous": false,
      "inputs": [
        {
          "indexed": true,
          "internalType": "uint256",
          "name": "nonce",
          "type": "uint256"
        },
        {
          "indexed": true,
          "internalType": "address",
          "name": "target",
          "type": "address"
        },
        {
          "indexed": false,
          "internalType": "uint256",
          "name": "amount",
          "type": "uint256"
        }
      ],
      "name": "Claimed",
      "type": "event"
    },
    {
      "anonymous": false,
      "inputs": [
        {
          "indexed": true,
          "internalType": "address",
          "name": "previousOwner",
          "type": "address"
        },
        {
          "indexed": true,
          "internalType": "address",
          "name": "newOwner",
          "type": "address"
        }
      ],
      "name": "OwnershipTransferred",
      "type": "event"
    },
    {
      "anonymous": false,
      "inputs": [
        {
          "indexed": true,
          "internalType": "address",
          "name": "signer",
          "type": "address"
        }
      ],
      "name": "UpdateSigner",
      "type": "event"
    },
    {
      "inputs": [],
      "name": "_token",
      "outputs": [
        {
          "internalType": "address",
          "name": "",
          "type": "address"
        }
      ],
      "stateMutability": "view",
      "type": "function"
    },
    {
      "inputs": [
        {
          "internalType": "uint256",
          "name": "",
          "type": "uint256"
        }
      ],
      "name": "burned",
      "outputs": [
        {
          "internalType": "bool",
          "name": "",
          "type": "bool"
        }
      ],
      "stateMutability": "view",
      "type": "function"
    },
    {
      "inputs": [
        {
          "components": [
            {
              "internalType": "uint256",
              "name": "nonce",
              "type": "uint256"
            },
            {
              "internalType": "address",
              "name": "target",
              "type": "address"
            },
            {
              "internalType": "uint256",
              "name": "amount",
              "type": "uint256"
            },
            {
              "components": [
                {
                  "internalType": "bytes32",
                  "name": "r",
                  "type": "bytes32"
                },
                {
                  "internalType": "bytes32",
                  "name": "s",
                  "type": "bytes32"
                },
                {
                  "internalType": "uint8",
                  "name": "v",
                  "type": "uint8"
                }
              ],
              "internalType": "struct GRP.Sig",
              "name": "signature",
              "type": "tuple"
            }
          ],
          "internalType": "struct GRP.Claim",
          "name": "claimData",
          "type": "tuple"
        }
      ],
      "name": "claim",
      "outputs": [],
      "stateMutability": "nonpayable",
      "type": "function"
    },
    {
      "inputs": [],
      "name": "owner",
      "outputs": [
        {
          "internalType": "address",
          "name": "",
          "type": "address"
        }
      ],
      "stateMutability": "view",
      "type": "function"
    },
    {
      "inputs": [],
      "name": "renounceOwnership",
      "outputs": [],
      "stateMutability": "nonpayable",
      "type": "function"
    },
    {
      "inputs": [],
      "name": "reserves",
      "outputs": [
        {
          "internalType": "uint256",
          "name": "",
          "type": "uint256"
        }
      ],
      "stateMutability": "view",
      "type": "function"
    },
    {
      "inputs": [
        {
          "internalType": "address",
          "name": "newSigner",
          "type": "address"
        }
      ],
      "name": "setSigner",
      "outputs": [],
      "stateMutability": "nonpayable",
      "type": "function"
    },
    {
      "inputs": [
        {
          "internalType": "address",
          "name": "addr",
          "type": "address"
        }
      ],
      "name": "setTokenAddr",
      "outputs": [],
      "stateMutability": "nonpayable",
      "type": "function"
    },
    {
      "inputs": [],
      "name": "signer",
      "outputs": [
        {
          "internalType": "address",
          "name": "",
          "type": "address"
        }
      ],
      "stateMutability": "view",
      "type": "function"
    },
    {
      "inputs": [],
      "name": "tokenAddr",
      "outputs": [
        {
          "internalType": "address",
          "name": "",
          "type": "address"
        }
      ],
      "stateMutability": "view",
      "type": "function"
    },
    {
      "inputs": [
        {
          "internalType": "address",
          "name": "newOwner",
          "type": "address"
        }
      ],
      "name": "transferOwnership",
      "outputs": [],
      "stateMutability": "nonpayable",
      "type": "function"
    },
    {
      "inputs": [
        {
          "components": [
            {
              "internalType": "uint256",
              "name": "nonce",
              "type": "uint256"
            },
            {
              "internalType": "address",
              "name": "target",
              "type": "address"
            },
            {
              "internalType": "uint256",
              "name": "amount",
              "type": "uint256"
            },
            {
              "components": [
                {
                  "internalType": "bytes32",
                  "name": "r",
                  "type": "bytes32"
                },
                {
                  "internalType": "bytes32",
                  "name": "s",
                  "type": "bytes32"
                },
                {
                  "internalType": "uint8",
                  "name": "v",
                  "type": "uint8"
                }
              ],
              "internalType": "struct GRP.Sig",
              "name": "signature",
              "type": "tuple"
            }
          ],
          "internalType": "struct GRP.Claim",
          "name": "claimData",
          "type": "tuple"
        }
      ],
      "name": "validateClaim",
      "outputs": [
        {
          "internalType": "bool",
          "name": "",
          "type": "bool"
        }
      ],
      "stateMutability": "view",
      "type": "function"
    }
  ],
  "transactionHash": "0x953f59fd98d1f054eeb23d799058dcbd3a36ac9d8e5cc1862e1f1cbe967feb19",
  "args": [
    "0xf5CA36c9873d61Bc28C117BD470981Ef6647A685"
  ],
  "numDeployments": 1,
  "solcInputHash": "61c20db86f383acbf281885c4f75de62",
  "bytecode": "0x608060405234801561001057600080fd5b50604051610d46380380610d4683398101604081905261002f9161013f565b61003833610047565b61004181610097565b5061016f565b600080546001600160a01b038381166001600160a01b0319831681178455604051919092169283917f8be0079c531659141344cd1fd0a4f28419497f9722a3daafe3b4186f6b6457e09190a35050565b6000546001600160a01b031633146100f55760405162461bcd60e51b815260206004820181905260248201527f4f776e61626c653a2063616c6c6572206973206e6f7420746865206f776e6572604482015260640160405180910390fd5b600380546001600160a01b0319166001600160a01b0383169081179091556040517fc58fcf255cfb5f40bd578a618869378f650ef76609640fa0818a31e0c6e7102a90600090a250565b60006020828403121561015157600080fd5b81516001600160a01b038116811461016857600080fd5b9392505050565b610bc88061017e6000396000f3fe608060405234801561001057600080fd5b50600436106100b45760003560e01c8063715018a611610071578063715018a61461016857806375172a8b1461017057806386179868146101865780638da5cb5b14610199578063ecd0c0c3146101aa578063f2fde38b146101bd57600080fd5b806323250cae146100b9578063238ac933146100f157806328b0eb001461011c5780632ebd1e281461012f5780635fbe4d1d146101445780636c19e78314610155575b600080fd5b6100dc6100c7366004610a26565b60026020526000908152604090205460ff1681565b60405190151581526020015b60405180910390f35b600354610104906001600160a01b031681565b6040516001600160a01b0390911681526020016100e8565b6100dc61012a366004610a3f565b6101d0565b61014261013d366004610a57565b6102ee565b005b6001546001600160a01b0316610104565b610142610163366004610a57565b610388565b6101426103fc565b610178610432565b6040519081526020016100e8565b610142610194366004610a3f565b6104b6565b6000546001600160a01b0316610104565b600154610104906001600160a01b031681565b6101426101cb366004610a57565b6105af565b60008082604001351161021c5760405162461bcd60e51b815260206004820152600f60248201526e063616e6e6f7420636c61696d203c3608c1b60448201526064015b60405180910390fd5b813560009081526002602052604090205460ff16156102745760405162461bcd60e51b815260206004820152601460248201527318db185a5b48185b1c9958591e48189d5c9b995960621b6044820152606401610213565b600082356102886040850160208601610a57565b84604001356040516020016102c29392919092835260609190911b6bffffffffffffffffffffffff19166020830152603482015260540190565b6040516020818303038152906040528051906020012090506102e7836060018261064a565b9392505050565b6000546001600160a01b031633146103185760405162461bcd60e51b815260040161021390610a80565b6001546001600160a01b0316156103665760405162461bcd60e51b81526020600482015260126024820152710746f6b656e206164647265737320697320360741b6044820152606401610213565b600180546001600160a01b0319166001600160a01b0392909216919091179055565b6000546001600160a01b031633146103b25760405162461bcd60e51b815260040161021390610a80565b600380546001600160a01b0319166001600160a01b0383169081179091556040517fc58fcf255cfb5f40bd578a618869378f650ef76609640fa0818a31e0c6e7102a90600090a250565b6000546001600160a01b031633146104265760405162461bcd60e51b815260040161021390610a80565b610430600061072c565b565b6001546040516370a0823160e01b81523060048201526000916001600160a01b03169081906370a082319060240160206040518083038186803b15801561047857600080fd5b505afa15801561048c573d6000803e3d6000fd5b505050506040513d601f19601f820116820180604052508101906104b09190610ab5565b91505090565b6104bf816101d0565b6104ff5760405162461bcd60e51b8152602060048201526011602482015270696e76616c6964207369676e617475726560781b6044820152606401610213565b6001546001600160a01b031661053361051e6040840160208501610a57565b6001600160a01b03831690604085013561077c565b8135600090815260026020908152604091829020805460ff19166001179055610560918401908401610a57565b6001600160a01b031682600001357f4ec90e965519d92681267467f775ada5bd214aa92c0dc93d90a5e880ce9ed02684604001356040516105a391815260200190565b60405180910390a35050565b6000546001600160a01b031633146105d95760405162461bcd60e51b815260040161021390610a80565b6001600160a01b03811661063e5760405162461bcd60e51b815260206004820152602660248201527f4f776e61626c653a206e6577206f776e657220697320746865207a65726f206160448201526564647265737360d01b6064820152608401610213565b6106478161072c565b50565b604080517f19457468657265756d205369676e6564204d6573736167653a0a333200000000602080830191909152603c80830185905283518084039091018152605c909201835281519101206003546000926001600160a01b039091169060019083906106bd9060608901908901610ace565b604080516000815260208181018084529490945260ff909216908201528735606082015290870135608082015260a0016020604051602081039080840390855afa15801561070f573d6000803e3d6000fd5b505050602060405103516001600160a01b03161491505092915050565b600080546001600160a01b038381166001600160a01b0319831681178455604051919092169283917f8be0079c531659141344cd1fd0a4f28419497f9722a3daafe3b4186f6b6457e09190a35050565b604080516001600160a01b038416602482015260448082018490528251808303909101815260649091019091526020810180516001600160e01b031663a9059cbb60e01b1790526107ce9084906107d3565b505050565b6000610828826040518060400160405280602081526020017f5361666545524332303a206c6f772d6c6576656c2063616c6c206661696c6564815250856001600160a01b03166108a59092919063ffffffff16565b8051909150156107ce57808060200190518101906108469190610af1565b6107ce5760405162461bcd60e51b815260206004820152602a60248201527f5361666545524332303a204552433230206f7065726174696f6e20646964206e6044820152691bdd081cdd58d8d9595960b21b6064820152608401610213565b60606108b484846000856108bc565b949350505050565b60608247101561091d5760405162461bcd60e51b815260206004820152602660248201527f416464726573733a20696e73756666696369656e742062616c616e636520666f6044820152651c8818d85b1b60d21b6064820152608401610213565b6001600160a01b0385163b6109745760405162461bcd60e51b815260206004820152601d60248201527f416464726573733a2063616c6c20746f206e6f6e2d636f6e74726163740000006044820152606401610213565b600080866001600160a01b031685876040516109909190610b43565b60006040518083038185875af1925050503d80600081146109cd576040519150601f19603f3d011682016040523d82523d6000602084013e6109d2565b606091505b50915091506109e28282866109ed565b979650505050505050565b606083156109fc5750816102e7565b825115610a0c5782518084602001fd5b8160405162461bcd60e51b81526004016102139190610b5f565b600060208284031215610a3857600080fd5b5035919050565b600060c08284031215610a5157600080fd5b50919050565b600060208284031215610a6957600080fd5b81356001600160a01b03811681146102e757600080fd5b6020808252818101527f4f776e61626c653a2063616c6c6572206973206e6f7420746865206f776e6572604082015260600190565b600060208284031215610ac757600080fd5b5051919050565b600060208284031215610ae057600080fd5b813560ff811681146102e757600080fd5b600060208284031215610b0357600080fd5b815180151581146102e757600080fd5b60005b83811015610b2e578181015183820152602001610b16565b83811115610b3d576000848401525b50505050565b60008251610b55818460208701610b13565b9190910192915050565b6020815260008251806020840152610b7e816040850160208701610b13565b601f01601f1916919091016040019291505056fea2646970667358221220cbe3a56b1a5e6f4f34eaee452c3438ef1906d843c7cddb61d750b834f27a602864736f6c63430008090033",
  "devdoc": {
    "kind": "dev",
    "methods": {
      "owner()": {
        "details": "Returns the address of the current owner."
      },
      "renounceOwnership()": {
        "details": "Leaves the contract without owner. It will not be possible to call `onlyOwner` functions anymore. Can only be called by the current owner. NOTE: Renouncing ownership will leave the contract without an owner, thereby removing any functionality that is only available to the owner."
      },
      "transferOwnership(address)": {
        "details": "Transfers ownership of the contract to a new account (`newOwner`). Can only be called by the current owner."
      }
    },
    "version": 1
  },
  "userdoc": {
    "kind": "user",
    "methods": {},
    "version": 1
  },
  "storageLayout": {
    "storage": [
      {
        "astId": 249,
        "contract": "contracts/gwit/grp.sol:GRP",
        "label": "_owner",
        "offset": 0,
        "slot": "0",
        "type": "t_address"
      },
      {
        "astId": 13121,
        "contract": "contracts/gwit/grp.sol:GRP",
        "label": "_token",
        "offset": 0,
        "slot": "1",
        "type": "t_address"
      },
      {
        "astId": 13125,
        "contract": "contracts/gwit/grp.sol:GRP",
        "label": "burned",
        "offset": 0,
        "slot": "2",
        "type": "t_mapping(t_uint256,t_bool)"
      },
      {
        "astId": 13149,
        "contract": "contracts/gwit/grp.sol:GRP",
        "label": "signer",
        "offset": 0,
        "slot": "3",
        "type": "t_address"
      }
    ],
    "types": {
      "t_address": {
        "encoding": "inplace",
        "label": "address",
        "numberOfBytes": "20"
      },
      "t_bool": {
        "encoding": "inplace",
        "label": "bool",
        "numberOfBytes": "1"
      },
      "t_mapping(t_uint256,t_bool)": {
        "encoding": "mapping",
        "key": "t_uint256",
        "label": "mapping(uint256 => bool)",
        "numberOfBytes": "32",
        "value": "t_bool"
      },
      "t_uint256": {
        "encoding": "inplace",
        "label": "uint256",
        "numberOfBytes": "32"
      }
    }
  }
}