{
  "address": "0x375397c1491E9C96282BAB1eFd8120FF68055130",
  "abi": [
    {
      "inputs": [
        {
          "internalType": "uint256",
          "name": "_initialSupply",
          "type": "uint256"
        }
      ],
      "stateMutability": "nonpayable",
      "type": "constructor"
    },
    {
      "anonymous": false,
      "inputs": [
        {
          "indexed": true,
          "internalType": "address",
          "name": "owner",
          "type": "address"
        },
        {
          "indexed": true,
          "internalType": "address",
          "name": "spender",
          "type": "address"
        },
        {
          "indexed": false,
          "internalType": "uint256",
          "name": "value",
          "type": "uint256"
        }
      ],
      "name": "Approval",
      "type": "event"
    },
    {
      "anonymous": false,
      "inputs": [],
      "name": "Initialized",
      "type": "event"
    },
    {
      "anonymous": false,
      "inputs": [
        {
          "indexed": true,
          "internalType": "address",
          "name": "previousOwner",
          "type": "address"
        },
        {
          "indexed": true,
          "internalType": "address",
          "name": "newOwner",
          "type": "address"
        }
      ],
      "name": "OwnershipTransferred",
      "type": "event"
    },
    {
      "anonymous": false,
      "inputs": [
        {
          "indexed": false,
          "internalType": "address",
          "name": "from",
          "type": "address"
        },
        {
          "indexed": false,
          "internalType": "address",
          "name": "to",
          "type": "address"
        },
        {
          "indexed": false,
          "internalType": "uint256",
          "name": "tax_amount",
          "type": "uint256"
        }
      ],
      "name": "Taxed",
      "type": "event"
    },
    {
      "anonymous": false,
      "inputs": [
        {
          "indexed": true,
          "internalType": "address",
          "name": "from",
          "type": "address"
        },
        {
          "indexed": true,
          "internalType": "address",
          "name": "to",
          "type": "address"
        },
        {
          "indexed": false,
          "internalType": "uint256",
          "name": "value",
          "type": "uint256"
        }
      ],
      "name": "Transfer",
      "type": "event"
    },
    {
      "inputs": [],
      "name": "DOMAIN_SEPARATOR",
      "outputs": [
        {
          "internalType": "bytes32",
          "name": "",
          "type": "bytes32"
        }
      ],
      "stateMutability": "view",
      "type": "function"
    },
    {
      "inputs": [
        {
          "internalType": "address",
          "name": "owner",
          "type": "address"
        },
        {
          "internalType": "address",
          "name": "spender",
          "type": "address"
        }
      ],
      "name": "allowance",
      "outputs": [
        {
          "internalType": "uint256",
          "name": "",
          "type": "uint256"
        }
      ],
      "stateMutability": "view",
      "type": "function"
    },
    {
      "inputs": [
        {
          "internalType": "address",
          "name": "spender",
          "type": "address"
        },
        {
          "internalType": "uint256",
          "name": "amount",
          "type": "uint256"
        }
      ],
      "name": "approve",
      "outputs": [
        {
          "internalType": "bool",
          "name": "",
          "type": "bool"
        }
      ],
      "stateMutability": "nonpayable",
      "type": "function"
    },
    {
      "inputs": [
        {
          "internalType": "address",
          "name": "account",
          "type": "address"
        }
      ],
      "name": "balanceOf",
      "outputs": [
        {
          "internalType": "uint256",
          "name": "",
          "type": "uint256"
        }
      ],
      "stateMutability": "view",
      "type": "function"
    },
    {
      "inputs": [
        {
          "internalType": "uint256",
          "name": "amount",
          "type": "uint256"
        }
      ],
      "name": "burn",
      "outputs": [],
      "stateMutability": "nonpayable",
      "type": "function"
    },
    {
      "inputs": [
        {
          "internalType": "address",
          "name": "to",
          "type": "address"
        },
        {
          "internalType": "uint256",
          "name": "amount",
          "type": "uint256"
        }
      ],
      "name": "calcTaxRate",
      "outputs": [
        {
          "internalType": "uint256",
          "name": "",
          "type": "uint256"
        }
      ],
      "stateMutability": "view",
      "type": "function"
    },
    {
      "inputs": [],
      "name": "decimals",
      "outputs": [
        {
          "internalType": "uint8",
          "name": "",
          "type": "uint8"
        }
      ],
      "stateMutability": "view",
      "type": "function"
    },
    {
      "inputs": [
        {
          "internalType": "address",
          "name": "spender",
          "type": "address"
        },
        {
          "internalType": "uint256",
          "name": "subtractedValue",
          "type": "uint256"
        }
      ],
      "name": "decreaseAllowance",
      "outputs": [
        {
          "internalType": "bool",
          "name": "",
          "type": "bool"
        }
      ],
      "stateMutability": "nonpayable",
      "type": "function"
    },
    {
      "inputs": [],
      "name": "farm_pool",
      "outputs": [
        {
          "internalType": "address",
          "name": "",
          "type": "address"
        }
      ],
      "stateMutability": "view",
      "type": "function"
    },
    {
      "inputs": [],
      "name": "grp",
      "outputs": [
        {
          "internalType": "address",
          "name": "",
          "type": "address"
        }
      ],
      "stateMutability": "view",
      "type": "function"
    },
    {
      "inputs": [
        {
          "internalType": "address",
          "name": "spender",
          "type": "address"
        },
        {
          "internalType": "uint256",
          "name": "addedValue",
          "type": "uint256"
        }
      ],
      "name": "increaseAllowance",
      "outputs": [
        {
          "internalType": "bool",
          "name": "",
          "type": "bool"
        }
      ],
      "stateMutability": "nonpayable",
      "type": "function"
    },
    {
      "inputs": [
        {
          "internalType": "address",
          "name": "_grp",
          "type": "address"
        },
        {
          "internalType": "address",
          "name": "_farm_pool",
          "type": "address"
        }
      ],
      "name": "init",
      "outputs": [],
      "stateMutability": "nonpayable",
      "type": "function"
    },
    {
      "inputs": [],
      "name": "initialSupply",
      "outputs": [
        {
          "internalType": "uint256",
          "name": "",
          "type": "uint256"
        }
      ],
      "stateMutability": "view",
      "type": "function"
    },
    {
      "inputs": [],
      "name": "name",
      "outputs": [
        {
          "internalType": "string",
          "name": "",
          "type": "string"
        }
      ],
      "stateMutability": "view",
      "type": "function"
    },
    {
      "inputs": [
        {
          "internalType": "address",
          "name": "owner",
          "type": "address"
        }
      ],
      "name": "nonces",
      "outputs": [
        {
          "internalType": "uint256",
          "name": "",
          "type": "uint256"
        }
      ],
      "stateMutability": "view",
      "type": "function"
    },
    {
      "inputs": [],
      "name": "owner",
      "outputs": [
        {
          "internalType": "address",
          "name": "",
          "type": "address"
        }
      ],
      "stateMutability": "view",
      "type": "function"
    },
    {
      "inputs": [
        {
          "internalType": "address",
          "name": "owner",
          "type": "address"
        },
        {
          "internalType": "address",
          "name": "spender",
          "type": "address"
        },
        {
          "internalType": "uint256",
          "name": "value",
          "type": "uint256"
        },
        {
          "internalType": "uint256",
          "name": "deadline",
          "type": "uint256"
        },
        {
          "internalType": "uint8",
          "name": "v",
          "type": "uint8"
        },
        {
          "internalType": "bytes32",
          "name": "r",
          "type": "bytes32"
        },
        {
          "internalType": "bytes32",
          "name": "s",
          "type": "bytes32"
        }
      ],
      "name": "permit",
      "outputs": [],
      "stateMutability": "nonpayable",
      "type": "function"
    },
    {
      "inputs": [],
      "name": "renounceOwnership",
      "outputs": [],
      "stateMutability": "nonpayable",
      "type": "function"
    },
    {
      "inputs": [
        {
          "internalType": "address",
          "name": "_tax_address",
          "type": "address"
        }
      ],
      "name": "setTaxAddress",
      "outputs": [],
      "stateMutability": "nonpayable",
      "type": "function"
    },
    {
      "inputs": [
        {
          "internalType": "address",
          "name": "target",
          "type": "address"
        },
        {
          "internalType": "uint256",
          "name": "_tax_Rate",
          "type": "uint256"
        }
      ],
      "name": "setTaxRate",
      "outputs": [],
      "stateMutability": "nonpayable",
      "type": "function"
    },
    {
      "inputs": [],
      "name": "symbol",
      "outputs": [
        {
          "internalType": "string",
          "name": "",
          "type": "string"
        }
      ],
      "stateMutability": "view",
      "type": "function"
    },
    {
      "inputs": [
        {
          "internalType": "address",
          "name": "to",
          "type": "address"
        }
      ],
      "name": "taxRate",
      "outputs": [
        {
          "internalType": "uint256",
          "name": "",
          "type": "uint256"
        }
      ],
      "stateMutability": "view",
      "type": "function"
    },
    {
      "inputs": [],
      "name": "tax_address",
      "outputs": [
        {
          "internalType": "address",
          "name": "",
          "type": "address"
        }
      ],
      "stateMutability": "view",
      "type": "function"
    },
    {
      "inputs": [],
      "name": "totalSupply",
      "outputs": [
        {
          "internalType": "uint256",
          "name": "",
          "type": "uint256"
        }
      ],
      "stateMutability": "view",
      "type": "function"
    },
    {
      "inputs": [
        {
          "internalType": "address",
          "name": "to",
          "type": "address"
        },
        {
          "internalType": "uint256",
          "name": "amount",
          "type": "uint256"
        }
      ],
      "name": "transfer",
      "outputs": [
        {
          "internalType": "bool",
          "name": "",
          "type": "bool"
        }
      ],
      "stateMutability": "nonpayable",
      "type": "function"
    },
    {
      "inputs": [
        {
          "internalType": "address",
          "name": "from",
          "type": "address"
        },
        {
          "internalType": "address",
          "name": "to",
          "type": "address"
        },
        {
          "internalType": "uint256",
          "name": "amount",
          "type": "uint256"
        }
      ],
      "name": "transferFrom",
      "outputs": [
        {
          "internalType": "bool",
          "name": "",
          "type": "bool"
        }
      ],
      "stateMutability": "nonpayable",
      "type": "function"
    },
    {
      "inputs": [
        {
          "internalType": "address",
          "name": "newOwner",
          "type": "address"
        }
      ],
      "name": "transferOwnership",
      "outputs": [],
      "stateMutability": "nonpayable",
      "type": "function"
    }
  ],
  "transactionHash": "0x9e0d3737aaf8b42a969a8b0a2d8c0a79edfa257cc529b707add034f7a6f059f8",
  "args": [
    "1000000000"
  ],
  "numDeployments": 1,
  "solcInputHash": "61c20db86f383acbf281885c4f75de62",
  "bytecode": "0x6101606040527f6e71edae12b1b97f4d1f60370fef10105fa2faae0126114a169c64845d6126c9610140523480156200003757600080fd5b5060405162001b6e38038062001b6e8339810160408190526200005a91620002af565b6040518060400160405280600481526020016311d5d25560e21b81525080604051806040016040528060018152602001603160f81b8152506040518060400160405280600481526020016311d5d25560e21b8152506040518060400160405280600481526020016311d5d25560e21b8152508160039080519060200190620000e492919062000209565b508051620000fa90600490602084019062000209565b5050825160209384012082519284019290922060e08390526101008190524660a0818152604080517f8b73c3c69bb8fe3d512ecc4cf759cc79239f7b179b0ffacaa9a75d522b39400f818901819052818301979097526060810194909452608080850193909352308483018190528151808603909301835260c094850190915281519190960120905292909252610120525062000199905033620001b7565b620001ad81670de0b6b3a7640000620002c9565b6009555062000334565b600680546001600160a01b038381166001600160a01b0319831681179093556040519116919082907f8be0079c531659141344cd1fd0a4f28419497f9722a3daafe3b4186f6b6457e090600090a35050565b8280546200021790620002f7565b90600052602060002090601f0160209004810192826200023b576000855562000286565b82601f106200025657805160ff191683800117855562000286565b8280016001018555821562000286579182015b828111156200028657825182559160200191906001019062000269565b506200029492915062000298565b5090565b5b8082111562000294576000815560010162000299565b600060208284031215620002c257600080fd5b5051919050565b6000816000190483118215151615620002f257634e487b7160e01b600052601160045260246000fd5b500290565b600181811c908216806200030c57607f821691505b602082108114156200032e57634e487b7160e01b600052602260045260246000fd5b50919050565b60805160a05160c05160e0516101005161012051610140516117df6200038f600039600061086901526000610fde0152600061102d0152600061100801526000610f6101526000610f8b01526000610fb501526117df6000f3fe608060405234801561001057600080fd5b50600436106101a95760003560e01c8063715018a6116100f9578063c37e0e2211610097578063dd62ed3e11610071578063dd62ed3e1461037c578063e8904759146103b5578063f09a4016146103de578063f2fde38b146103f157600080fd5b8063c37e0e2214610343578063cc5f80df14610356578063d505accf1461036957600080fd5b806395d89b41116100d357806395d89b4114610302578063a1883d261461030a578063a457c2d71461031d578063a9059cbb1461033057600080fd5b8063715018a6146102d65780637ecebe00146102de5780638da5cb5b146102f157600080fd5b8063378dc3dc116101665780633f29af88116101405780633f29af881461027257806342966c6814610285578063482228081461029a57806370a08231146102ad57600080fd5b8063378dc3dc1461022b57806339509351146102345780633b7e9bfb1461024757600080fd5b806306fdde03146101ae578063095ea7b3146101cc57806318160ddd146101ef57806323b872dd14610201578063313ce567146102145780633644e51514610223575b600080fd5b6101b6610404565b6040516101c391906114f2565b60405180910390f35b6101df6101da366004611563565b610496565b60405190151581526020016101c3565b6002545b6040519081526020016101c3565b6101df61020f36600461158d565b6104b0565b604051601281526020016101c3565b6101f36105b5565b6101f360095481565b6101df610242366004611563565b6105c4565b60075461025a906001600160a01b031681565b6040516001600160a01b0390911681526020016101c3565b60085461025a906001600160a01b031681565b6102986102933660046115c9565b610603565b005b6101f36102a8366004611563565b610613565b6101f36102bb3660046115e2565b6001600160a01b031660009081526020819052604090205490565b610298610675565b6101f36102ec3660046115e2565b6106ab565b6006546001600160a01b031661025a565b6101b66106c9565b6102986103183660046115e2565b6106d8565b6101df61032b366004611563565b610724565b6101df61033e366004611563565b6107c1565b600a5461025a906001600160a01b031681565b610298610364366004611563565b6107cf565b6102986103773660046115fd565b610815565b6101f361038a366004611670565b6001600160a01b03918216600090815260016020908152604080832093909416825291909152205490565b6101f36103c33660046115e2565b6001600160a01b03166000908152600b602052604090205490565b6102986103ec366004611670565b610979565b6102986103ff3660046115e2565b610b20565b606060038054610413906116a3565b80601f016020809104026020016040519081016040528092919081815260200182805461043f906116a3565b801561048c5780601f106104615761010080835404028352916020019161048c565b820191906000526020600020905b81548152906001019060200180831161046f57829003601f168201915b5050505050905090565b6000336104a4818585610bbb565b60019150505b92915050565b6001600160a01b0382166000908152600b6020526040812054156105a257816105175760405162461bcd60e51b81526020600482015260146024820152730616d6f756e742073686f756c64206265203e20360641b60448201526064015b60405180910390fd5b60006105238484610613565b905061052f81846116ee565b600a5490935061054a9086906001600160a01b031683610cdf565b610555853383610eaf565b604080516001600160a01b038088168252861660208201529081018290527f9eb1885d71d09f7380adf16be8c54a2744e75fabbe49b20dda5b0a051f572ce89060600160405180910390a1505b6105ad848484610f3b565b949350505050565b60006105bf610f54565b905090565b3360008181526001602090815260408083206001600160a01b03871684529091528120549091906104a490829086906105fe908790611705565b610bbb565b61060f611337826107c1565b5050565b6001600160a01b0382166000908152600b6020526040812054610638575060006104aa565b61271061065a846001600160a01b03166000908152600b602052604090205490565b610664908461171d565b61066e919061173c565b9392505050565b6006546001600160a01b0316331461069f5760405162461bcd60e51b815260040161050e9061175e565b6106a9600061107b565b565b6001600160a01b0381166000908152600560205260408120546104aa565b606060048054610413906116a3565b6006546001600160a01b031633146107025760405162461bcd60e51b815260040161050e9061175e565b600a80546001600160a01b0319166001600160a01b0392909216919091179055565b3360008181526001602090815260408083206001600160a01b0387168452909152812054909190838110156107a95760405162461bcd60e51b815260206004820152602560248201527f45524332303a2064656372656173656420616c6c6f77616e63652062656c6f77604482015264207a65726f60d81b606482015260840161050e565b6107b68286868403610bbb565b506001949350505050565b6000336104a4818585610cdf565b6006546001600160a01b031633146107f95760405162461bcd60e51b815260040161050e9061175e565b6001600160a01b039091166000908152600b6020526040902055565b834211156108655760405162461bcd60e51b815260206004820152601d60248201527f45524332305065726d69743a206578706972656420646561646c696e65000000604482015260640161050e565b60007f00000000000000000000000000000000000000000000000000000000000000008888886108948c6110cd565b6040805160208101969096526001600160a01b0394851690860152929091166060840152608083015260a082015260c0810186905260e00160405160208183030381529060405280519060200120905060006108ef826110f5565b905060006108ff82878787611143565b9050896001600160a01b0316816001600160a01b0316146109625760405162461bcd60e51b815260206004820152601e60248201527f45524332305065726d69743a20696e76616c6964207369676e61747572650000604482015260640161050e565b61096d8a8a8a610bbb565b50505050505050505050565b6006546001600160a01b031633146109a35760405162461bcd60e51b815260040161050e9061175e565b600854600160a01b900460ff16156109f35760405162461bcd60e51b8152602060048201526013602482015272185b1c9958591e481a5b9a5d1a585b1a5e9959606a1b604482015260640161050e565b6001600160a01b03821615801590610a1357506001600160a01b03811615155b610a565760405162461bcd60e51b8152602060048201526014602482015273696e76616c696420696e6974206164647265737360601b604482015260640161050e565b600880546001600160a01b038085166001600160a01b031992831681179093556007805491851691909216179055600954610aa99190606490610a9a90602e61171d565b610aa4919061173c565b61116b565b600754600954610acb916001600160a01b031690606490610a9a90600a61171d565b610ae0336064600954602c610a9a919061171d565b6008805460ff60a01b1916600160a01b1790556040517f5daa87a0e9463431830481fd4b6e3403442dfb9a12b9c07597e9f61d50b633c890600090a15050565b6006546001600160a01b03163314610b4a5760405162461bcd60e51b815260040161050e9061175e565b6001600160a01b038116610baf5760405162461bcd60e51b815260206004820152602660248201527f4f776e61626c653a206e6577206f776e657220697320746865207a65726f206160448201526564647265737360d01b606482015260840161050e565b610bb88161107b565b50565b6001600160a01b038316610c1d5760405162461bcd60e51b8152602060048201526024808201527f45524332303a20617070726f76652066726f6d20746865207a65726f206164646044820152637265737360e01b606482015260840161050e565b6001600160a01b038216610c7e5760405162461bcd60e51b815260206004820152602260248201527f45524332303a20617070726f766520746f20746865207a65726f206164647265604482015261737360f01b606482015260840161050e565b6001600160a01b0383811660008181526001602090815260408083209487168084529482529182902085905590518481527f8c5be1e5ebec7d5bd14f71427d1e84f3dd0314c0f7b2291e5b200ac8c7c3b925910160405180910390a3505050565b6001600160a01b038316610d435760405162461bcd60e51b815260206004820152602560248201527f45524332303a207472616e736665722066726f6d20746865207a65726f206164604482015264647265737360d81b606482015260840161050e565b6001600160a01b038216610da55760405162461bcd60e51b815260206004820152602360248201527f45524332303a207472616e7366657220746f20746865207a65726f206164647260448201526265737360e81b606482015260840161050e565b6001600160a01b03831660009081526020819052604090205481811015610e1d5760405162461bcd60e51b815260206004820152602660248201527f45524332303a207472616e7366657220616d6f756e7420657863656564732062604482015265616c616e636560d01b606482015260840161050e565b6001600160a01b03808516600090815260208190526040808220858503905591851681529081208054849290610e54908490611705565b92505081905550826001600160a01b0316846001600160a01b03167fddf252ad1be2c89b69c2b068fc378daa952ba7f163c4a11628f55a4df523b3ef84604051610ea091815260200190565b60405180910390a35b50505050565b6001600160a01b038381166000908152600160209081526040808320938616835292905220546000198114610ea95781811015610f2e5760405162461bcd60e51b815260206004820152601d60248201527f45524332303a20696e73756666696369656e7420616c6c6f77616e6365000000604482015260640161050e565b610ea98484848403610bbb565b600033610f49858285610eaf565b6107b6858585610cdf565b6000306001600160a01b037f000000000000000000000000000000000000000000000000000000000000000016148015610fad57507f000000000000000000000000000000000000000000000000000000000000000046145b15610fd757507f000000000000000000000000000000000000000000000000000000000000000090565b50604080517f00000000000000000000000000000000000000000000000000000000000000006020808301919091527f0000000000000000000000000000000000000000000000000000000000000000828401527f000000000000000000000000000000000000000000000000000000000000000060608301524660808301523060a0808401919091528351808403909101815260c0909201909252805191012090565b600680546001600160a01b038381166001600160a01b0319831681179093556040519116919082907f8be0079c531659141344cd1fd0a4f28419497f9722a3daafe3b4186f6b6457e090600090a35050565b6001600160a01b03811660009081526005602052604090208054600181018255905b50919050565b60006104aa611102610f54565b8360405161190160f01b6020820152602281018390526042810182905260009060620160405160208183030381529060405280519060200120905092915050565b60008060006111548787878761124a565b9150915061116181611337565b5095945050505050565b6001600160a01b0382166111c15760405162461bcd60e51b815260206004820152601f60248201527f45524332303a206d696e7420746f20746865207a65726f206164647265737300604482015260640161050e565b80600260008282546111d39190611705565b90915550506001600160a01b03821660009081526020819052604081208054839290611200908490611705565b90915550506040518181526001600160a01b038316906000907fddf252ad1be2c89b69c2b068fc378daa952ba7f163c4a11628f55a4df523b3ef9060200160405180910390a35050565b6000807f7fffffffffffffffffffffffffffffff5d576e7357a4501ddfe92f46681b20a0831115611281575060009050600361132e565b8460ff16601b1415801561129957508460ff16601c14155b156112aa575060009050600461132e565b6040805160008082526020820180845289905260ff881692820192909252606081018690526080810185905260019060a0016020604051602081039080840390855afa1580156112fe573d6000803e3d6000fd5b5050604051601f1901519150506001600160a01b0381166113275760006001925092505061132e565b9150600090505b94509492505050565b600081600481111561134b5761134b611793565b14156113545750565b600181600481111561136857611368611793565b14156113b65760405162461bcd60e51b815260206004820152601860248201527f45434453413a20696e76616c6964207369676e61747572650000000000000000604482015260640161050e565b60028160048111156113ca576113ca611793565b14156114185760405162461bcd60e51b815260206004820152601f60248201527f45434453413a20696e76616c6964207369676e6174757265206c656e67746800604482015260640161050e565b600381600481111561142c5761142c611793565b14156114855760405162461bcd60e51b815260206004820152602260248201527f45434453413a20696e76616c6964207369676e6174757265202773272076616c604482015261756560f01b606482015260840161050e565b600481600481111561149957611499611793565b1415610bb85760405162461bcd60e51b815260206004820152602260248201527f45434453413a20696e76616c6964207369676e6174757265202776272076616c604482015261756560f01b606482015260840161050e565b600060208083528351808285015260005b8181101561151f57858101830151858201604001528201611503565b81811115611531576000604083870101525b50601f01601f1916929092016040019392505050565b80356001600160a01b038116811461155e57600080fd5b919050565b6000806040838503121561157657600080fd5b61157f83611547565b946020939093013593505050565b6000806000606084860312156115a257600080fd5b6115ab84611547565b92506115b960208501611547565b9150604084013590509250925092565b6000602082840312156115db57600080fd5b5035919050565b6000602082840312156115f457600080fd5b61066e82611547565b600080600080600080600060e0888a03121561161857600080fd5b61162188611547565b965061162f60208901611547565b95506040880135945060608801359350608088013560ff8116811461165357600080fd5b9699959850939692959460a0840135945060c09093013592915050565b6000806040838503121561168357600080fd5b61168c83611547565b915061169a60208401611547565b90509250929050565b600181811c908216806116b757607f821691505b602082108114156110ef57634e487b7160e01b600052602260045260246000fd5b634e487b7160e01b600052601160045260246000fd5b600082821015611700576117006116d8565b500390565b60008219821115611718576117186116d8565b500190565b6000816000190483118215151615611737576117376116d8565b500290565b60008261175957634e487b7160e01b600052601260045260246000fd5b500490565b6020808252818101527f4f776e61626c653a2063616c6c6572206973206e6f7420746865206f776e6572604082015260600190565b634e487b7160e01b600052602160045260246000fdfea26469706673582212201d6a97fffd1b2accbe1a0ff70da7fce71d2735fe627cabb5cc531d4060f8fbf664736f6c63430008090033",
  "devdoc": {
    "kind": "dev",
    "methods": {
      "DOMAIN_SEPARATOR()": {
        "details": "See {IERC20Permit-DOMAIN_SEPARATOR}."
      },
      "allowance(address,address)": {
        "details": "See {IERC20-allowance}."
      },
      "approve(address,uint256)": {
        "details": "See {IERC20-approve}. NOTE: If `amount` is the maximum `uint256`, the allowance is not updated on `transferFrom`. This is semantically equivalent to an infinite approval. Requirements: - `spender` cannot be the zero address."
      },
      "balanceOf(address)": {
        "details": "See {IERC20-balanceOf}."
      },
      "decimals()": {
        "details": "Returns the number of decimals used to get its user representation. For example, if `decimals` equals `2`, a balance of `505` tokens should be displayed to a user as `5.05` (`505 / 10 ** 2`). Tokens usually opt for a value of 18, imitating the relationship between Ether and Wei. This is the value {ERC20} uses, unless this function is overridden; NOTE: This information is only used for _display_ purposes: it in no way affects any of the arithmetic of the contract, including {IERC20-balanceOf} and {IERC20-transfer}."
      },
      "decreaseAllowance(address,uint256)": {
        "details": "Atomically decreases the allowance granted to `spender` by the caller. This is an alternative to {approve} that can be used as a mitigation for problems described in {IERC20-approve}. Emits an {Approval} event indicating the updated allowance. Requirements: - `spender` cannot be the zero address. - `spender` must have allowance for the caller of at least `subtractedValue`."
      },
      "increaseAllowance(address,uint256)": {
        "details": "Atomically increases the allowance granted to `spender` by the caller. This is an alternative to {approve} that can be used as a mitigation for problems described in {IERC20-approve}. Emits an {Approval} event indicating the updated allowance. Requirements: - `spender` cannot be the zero address."
      },
      "name()": {
        "details": "Returns the name of the token."
      },
      "nonces(address)": {
        "details": "See {IERC20Permit-nonces}."
      },
      "owner()": {
        "details": "Returns the address of the current owner."
      },
      "permit(address,address,uint256,uint256,uint8,bytes32,bytes32)": {
        "details": "See {IERC20Permit-permit}."
      },
      "renounceOwnership()": {
        "details": "Leaves the contract without owner. It will not be possible to call `onlyOwner` functions anymore. Can only be called by the current owner. NOTE: Renouncing ownership will leave the contract without an owner, thereby removing any functionality that is only available to the owner."
      },
      "symbol()": {
        "details": "Returns the symbol of the token, usually a shorter version of the name."
      },
      "totalSupply()": {
        "details": "See {IERC20-totalSupply}."
      },
      "transfer(address,uint256)": {
        "details": "See {IERC20-transfer}. Requirements: - `to` cannot be the zero address. - the caller must have a balance of at least `amount`."
      },
      "transferFrom(address,address,uint256)": {
        "details": "See {IERC20-transferFrom}. Emits an {Approval} event indicating the updated allowance. This is not required by the EIP. See the note at the beginning of {ERC20}. NOTE: Does not update the allowance if the current allowance is the maximum `uint256`. Requirements: - `from` and `to` cannot be the zero address. - `from` must have a balance of at least `amount`. - the caller must have allowance for ``from``'s tokens of at least `amount`."
      },
      "transferOwnership(address)": {
        "details": "Transfers ownership of the contract to a new account (`newOwner`). Can only be called by the current owner."
      }
    },
    "version": 1
  },
  "userdoc": {
    "kind": "user",
    "methods": {},
    "version": 1
  },
  "storageLayout": {
    "storage": [
      {
        "astId": 1797,
        "contract": "contracts/gwit/gwit.sol:GWITToken",
        "label": "_balances",
        "offset": 0,
        "slot": "0",
        "type": "t_mapping(t_address,t_uint256)"
      },
      {
        "astId": 1803,
        "contract": "contracts/gwit/gwit.sol:GWITToken",
        "label": "_allowances",
        "offset": 0,
        "slot": "1",
        "type": "t_mapping(t_address,t_mapping(t_address,t_uint256))"
      },
      {
        "astId": 1805,
        "contract": "contracts/gwit/gwit.sol:GWITToken",
        "label": "_totalSupply",
        "offset": 0,
        "slot": "2",
        "type": "t_uint256"
      },
      {
        "astId": 1807,
        "contract": "contracts/gwit/gwit.sol:GWITToken",
        "label": "_name",
        "offset": 0,
        "slot": "3",
        "type": "t_string_storage"
      },
      {
        "astId": 1809,
        "contract": "contracts/gwit/gwit.sol:GWITToken",
        "label": "_symbol",
        "offset": 0,
        "slot": "4",
        "type": "t_string_storage"
      },
      {
        "astId": 2495,
        "contract": "contracts/gwit/gwit.sol:GWITToken",
        "label": "_nonces",
        "offset": 0,
        "slot": "5",
        "type": "t_mapping(t_address,t_struct(Counter)4281_storage)"
      },
      {
        "astId": 249,
        "contract": "contracts/gwit/gwit.sol:GWITToken",
        "label": "_owner",
        "offset": 0,
        "slot": "6",
        "type": "t_address"
      },
      {
        "astId": 13377,
        "contract": "contracts/gwit/gwit.sol:GWITToken",
        "label": "farm_pool",
        "offset": 0,
        "slot": "7",
        "type": "t_address"
      },
      {
        "astId": 13379,
        "contract": "contracts/gwit/gwit.sol:GWITToken",
        "label": "grp",
        "offset": 0,
        "slot": "8",
        "type": "t_address"
      },
      {
        "astId": 13381,
        "contract": "contracts/gwit/gwit.sol:GWITToken",
        "label": "_init",
        "offset": 20,
        "slot": "8",
        "type": "t_bool"
      },
      {
        "astId": 13385,
        "contract": "contracts/gwit/gwit.sol:GWITToken",
        "label": "initialSupply",
        "offset": 0,
        "slot": "9",
        "type": "t_uint256"
      },
      {
        "astId": 13387,
        "contract": "contracts/gwit/gwit.sol:GWITToken",
        "label": "tax_address",
        "offset": 0,
        "slot": "10",
        "type": "t_address"
      },
      {
        "astId": 13391,
        "contract": "contracts/gwit/gwit.sol:GWITToken",
        "label": "tax_table",
        "offset": 0,
        "slot": "11",
        "type": "t_mapping(t_address,t_uint256)"
      }
    ],
    "types": {
      "t_address": {
        "encoding": "inplace",
        "label": "address",
        "numberOfBytes": "20"
      },
      "t_bool": {
        "encoding": "inplace",
        "label": "bool",
        "numberOfBytes": "1"
      },
      "t_mapping(t_address,t_mapping(t_address,t_uint256))": {
        "encoding": "mapping",
        "key": "t_address",
        "label": "mapping(address => mapping(address => uint256))",
        "numberOfBytes": "32",
        "value": "t_mapping(t_address,t_uint256)"
      },
      "t_mapping(t_address,t_struct(Counter)4281_storage)": {
        "encoding": "mapping",
        "key": "t_address",
        "label": "mapping(address => struct Counters.Counter)",
        "numberOfBytes": "32",
        "value": "t_struct(Counter)4281_storage"
      },
      "t_mapping(t_address,t_uint256)": {
        "encoding": "mapping",
        "key": "t_address",
        "label": "mapping(address => uint256)",
        "numberOfBytes": "32",
        "value": "t_uint256"
      },
      "t_string_storage": {
        "encoding": "bytes",
        "label": "string",
        "numberOfBytes": "32"
      },
      "t_struct(Counter)4281_storage": {
        "encoding": "inplace",
        "label": "struct Counters.Counter",
        "members": [
          {
            "astId": 4280,
            "contract": "contracts/gwit/gwit.sol:GWITToken",
            "label": "_value",
            "offset": 0,
            "slot": "0",
            "type": "t_uint256"
          }
        ],
        "numberOfBytes": "32"
      },
      "t_uint256": {
        "encoding": "inplace",
        "label": "uint256",
        "numberOfBytes": "32"
      }
    }
  }
}