{
  "address": "0x634b183a69b1c37dB98CfEBE0769A97696C75557",
  "abi": [
    {
      "inputs": [
        {
          "internalType": "contract IERC20",
          "name": "_gwit",
          "type": "address"
        },
        {
          "internalType": "address",
          "name": "_devaddr",
          "type": "address"
        },
        {
          "internalType": "uint256",
          "name": "_gwitPerBlock",
          "type": "uint256"
        },
        {
          "internalType": "uint256",
          "name": "_startBlock",
          "type": "uint256"
        },
        {
          "internalType": "uint256",
          "name": "_bonusEndBlock",
          "type": "uint256"
        }
      ],
      "stateMutability": "nonpayable",
      "type": "constructor"
    },
    {
      "anonymous": false,
      "inputs": [
        {
          "indexed": true,
          "internalType": "address",
          "name": "user",
          "type": "address"
        },
        {
          "indexed": true,
          "internalType": "uint256",
          "name": "pid",
          "type": "uint256"
        },
        {
          "indexed": false,
          "internalType": "uint256",
          "name": "amount",
          "type": "uint256"
        }
      ],
      "name": "Deposit",
      "type": "event"
    },
    {
      "anonymous": false,
      "inputs": [
        {
          "indexed": true,
          "internalType": "address",
          "name": "user",
          "type": "address"
        },
        {
          "indexed": true,
          "internalType": "uint256",
          "name": "pid",
          "type": "uint256"
        },
        {
          "indexed": false,
          "internalType": "uint256",
          "name": "amount",
          "type": "uint256"
        }
      ],
      "name": "EmergencyWithdraw",
      "type": "event"
    },
    {
      "anonymous": false,
      "inputs": [
        {
          "indexed": true,
          "internalType": "address",
          "name": "previousOwner",
          "type": "address"
        },
        {
          "indexed": true,
          "internalType": "address",
          "name": "newOwner",
          "type": "address"
        }
      ],
      "name": "OwnershipTransferred",
      "type": "event"
    },
    {
      "anonymous": false,
      "inputs": [
        {
          "indexed": true,
          "internalType": "address",
          "name": "user",
          "type": "address"
        },
        {
          "indexed": true,
          "internalType": "uint256",
          "name": "pid",
          "type": "uint256"
        },
        {
          "indexed": false,
          "internalType": "uint256",
          "name": "amount",
          "type": "uint256"
        }
      ],
      "name": "Withdraw",
      "type": "event"
    },
    {
      "inputs": [],
      "name": "BONUS_MULTIPLIER",
      "outputs": [
        {
          "internalType": "uint256",
          "name": "",
          "type": "uint256"
        }
      ],
      "stateMutability": "view",
      "type": "function"
    },
    {
      "inputs": [
        {
          "internalType": "uint256",
          "name": "_allocPoint",
          "type": "uint256"
        },
        {
          "internalType": "contract IERC20",
          "name": "_lpToken",
          "type": "address"
        },
        {
          "internalType": "bool",
          "name": "_withUpdate",
          "type": "bool"
        }
      ],
      "name": "add",
      "outputs": [],
      "stateMutability": "nonpayable",
      "type": "function"
    },
    {
      "inputs": [],
      "name": "bonusEndBlock",
      "outputs": [
        {
          "internalType": "uint256",
          "name": "",
          "type": "uint256"
        }
      ],
      "stateMutability": "view",
      "type": "function"
    },
    {
      "inputs": [
        {
          "internalType": "uint256",
          "name": "_pid",
          "type": "uint256"
        },
        {
          "internalType": "uint256",
          "name": "_amount",
          "type": "uint256"
        }
      ],
      "name": "deposit",
      "outputs": [],
      "stateMutability": "nonpayable",
      "type": "function"
    },
    {
      "inputs": [
        {
          "internalType": "address",
          "name": "_devaddr",
          "type": "address"
        }
      ],
      "name": "dev",
      "outputs": [],
      "stateMutability": "nonpayable",
      "type": "function"
    },
    {
      "inputs": [],
      "name": "devaddr",
      "outputs": [
        {
          "internalType": "address",
          "name": "",
          "type": "address"
        }
      ],
      "stateMutability": "view",
      "type": "function"
    },
    {
      "inputs": [
        {
          "internalType": "uint256",
          "name": "_pid",
          "type": "uint256"
        }
      ],
      "name": "emergencyWithdraw",
      "outputs": [],
      "stateMutability": "nonpayable",
      "type": "function"
    },
    {
      "inputs": [
        {
          "internalType": "uint256",
          "name": "_from",
          "type": "uint256"
        },
        {
          "internalType": "uint256",
          "name": "_to",
          "type": "uint256"
        }
      ],
      "name": "getMultiplier",
      "outputs": [
        {
          "internalType": "uint256",
          "name": "",
          "type": "uint256"
        }
      ],
      "stateMutability": "view",
      "type": "function"
    },
    {
      "inputs": [],
      "name": "gwit",
      "outputs": [
        {
          "internalType": "contract IERC20",
          "name": "",
          "type": "address"
        }
      ],
      "stateMutability": "view",
      "type": "function"
    },
    {
      "inputs": [],
      "name": "gwitPerBlock",
      "outputs": [
        {
          "internalType": "uint256",
          "name": "",
          "type": "uint256"
        }
      ],
      "stateMutability": "view",
      "type": "function"
    },
    {
      "inputs": [],
      "name": "massUpdatePools",
      "outputs": [],
      "stateMutability": "nonpayable",
      "type": "function"
    },
    {
      "inputs": [
        {
          "internalType": "uint256",
          "name": "_pid",
          "type": "uint256"
        }
      ],
      "name": "migrate",
      "outputs": [],
      "stateMutability": "nonpayable",
      "type": "function"
    },
    {
      "inputs": [],
      "name": "migrator",
      "outputs": [
        {
          "internalType": "contract IMigratorChef",
          "name": "",
          "type": "address"
        }
      ],
      "stateMutability": "view",
      "type": "function"
    },
    {
      "inputs": [],
      "name": "owner",
      "outputs": [
        {
          "internalType": "address",
          "name": "",
          "type": "address"
        }
      ],
      "stateMutability": "view",
      "type": "function"
    },
    {
      "inputs": [
        {
          "internalType": "uint256",
          "name": "_pid",
          "type": "uint256"
        },
        {
          "internalType": "address",
          "name": "_user",
          "type": "address"
        }
      ],
      "name": "pendingGwit",
      "outputs": [
        {
          "internalType": "uint256",
          "name": "",
          "type": "uint256"
        }
      ],
      "stateMutability": "view",
      "type": "function"
    },
    {
      "inputs": [
        {
          "internalType": "uint256",
          "name": "",
          "type": "uint256"
        }
      ],
      "name": "poolInfo",
      "outputs": [
        {
          "internalType": "contract IERC20",
          "name": "lpToken",
          "type": "address"
        },
        {
          "internalType": "uint256",
          "name": "allocPoint",
          "type": "uint256"
        },
        {
          "internalType": "uint256",
          "name": "lastRewardBlock",
          "type": "uint256"
        },
        {
          "internalType": "uint256",
          "name": "accGwitPerShare",
          "type": "uint256"
        }
      ],
      "stateMutability": "view",
      "type": "function"
    },
    {
      "inputs": [],
      "name": "poolLength",
      "outputs": [
        {
          "internalType": "uint256",
          "name": "",
          "type": "uint256"
        }
      ],
      "stateMutability": "view",
      "type": "function"
    },
    {
      "inputs": [],
      "name": "renounceOwnership",
      "outputs": [],
      "stateMutability": "nonpayable",
      "type": "function"
    },
    {
      "inputs": [
        {
          "internalType": "uint256",
          "name": "_pid",
          "type": "uint256"
        },
        {
          "internalType": "uint256",
          "name": "_allocPoint",
          "type": "uint256"
        },
        {
          "internalType": "bool",
          "name": "_withUpdate",
          "type": "bool"
        }
      ],
      "name": "set",
      "outputs": [],
      "stateMutability": "nonpayable",
      "type": "function"
    },
    {
      "inputs": [
        {
          "internalType": "contract IMigratorChef",
          "name": "_migrator",
          "type": "address"
        }
      ],
      "name": "setMigrator",
      "outputs": [],
      "stateMutability": "nonpayable",
      "type": "function"
    },
    {
      "inputs": [],
      "name": "startBlock",
      "outputs": [
        {
          "internalType": "uint256",
          "name": "",
          "type": "uint256"
        }
      ],
      "stateMutability": "view",
      "type": "function"
    },
    {
      "inputs": [],
      "name": "totalAllocPoint",
      "outputs": [
        {
          "internalType": "uint256",
          "name": "",
          "type": "uint256"
        }
      ],
      "stateMutability": "view",
      "type": "function"
    },
    {
      "inputs": [
        {
          "internalType": "address",
          "name": "newOwner",
          "type": "address"
        }
      ],
      "name": "transferOwnership",
      "outputs": [],
      "stateMutability": "nonpayable",
      "type": "function"
    },
    {
      "inputs": [
        {
          "internalType": "uint256",
          "name": "_pid",
          "type": "uint256"
        }
      ],
      "name": "updatePool",
      "outputs": [],
      "stateMutability": "nonpayable",
      "type": "function"
    },
    {
      "inputs": [
        {
          "internalType": "uint256",
          "name": "",
          "type": "uint256"
        },
        {
          "internalType": "address",
          "name": "",
          "type": "address"
        }
      ],
      "name": "userInfo",
      "outputs": [
        {
          "internalType": "uint256",
          "name": "amount",
          "type": "uint256"
        },
        {
          "internalType": "uint256",
          "name": "rewardDebt",
          "type": "uint256"
        }
      ],
      "stateMutability": "view",
      "type": "function"
    },
    {
      "inputs": [
        {
          "internalType": "uint256",
          "name": "_pid",
          "type": "uint256"
        },
        {
          "internalType": "uint256",
          "name": "_amount",
          "type": "uint256"
        }
      ],
      "name": "withdraw",
      "outputs": [],
      "stateMutability": "nonpayable",
      "type": "function"
    }
  ],
  "transactionHash": "0x78668e69f6c68b98a6e8b3e2dff23d8f2b66a910fb57b8140814a09a54656895",
  "args": [
    "0x375397c1491E9C96282BAB1eFd8120FF68055130",
    "0xf5CA36c9873d61Bc28C117BD470981Ef6647A685",
    "100000000000000000000",
    110,
    10
  ],
  "numDeployments": 1,
  "solcInputHash": "61c20db86f383acbf281885c4f75de62",
  "bytecode": "0x608060405260006008553480156200001657600080fd5b5060405162001b0b38038062001b0b8339810160408190526200003991620000ec565b620000443362000083565b600180546001600160a01b039687166001600160a01b031991821617909155600280549590961694169390931790935560045560035560095562000144565b600080546001600160a01b038381166001600160a01b0319831681178455604051919092169283917f8be0079c531659141344cd1fd0a4f28419497f9722a3daafe3b4186f6b6457e09190a35050565b6001600160a01b0381168114620000e957600080fd5b50565b600080600080600060a086880312156200010557600080fd5b85516200011281620000d3565b60208701519095506200012581620000d3565b6040870151606088015160809098015196999198509695945092505050565b6119b780620001546000396000f3fe608060405234801561001057600080fd5b506004361061018e5760003560e01c8063630b5ba1116100de5780638d88a90e1161009757806393f1a40b1161007157806393f1a40b14610332578063d49e77cd14610379578063e2bbb1581461038c578063f2fde38b1461039f57600080fd5b80638d88a90e146102fb5780638da5cb5b1461030e5780638dbb1e3a1461031f57600080fd5b8063630b5ba11461029257806364482f791461029a578063715018a6146102ad57806375fef453146102b55780637cd07e47146102e05780638aa28550146102f357600080fd5b806323cf31181161014b57806348cd4cb11161012557806348cd4cb11461025057806351eb05a6146102595780635312ea8e1461026c57806361ece6371461027f57600080fd5b806323cf311814610217578063441a3e701461022a578063454b06081461023d57600080fd5b8063081e3eda146101935780631526fe27146101aa57806317caf6f1146101e75780631aed6553146101f05780631cbaa203146101f95780631eaaa04514610202575b600080fd5b6006545b6040519081526020015b60405180910390f35b6101bd6101b83660046116ac565b6103b2565b604080516001600160a01b03909516855260208501939093529183015260608201526080016101a1565b61019760085481565b61019760035481565b61019760045481565b6102156102103660046116e8565b6103f6565b005b61021561022536600461172a565b61054c565b610215610238366004611747565b610598565b61021561024b3660046116ac565b6106ec565b61019760095481565b6102156102673660046116ac565b610954565b61021561027a3660046116ac565b610b2e565b61019761028d366004611769565b610bd0565b610215610d3e565b6102156102a8366004611799565b610d69565b610215610e18565b6001546102c8906001600160a01b031681565b6040516001600160a01b0390911681526020016101a1565b6005546102c8906001600160a01b031681565b610197600a81565b61021561030936600461172a565b610e4e565b6000546001600160a01b03166102c8565b61019761032d366004611747565b610eb6565b610364610340366004611769565b60076020908152600092835260408084209091529082529020805460019091015482565b604080519283526020830191909152016101a1565b6002546102c8906001600160a01b031681565b61021561039a366004611747565b610f1c565b6102156103ad36600461172a565b611027565b600681815481106103c257600080fd5b600091825260209091206004909102018054600182015460028301546003909301546001600160a01b039092169350919084565b6000546001600160a01b031633146104295760405162461bcd60e51b8152600401610420906117c7565b60405180910390fd5b801561043757610437610d3e565b6000600954431161044a5760095461044c565b435b60085490915061045c90856110c2565b600855604080516080810182526001600160a01b0394851681526020810195865290810191825260006060820181815260068054600181018255925291517ff652222313e28459528d920b65115c16c04f3efc82aaedc97be59f3f377c0d3f600490920291820180546001600160a01b031916919096161790945593517ff652222313e28459528d920b65115c16c04f3efc82aaedc97be59f3f377c0d40840155517ff652222313e28459528d920b65115c16c04f3efc82aaedc97be59f3f377c0d418301555090517ff652222313e28459528d920b65115c16c04f3efc82aaedc97be59f3f377c0d4290910155565b6000546001600160a01b031633146105765760405162461bcd60e51b8152600401610420906117c7565b600580546001600160a01b0319166001600160a01b0392909216919091179055565b6000600683815481106105ad576105ad6117fc565b60009182526020808320868452600782526040808520338652909252922080546004909202909201925083111561061b5760405162461bcd60e51b81526020600482015260126024820152711dda5d1a191c985dce881b9bdd0819dbdbd960721b6044820152606401610420565b61062484610954565b600061065e826001015461065864e8d4a51000610652876003015487600001546110d590919063ffffffff16565b906110e1565b906110ed565b905061066a33826110f9565b815461067690856110ed565b80835560038401546106939164e8d4a510009161065291906110d5565b600183015582546106ae906001600160a01b0316338661124a565b604051848152859033907ff279e6a1f5e320cca91135676d9cb6e44ca8a08c0b88342bcdb1144f6511b5689060200160405180910390a35050505050565b6005546001600160a01b031661073b5760405162461bcd60e51b815260206004820152601460248201527336b4b3b930ba329d1037379036b4b3b930ba37b960611b6044820152606401610420565b600060068281548110610750576107506117fc565b60009182526020822060049182020180546040516370a0823160e01b815230938101939093529093506001600160a01b0316919082906370a082319060240160206040518083038186803b1580156107a757600080fd5b505afa1580156107bb573d6000803e3d6000fd5b505050506040513d601f19601f820116820180604052508101906107df9190611812565b6005549091506107fc906001600160a01b038481169116836112ad565b60055460405163ce5494bb60e01b81526001600160a01b038481166004830152600092169063ce5494bb90602401602060405180830381600087803b15801561084457600080fd5b505af1158015610858573d6000803e3d6000fd5b505050506040513d601f19601f8201168201806040525081019061087c919061182b565b6040516370a0823160e01b81523060048201529091506001600160a01b038216906370a082319060240160206040518083038186803b1580156108be57600080fd5b505afa1580156108d2573d6000803e3d6000fd5b505050506040513d601f19601f820116820180604052508101906108f69190611812565b82146109335760405162461bcd60e51b815260206004820152600c60248201526b1b5a59dc985d194e8818985960a21b6044820152606401610420565b83546001600160a01b0319166001600160a01b039190911617909255505050565b600060068281548110610969576109696117fc565b9060005260206000209060040201905080600201544311610988575050565b80546040516370a0823160e01b81523060048201526000916001600160a01b0316906370a082319060240160206040518083038186803b1580156109cb57600080fd5b505afa1580156109df573d6000803e3d6000fd5b505050506040513d601f19601f82011682018060405250810190610a039190611812565b905080610a1557504360029091015550565b6000610a25836002015443610eb6565b90506000610a526008546106528660010154610a4c600454876110d590919063ffffffff16565b906110d5565b6001546002549192506001600160a01b039081169163a9059cbb9116610a7984600a6110e1565b6040516001600160e01b031960e085901b1681526001600160a01b0390921660048301526024820152604401602060405180830381600087803b158015610abf57600080fd5b505af1158015610ad3573d6000803e3d6000fd5b505050506040513d601f19601f82011682018060405250810190610af79190611848565b50610b19610b0e846106528464e8d4a510006110d5565b6003860154906110c2565b60038501555050436002909201919091555050565b600060068281548110610b4357610b436117fc565b60009182526020808320858452600782526040808520338087529352909320805460049093029093018054909450610b88926001600160a01b0391909116919061124a565b8054604051908152839033907fbb757047c2b5f3974fe26b7c10f732e7bce710b0952a71082702781e62ae05959060200160405180910390a360008082556001909101555050565b60008060068481548110610be657610be66117fc565b600091825260208083208784526007825260408085206001600160a01b038981168752935280852060049485029092016003810154815492516370a0823160e01b8152309681019690965290965091949193919216906370a082319060240160206040518083038186803b158015610c5d57600080fd5b505afa158015610c71573d6000803e3d6000fd5b505050506040513d601f19601f82011682018060405250810190610c959190611812565b9050836002015443118015610ca957508015155b15610d09576000610cbe856002015443610eb6565b90506000610ce56008546106528860010154610a4c600454876110d590919063ffffffff16565b9050610d04610cfd846106528464e8d4a510006110d5565b85906110c2565b935050505b610d31836001015461065864e8d4a510006106528688600001546110d590919063ffffffff16565b9450505050505b92915050565b60065460005b81811015610d6557610d5581610954565b610d5e8161187b565b9050610d44565b5050565b6000546001600160a01b03163314610d935760405162461bcd60e51b8152600401610420906117c7565b8015610da157610da1610d3e565b610de482610dde60068681548110610dbb57610dbb6117fc565b9060005260206000209060040201600101546008546110ed90919063ffffffff16565b906110c2565b6008819055508160068481548110610dfe57610dfe6117fc565b906000526020600020906004020160010181905550505050565b6000546001600160a01b03163314610e425760405162461bcd60e51b8152600401610420906117c7565b610e4c60006113d1565b565b6002546001600160a01b03163314610e945760405162461bcd60e51b81526020600482015260096024820152686465763a207775743f60b81b6044820152606401610420565b600280546001600160a01b0319166001600160a01b0392909216919091179055565b60006003548211610ed757610ed0600a610a4c84866110ed565b9050610d38565b6003548310610eea57610ed082846110ed565b610ed0610f02600354846110ed90919063ffffffff16565b610dde600a610a4c876003546110ed90919063ffffffff16565b600060068381548110610f3157610f316117fc565b60009182526020808320868452600782526040808520338652909252922060049091029091019150610f6284610954565b805415610fa5576000610f97826001015461065864e8d4a51000610652876003015487600001546110d590919063ffffffff16565b9050610fa333826110f9565b505b8154610fbc906001600160a01b0316333086611421565b8054610fc890846110c2565b8082556003830154610fe59164e8d4a510009161065291906110d5565b6001820155604051838152849033907f90890809c654f11d6e72a28fa60149770a0d11ec6c92319d6ceb2bb0a4ea1a159060200160405180910390a350505050565b6000546001600160a01b031633146110515760405162461bcd60e51b8152600401610420906117c7565b6001600160a01b0381166110b65760405162461bcd60e51b815260206004820152602660248201527f4f776e61626c653a206e6577206f776e657220697320746865207a65726f206160448201526564647265737360d01b6064820152608401610420565b6110bf816113d1565b50565b60006110ce8284611896565b9392505050565b60006110ce82846118ae565b60006110ce82846118cd565b60006110ce82846118ef565b6001546040516370a0823160e01b81523060048201526000916001600160a01b0316906370a082319060240160206040518083038186803b15801561113d57600080fd5b505afa158015611151573d6000803e3d6000fd5b505050506040513d601f19601f820116820180604052508101906111759190611812565b90508082111561120c5760015460405163a9059cbb60e01b81526001600160a01b038581166004830152602482018490529091169063a9059cbb906044015b602060405180830381600087803b1580156111ce57600080fd5b505af11580156111e2573d6000803e3d6000fd5b505050506040513d601f19601f820116820180604052508101906112069190611848565b50505050565b60015460405163a9059cbb60e01b81526001600160a01b038581166004830152602482018590529091169063a9059cbb906044016111b4565b505050565b6040516001600160a01b03831660248201526044810182905261124590849063a9059cbb60e01b906064015b60408051601f198184030181529190526020810180516001600160e01b03166001600160e01b031990931692909217909152611459565b8015806113365750604051636eb1769f60e11b81523060048201526001600160a01b03838116602483015284169063dd62ed3e9060440160206040518083038186803b1580156112fc57600080fd5b505afa158015611310573d6000803e3d6000fd5b505050506040513d601f19601f820116820180604052508101906113349190611812565b155b6113a15760405162461bcd60e51b815260206004820152603660248201527f5361666545524332303a20617070726f76652066726f6d206e6f6e2d7a65726f60448201527520746f206e6f6e2d7a65726f20616c6c6f77616e636560501b6064820152608401610420565b6040516001600160a01b03831660248201526044810182905261124590849063095ea7b360e01b90606401611276565b600080546001600160a01b038381166001600160a01b0319831681178455604051919092169283917f8be0079c531659141344cd1fd0a4f28419497f9722a3daafe3b4186f6b6457e09190a35050565b6040516001600160a01b03808516602483015283166044820152606481018290526112069085906323b872dd60e01b90608401611276565b60006114ae826040518060400160405280602081526020017f5361666545524332303a206c6f772d6c6576656c2063616c6c206661696c6564815250856001600160a01b031661152b9092919063ffffffff16565b80519091501561124557808060200190518101906114cc9190611848565b6112455760405162461bcd60e51b815260206004820152602a60248201527f5361666545524332303a204552433230206f7065726174696f6e20646964206e6044820152691bdd081cdd58d8d9595960b21b6064820152608401610420565b606061153a8484600085611542565b949350505050565b6060824710156115a35760405162461bcd60e51b815260206004820152602660248201527f416464726573733a20696e73756666696369656e742062616c616e636520666f6044820152651c8818d85b1b60d21b6064820152608401610420565b6001600160a01b0385163b6115fa5760405162461bcd60e51b815260206004820152601d60248201527f416464726573733a2063616c6c20746f206e6f6e2d636f6e74726163740000006044820152606401610420565b600080866001600160a01b031685876040516116169190611932565b60006040518083038185875af1925050503d8060008114611653576040519150601f19603f3d011682016040523d82523d6000602084013e611658565b606091505b5091509150611668828286611673565b979650505050505050565b606083156116825750816110ce565b8251156116925782518084602001fd5b8160405162461bcd60e51b8152600401610420919061194e565b6000602082840312156116be57600080fd5b5035919050565b6001600160a01b03811681146110bf57600080fd5b80151581146110bf57600080fd5b6000806000606084860312156116fd57600080fd5b83359250602084013561170f816116c5565b9150604084013561171f816116da565b809150509250925092565b60006020828403121561173c57600080fd5b81356110ce816116c5565b6000806040838503121561175a57600080fd5b50508035926020909101359150565b6000806040838503121561177c57600080fd5b82359150602083013561178e816116c5565b809150509250929050565b6000806000606084860312156117ae57600080fd5b8335925060208401359150604084013561171f816116da565b6020808252818101527f4f776e61626c653a2063616c6c6572206973206e6f7420746865206f776e6572604082015260600190565b634e487b7160e01b600052603260045260246000fd5b60006020828403121561182457600080fd5b5051919050565b60006020828403121561183d57600080fd5b81516110ce816116c5565b60006020828403121561185a57600080fd5b81516110ce816116da565b634e487b7160e01b600052601160045260246000fd5b600060001982141561188f5761188f611865565b5060010190565b600082198211156118a9576118a9611865565b500190565b60008160001904831182151516156118c8576118c8611865565b500290565b6000826118ea57634e487b7160e01b600052601260045260246000fd5b500490565b60008282101561190157611901611865565b500390565b60005b83811015611921578181015183820152602001611909565b838111156112065750506000910152565b60008251611944818460208701611906565b9190910192915050565b602081526000825180602084015261196d816040850160208701611906565b601f01601f1916919091016040019291505056fea2646970667358221220adf969a620fb5c28723dddbd22de9b57f98c38b684284abb6d7cd3e35f5ada5764736f6c63430008090033",
  "devdoc": {
    "kind": "dev",
    "methods": {
      "owner()": {
        "details": "Returns the address of the current owner."
      },
      "renounceOwnership()": {
        "details": "Leaves the contract without owner. It will not be possible to call `onlyOwner` functions anymore. Can only be called by the current owner. NOTE: Renouncing ownership will leave the contract without an owner, thereby removing any functionality that is only available to the owner."
      },
      "transferOwnership(address)": {
        "details": "Transfers ownership of the contract to a new account (`newOwner`). Can only be called by the current owner."
      }
    },
    "version": 1
  },
  "userdoc": {
    "kind": "user",
    "methods": {},
    "version": 1
  },
  "storageLayout": {
    "storage": [
      {
        "astId": 249,
        "contract": "contracts/gwit/FarmPool.sol:MasterChef",
        "label": "_owner",
        "offset": 0,
        "slot": "0",
        "type": "t_address"
      },
      {
        "astId": 11880,
        "contract": "contracts/gwit/FarmPool.sol:MasterChef",
        "label": "gwit",
        "offset": 0,
        "slot": "1",
        "type": "t_contract(IERC20)2447"
      },
      {
        "astId": 11882,
        "contract": "contracts/gwit/FarmPool.sol:MasterChef",
        "label": "devaddr",
        "offset": 0,
        "slot": "2",
        "type": "t_address"
      },
      {
        "astId": 11884,
        "contract": "contracts/gwit/FarmPool.sol:MasterChef",
        "label": "bonusEndBlock",
        "offset": 0,
        "slot": "3",
        "type": "t_uint256"
      },
      {
        "astId": 11886,
        "contract": "contracts/gwit/FarmPool.sol:MasterChef",
        "label": "gwitPerBlock",
        "offset": 0,
        "slot": "4",
        "type": "t_uint256"
      },
      {
        "astId": 11892,
        "contract": "contracts/gwit/FarmPool.sol:MasterChef",
        "label": "migrator",
        "offset": 0,
        "slot": "5",
        "type": "t_contract(IMigratorChef)11853"
      },
      {
        "astId": 11896,
        "contract": "contracts/gwit/FarmPool.sol:MasterChef",
        "label": "poolInfo",
        "offset": 0,
        "slot": "6",
        "type": "t_array(t_struct(PoolInfo)11877_storage)dyn_storage"
      },
      {
        "astId": 11903,
        "contract": "contracts/gwit/FarmPool.sol:MasterChef",
        "label": "userInfo",
        "offset": 0,
        "slot": "7",
        "type": "t_mapping(t_uint256,t_mapping(t_address,t_struct(UserInfo)11867_storage))"
      },
      {
        "astId": 11906,
        "contract": "contracts/gwit/FarmPool.sol:MasterChef",
        "label": "totalAllocPoint",
        "offset": 0,
        "slot": "8",
        "type": "t_uint256"
      },
      {
        "astId": 11908,
        "contract": "contracts/gwit/FarmPool.sol:MasterChef",
        "label": "startBlock",
        "offset": 0,
        "slot": "9",
        "type": "t_uint256"
      }
    ],
    "types": {
      "t_address": {
        "encoding": "inplace",
        "label": "address",
        "numberOfBytes": "20"
      },
      "t_array(t_struct(PoolInfo)11877_storage)dyn_storage": {
        "base": "t_struct(PoolInfo)11877_storage",
        "encoding": "dynamic_array",
        "label": "struct MasterChef.PoolInfo[]",
        "numberOfBytes": "32"
      },
      "t_contract(IERC20)2447": {
        "encoding": "inplace",
        "label": "contract IERC20",
        "numberOfBytes": "20"
      },
      "t_contract(IMigratorChef)11853": {
        "encoding": "inplace",
        "label": "contract IMigratorChef",
        "numberOfBytes": "20"
      },
      "t_mapping(t_address,t_struct(UserInfo)11867_storage)": {
        "encoding": "mapping",
        "key": "t_address",
        "label": "mapping(address => struct MasterChef.UserInfo)",
        "numberOfBytes": "32",
        "value": "t_struct(UserInfo)11867_storage"
      },
      "t_mapping(t_uint256,t_mapping(t_address,t_struct(UserInfo)11867_storage))": {
        "encoding": "mapping",
        "key": "t_uint256",
        "label": "mapping(uint256 => mapping(address => struct MasterChef.UserInfo))",
        "numberOfBytes": "32",
        "value": "t_mapping(t_address,t_struct(UserInfo)11867_storage)"
      },
      "t_struct(PoolInfo)11877_storage": {
        "encoding": "inplace",
        "label": "struct MasterChef.PoolInfo",
        "members": [
          {
            "astId": 11870,
            "contract": "contracts/gwit/FarmPool.sol:MasterChef",
            "label": "lpToken",
            "offset": 0,
            "slot": "0",
            "type": "t_contract(IERC20)2447"
          },
          {
            "astId": 11872,
            "contract": "contracts/gwit/FarmPool.sol:MasterChef",
            "label": "allocPoint",
            "offset": 0,
            "slot": "1",
            "type": "t_uint256"
          },
          {
            "astId": 11874,
            "contract": "contracts/gwit/FarmPool.sol:MasterChef",
            "label": "lastRewardBlock",
            "offset": 0,
            "slot": "2",
            "type": "t_uint256"
          },
          {
            "astId": 11876,
            "contract": "contracts/gwit/FarmPool.sol:MasterChef",
            "label": "accGwitPerShare",
            "offset": 0,
            "slot": "3",
            "type": "t_uint256"
          }
        ],
        "numberOfBytes": "128"
      },
      "t_struct(UserInfo)11867_storage": {
        "encoding": "inplace",
        "label": "struct MasterChef.UserInfo",
        "members": [
          {
            "astId": 11864,
            "contract": "contracts/gwit/FarmPool.sol:MasterChef",
            "label": "amount",
            "offset": 0,
            "slot": "0",
            "type": "t_uint256"
          },
          {
            "astId": 11866,
            "contract": "contracts/gwit/FarmPool.sol:MasterChef",
            "label": "rewardDebt",
            "offset": 0,
            "slot": "1",
            "type": "t_uint256"
          }
        ],
        "numberOfBytes": "64"
      },
      "t_uint256": {
        "encoding": "inplace",
        "label": "uint256",
        "numberOfBytes": "32"
      }
    }
  }
}