{
  "address": "0x433F4FfAD2AaFAEd1E646E4Fe567e34005dfDa4a",
  "abi": [
    {
      "inputs": [
        {
          "internalType": "contract IERC20",
          "name": "_operatingToken",
          "type": "address"
        },
        {
          "internalType": "address",
          "name": "_vault",
          "type": "address"
        }
      ],
      "stateMutability": "nonpayable",
      "type": "constructor"
    },
    {
      "anonymous": false,
      "inputs": [
        {
          "indexed": true,
          "internalType": "uint256",
          "name": "nonce",
          "type": "uint256"
        },
        {
          "indexed": true,
          "internalType": "address",
          "name": "target",
          "type": "address"
        },
        {
          "indexed": false,
          "internalType": "uint256",
          "name": "amount",
          "type": "uint256"
        }
      ],
      "name": "Claimed",
      "type": "event"
    },
    {
      "anonymous": false,
      "inputs": [
        {
          "indexed": false,
          "internalType": "uint256",
          "name": "listingId",
          "type": "uint256"
        },
        {
          "indexed": false,
          "internalType": "address",
          "name": "token",
          "type": "address"
        },
        {
          "indexed": false,
          "internalType": "uint256",
          "name": "tokenId",
          "type": "uint256"
        },
        {
          "indexed": false,
          "internalType": "address",
          "name": "owner",
          "type": "address"
        },
        {
          "indexed": false,
          "internalType": "uint256",
          "name": "amount",
          "type": "uint256"
        },
        {
          "indexed": false,
          "internalType": "uint256",
          "name": "price",
          "type": "uint256"
        },
        {
          "indexed": false,
          "internalType": "enum Store.TokenType",
          "name": "tokentype",
          "type": "uint8"
        }
      ],
      "name": "Listed",
      "type": "event"
    },
    {
      "anonymous": false,
      "inputs": [
        {
          "indexed": true,
          "internalType": "address",
          "name": "previousOwner",
          "type": "address"
        },
        {
          "indexed": true,
          "internalType": "address",
          "name": "newOwner",
          "type": "address"
        }
      ],
      "name": "OwnershipTransferred",
      "type": "event"
    },
    {
      "anonymous": false,
      "inputs": [
        {
          "indexed": false,
          "internalType": "uint256",
          "name": "listingId",
          "type": "uint256"
        }
      ],
      "name": "Revoke",
      "type": "event"
    },
    {
      "anonymous": false,
      "inputs": [
        {
          "indexed": false,
          "internalType": "uint256",
          "name": "listingId",
          "type": "uint256"
        },
        {
          "indexed": true,
          "internalType": "address",
          "name": "buyer",
          "type": "address"
        },
        {
          "indexed": false,
          "internalType": "uint256",
          "name": "amount",
          "type": "uint256"
        }
      ],
      "name": "Sold",
      "type": "event"
    },
    {
      "anonymous": false,
      "inputs": [
        {
          "indexed": false,
          "internalType": "address",
          "name": "signer",
          "type": "address"
        },
        {
          "indexed": false,
          "internalType": "bool",
          "name": "state",
          "type": "bool"
        }
      ],
      "name": "UpdateSigner",
      "type": "event"
    },
    {
      "inputs": [
        {
          "internalType": "address",
          "name": "",
          "type": "address"
        }
      ],
      "name": "allowedLister",
      "outputs": [
        {
          "internalType": "bool",
          "name": "",
          "type": "bool"
        }
      ],
      "stateMutability": "view",
      "type": "function"
    },
    {
      "inputs": [
        {
          "internalType": "uint256",
          "name": "",
          "type": "uint256"
        }
      ],
      "name": "burned",
      "outputs": [
        {
          "internalType": "bool",
          "name": "",
          "type": "bool"
        }
      ],
      "stateMutability": "view",
      "type": "function"
    },
    {
      "inputs": [
        {
          "internalType": "address",
          "name": "from",
          "type": "address"
        },
        {
          "internalType": "address",
          "name": "to",
          "type": "address"
        },
        {
          "internalType": "uint256",
          "name": "listingId",
          "type": "uint256"
        },
        {
          "internalType": "uint256",
          "name": "amount",
          "type": "uint256"
        }
      ],
      "name": "buyItemWithAffiliate",
      "outputs": [],
      "stateMutability": "nonpayable",
      "type": "function"
    },
    {
      "inputs": [],
      "name": "feeRate",
      "outputs": [
        {
          "internalType": "uint256",
          "name": "",
          "type": "uint256"
        }
      ],
      "stateMutability": "view",
      "type": "function"
    },
    {
      "inputs": [
        {
          "internalType": "uint256",
          "name": "",
          "type": "uint256"
        }
      ],
      "name": "inactive",
      "outputs": [
        {
          "internalType": "bool",
          "name": "",
          "type": "bool"
        }
      ],
      "stateMutability": "view",
      "type": "function"
    },
    {
      "inputs": [
        {
          "internalType": "address",
          "name": "",
          "type": "address"
        }
      ],
      "name": "last_purchase",
      "outputs": [
        {
          "internalType": "uint256",
          "name": "",
          "type": "uint256"
        }
      ],
      "stateMutability": "view",
      "type": "function"
    },
    {
      "inputs": [
        {
          "internalType": "uint256",
          "name": "",
          "type": "uint256"
        }
      ],
      "name": "listings",
      "outputs": [
        {
          "internalType": "address",
          "name": "token",
          "type": "address"
        },
        {
          "internalType": "uint256",
          "name": "tokenId",
          "type": "uint256"
        },
        {
          "internalType": "address",
          "name": "owner",
          "type": "address"
        },
        {
          "internalType": "uint256",
          "name": "price",
          "type": "uint256"
        },
        {
          "internalType": "enum Store.TokenType",
          "name": "tokentype",
          "type": "uint8"
        },
        {
          "internalType": "uint256",
          "name": "maxval",
          "type": "uint256"
        }
      ],
      "stateMutability": "view",
      "type": "function"
    },
    {
      "inputs": [
        {
          "internalType": "enum Store.TokenType",
          "name": "tokenType",
          "type": "uint8"
        },
        {
          "internalType": "address",
          "name": "token",
          "type": "address"
        },
        {
          "internalType": "uint256",
          "name": "tokenId",
          "type": "uint256"
        },
        {
          "internalType": "uint256",
          "name": "amount",
          "type": "uint256"
        },
        {
          "internalType": "uint256",
          "name": "price",
          "type": "uint256"
        },
        {
          "internalType": "uint256",
          "name": "maxval",
          "type": "uint256"
        }
      ],
      "name": "makeListing",
      "outputs": [
        {
          "internalType": "uint256",
          "name": "",
          "type": "uint256"
        }
      ],
      "stateMutability": "nonpayable",
      "type": "function"
    },
    {
      "inputs": [],
      "name": "nextId",
      "outputs": [
        {
          "internalType": "uint256",
          "name": "",
          "type": "uint256"
        }
      ],
      "stateMutability": "view",
      "type": "function"
    },
    {
      "inputs": [],
      "name": "operatingToken",
      "outputs": [
        {
          "internalType": "contract IERC20",
          "name": "",
          "type": "address"
        }
      ],
      "stateMutability": "view",
      "type": "function"
    },
    {
      "inputs": [],
      "name": "owner",
      "outputs": [
        {
          "internalType": "address",
          "name": "",
          "type": "address"
        }
      ],
      "stateMutability": "view",
      "type": "function"
    },
    {
      "inputs": [
        {
          "internalType": "address",
          "name": "to",
          "type": "address"
        },
        {
          "internalType": "uint256[]",
          "name": "listingIds",
          "type": "uint256[]"
        },
        {
          "internalType": "uint256[]",
          "name": "amounts",
          "type": "uint256[]"
        },
        {
          "components": [
            {
              "internalType": "uint256",
              "name": "nonce",
              "type": "uint256"
            },
            {
              "internalType": "address",
              "name": "target",
              "type": "address"
            },
            {
              "internalType": "uint256",
              "name": "amount",
              "type": "uint256"
            },
            {
              "components": [
                {
                  "internalType": "bytes32",
                  "name": "r",
                  "type": "bytes32"
                },
                {
                  "internalType": "bytes32",
                  "name": "s",
                  "type": "bytes32"
                },
                {
                  "internalType": "uint8",
                  "name": "v",
                  "type": "uint8"
                }
              ],
              "internalType": "struct Claimable.Sig",
              "name": "signature",
              "type": "tuple"
            }
          ],
          "internalType": "struct Claimable.Claim",
          "name": "claimData",
          "type": "tuple"
        }
      ],
      "name": "purchase",
      "outputs": [],
      "stateMutability": "nonpayable",
      "type": "function"
    },
    {
      "inputs": [
        {
          "internalType": "address",
          "name": "to",
          "type": "address"
        },
        {
          "internalType": "uint256[]",
          "name": "listingIds",
          "type": "uint256[]"
        },
        {
          "internalType": "uint256[]",
          "name": "amounts",
          "type": "uint256[]"
        },
        {
          "components": [
            {
              "internalType": "uint256",
              "name": "nonce",
              "type": "uint256"
            },
            {
              "internalType": "address",
              "name": "target",
              "type": "address"
            },
            {
              "internalType": "uint256",
              "name": "amount",
              "type": "uint256"
            },
            {
              "components": [
                {
                  "internalType": "bytes32",
                  "name": "r",
                  "type": "bytes32"
                },
                {
                  "internalType": "bytes32",
                  "name": "s",
                  "type": "bytes32"
                },
                {
                  "internalType": "uint8",
                  "name": "v",
                  "type": "uint8"
                }
              ],
              "internalType": "struct Claimable.Sig",
              "name": "signature",
              "type": "tuple"
            }
          ],
          "internalType": "struct Claimable.Claim",
          "name": "claimData",
          "type": "tuple"
        },
        {
          "components": [
            {
              "internalType": "address",
              "name": "owner",
              "type": "address"
            },
            {
              "internalType": "address",
              "name": "spender",
              "type": "address"
            },
            {
              "internalType": "uint256",
              "name": "value",
              "type": "uint256"
            },
            {
              "internalType": "uint256",
              "name": "deadline",
              "type": "uint256"
            },
            {
              "internalType": "uint8",
              "name": "v",
              "type": "uint8"
            },
            {
              "internalType": "bytes32",
              "name": "r",
              "type": "bytes32"
            },
            {
              "internalType": "bytes32",
              "name": "s",
              "type": "bytes32"
            }
          ],
          "internalType": "struct Store.Permit",
          "name": "_permit",
          "type": "tuple"
        }
      ],
      "name": "purchasePermit",
      "outputs": [],
      "stateMutability": "nonpayable",
      "type": "function"
    },
    {
      "inputs": [],
      "name": "renounceOwnership",
      "outputs": [],
      "stateMutability": "nonpayable",
      "type": "function"
    },
    {
      "inputs": [
        {
          "internalType": "uint256",
          "name": "listingId",
          "type": "uint256"
        },
        {
          "internalType": "uint256",
          "name": "price",
          "type": "uint256"
        }
      ],
      "name": "reprice",
      "outputs": [],
      "stateMutability": "nonpayable",
      "type": "function"
    },
    {
      "inputs": [
        {
          "internalType": "uint256",
          "name": "listingId",
          "type": "uint256"
        },
        {
          "internalType": "uint256",
          "name": "amount",
          "type": "uint256"
        }
      ],
      "name": "restock",
      "outputs": [],
      "stateMutability": "nonpayable",
      "type": "function"
    },
    {
      "inputs": [
        {
          "internalType": "uint256",
          "name": "listingId",
          "type": "uint256"
        },
        {
          "internalType": "bool",
          "name": "active",
          "type": "bool"
        }
      ],
      "name": "setActive",
      "outputs": [],
      "stateMutability": "nonpayable",
      "type": "function"
    },
    {
      "inputs": [
        {
          "internalType": "address",
          "name": "_address",
          "type": "address"
        }
      ],
      "name": "setAffiliateAddress",
      "outputs": [],
      "stateMutability": "nonpayable",
      "type": "function"
    },
    {
      "inputs": [
        {
          "internalType": "address",
          "name": "account",
          "type": "address"
        },
        {
          "internalType": "bool",
          "name": "allowed",
          "type": "bool"
        }
      ],
      "name": "setAllowedLister",
      "outputs": [],
      "stateMutability": "nonpayable",
      "type": "function"
    },
    {
      "inputs": [
        {
          "internalType": "uint256",
          "name": "_feeRate",
          "type": "uint256"
        }
      ],
      "name": "setFeeRate",
      "outputs": [],
      "stateMutability": "nonpayable",
      "type": "function"
    },
    {
      "inputs": [
        {
          "internalType": "address",
          "name": "_signer",
          "type": "address"
        },
        {
          "internalType": "bool",
          "name": "_state",
          "type": "bool"
        }
      ],
      "name": "setSigner",
      "outputs": [],
      "stateMutability": "nonpayable",
      "type": "function"
    },
    {
      "inputs": [
        {
          "internalType": "address",
          "name": "",
          "type": "address"
        }
      ],
      "name": "signers",
      "outputs": [
        {
          "internalType": "bool",
          "name": "",
          "type": "bool"
        }
      ],
      "stateMutability": "view",
      "type": "function"
    },
    {
      "inputs": [
        {
          "internalType": "uint256",
          "name": "",
          "type": "uint256"
        }
      ],
      "name": "stocks",
      "outputs": [
        {
          "internalType": "uint256",
          "name": "",
          "type": "uint256"
        }
      ],
      "stateMutability": "view",
      "type": "function"
    },
    {
      "inputs": [
        {
          "internalType": "address",
          "name": "newOwner",
          "type": "address"
        }
      ],
      "name": "transferOwnership",
      "outputs": [],
      "stateMutability": "nonpayable",
      "type": "function"
    },
    {
      "inputs": [
        {
          "components": [
            {
              "internalType": "uint256",
              "name": "nonce",
              "type": "uint256"
            },
            {
              "internalType": "address",
              "name": "target",
              "type": "address"
            },
            {
              "internalType": "uint256",
              "name": "amount",
              "type": "uint256"
            },
            {
              "components": [
                {
                  "internalType": "bytes32",
                  "name": "r",
                  "type": "bytes32"
                },
                {
                  "internalType": "bytes32",
                  "name": "s",
                  "type": "bytes32"
                },
                {
                  "internalType": "uint8",
                  "name": "v",
                  "type": "uint8"
                }
              ],
              "internalType": "struct Claimable.Sig",
              "name": "signature",
              "type": "tuple"
            }
          ],
          "internalType": "struct Claimable.Claim",
          "name": "claimData",
          "type": "tuple"
        }
      ],
      "name": "validateClaim",
      "outputs": [
        {
          "internalType": "bool",
          "name": "",
          "type": "bool"
        }
      ],
      "stateMutability": "view",
      "type": "function"
    }
  ],
  "transactionHash": "0xb67516a9d6792b97de4d5e88a6724610a779156c01c3b12eda241803d627dd89",
  "args": [
    "0x375397c1491E9C96282BAB1eFd8120FF68055130",
    "0xf5CA36c9873d61Bc28C117BD470981Ef6647A685"
  ],
  "numDeployments": 1,
  "solcInputHash": "61c20db86f383acbf281885c4f75de62",
  "bytecode": "0x60a06040523480156200001157600080fd5b506040516200221a3803806200221a8339810160408190526200003491620000ce565b6200003f3362000065565b600380546001600160a01b0319166001600160a01b03938416179055166080526200010d565b600080546001600160a01b038381166001600160a01b0319831681178455604051919092169283917f8be0079c531659141344cd1fd0a4f28419497f9722a3daafe3b4186f6b6457e09190a35050565b6001600160a01b0381168114620000cb57600080fd5b50565b60008060408385031215620000e257600080fd5b8251620000ef81620000b5565b60208401519092506200010281620000b5565b809150509250929050565b6080516120ea6200013060003960008181610f4101526114d001526120ea6000f3fe608060405234801561001057600080fd5b50600436106101735760003560e01c8063715018a6116100de578063ddd5987f11610097578063ec6f8fe011610071578063ec6f8fe0146103bd578063f2fde38b146103d0578063f7f6a971146103e3578063fb92699d146103f657600080fd5b8063ddd5987f14610330578063de74e57b14610343578063e60a955d146103aa57600080fd5b8063715018a6146102b1578063736c0d5b146102b95780638da5cb5b146102dc578063978bbdb914610301578063a77feae01461030a578063c6608d121461031d57600080fd5b8063250f117011610130578063250f11701461024957806328b0eb001461025c57806331cb61051461026f57806345596e2e1461028257806353fe23281461029557806361b8ce8c146102a857600080fd5b806310e27d7a146101785780631d2ae92b146101b0578063226b876c146101de57806323250cae146101fe578063237b068a14610221578063246a7ac014610236575b600080fd5b61019b610186366004611b24565b60096020526000908152604090205460ff1681565b60405190151581526020015b60405180910390f35b6101d06101be366004611b24565b600a6020526000908152604090205481565b6040519081526020016101a7565b6101d06101ec366004611b3f565b60086020526000908152604090205481565b61019b61020c366004611b3f565b60026020526000908152604090205460ff1681565b61023461022f366004611b58565b610419565b005b610234610244366004611bde565b6105f1565b610234610257366004611c9e565b6106dd565b61019b61026a366004611cd5565b610732565b61023461027d366004611c9e565b6107b2565b610234610290366004611b3f565b610840565b6102346102a3366004611b24565b61086f565b6101d060055481565b6102346108bb565b61019b6102c7366004611b24565b60016020526000908152604090205460ff1681565b6000546001600160a01b03165b6040516001600160a01b0390911681526020016101a7565b6101d060045481565b6101d0610318366004611cf1565b6108f1565b61023461032b366004611d4c565b610b9d565b61023461033e366004611b58565b61115c565b610398610351366004611b3f565b6006602052600090815260409020805460018201546002830154600384015460048501546005909501546001600160a01b0394851695939490921692909160ff9091169086565b6040516101a796959493929190611e16565b6102346103b8366004611e5a565b6111e0565b6102346103cb366004611e7f565b6112a6565b6102346103de366004611b24565b6116b9565b6003546102e9906001600160a01b031681565b61019b610404366004611b3f565b60076020526000908152604090205460ff1681565b6000828152600660205260409020600201546001600160a01b031633146104925760405162461bcd60e51b815260206004820152602260248201527f6f6e6c79206f776e65722063616e207265707269636520746865206c697374696044820152616e6760f01b60648201526084015b60405180910390fd5b600454156104c257612710600454826104ab9190611ed7565b6104b59190611f0c565b6104bf9082611f20565b90505b6000828152600660209081526040808320815160c08101835281546001600160a01b03908116825260018301549482019490945260028201549093169183019190915260038082015460608401526004820154608084019160ff9091169081111561052f5761052f611dde565b600381111561054057610540611dde565b81526005919091015460209182015260608201848152600086815260068352604090819020845181546001600160a01b03199081166001600160a01b0392831617835594860151600180840191909155928601516002830180549096169116179093559051600380840191909155608084015160048401805495965086959193909260ff199092169184908111156105da576105da611dde565b021790555060a08201518160050155905050505050565b6003546001600160a01b03168063d505accf6106106020850185611b24565b6106206040860160208701611b24565b6040860135606087013561063a60a0890160808a01611f38565b6040516001600160e01b031960e088901b1681526001600160a01b0395861660048201529490931660248501526044840191909152606483015260ff16608482015260a085013560a482015260c085013560c482015260e401600060405180830381600087803b1580156106ad57600080fd5b505af11580156106c1573d6000803e3d6000fd5b505050506106d3888888888888610b9d565b5050505050505050565b6000546001600160a01b031633146107075760405162461bcd60e51b815260040161048990611f5b565b6001600160a01b03919091166000908152600960205260409020805460ff1916911515919091179055565b60008082356107476040850160208601611b24565b84604001356040516020016107819392919092835260609190911b6bffffffffffffffffffffffff19166020830152603482015260540190565b6040516020818303038152906040528051906020012090506107ab83606001846000013583611754565b9392505050565b6000546001600160a01b031633146107dc5760405162461bcd60e51b815260040161048990611f5b565b6001600160a01b038216600081815260016020908152604091829020805460ff19168515159081179091558251938452908301527f863d338cad74814b108a06288ad5e0e80d56495e0332238b1d2cdcfa0ca8e5ce91015b60405180910390a15050565b6000546001600160a01b0316331461086a5760405162461bcd60e51b815260040161048990611f5b565b600455565b6000546001600160a01b031633146108995760405162461bcd60e51b815260040161048990611f5b565b600b80546001600160a01b0319166001600160a01b0392909216919091179055565b6000546001600160a01b031633146108e55760405162461bcd60e51b815260040161048990611f5b565b6108ef600061188c565b565b3360009081526009602052604081205460ff166109475760405162461bcd60e51b815260206004820152601460248201527314d513d4914e9393d517d055551213d49256915160621b6044820152606401610489565b6005546001016005819055506000610967338988600160008060006118dc565b90506000876001600160a01b0316826040516109839190611f90565b6000604051808303816000865af19150503d80600081146109c0576040519150601f19603f3d011682016040523d82523d6000602084013e6109c5565b606091505b5050905080610a165760405162461bcd60e51b815260206004820152601b60248201527f53746f72653a544f4b454e5f56414c49444154455f4641494c454400000000006044820152606401610489565b60045415610a465761271060045486610a2f9190611ed7565b610a399190611f0c565b610a439086611f20565b94505b6040518060c00160405280896001600160a01b03168152602001888152602001336001600160a01b031681526020018681526020018a6003811115610a8d57610a8d611dde565b81526020908101869052600554600090815260068252604090819020835181546001600160a01b03199081166001600160a01b039283161783559385015160018084019190915592850151600283018054909516911617909255606083015160038084019190915560808401516004840180549193909260ff19909216918490811115610b1c57610b1c611dde565b021790555060a0820151816005015590505085600860006005548152602001908152602001600020819055507f4a66764e077ff46573b42d9f8582566200591bddad30d7644782da386ef855ee6005548989338a8a8f604051610b859796959493929190611fcb565b60405180910390a15050600554979650505050505050565b33610bae6040830160208401611b24565b6001600160a01b031614610bfb5760405162461bcd60e51b815260206004820152601460248201527314dd1bdc994e9393d517d055551213d49256915160621b6044820152606401610489565b610c0481610732565b610c465760405162461bcd60e51b815260206004820152601360248201527253746f72653a494e56414c49445f434c41494d60681b6044820152606401610489565b336000908152600a602052604090819020549082013514610c9b5760405162461bcd60e51b815260206004820152600f60248201526e53746f72653a4f4c445f434c41494d60881b6044820152606401610489565b610cbb81356000908152600260205260409020805460ff19166001179055565b336000908152600a60205260409020439055838214610d1c5760405162461bcd60e51b815260206004820152601860248201527f53746f72653a504152414d455445525f4d49534d4154434800000000000000006044820152606401610489565b60005b84811015611153576000848483818110610d3b57610d3b612017565b9050602002013590506000878784818110610d5857610d58612017565b60209081029290920135600081815260079093526040909220549192505060ff1615610dbf5760405162461bcd60e51b815260206004820152601660248201527553746f72653a494e4143544956455f4c495354494e4760501b6044820152606401610489565b600081815260086020526040902054821115610e185760405162461bcd60e51b815260206004820152601860248201527753746f72653a494e53554646494349454e545f53544f434b60401b6044820152606401610489565b6000818152600660209081526040808320815160c08101835281546001600160a01b03908116825260018301549482019490945260028201549093169183019190915260038082015460608401526004820154608084019160ff90911690811115610e8557610e85611dde565b6003811115610e9657610e96611dde565b8152602001600582015481525050905082600860008481526020019081526020016000206000828254610ec9919061202d565b90915550506060810151600090610ee1908590611ed7565b9050600454600014610fc057600061271060045483610f009190611ed7565b610f0a9190611f0c565b9050610f16818361202d565b6003546040516323b872dd60e01b81529193506001600160a01b0316906323b872dd90610f6b9033907f0000000000000000000000000000000000000000000000000000000000000000908690600401612044565b602060405180830381600087803b158015610f8557600080fd5b505af1158015610f99573d6000803e3d6000fd5b505050506040513d601f19601f82011682018060405250810190610fbd9190612068565b50505b60035460408084015190516323b872dd60e01b81526001600160a01b03909216916323b872dd91610ff8913391908690600401612044565b602060405180830381600087803b15801561101257600080fd5b505af1158015611026573d6000803e3d6000fd5b505050506040513d601f19601f8201168201806040525081019061104a9190612068565b50600061106f8c84608001518560200151888a8c606001600001358960a001516118dc565b9050600083600001516001600160a01b03168260405161108f9190611f90565b6000604051808303816000865af19150503d80600081146110cc576040519150601f19603f3d011682016040523d82523d6000602084013e6110d1565b606091505b50509050806110df57600080fd5b6110ef6040890160208a01611b24565b6001600160a01b03167f66f5cd880edf48cdde6c966e5da0784fcc4c5e85572b8b3b62c4357798d447d78688604051611132929190918252602082015260400190565b60405180910390a2505050505050808061114b90612085565b915050610d1f565b50505050505050565b6000828152600660205260409020600201546001600160a01b031633146111b95760405162461bcd60e51b81526020600482015260116024820152703737ba103634b9ba34b7339037bbb732b960791b6044820152606401610489565b600082815260086020526040812080548392906111d7908490611f20565b90915550505050565b6000828152600660205260409020600201546001600160a01b0316331461125b5760405162461bcd60e51b815260206004820152602960248201527f6f6e6c79206c697374696e67206f776e65722063616e207265766f6b6520746860448201526865206c697374696e6760b81b6064820152608401610489565b600082815260076020908152604091829020805460ff191684151517905590518381527fdb43aa42235c8d63908794a952603e8d43a549383d13123c3d893a3fc2e624959101610834565b600b546001600160a01b031633146112f65760405162461bcd60e51b815260206004820152601360248201527253746f72653a4e4f545f414646494c4941544560681b6044820152606401610489565b60008281526007602052604090205460ff161561134e5760405162461bcd60e51b815260206004820152601660248201527553746f72653a494e4143544956455f4c495354494e4760501b6044820152606401610489565b6000828152600860205260409020548111156113a75760405162461bcd60e51b815260206004820152601860248201527753746f72653a494e53554646494349454e545f53544f434b60401b6044820152606401610489565b6000828152600660209081526040808320815160c08101835281546001600160a01b03908116825260018301549482019490945260028201549093169183019190915260038082015460608401526004820154608084019160ff9091169081111561141457611414611dde565b600381111561142557611425611dde565b8152602001600582015481525050905081600860008581526020019081526020016000206000828254611458919061202d565b90915550506060810151600090611470908490611ed7565b905060045460001461154f5760006127106004548361148f9190611ed7565b6114999190611f0c565b90506114a5818361202d565b6003546040516323b872dd60e01b81529193506001600160a01b0316906323b872dd906114fa908a907f0000000000000000000000000000000000000000000000000000000000000000908690600401612044565b602060405180830381600087803b15801561151457600080fd5b505af1158015611528573d6000803e3d6000fd5b505050506040513d601f19601f8201168201806040525081019061154c9190612068565b50505b60035460408084015190516323b872dd60e01b81526001600160a01b03909216916323b872dd91611587918a91908690600401612044565b602060405180830381600087803b1580156115a157600080fd5b505af11580156115b5573d6000803e3d6000fd5b505050506040513d601f19601f820116820180604052508101906115d99190612068565b5060006115fb86846080015185602001518760008060001b8960a001516118dc565b9050600083600001516001600160a01b03168260405161161b9190611f90565b6000604051808303816000865af19150503d8060008114611658576040519150601f19603f3d011682016040523d82523d6000602084013e61165d565b606091505b505090508061166b57600080fd5b60408051878152602081018790526001600160a01b038916917f66f5cd880edf48cdde6c966e5da0784fcc4c5e85572b8b3b62c4357798d447d7910160405180910390a25050505050505050565b6000546001600160a01b031633146116e35760405162461bcd60e51b815260040161048990611f5b565b6001600160a01b0381166117485760405162461bcd60e51b815260206004820152602660248201527f4f776e61626c653a206e6577206f776e657220697320746865207a65726f206160448201526564647265737360d01b6064820152608401610489565b6117518161188c565b50565b60008281526002602052604081205460ff16156117a65760405162461bcd60e51b815260206004820152601060248201526f10db185a5b58589b194e90955493915160821b6044820152606401610489565b6040517f19457468657265756d205369676e6564204d6573736167653a0a3332000000006020820152603c8101839052600090605c01604051602081830303815290604052805190602001209050600060018287604001602081019061180c9190611f38565b604080516000815260208181018084529490945260ff909216908201528835606082015290880135608082015260a0016020604051602081039080840390855afa15801561185e573d6000803e3d6000fd5b505060408051601f1901516001600160a01b031660009081526001602052205460ff16979650505050505050565b600080546001600160a01b038381166001600160a01b0319831681178455604051919092169283917f8be0079c531659141344cd1fd0a4f28419497f9722a3daafe3b4186f6b6457e09190a35050565b606060008760038111156118f2576118f2611dde565b141561194c576040516001600160a01b0389166024820152604481018790526064810186905260840160408051601f198184030181529190526020810180516001600160e01b0316630ab714fb60e11b1790529050611afd565b600187600381111561196057611960611dde565b14156119fe576040805160208082018690528183018790528251808303840181526060909201909252805191012082156119a15761199e83826120a0565b90505b6040516001600160a01b038a16602482015260448101889052606481018790526084810182905260a40160408051601f198184030181529190526020810180516001600160e01b0316632991fa3b60e21b1790529150611afd9050565b6002876003811115611a1257611a12611dde565b1415611a5e576040516001600160a01b038916602482015260440160408051601f198184030181529190526020810180516001600160e01b03166335313c2160e11b1790529050611afd565b6003876003811115611a7257611a72611dde565b1415611afd57604080516020808201869052818301879052825180830384018152606090920190925280519101208215611ab357611ab083826120a0565b90505b6040516001600160a01b038a1660248201526044810182905260640160408051601f198184030181529190526020810180516001600160e01b03166340c10f1960e01b1790529150505b979650505050505050565b80356001600160a01b0381168114611b1f57600080fd5b919050565b600060208284031215611b3657600080fd5b6107ab82611b08565b600060208284031215611b5157600080fd5b5035919050565b60008060408385031215611b6b57600080fd5b50508035926020909101359150565b60008083601f840112611b8c57600080fd5b50813567ffffffffffffffff811115611ba457600080fd5b6020830191508360208260051b8501011115611bbf57600080fd5b9250929050565b600060c08284031215611bd857600080fd5b50919050565b6000806000806000806000878903610200811215611bfb57600080fd5b611c0489611b08565b9750602089013567ffffffffffffffff80821115611c2157600080fd5b611c2d8c838d01611b7a565b909950975060408b0135915080821115611c4657600080fd5b50611c538b828c01611b7a565b9096509450611c6790508a60608b01611bc6565b925060e061011f1982011215611c7c57600080fd5b506101208801905092959891949750929550565b801515811461175157600080fd5b60008060408385031215611cb157600080fd5b611cba83611b08565b91506020830135611cca81611c90565b809150509250929050565b600060c08284031215611ce757600080fd5b6107ab8383611bc6565b60008060008060008060c08789031215611d0a57600080fd5b863560048110611d1957600080fd5b9550611d2760208801611b08565b95989597505050506040840135936060810135936080820135935060a0909101359150565b6000806000806000806101208789031215611d6657600080fd5b611d6f87611b08565b9550602087013567ffffffffffffffff80821115611d8c57600080fd5b611d988a838b01611b7a565b90975095506040890135915080821115611db157600080fd5b50611dbe89828a01611b7a565b9094509250611dd290508860608901611bc6565b90509295509295509295565b634e487b7160e01b600052602160045260246000fd5b60048110611e1257634e487b7160e01b600052602160045260246000fd5b9052565b6001600160a01b03878116825260208201879052851660408201526060810184905260c08101611e496080830185611df4565b8260a0830152979650505050505050565b60008060408385031215611e6d57600080fd5b823591506020830135611cca81611c90565b60008060008060808587031215611e9557600080fd5b611e9e85611b08565b9350611eac60208601611b08565b93969395505050506040820135916060013590565b634e487b7160e01b600052601160045260246000fd5b6000816000190483118215151615611ef157611ef1611ec1565b500290565b634e487b7160e01b600052601260045260246000fd5b600082611f1b57611f1b611ef6565b500490565b60008219821115611f3357611f33611ec1565b500190565b600060208284031215611f4a57600080fd5b813560ff811681146107ab57600080fd5b6020808252818101527f4f776e61626c653a2063616c6c6572206973206e6f7420746865206f776e6572604082015260600190565b6000825160005b81811015611fb15760208186018101518583015201611f97565b81811115611fc0576000828501525b509190910192915050565b8781526001600160a01b03878116602083015260408201879052851660608201526080810184905260a0810183905260e0810161200b60c0830184611df4565b98975050505050505050565b634e487b7160e01b600052603260045260246000fd5b60008282101561203f5761203f611ec1565b500390565b6001600160a01b039384168152919092166020820152604081019190915260600190565b60006020828403121561207a57600080fd5b81516107ab81611c90565b600060001982141561209957612099611ec1565b5060010190565b6000826120af576120af611ef6565b50069056fea2646970667358221220fe20673db2eece1ed012a7d7288a0ce8b1256bedb923b8e1e24e0e85306894eb64736f6c63430008090033",
  "devdoc": {
    "kind": "dev",
    "methods": {
      "owner()": {
        "details": "Returns the address of the current owner."
      },
      "renounceOwnership()": {
        "details": "Leaves the contract without owner. It will not be possible to call `onlyOwner` functions anymore. Can only be called by the current owner. NOTE: Renouncing ownership will leave the contract without an owner, thereby removing any functionality that is only available to the owner."
      },
      "transferOwnership(address)": {
        "details": "Transfers ownership of the contract to a new account (`newOwner`). Can only be called by the current owner."
      }
    },
    "version": 1
  },
  "userdoc": {
    "kind": "user",
    "methods": {},
    "version": 1
  },
  "storageLayout": {
    "storage": [
      {
        "astId": 249,
        "contract": "contracts/store/Store.sol:Store",
        "label": "_owner",
        "offset": 0,
        "slot": "0",
        "type": "t_address"
      },
      {
        "astId": 15677,
        "contract": "contracts/store/Store.sol:Store",
        "label": "signers",
        "offset": 0,
        "slot": "1",
        "type": "t_mapping(t_address,t_bool)"
      },
      {
        "astId": 15681,
        "contract": "contracts/store/Store.sol:Store",
        "label": "burned",
        "offset": 0,
        "slot": "2",
        "type": "t_mapping(t_uint256,t_bool)"
      },
      {
        "astId": 16678,
        "contract": "contracts/store/Store.sol:Store",
        "label": "operatingToken",
        "offset": 0,
        "slot": "3",
        "type": "t_contract(IERC20)2447"
      },
      {
        "astId": 16680,
        "contract": "contracts/store/Store.sol:Store",
        "label": "feeRate",
        "offset": 0,
        "slot": "4",
        "type": "t_uint256"
      },
      {
        "astId": 16718,
        "contract": "contracts/store/Store.sol:Store",
        "label": "nextId",
        "offset": 0,
        "slot": "5",
        "type": "t_uint256"
      },
      {
        "astId": 16723,
        "contract": "contracts/store/Store.sol:Store",
        "label": "listings",
        "offset": 0,
        "slot": "6",
        "type": "t_mapping(t_uint256,t_struct(Listing)16701_storage)"
      },
      {
        "astId": 16727,
        "contract": "contracts/store/Store.sol:Store",
        "label": "inactive",
        "offset": 0,
        "slot": "7",
        "type": "t_mapping(t_uint256,t_bool)"
      },
      {
        "astId": 16731,
        "contract": "contracts/store/Store.sol:Store",
        "label": "stocks",
        "offset": 0,
        "slot": "8",
        "type": "t_mapping(t_uint256,t_uint256)"
      },
      {
        "astId": 16735,
        "contract": "contracts/store/Store.sol:Store",
        "label": "allowedLister",
        "offset": 0,
        "slot": "9",
        "type": "t_mapping(t_address,t_bool)"
      },
      {
        "astId": 16739,
        "contract": "contracts/store/Store.sol:Store",
        "label": "last_purchase",
        "offset": 0,
        "slot": "10",
        "type": "t_mapping(t_address,t_uint256)"
      },
      {
        "astId": 16741,
        "contract": "contracts/store/Store.sol:Store",
        "label": "affiliateAddress",
        "offset": 0,
        "slot": "11",
        "type": "t_address"
      }
    ],
    "types": {
      "t_address": {
        "encoding": "inplace",
        "label": "address",
        "numberOfBytes": "20"
      },
      "t_bool": {
        "encoding": "inplace",
        "label": "bool",
        "numberOfBytes": "1"
      },
      "t_contract(IERC20)2447": {
        "encoding": "inplace",
        "label": "contract IERC20",
        "numberOfBytes": "20"
      },
      "t_enum(TokenType)16687": {
        "encoding": "inplace",
        "label": "enum Store.TokenType",
        "numberOfBytes": "1"
      },
      "t_mapping(t_address,t_bool)": {
        "encoding": "mapping",
        "key": "t_address",
        "label": "mapping(address => bool)",
        "numberOfBytes": "32",
        "value": "t_bool"
      },
      "t_mapping(t_address,t_uint256)": {
        "encoding": "mapping",
        "key": "t_address",
        "label": "mapping(address => uint256)",
        "numberOfBytes": "32",
        "value": "t_uint256"
      },
      "t_mapping(t_uint256,t_bool)": {
        "encoding": "mapping",
        "key": "t_uint256",
        "label": "mapping(uint256 => bool)",
        "numberOfBytes": "32",
        "value": "t_bool"
      },
      "t_mapping(t_uint256,t_struct(Listing)16701_storage)": {
        "encoding": "mapping",
        "key": "t_uint256",
        "label": "mapping(uint256 => struct Store.Listing)",
        "numberOfBytes": "32",
        "value": "t_struct(Listing)16701_storage"
      },
      "t_mapping(t_uint256,t_uint256)": {
        "encoding": "mapping",
        "key": "t_uint256",
        "label": "mapping(uint256 => uint256)",
        "numberOfBytes": "32",
        "value": "t_uint256"
      },
      "t_struct(Listing)16701_storage": {
        "encoding": "inplace",
        "label": "struct Store.Listing",
        "members": [
          {
            "astId": 16689,
            "contract": "contracts/store/Store.sol:Store",
            "label": "token",
            "offset": 0,
            "slot": "0",
            "type": "t_address"
          },
          {
            "astId": 16691,
            "contract": "contracts/store/Store.sol:Store",
            "label": "tokenId",
            "offset": 0,
            "slot": "1",
            "type": "t_uint256"
          },
          {
            "astId": 16693,
            "contract": "contracts/store/Store.sol:Store",
            "label": "owner",
            "offset": 0,
            "slot": "2",
            "type": "t_address"
          },
          {
            "astId": 16695,
            "contract": "contracts/store/Store.sol:Store",
            "label": "price",
            "offset": 0,
            "slot": "3",
            "type": "t_uint256"
          },
          {
            "astId": 16698,
            "contract": "contracts/store/Store.sol:Store",
            "label": "tokentype",
            "offset": 0,
            "slot": "4",
            "type": "t_enum(TokenType)16687"
          },
          {
            "astId": 16700,
            "contract": "contracts/store/Store.sol:Store",
            "label": "maxval",
            "offset": 0,
            "slot": "5",
            "type": "t_uint256"
          }
        ],
        "numberOfBytes": "192"
      },
      "t_uint256": {
        "encoding": "inplace",
        "label": "uint256",
        "numberOfBytes": "32"
      }
    }
  }
}